{
  "contractName": "AntiFraud",
  "abi": [
    {
      "inputs": [],
      "stateMutability": "nonpayable",
      "type": "constructor"
    },
    {
      "inputs": [
        {
          "internalType": "address",
          "name": "_userAdd",
          "type": "address"
        }
      ],
      "name": "getBalanceOf",
      "outputs": [
        {
          "internalType": "uint256",
          "name": "",
          "type": "uint256"
        }
      ],
      "stateMutability": "view",
      "type": "function",
      "constant": true
    },
    {
      "inputs": [
        {
          "internalType": "address",
          "name": "_from",
          "type": "address"
        },
        {
          "internalType": "address",
          "name": "_to",
          "type": "address"
        },
        {
          "internalType": "uint256",
          "name": "_val",
          "type": "uint256"
        }
      ],
      "name": "transfer",
      "outputs": [
        {
          "internalType": "bool",
          "name": "",
          "type": "bool"
        }
      ],
      "stateMutability": "nonpayable",
      "type": "function"
    },
    {
      "inputs": [
        {
          "internalType": "address",
          "name": "_policeUserAddress",
          "type": "address"
        }
      ],
      "name": "getPoliceUser",
      "outputs": [
        {
          "internalType": "uint256",
          "name": "",
          "type": "uint256"
        },
        {
          "internalType": "string",
          "name": "",
          "type": "string"
        },
        {
          "internalType": "string",
          "name": "",
          "type": "string"
        }
      ],
      "stateMutability": "view",
      "type": "function",
      "constant": true
    },
    {
      "inputs": [
        {
          "internalType": "string",
          "name": "_name",
          "type": "string"
        },
        {
          "internalType": "string",
          "name": "_avatarLink",
          "type": "string"
        }
      ],
      "name": "createPoliceUser",
      "outputs": [],
      "stateMutability": "nonpayable",
      "type": "function"
    },
    {
      "inputs": [
        {
          "internalType": "address",
          "name": "_civilUserAddress",
          "type": "address"
        }
      ],
      "name": "getCivilUser",
      "outputs": [
        {
          "internalType": "uint256",
          "name": "",
          "type": "uint256"
        },
        {
          "internalType": "string",
          "name": "",
          "type": "string"
        },
        {
          "internalType": "string",
          "name": "",
          "type": "string"
        }
      ],
      "stateMutability": "view",
      "type": "function",
      "constant": true
    },
    {
      "inputs": [
        {
          "internalType": "string",
          "name": "_name",
          "type": "string"
        },
        {
          "internalType": "string",
          "name": "_avatarLink",
          "type": "string"
        }
      ],
      "name": "createCivilUser",
      "outputs": [],
      "stateMutability": "nonpayable",
      "type": "function"
    },
    {
      "inputs": [
        {
          "internalType": "string[]",
          "name": "_screenshotLink",
          "type": "string[]"
        }
      ],
      "name": "postScreenshot",
      "outputs": [],
      "stateMutability": "nonpayable",
      "type": "function"
    },
    {
      "inputs": [],
      "name": "getScreenshotList",
      "outputs": [
        {
          "components": [
            {
              "internalType": "uint256",
              "name": "id",
              "type": "uint256"
            },
            {
              "internalType": "address",
              "name": "auditPoliceUser",
              "type": "address"
            },
            {
              "internalType": "string[]",
              "name": "screenshotLink",
              "type": "string[]"
            },
            {
              "internalType": "bool",
              "name": "isValid",
              "type": "bool"
            },
            {
              "internalType": "uint256",
              "name": "postTime",
              "type": "uint256"
            }
          ],
          "internalType": "struct AntiFraud.FraudScreenshot[]",
          "name": "",
          "type": "tuple[]"
        }
      ],
      "stateMutability": "view",
      "type": "function",
      "constant": true
    },
    {
      "inputs": [],
      "name": "getHistoryPost",
      "outputs": [
        {
          "components": [
            {
              "internalType": "uint256",
              "name": "id",
              "type": "uint256"
            },
            {
              "internalType": "address",
              "name": "auditPoliceUser",
              "type": "address"
            },
            {
              "internalType": "string[]",
              "name": "screenshotLink",
              "type": "string[]"
            },
            {
              "internalType": "bool",
              "name": "isValid",
              "type": "bool"
            },
            {
              "internalType": "uint256",
              "name": "postTime",
              "type": "uint256"
            }
          ],
          "internalType": "struct AntiFraud.FraudScreenshot[]",
          "name": "",
          "type": "tuple[]"
        }
      ],
      "stateMutability": "view",
      "type": "function",
      "constant": true
    },
    {
      "inputs": [],
      "name": "getHistoryAudit",
      "outputs": [
        {
          "components": [
            {
              "internalType": "uint256",
              "name": "id",
              "type": "uint256"
            },
            {
              "internalType": "address",
              "name": "auditPoliceUser",
              "type": "address"
            },
            {
              "internalType": "string[]",
              "name": "screenshotLink",
              "type": "string[]"
            },
            {
              "internalType": "bool",
              "name": "isValid",
              "type": "bool"
            },
            {
              "internalType": "uint256",
              "name": "postTime",
              "type": "uint256"
            }
          ],
          "internalType": "struct AntiFraud.FraudScreenshot[]",
          "name": "",
          "type": "tuple[]"
        }
      ],
      "stateMutability": "view",
      "type": "function",
      "constant": true
    },
    {
      "inputs": [
        {
          "internalType": "uint256",
          "name": "_screenshotIndex",
          "type": "uint256"
        },
        {
          "internalType": "bool",
          "name": "_isVaild",
          "type": "bool"
        }
      ],
      "name": "auditScreenshot",
      "outputs": [],
      "stateMutability": "nonpayable",
      "type": "function"
    },
    {
      "inputs": [
        {
          "internalType": "string",
          "name": "_title",
          "type": "string"
        },
        {
          "internalType": "string",
          "name": "_tag",
          "type": "string"
        },
        {
          "internalType": "string",
          "name": "_description",
          "type": "string"
        },
        {
          "internalType": "string[]",
          "name": "_caseImageLink",
          "type": "string[]"
        }
      ],
      "name": "postCase",
      "outputs": [],
      "stateMutability": "nonpayable",
      "type": "function"
    },
    {
      "inputs": [],
      "name": "getCase",
      "outputs": [
        {
          "components": [
            {
              "internalType": "uint256",
              "name": "id",
              "type": "uint256"
            },
            {
              "internalType": "string",
              "name": "title",
              "type": "string"
            },
            {
              "internalType": "string",
              "name": "tag",
              "type": "string"
            },
            {
              "internalType": "string",
              "name": "description",
              "type": "string"
            },
            {
              "internalType": "uint256",
              "name": "postTime",
              "type": "uint256"
            },
            {
              "internalType": "string[]",
              "name": "caseImageLink",
              "type": "string[]"
            },
            {
              "internalType": "uint256",
              "name": "state",
              "type": "uint256"
            }
          ],
          "internalType": "struct AntiFraud.FraudCase[]",
          "name": "",
          "type": "tuple[]"
        }
      ],
      "stateMutability": "view",
      "type": "function",
      "constant": true
    },
    {
      "inputs": [],
      "name": "getIsVoted",
      "outputs": [
        {
          "internalType": "bool",
          "name": "",
          "type": "bool"
        }
      ],
      "stateMutability": "view",
      "type": "function",
      "constant": true
    },
    {
      "inputs": [
        {
          "internalType": "uint256",
          "name": "_caseIndex",
          "type": "uint256"
        }
      ],
      "name": "getVoteCountOf",
      "outputs": [
        {
          "internalType": "int256",
          "name": "",
          "type": "int256"
        }
      ],
      "stateMutability": "view",
      "type": "function",
      "constant": true
    },
    {
      "inputs": [
        {
          "internalType": "uint256",
          "name": "_caseIndex",
          "type": "uint256"
        },
        {
          "internalType": "bool",
          "name": "isValid",
          "type": "bool"
        },
        {
          "internalType": "int256",
          "name": "_checkValue",
          "type": "int256"
        }
      ],
      "name": "vote",
      "outputs": [],
      "stateMutability": "nonpayable",
      "type": "function"
    },
    {
      "inputs": [
        {
          "internalType": "uint256",
          "name": "_caseIndex",
          "type": "uint256"
        },
        {
          "internalType": "bool",
          "name": "isValid",
          "type": "bool"
        }
      ],
      "name": "auditCase",
      "outputs": [],
      "stateMutability": "nonpayable",
      "type": "function"
    },
    {
      "inputs": [],
      "name": "getHistoryCaseAudit",
      "outputs": [
        {
          "components": [
            {
              "internalType": "uint256",
              "name": "id",
              "type": "uint256"
            },
            {
              "internalType": "string",
              "name": "title",
              "type": "string"
            },
            {
              "internalType": "string",
              "name": "tag",
              "type": "string"
            },
            {
              "internalType": "string",
              "name": "description",
              "type": "string"
            },
            {
              "internalType": "uint256",
              "name": "postTime",
              "type": "uint256"
            },
            {
              "internalType": "string[]",
              "name": "caseImageLink",
              "type": "string[]"
            },
            {
              "internalType": "uint256",
              "name": "state",
              "type": "uint256"
            }
          ],
          "internalType": "struct AntiFraud.FraudCase[]",
          "name": "",
          "type": "tuple[]"
        }
      ],
      "stateMutability": "view",
      "type": "function",
      "constant": true
    },
    {
      "inputs": [
        {
          "internalType": "string",
          "name": "_title",
          "type": "string"
        },
        {
          "internalType": "string",
          "name": "_description",
          "type": "string"
        },
        {
          "internalType": "string[]",
          "name": "_taskImageLink",
          "type": "string[]"
        },
        {
          "internalType": "bool",
          "name": "_isAnswerInRush",
          "type": "bool"
        }
      ],
      "name": "postTask",
      "outputs": [],
      "stateMutability": "nonpayable",
      "type": "function"
    },
    {
      "inputs": [],
      "name": "getTask",
      "outputs": [
        {
          "components": [
            {
              "internalType": "uint256",
              "name": "id",
              "type": "uint256"
            },
            {
              "internalType": "string",
              "name": "title",
              "type": "string"
            },
            {
              "internalType": "string",
              "name": "description",
              "type": "string"
            },
            {
              "internalType": "uint256",
              "name": "postTime",
              "type": "uint256"
            },
            {
              "internalType": "uint256",
              "name": "answerCount",
              "type": "uint256"
            },
            {
              "internalType": "bool",
              "name": "isSolved",
              "type": "bool"
            },
            {
              "internalType": "string[]",
              "name": "taskImageLink",
              "type": "string[]"
            },
            {
              "internalType": "bool",
              "name": "isAnswerInRush",
              "type": "bool"
            },
            {
              "internalType": "bool",
              "name": "isAccept",
              "type": "bool"
            }
          ],
          "internalType": "struct AntiFraud.Task[]",
          "name": "",
          "type": "tuple[]"
        }
      ],
      "stateMutability": "view",
      "type": "function",
      "constant": true
    },
    {
      "inputs": [
        {
          "internalType": "uint256",
          "name": "_taskIndex",
          "type": "uint256"
        }
      ],
      "name": "acceptTask",
      "outputs": [],
      "stateMutability": "nonpayable",
      "type": "function"
    },
    {
      "inputs": [
        {
          "internalType": "uint256",
          "name": "_taskIndex",
          "type": "uint256"
        },
        {
          "internalType": "string",
          "name": "_detail",
          "type": "string"
        }
      ],
      "name": "postTaskAnswer",
      "outputs": [],
      "stateMutability": "nonpayable",
      "type": "function"
    },
    {
      "inputs": [
        {
          "internalType": "uint256",
          "name": "_taskIndex",
          "type": "uint256"
        }
      ],
      "name": "getThisTaskAnswer",
      "outputs": [
        {
          "components": [
            {
              "internalType": "uint256",
              "name": "id",
              "type": "uint256"
            },
            {
              "internalType": "string",
              "name": "detail",
              "type": "string"
            },
            {
              "internalType": "uint256",
              "name": "postTime",
              "type": "uint256"
            },
            {
              "internalType": "address",
              "name": "answerAddress",
              "type": "address"
            }
          ],
          "internalType": "struct AntiFraud.TaskAnswer[]",
          "name": "",
          "type": "tuple[]"
        }
      ],
      "stateMutability": "view",
      "type": "function",
      "constant": true
    },
    {
      "inputs": [
        {
          "internalType": "uint256",
          "name": "_taskIndex",
          "type": "uint256"
        }
      ],
      "name": "taskFailed",
      "outputs": [],
      "stateMutability": "nonpayable",
      "type": "function"
    },
    {
      "inputs": [
        {
          "internalType": "uint256",
          "name": "_taskIndex",
          "type": "uint256"
        },
        {
          "internalType": "uint256",
          "name": "_answerIndex",
          "type": "uint256"
        },
        {
          "internalType": "bool",
          "name": "_isAdopt",
          "type": "bool"
        }
      ],
      "name": "taskCompelte",
      "outputs": [],
      "stateMutability": "nonpayable",
      "type": "function"
    },
    {
      "inputs": [
        {
          "internalType": "string",
          "name": "_title",
          "type": "string"
        },
        {
          "internalType": "string",
          "name": "_description",
          "type": "string"
        },
        {
          "internalType": "string",
          "name": "_tag",
          "type": "string"
        },
        {
          "internalType": "string[]",
          "name": "_imageLink",
          "type": "string[]"
        },
        {
          "internalType": "uint256",
          "name": "_reward",
          "type": "uint256"
        }
      ],
      "name": "createPosts",
      "outputs": [],
      "stateMutability": "nonpayable",
      "type": "function"
    },
    {
      "inputs": [],
      "name": "getPostsList",
      "outputs": [
        {
          "components": [
            {
              "internalType": "uint256",
              "name": "id",
              "type": "uint256"
            },
            {
              "internalType": "uint256",
              "name": "postTime",
              "type": "uint256"
            },
            {
              "internalType": "uint256",
              "name": "reward",
              "type": "uint256"
            },
            {
              "internalType": "uint256",
              "name": "replyCounts",
              "type": "uint256"
            },
            {
              "internalType": "string",
              "name": "title",
              "type": "string"
            },
            {
              "internalType": "string",
              "name": "description",
              "type": "string"
            },
            {
              "internalType": "string",
              "name": "tag",
              "type": "string"
            },
            {
              "internalType": "string[]",
              "name": "imageLink",
              "type": "string[]"
            },
            {
              "internalType": "address",
              "name": "postUserAdd",
              "type": "address"
            }
          ],
          "internalType": "struct AntiFraud.Posts[]",
          "name": "",
          "type": "tuple[]"
        }
      ],
      "stateMutability": "view",
      "type": "function",
      "constant": true
    },
    {
      "inputs": [
        {
          "internalType": "uint256",
          "name": "_postsIndex",
          "type": "uint256"
        },
        {
          "internalType": "string",
          "name": "_details",
          "type": "string"
        }
      ],
      "name": "createPostsReply",
      "outputs": [],
      "stateMutability": "nonpayable",
      "type": "function"
    },
    {
      "inputs": [
        {
          "internalType": "uint256",
          "name": "_postsIndex",
          "type": "uint256"
        }
      ],
      "name": "getThisPostsReply",
      "outputs": [
        {
          "components": [
            {
              "internalType": "uint256",
              "name": "postsId",
              "type": "uint256"
            },
            {
              "internalType": "uint256",
              "name": "floor",
              "type": "uint256"
            },
            {
              "internalType": "uint256",
              "name": "postTime",
              "type": "uint256"
            },
            {
              "internalType": "string",
              "name": "details",
              "type": "string"
            },
            {
              "internalType": "address",
              "name": "postUserAdd",
              "type": "address"
            }
          ],
          "internalType": "struct AntiFraud.PostsReply[]",
          "name": "",
          "type": "tuple[]"
        }
      ],
      "stateMutability": "view",
      "type": "function",
      "constant": true
    }
  ],
  "bytecode": "0x608060405234801561001057600080fd5b50606460008190555033600160006101000a81548173ffffffffffffffffffffffffffffffffffffffff021916908373ffffffffffffffffffffffffffffffffffffffff160217905550600054600260003373ffffffffffffffffffffffffffffffffffffffff1673ffffffffffffffffffffffffffffffffffffffff1681526020019081526020016000208190555060006003819055506000600481905550600060058190555060006006819055506000600781905550600060088190555061599180620000e06000396000f3fe608060405234801561001057600080fd5b50600436106101cf5760003560e01c80637cbab9a511610104578063beabacc8116100a2578063ec32dbcc11610071578063ec32dbcc1461052c578063f4b75ffb1461054a578063f8993a0414610566578063fa2970ea14610584576101cf565b8063beabacc814610492578063d2e3ada5146104c2578063e6ba4be9146104de578063e7844a0f14610510576101cf565b8063a31662d2116100de578063a31662d21461041e578063b69607d31461043c578063bd25460114610458578063be9293c614610476576101cf565b80637cbab9a5146103b6578063978b3e27146103d25780639b96eece146103ee576101cf565b8063452a4cdc116101715780635429972f1161014b5780635429972f1461031e5780635da131f71461034e5780635e4e6e881461036a5780636e1d80d714610386576101cf565b8063452a4cdc146102c6578063480daedd146102e45780634924133f14610302576101cf565b8063313b3043116101ad578063313b30431461023e57806331c89ff11461025c5780633d9536ef1461028c578063407de8e4146102aa576101cf565b80630421cc33146101d45780631bf6912d146102065780632f9fe55214610222575b600080fd5b6101ee60048036038101906101e99190614309565b6105a0565b6040516101fd9392919061535f565b60405180910390f35b610220600480360381019061021b9190614673565b610786565b005b61023c600480360381019061023791906144d9565b610855565b005b610246610abd565b60405161025391906151e8565b60405180910390f35b61027660048036038101906102719190614673565b610ed7565b6040516102839190615269565b60405180910390f35b610294610f39565b6040516102a19190615182565b60405180910390f35b6102c460048036038101906102bf919061459c565b611282565b005b6102ce61142f565b6040516102db91906151a4565b60405180910390f35b6102ec611629565b6040516102f99190615182565b60405180910390f35b61031c600480360381019061031791906146d8565b6119e2565b005b61033860048036038101906103339190614673565b611b7f565b60405161034591906151c6565b60405180910390f35b61036860048036038101906103639190614673565b611e46565b005b610384600480360381019061037f91906143c2565b611e97565b005b6103a0600480360381019061039b9190614673565b611f2e565b6040516103ad919061520a565b60405180910390f35b6103d060048036038101906103cb919061442e565b6121eb565b005b6103ec60048036038101906103e791906143c2565b612505565b005b61040860048036038101906104039190614309565b61259c565b6040516104159190615344565b60405180910390f35b6104266125ae565b604051610433919061522c565b60405180910390f35b61045660048036038101906104519190614727565b612927565b005b610460612a7c565b60405161046d91906151a4565b60405180910390f35b610490600480360381019061048b919061469c565b612c76565b005b6104ac60048036038101906104a79190614332565b612f16565b6040516104b9919061524e565b60405180910390f35b6104dc60048036038101906104d7919061477b565b612f2c565b005b6104f860048036038101906104f39190614309565b6130f6565b6040516105079392919061535f565b60405180910390f35b61052a6004803603810190610525919061469c565b6132dc565b005b61053461350c565b60405161054191906151a4565b60405180910390f35b610564600480360381019061055f9190614727565b613776565b005b61056e6138b7565b60405161057b919061524e565b60405180910390f35b61059e60048036038101906105999190614381565b61390b565b005b60006060806000600960008673ffffffffffffffffffffffffffffffffffffffff1673ffffffffffffffffffffffffffffffffffffffff1681526020019081526020016000206040518060600160405290816000820154815260200160018201805461060b90615754565b80601f016020809104026020016040519081016040528092919081815260200182805461063790615754565b80156106845780601f1061065957610100808354040283529160200191610684565b820191906000526020600020905b81548152906001019060200180831161066757829003601f168201915b5050505050815260200160028201805461069d90615754565b80601f01602080910402602001604051908101604052809291908181526020018280546106c990615754565b80156107165780601f106106eb57610100808354040283529160200191610716565b820191906000526020600020905b8154815290600101906020018083116106f957829003601f168201915b5050505050815250509050600081600001511415610769576040517f08c379a0000000000000000000000000000000000000000000000000000000008152600401610760906152e4565b60405180910390fd5b806000015181602001518260400151935093509350509193909250565b60016017600083815260200190815260200160002060070160016101000a81548160ff02191690831515021790555060016017600083815260200190815260200160002060040181905550336018600083815260200190815260200160002060006101000a81548173ffffffffffffffffffffffffffffffffffffffff021916908373ffffffffffffffffffffffffffffffffffffffff16021790555061085133600160009054906101000a900473ffffffffffffffffffffffffffffffffffffffff166002613ba0565b5050565b61085d613daf565b60065481600001818152505042816080018181525050848160200181905250838160400181905250828160600181905250818160a0018190525060018160c001818152505033600f6000600654815260200190815260200160002060006101000a81548173ffffffffffffffffffffffffffffffffffffffff021916908373ffffffffffffffffffffffffffffffffffffffff160217905550601060003373ffffffffffffffffffffffffffffffffffffffff1673ffffffffffffffffffffffffffffffffffffffff168152602001908152602001600020819080600181540180825580915050600190039060005260206000209060070201600090919091909150600082015181600001556020820151816001019080519060200190610985929190613dec565b5060408201518160020190805190602001906109a2929190613dec565b5060608201518160030190805190602001906109bf929190613dec565b506080820151816004015560a08201518160050190805190602001906109e6929190613e72565b5060c08201518160060155505080601260006006548152602001908152602001600020600082015181600001556020820151816001019080519060200190610a2f929190613dec565b506040820151816002019080519060200190610a4c929190613dec565b506060820151816003019080519060200190610a69929190613dec565b506080820151816004015560a0820151816005019080519060200190610a90929190613e72565b5060c0820151816006015590505060066000815480929190610ab1906157cf565b91905055505050505050565b6060600060085467ffffffffffffffff811115610b03577f4e487b7100000000000000000000000000000000000000000000000000000000600052604160045260246000fd5b604051908082528060200260200182016040528015610b3c57816020015b610b29613ed2565b815260200190600190039081610b215790505b50905060005b600854811015610ecf57601a60008281526020019081526020016000206040518061012001604052908160008201548152602001600182015481526020016002820154815260200160038201548152602001600482018054610ba390615754565b80601f0160208091040260200160405190810160405280929190818152602001828054610bcf90615754565b8015610c1c5780601f10610bf157610100808354040283529160200191610c1c565b820191906000526020600020905b815481529060010190602001808311610bff57829003601f168201915b50505050508152602001600582018054610c3590615754565b80601f0160208091040260200160405190810160405280929190818152602001828054610c6190615754565b8015610cae5780601f10610c8357610100808354040283529160200191610cae565b820191906000526020600020905b815481529060010190602001808311610c9157829003601f168201915b50505050508152602001600682018054610cc790615754565b80601f0160208091040260200160405190810160405280929190818152602001828054610cf390615754565b8015610d405780601f10610d1557610100808354040283529160200191610d40565b820191906000526020600020905b815481529060010190602001808311610d2357829003601f168201915b5050505050815260200160078201805480602002602001604051908101604052809291908181526020016000905b82821015610e1a578382906000526020600020018054610d8d90615754565b80601f0160208091040260200160405190810160405280929190818152602001828054610db990615754565b8015610e065780601f10610ddb57610100808354040283529160200191610e06565b820191906000526020600020905b815481529060010190602001808311610de957829003601f168201915b505050505081526020019060010190610d6e565b5050505081526020016008820160009054906101000a900473ffffffffffffffffffffffffffffffffffffffff1673ffffffffffffffffffffffffffffffffffffffff1673ffffffffffffffffffffffffffffffffffffffff1681525050828281518110610eb1577f4e487b7100000000000000000000000000000000000000000000000000000000600052603260045260246000fd5b60200260200101819052508080610ec7906157cf565b915050610b42565b508091505090565b6000600654821115610f1e576040517f08c379a0000000000000000000000000000000000000000000000000000000008152600401610f1590615304565b60405180910390fd5b60136000838152602001908152602001600020549050919050565b6060601160003373ffffffffffffffffffffffffffffffffffffffff1673ffffffffffffffffffffffffffffffffffffffff168152602001908152602001600020805480602002602001604051908101604052809291908181526020016000905b8282101561127957838290600052602060002090600702016040518060e001604052908160008201548152602001600182018054610fd790615754565b80601f016020809104026020016040519081016040528092919081815260200182805461100390615754565b80156110505780601f1061102557610100808354040283529160200191611050565b820191906000526020600020905b81548152906001019060200180831161103357829003601f168201915b5050505050815260200160028201805461106990615754565b80601f016020809104026020016040519081016040528092919081815260200182805461109590615754565b80156110e25780601f106110b7576101008083540402835291602001916110e2565b820191906000526020600020905b8154815290600101906020018083116110c557829003601f168201915b505050505081526020016003820180546110fb90615754565b80601f016020809104026020016040519081016040528092919081815260200182805461112790615754565b80156111745780601f1061114957610100808354040283529160200191611174565b820191906000526020600020905b81548152906001019060200180831161115757829003601f168201915b505050505081526020016004820154815260200160058201805480602002602001604051908101604052809291908181526020016000905b828210156112585783829060005260206000200180546111cb90615754565b80601f01602080910402602001604051908101604052809291908181526020018280546111f790615754565b80156112445780601f1061121957610100808354040283529160200191611244565b820191906000526020600020905b81548152906001019060200180831161122757829003601f168201915b5050505050815260200190600101906111ac565b50505050815260200160068201548152505081526020019060010190610f9a565b50505050905090565b61128a613ed2565b60085481600001818152505042816020018181525050818160400181815250506000816060018181525050858160800181905250848160a00181905250838160c00181905250828160e001819052503381610100019073ffffffffffffffffffffffffffffffffffffffff16908173ffffffffffffffffffffffffffffffffffffffff168152505080601a6000600354815260200190815260200160002060008201518160000155602082015181600101556040820151816002015560608201518160030155608082015181600401908051906020019061136c929190613dec565b5060a0820151816005019080519060200190611389929190613dec565b5060c08201518160060190805190602001906113a6929190613dec565b5060e08201518160070190805190602001906113c3929190613e72565b506101008201518160080160006101000a81548173ffffffffffffffffffffffffffffffffffffffff021916908373ffffffffffffffffffffffffffffffffffffffff16021790555090505060086000815480929190611422906157cf565b9190505550505050505050565b6060600d60003373ffffffffffffffffffffffffffffffffffffffff1673ffffffffffffffffffffffffffffffffffffffff168152602001908152602001600020805480602002602001604051908101604052809291908181526020016000905b8282101561162057838290600052602060002090600502016040518060a0016040529081600082015481526020016001820160009054906101000a900473ffffffffffffffffffffffffffffffffffffffff1673ffffffffffffffffffffffffffffffffffffffff1673ffffffffffffffffffffffffffffffffffffffff16815260200160028201805480602002602001604051908101604052809291908181526020016000905b828210156115e457838290600052602060002001805461155790615754565b80601f016020809104026020016040519081016040528092919081815260200182805461158390615754565b80156115d05780601f106115a5576101008083540402835291602001916115d0565b820191906000526020600020905b8154815290600101906020018083116115b357829003601f168201915b505050505081526020019060010190611538565b5050505081526020016003820160009054906101000a900460ff1615151515815260200160048201548152505081526020019060010190611490565b50505050905090565b6060600060065467ffffffffffffffff81111561166f577f4e487b7100000000000000000000000000000000000000000000000000000000600052604160045260246000fd5b6040519080825280602002602001820160405280156116a857816020015b611695613daf565b81526020019060019003908161168d5790505b50905060005b6006548110156119da57601260008281526020019081526020016000206040518060e0016040529081600082015481526020016001820180546116f090615754565b80601f016020809104026020016040519081016040528092919081815260200182805461171c90615754565b80156117695780601f1061173e57610100808354040283529160200191611769565b820191906000526020600020905b81548152906001019060200180831161174c57829003601f168201915b5050505050815260200160028201805461178290615754565b80601f01602080910402602001604051908101604052809291908181526020018280546117ae90615754565b80156117fb5780601f106117d0576101008083540402835291602001916117fb565b820191906000526020600020905b8154815290600101906020018083116117de57829003601f168201915b5050505050815260200160038201805461181490615754565b80601f016020809104026020016040519081016040528092919081815260200182805461184090615754565b801561188d5780601f106118625761010080835404028352916020019161188d565b820191906000526020600020905b81548152906001019060200180831161187057829003601f168201915b505050505081526020016004820154815260200160058201805480602002602001604051908101604052809291908181526020016000905b828210156119715783829060005260206000200180546118e490615754565b80601f016020809104026020016040519081016040528092919081815260200182805461191090615754565b801561195d5780601f106119325761010080835404028352916020019161195d565b820191906000526020600020905b81548152906001019060200180831161194057829003601f168201915b5050505050815260200190600101906118c5565b5050505081526020016006820154815250508282815181106119bc577f4e487b7100000000000000000000000000000000000000000000000000000000600052603260045260246000fd5b602002602001018190525080806119d2906157cf565b9150506116ae565b508091505090565b60001515601460003373ffffffffffffffffffffffffffffffffffffffff1673ffffffffffffffffffffffffffffffffffffffff16815260200190815260200160002060009054906101000a900460ff16151514611a75576040517f08c379a0000000000000000000000000000000000000000000000000000000008152600401611a6c906152a4565b60405180910390fd5b600654831115611aba576040517f08c379a0000000000000000000000000000000000000000000000000000000008152600401611ab190615304565b60405180910390fd5b6001601460003373ffffffffffffffffffffffffffffffffffffffff1673ffffffffffffffffffffffffffffffffffffffff16815260200190815260200160002060006101000a81548160ff0219169083151502179055508115611b4657601360008481526020019081526020016000206000815480929190611b3c90615786565b9190505550611b70565b601360008481526020019081526020016000206000815480929190611b6a9061570b565b91905055505b611b7a8184613ca9565b505050565b6060600854821115611bc6576040517f08c379a0000000000000000000000000000000000000000000000000000000008152600401611bbd906152c4565b60405180910390fd5b6000601a60008481526020019081526020016000206003015467ffffffffffffffff811115611c1e577f4e487b7100000000000000000000000000000000000000000000000000000000600052604160045260246000fd5b604051908082528060200260200182016040528015611c5757816020015b611c44613f34565b815260200190600190039081611c3c5790505b50905060005b601a600085815260200190815260200160002060030154811015611e3c57601b60008581526020019081526020016000208181548110611cc6577f4e487b7100000000000000000000000000000000000000000000000000000000600052603260045260246000fd5b90600052602060002090600502016040518060a0016040529081600082015481526020016001820154815260200160028201548152602001600382018054611d0d90615754565b80601f0160208091040260200160405190810160405280929190818152602001828054611d3990615754565b8015611d865780601f10611d5b57610100808354040283529160200191611d86565b820191906000526020600020905b815481529060010190602001808311611d6957829003601f168201915b505050505081526020016004820160009054906101000a900473ffffffffffffffffffffffffffffffffffffffff1673ffffffffffffffffffffffffffffffffffffffff1673ffffffffffffffffffffffffffffffffffffffff1681525050828281518110611e1e577f4e487b7100000000000000000000000000000000000000000000000000000000600052603260045260246000fd5b60200260200101819052508080611e34906157cf565b915050611c5d565b5080915050919050565b600754811115611e8b576040517f08c379a0000000000000000000000000000000000000000000000000000000008152600401611e8290615324565b60405180910390fd5b611e9481613d34565b50565b6000600960003373ffffffffffffffffffffffffffffffffffffffff1673ffffffffffffffffffffffffffffffffffffffff1681526020019081526020016000209050600360008154611ee9906157cf565b919050819055816000018190555082816001019080519060200190611f0f929190613dec565b5081816002019080519060200190611f28929190613dec565b50505050565b6060600754821115611f75576040517f08c379a0000000000000000000000000000000000000000000000000000000008152600401611f6c90615324565b60405180910390fd5b6000601760008481526020019081526020016000206004015467ffffffffffffffff811115611fcd577f4e487b7100000000000000000000000000000000000000000000000000000000600052604160045260246000fd5b60405190808252806020026020018201604052801561200657816020015b611ff3613f79565b815260200190600190039081611feb5790505b50905060005b60176000858152602001908152602001600020600401548110156121e157601960008581526020019081526020016000208181548110612075577f4e487b7100000000000000000000000000000000000000000000000000000000600052603260045260246000fd5b9060005260206000209060040201604051806080016040529081600082015481526020016001820180546120a890615754565b80601f01602080910402602001604051908101604052809291908181526020018280546120d490615754565b80156121215780601f106120f657610100808354040283529160200191612121565b820191906000526020600020905b81548152906001019060200180831161210457829003601f168201915b50505050508152602001600282015481526020016003820160009054906101000a900473ffffffffffffffffffffffffffffffffffffffff1673ffffffffffffffffffffffffffffffffffffffff1673ffffffffffffffffffffffffffffffffffffffff16815250508282815181106121c3577f4e487b7100000000000000000000000000000000000000000000000000000000600052603260045260246000fd5b602002602001018190525080806121d9906157cf565b91505061200c565b5080915050919050565b6121f3613fb7565b600754816000018181525050428160600181815250508481602001819052508381604001819052506000816080018181525050828160c0018190525060008160a0019015159081151581525050818160e00190151590811515815250506000816101000190151590811515815250503360156000600754815260200190815260200160002060006101000a81548173ffffffffffffffffffffffffffffffffffffffff021916908373ffffffffffffffffffffffffffffffffffffffff160217905550601660003373ffffffffffffffffffffffffffffffffffffffff1673ffffffffffffffffffffffffffffffffffffffff168152602001908152602001600020819080600181540180825580915050600190039060005260206000209060080201600090919091909150600082015181600001556020820151816001019080519060200190612345929190613dec565b506040820151816002019080519060200190612362929190613dec565b50606082015181600301556080820151816004015560a08201518160050160006101000a81548160ff02191690831515021790555060c08201518160060190805190602001906123b3929190613e72565b5060e08201518160070160006101000a81548160ff0219169083151502179055506101008201518160070160016101000a81548160ff021916908315150217905550505080601760006007548152602001908152602001600020600082015181600001556020820151816001019080519060200190612433929190613dec565b506040820151816002019080519060200190612450929190613dec565b50606082015181600301556080820151816004015560a08201518160050160006101000a81548160ff02191690831515021790555060c08201518160060190805190602001906124a1929190613e72565b5060e08201518160070160006101000a81548160ff0219169083151502179055506101008201518160070160016101000a81548160ff021916908315150217905550905050600760008154809291906124f9906157cf565b91905055505050505050565b6000600a60003373ffffffffffffffffffffffffffffffffffffffff1673ffffffffffffffffffffffffffffffffffffffff1681526020019081526020016000209050600460008154612557906157cf565b91905081905581600001819055508281600101908051906020019061257d929190613dec565b5081816002019080519060200190612596929190613dec565b50505050565b60006125a782613d66565b9050919050565b6060600060075467ffffffffffffffff8111156125f4577f4e487b7100000000000000000000000000000000000000000000000000000000600052604160045260246000fd5b60405190808252806020026020018201604052801561262d57816020015b61261a613fb7565b8152602001906001900390816126125790505b50905060005b60075481101561291f5760176000828152602001908152602001600020604051806101200160405290816000820154815260200160018201805461267690615754565b80601f01602080910402602001604051908101604052809291908181526020018280546126a290615754565b80156126ef5780601f106126c4576101008083540402835291602001916126ef565b820191906000526020600020905b8154815290600101906020018083116126d257829003601f168201915b5050505050815260200160028201805461270890615754565b80601f016020809104026020016040519081016040528092919081815260200182805461273490615754565b80156127815780601f1061275657610100808354040283529160200191612781565b820191906000526020600020905b81548152906001019060200180831161276457829003601f168201915b5050505050815260200160038201548152602001600482015481526020016005820160009054906101000a900460ff1615151515815260200160068201805480602002602001604051908101604052809291908181526020016000905b8282101561288a5783829060005260206000200180546127fd90615754565b80601f016020809104026020016040519081016040528092919081815260200182805461282990615754565b80156128765780601f1061284b57610100808354040283529160200191612876565b820191906000526020600020905b81548152906001019060200180831161285957829003601f168201915b5050505050815260200190600101906127de565b5050505081526020016007820160009054906101000a900460ff161515151581526020016007820160019054906101000a900460ff161515151581525050828281518110612901577f4e487b7100000000000000000000000000000000000000000000000000000000600052603260045260246000fd5b60200260200101819052508080612917906157cf565b915050612633565b508091505090565b61292f613f34565b82816000018181525050601a60008481526020019081526020016000206003016000815461295c906157cf565b9190508190558160200181815250504281604001818152505081816060018190525033816080019073ffffffffffffffffffffffffffffffffffffffff16908173ffffffffffffffffffffffffffffffffffffffff1681525050601b60008481526020019081526020016000208190806001815401808255809150506001900390600052602060002090600502016000909190919091506000820151816000015560208201518160010155604082015181600201556060820151816003019080519060200190612a2d929190613dec565b5060808201518160040160006101000a81548173ffffffffffffffffffffffffffffffffffffffff021916908373ffffffffffffffffffffffffffffffffffffffff1602179055505050505050565b6060600c60003373ffffffffffffffffffffffffffffffffffffffff1673ffffffffffffffffffffffffffffffffffffffff168152602001908152602001600020805480602002602001604051908101604052809291908181526020016000905b82821015612c6d57838290600052602060002090600502016040518060a0016040529081600082015481526020016001820160009054906101000a900473ffffffffffffffffffffffffffffffffffffffff1673ffffffffffffffffffffffffffffffffffffffff1673ffffffffffffffffffffffffffffffffffffffff16815260200160028201805480602002602001604051908101604052809291908181526020016000905b82821015612c31578382906000526020600020018054612ba490615754565b80601f0160208091040260200160405190810160405280929190818152602001828054612bd090615754565b8015612c1d5780601f10612bf257610100808354040283529160200191612c1d565b820191906000526020600020905b815481529060010190602001808311612c0057829003601f168201915b505050505081526020019060010190612b85565b5050505081526020016003820160009054906101000a900460ff1615151515815260200160048201548152505081526020019060010190612add565b50505050905090565b600554821115612cbb576040517f08c379a0000000000000000000000000000000000000000000000000000000008152600401612cb290615284565b60405180910390fd5b80600e600084815260200190815260200160002060030160006101000a81548160ff02191690831515021790555033600e600084815260200190815260200160002060010160006101000a81548173ffffffffffffffffffffffffffffffffffffffff021916908373ffffffffffffffffffffffffffffffffffffffff160217905550600d60003373ffffffffffffffffffffffffffffffffffffffff1673ffffffffffffffffffffffffffffffffffffffff168152602001908152602001600020600e60008481526020019081526020016000209080600181540180825580915050600190039060005260206000209060050201600090919091909150600082015481600001556001820160009054906101000a900473ffffffffffffffffffffffffffffffffffffffff168160010160006101000a81548173ffffffffffffffffffffffffffffffffffffffff021916908373ffffffffffffffffffffffffffffffffffffffff1602179055506002820181600201908054612e40929190614009565b506003820160009054906101000a900460ff168160030160006101000a81548160ff021916908315150217905550600482015481600401555050612ea8600160009054906101000a900473ffffffffffffffffffffffffffffffffffffffff16336001613ba0565b508015612f1257612f10600160009054906101000a900473ffffffffffffffffffffffffffffffffffffffff16600b600085815260200190815260200160002060009054906101000a900473ffffffffffffffffffffffffffffffffffffffff166005613ba0565b505b5050565b6000612f23848484613ba0565b90509392505050565b600754831115612f71576040517f08c379a0000000000000000000000000000000000000000000000000000000008152600401612f6890615324565b60405180910390fd5b80156130e75760016017600085815260200190815260200160002060050160006101000a81548160ff0219169083151502179055506017600084815260200190815260200160002060070160009054906101000a900460ff161561303657613030600160009054906101000a900473ffffffffffffffffffffffffffffffffffffffff166018600086815260200190815260200160002060009054906101000a900473ffffffffffffffffffffffffffffffffffffffff16600c613ba0565b506130e2565b6130e0600160009054906101000a900473ffffffffffffffffffffffffffffffffffffffff166019600086815260200190815260200160002084815481106130a7577f4e487b7100000000000000000000000000000000000000000000000000000000600052603260045260246000fd5b906000526020600020906004020160030160009054906101000a900473ffffffffffffffffffffffffffffffffffffffff16600a613ba0565b505b6130f1565b6130f083613d34565b5b505050565b60006060806000600a60008673ffffffffffffffffffffffffffffffffffffffff1673ffffffffffffffffffffffffffffffffffffffff1681526020019081526020016000206040518060600160405290816000820154815260200160018201805461316190615754565b80601f016020809104026020016040519081016040528092919081815260200182805461318d90615754565b80156131da5780601f106131af576101008083540402835291602001916131da565b820191906000526020600020905b8154815290600101906020018083116131bd57829003601f168201915b505050505081526020016002820180546131f390615754565b80601f016020809104026020016040519081016040528092919081815260200182805461321f90615754565b801561326c5780601f106132415761010080835404028352916020019161326c565b820191906000526020600020905b81548152906001019060200180831161324f57829003601f168201915b50505050508152505090506000816000015114156132bf576040517f08c379a00000000000000000000000000000000000000000000000000000000081526004016132b6906152e4565b60405180910390fd5b806000015181602001518260400151935093509350509193909250565b600654821115613321576040517f08c379a000000000000000000000000000000000000000000000000000000000815260040161331890615304565b60405180910390fd5b80156133aa57600460126000848152602001908152602001600020600601819055506133a4600160009054906101000a900473ffffffffffffffffffffffffffffffffffffffff16600f600085815260200190815260200160002060009054906101000a900473ffffffffffffffffffffffffffffffffffffffff16600a613ba0565b506133c7565b600060126000848152602001908152602001600020600601819055505b601160003373ffffffffffffffffffffffffffffffffffffffff1673ffffffffffffffffffffffffffffffffffffffff16815260200190815260200160002060126000848152602001908152602001600020908060018154018082558091505060019003906000526020600020906007020160009091909190915060008201548160000155600182018160010190805461346090615754565b61346b929190614071565b50600282018160020190805461348090615754565b61348b929190614071565b5060038201816003019080546134a090615754565b6134ab929190614071565b506004820154816004015560058201816005019080546134cc929190614009565b50600682015481600601555050613507600160009054906101000a900473ffffffffffffffffffffffffffffffffffffffff16336001613ba0565b505050565b6060600060055467ffffffffffffffff811115613552577f4e487b7100000000000000000000000000000000000000000000000000000000600052604160045260246000fd5b60405190808252806020026020018201604052801561358b57816020015b6135786140fe565b8152602001906001900390816135705790505b50905060005b60055481101561376e57600e60008281526020019081526020016000206040518060a0016040529081600082015481526020016001820160009054906101000a900473ffffffffffffffffffffffffffffffffffffffff1673ffffffffffffffffffffffffffffffffffffffff1673ffffffffffffffffffffffffffffffffffffffff16815260200160028201805480602002602001604051908101604052809291908181526020016000905b828210156136ea57838290600052602060002001805461365d90615754565b80601f016020809104026020016040519081016040528092919081815260200182805461368990615754565b80156136d65780601f106136ab576101008083540402835291602001916136d6565b820191906000526020600020905b8154815290600101906020018083116136b957829003601f168201915b50505050508152602001906001019061363e565b5050505081526020016003820160009054906101000a900460ff16151515158152602001600482015481525050828281518110613750577f4e487b7100000000000000000000000000000000000000000000000000000000600052603260045260246000fd5b60200260200101819052508080613766906157cf565b915050613591565b508091505090565b61377e613f79565b60176000848152602001908152602001600020600401600081546137a1906157cf565b9190508190558160000181815250508181602001819052504281604001818152505033816060019073ffffffffffffffffffffffffffffffffffffffff16908173ffffffffffffffffffffffffffffffffffffffff16815250506019600084815260200190815260200160002081908060018154018082558091505060019003906000526020600020906004020160009091909190915060008201518160000155602082015181600101908051906020019061385e929190613dec565b506040820151816002015560608201518160030160006101000a81548173ffffffffffffffffffffffffffffffffffffffff021916908373ffffffffffffffffffffffffffffffffffffffff1602179055505050505050565b6000601460003373ffffffffffffffffffffffffffffffffffffffff1673ffffffffffffffffffffffffffffffffffffffff16815260200190815260200160002060009054906101000a900460ff16905090565b33600b6000600554815260200190815260200160002060006101000a81548173ffffffffffffffffffffffffffffffffffffffff021916908373ffffffffffffffffffffffffffffffffffffffff1602179055506139676140fe565b6005548160000181815250506000816020019073ffffffffffffffffffffffffffffffffffffffff16908173ffffffffffffffffffffffffffffffffffffffff1681525050428160800181815250508181604001819052506000816060019015159081151581525050600c60003373ffffffffffffffffffffffffffffffffffffffff1673ffffffffffffffffffffffffffffffffffffffff1681526020019081526020016000208190806001815401808255809150506001900390600052602060002090600502016000909190919091506000820151816000015560208201518160010160006101000a81548173ffffffffffffffffffffffffffffffffffffffff021916908373ffffffffffffffffffffffffffffffffffffffff1602179055506040820151816002019080519060200190613aa6929190613e72565b5060608201518160030160006101000a81548160ff02191690831515021790555060808201518160040155505080600e600060055481526020019081526020016000206000820151816000015560208201518160010160006101000a81548173ffffffffffffffffffffffffffffffffffffffff021916908373ffffffffffffffffffffffffffffffffffffffff1602179055506040820151816002019080519060200190613b56929190613e72565b5060608201518160030160006101000a81548160ff0219169083151502179055506080820151816004015590505060056000815480929190613b97906157cf565b91905055505050565b6000806000905082600260008773ffffffffffffffffffffffffffffffffffffffff1673ffffffffffffffffffffffffffffffffffffffff1681526020019081526020016000205410613c9e5782600260008773ffffffffffffffffffffffffffffffffffffffff1673ffffffffffffffffffffffffffffffffffffffff1681526020019081526020016000206000828254613c3c9190615643565b9250508190555082600260008673ffffffffffffffffffffffffffffffffffffffff1673ffffffffffffffffffffffffffffffffffffffff1681526020019081526020016000206000828254613c9291906155ed565b92505081905550600190505b809150509392505050565b600060136000838152602001908152602001600020549050600083821315613cd45760049050613d13565b83613cde90615818565b821215613cee5760009050613d12565b600082138015613cfe5750838213155b15613d0c5760029050613d11565b600390505b5b5b80601260008581526020019081526020016000206006018190555050505050565b60006017600083815260200190815260200160002060070160016101000a81548160ff02191690831515021790555050565b6000600260008373ffffffffffffffffffffffffffffffffffffffff1673ffffffffffffffffffffffffffffffffffffffff168152602001908152602001600020549050919050565b6040518060e00160405280600081526020016060815260200160608152602001606081526020016000815260200160608152602001600081525090565b828054613df890615754565b90600052602060002090601f016020900481019282613e1a5760008555613e61565b82601f10613e3357805160ff1916838001178555613e61565b82800160010185558215613e61579182015b82811115613e60578251825591602001919060010190613e45565b5b509050613e6e9190614145565b5090565b828054828255906000526020600020908101928215613ec1579160200282015b82811115613ec0578251829080519060200190613eb0929190613dec565b5091602001919060010190613e92565b5b509050613ece9190614162565b5090565b6040518061012001604052806000815260200160008152602001600081526020016000815260200160608152602001606081526020016060815260200160608152602001600073ffffffffffffffffffffffffffffffffffffffff1681525090565b6040518060a0016040528060008152602001600081526020016000815260200160608152602001600073ffffffffffffffffffffffffffffffffffffffff1681525090565b6040518060800160405280600081526020016060815260200160008152602001600073ffffffffffffffffffffffffffffffffffffffff1681525090565b6040518061012001604052806000815260200160608152602001606081526020016000815260200160008152602001600015158152602001606081526020016000151581526020016000151581525090565b8280548282559060005260206000209081019282156140605760005260206000209182015b8281111561405f57828290805461404490615754565b61404f929190614071565b509160010191906001019061402e565b5b50905061406d9190614162565b5090565b82805461407d90615754565b90600052602060002090601f01602090048101928261409f57600085556140ed565b82601f106140b057805485556140ed565b828001600101855582156140ed57600052602060002091601f016020900482015b828111156140ec5782548255916001019190600101906140d1565b5b5090506140fa9190614145565b5090565b6040518060a0016040528060008152602001600073ffffffffffffffffffffffffffffffffffffffff16815260200160608152602001600015158152602001600081525090565b5b8082111561415e576000816000905550600101614146565b5090565b5b8082111561418257600081816141799190614186565b50600101614163565b5090565b50805461419290615754565b6000825580601f106141a457506141c3565b601f0160209004906000526020600020908101906141c29190614145565b5b50565b60006141d96141d4846153d5565b6153a4565b9050808382526020820190508260005b8581101561421957813585016141ff88826142ca565b8452602084019350602083019250506001810190506141e9565b5050509392505050565b600061423661423184615401565b6153a4565b90508281526020810184848401111561424e57600080fd5b6142598482856156c9565b509392505050565b600081359050614270816158ff565b92915050565b600082601f83011261428757600080fd5b81356142978482602086016141c6565b91505092915050565b6000813590506142af81615916565b92915050565b6000813590506142c48161592d565b92915050565b600082601f8301126142db57600080fd5b81356142eb848260208601614223565b91505092915050565b60008135905061430381615944565b92915050565b60006020828403121561431b57600080fd5b600061432984828501614261565b91505092915050565b60008060006060848603121561434757600080fd5b600061435586828701614261565b935050602061436686828701614261565b9250506040614377868287016142f4565b9150509250925092565b60006020828403121561439357600080fd5b600082013567ffffffffffffffff8111156143ad57600080fd5b6143b984828501614276565b91505092915050565b600080604083850312156143d557600080fd5b600083013567ffffffffffffffff8111156143ef57600080fd5b6143fb858286016142ca565b925050602083013567ffffffffffffffff81111561441857600080fd5b614424858286016142ca565b9150509250929050565b6000806000806080858703121561444457600080fd5b600085013567ffffffffffffffff81111561445e57600080fd5b61446a878288016142ca565b945050602085013567ffffffffffffffff81111561448757600080fd5b614493878288016142ca565b935050604085013567ffffffffffffffff8111156144b057600080fd5b6144bc87828801614276565b92505060606144cd878288016142a0565b91505092959194509250565b600080600080608085870312156144ef57600080fd5b600085013567ffffffffffffffff81111561450957600080fd5b614515878288016142ca565b945050602085013567ffffffffffffffff81111561453257600080fd5b61453e878288016142ca565b935050604085013567ffffffffffffffff81111561455b57600080fd5b614567878288016142ca565b925050606085013567ffffffffffffffff81111561458457600080fd5b61459087828801614276565b91505092959194509250565b600080600080600060a086880312156145b457600080fd5b600086013567ffffffffffffffff8111156145ce57600080fd5b6145da888289016142ca565b955050602086013567ffffffffffffffff8111156145f757600080fd5b614603888289016142ca565b945050604086013567ffffffffffffffff81111561462057600080fd5b61462c888289016142ca565b935050606086013567ffffffffffffffff81111561464957600080fd5b61465588828901614276565b9250506080614666888289016142f4565b9150509295509295909350565b60006020828403121561468557600080fd5b6000614693848285016142f4565b91505092915050565b600080604083850312156146af57600080fd5b60006146bd858286016142f4565b92505060206146ce858286016142a0565b9150509250929050565b6000806000606084860312156146ed57600080fd5b60006146fb868287016142f4565b935050602061470c868287016142a0565b925050604061471d868287016142b5565b9150509250925092565b6000806040838503121561473a57600080fd5b6000614748858286016142f4565b925050602083013567ffffffffffffffff81111561476557600080fd5b614771858286016142ca565b9150509250929050565b60008060006060848603121561479057600080fd5b600061479e868287016142f4565b93505060206147af868287016142f4565b92505060406147c0868287016142a0565b9150509250925092565b60006147d68383614bc5565b905092915050565b60006147ea8383614db7565b905092915050565b60006147fe8383614e68565b905092915050565b60006148128383614ede565b905092915050565b60006148268383614f54565b905092915050565b600061483a838361502e565b905092915050565b600061484e8383615091565b905092915050565b61485f81615677565b82525050565b6000614870826154a1565b61487a8185615554565b93508360208202850161488c85615431565b8060005b858110156148c857848403895281516148a985826147ca565b94506148b4836154f9565b925060208a01995050600181019050614890565b50829750879550505050505092915050565b60006148e5826154ac565b6148ef8185615565565b93508360208202850161490185615441565b8060005b8581101561493d578484038952815161491e85826147de565b945061492983615506565b925060208a01995050600181019050614905565b50829750879550505050505092915050565b600061495a826154b7565b6149648185615576565b93508360208202850161497685615451565b8060005b858110156149b2578484038952815161499385826147f2565b945061499e83615513565b925060208a0199505060018101905061497a565b50829750879550505050505092915050565b60006149cf826154c2565b6149d98185615587565b9350836020820285016149eb85615461565b8060005b85811015614a275784840389528151614a088582614806565b9450614a1383615520565b925060208a019950506001810190506149ef565b50829750879550505050505092915050565b6000614a44826154cd565b614a4e8185615598565b935083602082028501614a6085615471565b8060005b85811015614a9c5784840389528151614a7d858261481a565b9450614a888361552d565b925060208a01995050600181019050614a64565b50829750879550505050505092915050565b6000614ab9826154d8565b614ac381856155a9565b935083602082028501614ad585615481565b8060005b85811015614b115784840389528151614af2858261482e565b9450614afd8361553a565b925060208a01995050600181019050614ad9565b50829750879550505050505092915050565b6000614b2e826154e3565b614b3881856155ba565b935083602082028501614b4a85615491565b8060005b85811015614b865784840389528151614b678582614842565b9450614b7283615547565b925060208a01995050600181019050614b4e565b50829750879550505050505092915050565b614ba181615689565b82525050565b614bb081615689565b82525050565b614bbf81615695565b82525050565b6000614bd0826154ee565b614bda81856155cb565b9350614bea8185602086016156d8565b614bf3816158ee565b840191505092915050565b6000614c09826154ee565b614c1381856155dc565b9350614c238185602086016156d8565b614c2c816158ee565b840191505092915050565b6000614c446015836155dc565b91507f53637265656e73686f74204e6f742045786973747300000000000000000000006000830152602082019050919050565b6000614c846009836155dc565b91507f48617320766f74656400000000000000000000000000000000000000000000006000830152602082019050919050565b6000614cc4600f836155dc565b91507f506f7374204e6f742045786973747300000000000000000000000000000000006000830152602082019050919050565b6000614d04600e836155dc565b91507f55736572204e6f7420466f756e640000000000000000000000000000000000006000830152602082019050919050565b6000614d44600f836155dc565b91507f43617365204e6f742045786973747300000000000000000000000000000000006000830152602082019050919050565b6000614d84600f836155dc565b91507f5461736b204e6f742045786973747300000000000000000000000000000000006000830152602082019050919050565b600060e083016000830151614dcf6000860182615164565b5060208301518482036020860152614de78282614bc5565b91505060408301518482036040860152614e018282614bc5565b91505060608301518482036060860152614e1b8282614bc5565b9150506080830151614e306080860182615164565b5060a083015184820360a0860152614e488282614865565b91505060c0830151614e5d60c0860182615164565b508091505092915050565b600060a083016000830151614e806000860182615164565b506020830151614e936020860182614856565b5060408301518482036040860152614eab8282614865565b9150506060830151614ec06060860182614b98565b506080830151614ed36080860182615164565b508091505092915050565b600060a083016000830151614ef66000860182615164565b506020830151614f096020860182615164565b506040830151614f1c6040860182615164565b5060608301518482036060860152614f348282614bc5565b9150506080830151614f496080860182614856565b508091505092915050565b600061012083016000830151614f6d6000860182615164565b506020830151614f806020860182615164565b506040830151614f936040860182615164565b506060830151614fa66060860182615164565b5060808301518482036080860152614fbe8282614bc5565b91505060a083015184820360a0860152614fd88282614bc5565b91505060c083015184820360c0860152614ff28282614bc5565b91505060e083015184820360e086015261500c8282614865565b915050610100830151615023610100860182614856565b508091505092915050565b60006080830160008301516150466000860182615164565b506020830151848203602086015261505e8282614bc5565b91505060408301516150736040860182615164565b5060608301516150866060860182614856565b508091505092915050565b6000610120830160008301516150aa6000860182615164565b50602083015184820360208601526150c28282614bc5565b915050604083015184820360408601526150dc8282614bc5565b91505060608301516150f16060860182615164565b5060808301516151046080860182615164565b5060a083015161511760a0860182614b98565b5060c083015184820360c086015261512f8282614865565b91505060e083015161514460e0860182614b98565b50610100830151615159610100860182614b98565b508091505092915050565b61516d816156bf565b82525050565b61517c816156bf565b82525050565b6000602082019050818103600083015261519c81846148da565b905092915050565b600060208201905081810360008301526151be818461494f565b905092915050565b600060208201905081810360008301526151e081846149c4565b905092915050565b600060208201905081810360008301526152028184614a39565b905092915050565b600060208201905081810360008301526152248184614aae565b905092915050565b600060208201905081810360008301526152468184614b23565b905092915050565b60006020820190506152636000830184614ba7565b92915050565b600060208201905061527e6000830184614bb6565b92915050565b6000602082019050818103600083015261529d81614c37565b9050919050565b600060208201905081810360008301526152bd81614c77565b9050919050565b600060208201905081810360008301526152dd81614cb7565b9050919050565b600060208201905081810360008301526152fd81614cf7565b9050919050565b6000602082019050818103600083015261531d81614d37565b9050919050565b6000602082019050818103600083015261533d81614d77565b9050919050565b60006020820190506153596000830184615173565b92915050565b60006060820190506153746000830186615173565b81810360208301526153868185614bfe565b9050818103604083015261539a8184614bfe565b9050949350505050565b6000604051905081810181811067ffffffffffffffff821117156153cb576153ca6158bf565b5b8060405250919050565b600067ffffffffffffffff8211156153f0576153ef6158bf565b5b602082029050602081019050919050565b600067ffffffffffffffff82111561541c5761541b6158bf565b5b601f19601f8301169050602081019050919050565b6000819050602082019050919050565b6000819050602082019050919050565b6000819050602082019050919050565b6000819050602082019050919050565b6000819050602082019050919050565b6000819050602082019050919050565b6000819050602082019050919050565b600081519050919050565b600081519050919050565b600081519050919050565b600081519050919050565b600081519050919050565b600081519050919050565b600081519050919050565b600081519050919050565b6000602082019050919050565b6000602082019050919050565b6000602082019050919050565b6000602082019050919050565b6000602082019050919050565b6000602082019050919050565b6000602082019050919050565b600082825260208201905092915050565b600082825260208201905092915050565b600082825260208201905092915050565b600082825260208201905092915050565b600082825260208201905092915050565b600082825260208201905092915050565b600082825260208201905092915050565b600082825260208201905092915050565b600082825260208201905092915050565b60006155f8826156bf565b9150615603836156bf565b9250827fffffffffffffffffffffffffffffffffffffffffffffffffffffffffffffffff0382111561563857615637615861565b5b828201905092915050565b600061564e826156bf565b9150615659836156bf565b92508282101561566c5761566b615861565b5b828203905092915050565b60006156828261569f565b9050919050565b60008115159050919050565b6000819050919050565b600073ffffffffffffffffffffffffffffffffffffffff82169050919050565b6000819050919050565b82818337600083830152505050565b60005b838110156156f65780820151818401526020810190506156db565b83811115615705576000848401525b50505050565b600061571682615695565b91507f800000000000000000000000000000000000000000000000000000000000000082141561574957615748615861565b5b600182039050919050565b6000600282049050600182168061576c57607f821691505b602082108114156157805761577f615890565b5b50919050565b600061579182615695565b91507f7fffffffffffffffffffffffffffffffffffffffffffffffffffffffffffffff8214156157c4576157c3615861565b5b600182019050919050565b60006157da826156bf565b91507fffffffffffffffffffffffffffffffffffffffffffffffffffffffffffffffff82141561580d5761580c615861565b5b600182019050919050565b600061582382615695565b91507f800000000000000000000000000000000000000000000000000000000000000082141561585657615855615861565b5b816000039050919050565b7f4e487b7100000000000000000000000000000000000000000000000000000000600052601160045260246000fd5b7f4e487b7100000000000000000000000000000000000000000000000000000000600052602260045260246000fd5b7f4e487b7100000000000000000000000000000000000000000000000000000000600052604160045260246000fd5b6000601f19601f8301169050919050565b61590881615677565b811461591357600080fd5b50565b61591f81615689565b811461592a57600080fd5b50565b61593681615695565b811461594157600080fd5b50565b61594d816156bf565b811461595857600080fd5b5056fea2646970667358221220efaa5cabfc5a0f16edda1ca9858fc4f774e0304a4a96eecfbfbe469f3258e73f64736f6c63430008000033",
  "immutableReferences": {},
  "source": "//  \n// \n\n// SPDX-License-Identifier: MIT\npragma solidity >=0.4.21 <0.9.0;\n\nimport \"./erc20.sol\";\n// interface \ncontract AntiFraud {\n    // // ERC20\n    // \n    //  -> \n    // \n    uint256 totalCredit;\n    // \n    address administrator;\n    // \n    mapping(address => uint) balanceOf;\n    //  -> id\n    uint policeIndex;\n    //  -> id\n    uint civilIndex;\n    //  -> id\n    uint screenshotIndex;\n    //  -> id\n    uint caseIndex;\n    //  -> id\n    uint taskIndex;\n    //  -> id\n    uint postsIndex;\n\n    constructor() {\n        totalCredit = 100;\n        // Soliditymsg.sender\n        administrator = msg.sender;\n        // \n        balanceOf[msg.sender] = totalCredit;\n        // 0\n        policeIndex = 0;\n        civilIndex = 0;\n        screenshotIndex = 0;\n        caseIndex = 0;\n        taskIndex = 0;\n        postsIndex = 0;\n    }\n    // get\n    function _getBalanceOf(address _userAdd) internal view returns (uint) {\n        return (balanceOf[_userAdd]);\n    }\n    function getBalanceOf(address _userAdd) external view returns (uint) {\n        return _getBalanceOf(_userAdd);\n    }\n    // \n    function _transfer(address _from, address _to, uint _val) internal returns (bool) {\n        bool success = false;\n        if (balanceOf[_from] >= _val) {\n            balanceOf[_from] -= _val;\n            balanceOf[_to] += _val;\n            success = true;\n        }\n        return success;\n    }\n    function transfer(address _from, address _to, uint _val) external returns (bool) {\n        return _transfer(_from, _to, _val);\n    }\n    // // get\n    // function getBalanceOf(address _contractAdd, address _userAdd) external view returns (uint) {\n    //     return ERC20Basic(_contractAdd).balanceOf(_userAdd);\n    // }\n    // // \n    // function creditApprove(address _contractAdd, address _approver, uint _val) external {\n    //     ERC20Basic(_contractAdd).approve(_approver, _val);\n    // }\n    // // \n    // function creditTransfer(address _contractAdd, address _reciver, uint _val) external returns (bool) {\n    //     return ERC20Basic(_contractAdd).transfer(_reciver, _val);\n    // }\n    // // call\n    // function callTransfer(address _contractAdd) external {\n    //     (bool success) = _contractAdd.call(\n    //         abi.encodeWithSignature(\n    //             \"transfer(address,uint256)\", 0xF58E5Fdda92689241C6114b9746AEE529fB7671C, 1 \n    //         )\n    //     );\n    //     require(success, \"failed\");\n    // }\n    // \n    struct Police {\n        // id\n        uint id;\n        // \n        string name;\n        // \n        string avatarLink;\n    }\n    // \n    // mapping(uint => address) policeIdToAddress;\n    // \n    mapping(address => Police) policeList;\n    // get\n    function getPoliceUser(address _policeUserAddress) external view returns (uint, string memory, string memory) {\n        Police memory police = policeList[_policeUserAddress];\n        require(police.id != 0, \"User Not Found\");\n        return (police.id, police.name, police.avatarLink);\n    }\n    // \n    function createPoliceUser(string memory _name, string memory _avatarLink) external {\n        // \n        Police storage police = policeList[msg.sender];\n        // id\n        police.id = ++policeIndex;\n        // \n        police.name = _name;\n        // \n        police.avatarLink = _avatarLink;\n    }\n    // \n    struct Civil {\n        // id\n        uint id;\n        // \n        string name;\n        // \n        string avatarLink;\n    }\n    // \n    mapping(address => Civil) civilList;\n    // get\n    function getCivilUser(address _civilUserAddress) external view returns (uint, string memory, string memory) {\n        Civil memory civil = civilList[_civilUserAddress];\n        require(civil.id != 0, \"User Not Found\");\n        return (civil.id, civil.name, civil.avatarLink); \n    }\n    // \n    function createCivilUser(string memory _name, string memory _avatarLink) external {\n        // \n        Civil storage civil = civilList[msg.sender];\n        // id\n        civil.id = ++civilIndex;\n        // \n        civil.name = _name;\n        // \n        civil.avatarLink = _avatarLink;\n    }\n    // \n    //  \n    struct FraudScreenshot {\n        // id\n        uint id;\n        // \n        address auditPoliceUser;\n        // ipfs\n        string[] screenshotLink;\n        // \n        bool isValid;\n        // \n        uint postTime;\n    }\n    // (id)\n    mapping(uint => address) screenshotIdToPostCivilUser;\n    // \n    mapping(address => FraudScreenshot[]) screenshotList;\n    // \n    mapping(address => FraudScreenshot[]) historyScreenshotAudit;\n    // \n    mapping(uint => FraudScreenshot) allSList;\n    // \n    function postScreenshot(string[] memory _screenshotLink) external {\n        // \n        screenshotIdToPostCivilUser[screenshotIndex] = msg.sender;\n        \n        FraudScreenshot memory fraudScreenshot;\n        // id\n        fraudScreenshot.id = screenshotIndex;           \n        // \n        fraudScreenshot.auditPoliceUser = address(0);\n        //  \n        fraudScreenshot.postTime = block.timestamp;\n        //    \n        fraudScreenshot.screenshotLink = _screenshotLink; \n        //   \n        fraudScreenshot.isValid = false;\n        // \n        screenshotList[msg.sender].push(fraudScreenshot);\n        // \n        allSList[screenshotIndex] = fraudScreenshot;\n        // \n        screenshotIndex++;\n    }\n    // get\n    function getScreenshotList() external view returns (FraudScreenshot[] memory) {\n        // require(screenshotIndex > 0, \"No Screenshot Found\");\n        // \n        FraudScreenshot[] memory _List = new FraudScreenshot[](screenshotIndex);\n        // //  \n        // FraudScreenshot memory screenshot;\n        // address _address;\n        // // TODO i < address \n        // // address = 1\n        // for (uint i = 0; i < 1; i++) {\n        //     _address = screenshotIdToPostCivilUser[i];\n        //     for (uint j = 0; j < screenshotList[_address].length; j++) {\n        //         screenshot = screenshotList[_address][j];\n        //         _List[j] = screenshot;\n        //     }\n        // }\n        for (uint i = 0; i < screenshotIndex; i++) {\n            _List[i] = allSList[i];\n        }\n        return (_List);\n    }\n    // get\n    function getHistoryPost() external view returns (FraudScreenshot[] memory) {\n        // require(screenshotIndex > 0, \"No Screenshot Found\");\n        return screenshotList[msg.sender];\n    }\n    // get\n    function getHistoryAudit() external view returns (FraudScreenshot[] memory) {\n        // require(screenshotIndex > 0, \"No Screenshot Found\");\n        return historyScreenshotAudit[msg.sender];\n    }\n    // \n    function auditScreenshot(uint _screenshotIndex, bool _isVaild) external {\n        require(_screenshotIndex <= screenshotIndex, \"Screenshot Not Exists\");\n        // \n        allSList[_screenshotIndex].isValid = _isVaild;\n        // \n        allSList[_screenshotIndex].auditPoliceUser = msg.sender;\n        // TODO \n\n        // \n        historyScreenshotAudit[msg.sender].push(allSList[_screenshotIndex]);\n        // +1\n        _transfer(administrator, msg.sender, 1);\n        //  +5\n        if (_isVaild) {  \n            _transfer(administrator, screenshotIdToPostCivilUser[_screenshotIndex], 5);\n        }\n    }\n    // \n    //  \n    struct FraudCase {\n        // id\n        uint id;\n        // \n        string title;\n        // \n        string tag;\n        // \n        string description;\n        // \n        uint postTime;\n        // ipfs\n        string[] caseImageLink;\n        // \n        // 0/\n        // 1\n        // 2\n        // 3\n        // 4 /\n        uint state;\n    }\n    // (id)\n    mapping(uint => address) caseIdToPostUser;\n    // \n    mapping(address => FraudCase[]) caseList;\n    // \n    mapping(address => FraudCase[]) historyCaseAudit;\n    // \n    mapping(uint => FraudCase) allCaseList;\n    //  -> \n    function postCase(string memory _title, string memory _tag, string memory _description, string[] memory _caseImageLink) external {\n        // \n        FraudCase memory fraudCase;\n        // id\n        fraudCase.id = caseIndex;\n        // \n        fraudCase.postTime = block.timestamp;\n        fraudCase.title = _title;\n        fraudCase.tag = _tag;\n        fraudCase.description = _description;\n        // \n        fraudCase.caseImageLink = _caseImageLink;\n        // \n        fraudCase.state = 1;\n        // \n        caseIdToPostUser[caseIndex] = msg.sender;\n        // \n        caseList[msg.sender].push(fraudCase);\n        // \n        allCaseList[caseIndex] = fraudCase;\n        // \n        caseIndex++;\n    } \n    // get\n    function getCase() external view returns (FraudCase[] memory) {\n        // require(caseIndex > 0, \"No Case Found\");\n        FraudCase[] memory _List = new FraudCase[](caseIndex);\n        for (uint i = 0; i < caseIndex; i++) {\n            _List[i] = allCaseList[i];\n        }\n        return (_List);\n    }\n    // \n    //   => \n    mapping(uint => int) voteCountOfCase;\n    //  \n    mapping(address => bool) isVotedThisAddress;\n    // \n    function getIsVoted() external view returns (bool) {\n        return isVotedThisAddress[msg.sender];\n    }\n    // get\n    function getVoteCountOf(uint _caseIndex) external view returns (int) {\n        require(_caseIndex <= caseIndex, \"Case Not Exists\");\n        return voteCountOfCase[_caseIndex];\n    }\n    // \n    function vote(uint _caseIndex, bool isValid, int _checkValue) external {\n        require(isVotedThisAddress[msg.sender] == false, \"Has voted\");\n        require(_caseIndex <= caseIndex, \"Case Not Exists\");\n        isVotedThisAddress[msg.sender] = true;\n        if (isValid) {\n            voteCountOfCase[_caseIndex]++;\n        } else {\n            voteCountOfCase[_caseIndex]--;\n        }\n        _countCheck(_checkValue, _caseIndex);\n    }\n    // \n    function _countCheck(int _checkValue, uint _caseIndex) internal {\n        int count = voteCountOfCase[_caseIndex];\n        // \n        uint _state;\n        if (count > _checkValue) {\n            // \n           _state = 4;\n        } else if (count < -_checkValue) {\n            // \n            _state = 0;\n        } else if (count > 0 && count <= _checkValue) {\n            // 0\n            _state = 2;\n        } else {\n            // 0-\n            _state = 3;\n        }\n        allCaseList[_caseIndex].state = _state;\n    }\n    // \n    function auditCase(uint _caseIndex, bool isValid) external {\n        require(_caseIndex <= caseIndex, \"Case Not Exists\");\n        // require(allCaseList[_caseIndex].state == 2 || allCaseList[_caseIndex].state == 3);\n        if (isValid) {\n            allCaseList[_caseIndex].state = 4;\n            // +10\n            _transfer(administrator, caseIdToPostUser[_caseIndex], 10);\n        } else {\n            allCaseList[_caseIndex].state = 0;\n        }\n        // \n        historyCaseAudit[msg.sender].push(allCaseList[_caseIndex]);\n        // +1\n        _transfer(administrator, msg.sender, 1);\n    }\n    // get\n    function getHistoryCaseAudit() external view returns (FraudCase[] memory) {\n        // require(caseIndex > 0, \"No Case Found\");\n        return historyCaseAudit[msg.sender];\n    }\n    // \n    //  \n    struct Task {\n        // id\n        uint id;\n        // \n        string title;\n        // \n        string description;\n        // \n        uint postTime;\n        //  1\n        uint answerCount;\n        // \n        bool isSolved;\n        // ipfs\n        string[] taskImageLink;\n        // true false\n        bool isAnswerInRush;\n        // \n        bool isAccept;\n    }\n    // (id)\n    mapping(uint => address) taskIdToPostPoliceUser; \n    // \n    mapping(address => Task[]) taskList;\n    // \n    mapping(uint => Task) allTaskList;\n    //  -> \n    // 1.  \n    // 2.  \n    function postTask(string memory _title, string memory _description, string[] memory _taskImageLink, bool _isAnswerInRush) external {\n        // \n        Task memory task;\n        // \n        task.id = taskIndex;\n        // \n        task.postTime = block.timestamp;\n        task.title = _title;\n        task.description = _description;\n        task.answerCount = 0;\n        // \n        task.taskImageLink = _taskImageLink;\n        // \n        task.isSolved = false;\n        // \n        task.isAnswerInRush = _isAnswerInRush;\n        // \n        task.isAccept = false;\n        // \n        taskIdToPostPoliceUser[taskIndex] = msg.sender;\n        // \n        taskList[msg.sender].push(task);\n        // \n        allTaskList[taskIndex] = task;\n        // \n        taskIndex++;\n    }\n    // get\n    function getTask() external view returns (Task[] memory) {\n        // require(taskIndex > 0, \"No Task Found\");\n        Task[] memory _List = new Task[](taskIndex);\n        for (uint i = 0; i < taskIndex; i++) {\n            _List[i] = allTaskList[i];\n        }\n        return (_List);\n    } \n    // id\n    mapping(uint => address) taskIdToAnswerRusher;\n    // \n    function acceptTask(uint _taskIndex) external {\n        allTaskList[_taskIndex].isAccept = true;\n        allTaskList[_taskIndex].answerCount = 1;\n        // \n        taskIdToAnswerRusher[_taskIndex] = msg.sender;\n        // -2\n        _transfer(msg.sender, administrator, 2);\n    }\n    // \n    struct TaskAnswer {\n        // id\n        uint id;\n        // \n        string detail;\n        // \n        uint postTime;\n        // \n        address answerAddress;\n    }\n    // (id)\n    mapping (uint => TaskAnswer[]) answerList;\n    // \n    function postTaskAnswer(uint _taskIndex, string memory _detail) external {\n        // \n        TaskAnswer memory answer;\n        // id\n        answer.id = ++allTaskList[_taskIndex].answerCount;\n        // \n        answer.detail = _detail;\n        // \n        answer.postTime = block.timestamp;\n        // \n        answer.answerAddress = msg.sender;\n        // \n        answerList[_taskIndex].push(answer);\n    }\n    // get\n    function getThisTaskAnswer(uint _taskIndex) external view returns (TaskAnswer[] memory) {\n        require(_taskIndex <= taskIndex, \"Task Not Exists\");\n        TaskAnswer[] memory _List = new TaskAnswer[](allTaskList[_taskIndex].answerCount);\n        for (uint i = 0; i < allTaskList[_taskIndex].answerCount; i++) {\n            _List[i] = answerList[_taskIndex][i];\n        }\n        return _List;\n    }\n    // \n    // \n    function _taskFailed(uint _taskIndex) internal {\n        // \n        allTaskList[_taskIndex].isAccept = false;\n    }\n    // \n    function taskFailed(uint _taskIndex) external {\n        require(_taskIndex <= taskIndex, \"Task Not Exists\");\n        _taskFailed(_taskIndex);\n    }\n    //  \n    function taskCompelte(uint _taskIndex, uint _answerIndex, bool _isAdopt) external {\n        require(_taskIndex <= taskIndex, \"Task Not Exists\");\n        if (_isAdopt) {\n            allTaskList[_taskIndex].isSolved = true;\n            if (allTaskList[_taskIndex].isAnswerInRush) {\n                // +2+10\n                _transfer(administrator, taskIdToAnswerRusher[_taskIndex], 12);\n            } else {\n                // \n                _transfer(administrator, answerList[_taskIndex][_answerIndex].answerAddress, 10);\n            }\n        } else {\n            _taskFailed(_taskIndex);\n        }\n    }\n    // \n    // \n    struct Posts {\n        uint id;\n        uint postTime;\n        // \n        uint reward;\n        // \n        uint replyCounts;\n        string title;\n        string description;\n        // \n        string tag;\n        string[] imageLink;\n        address postUserAdd;\n    }\n    // \n    mapping(uint => Posts) postsList;\n    // \n    function createPosts(string memory _title, string memory _description, string memory _tag, string[] memory _imageLink, uint _reward) external {\n        Posts memory _post;\n        _post.id = postsIndex;\n        _post.postTime = block.timestamp;\n        _post.reward = _reward;\n        _post.replyCounts = 0;\n        _post.title = _title;\n        _post.description = _description;\n        _post.tag = _tag;\n        _post.imageLink = _imageLink;\n        _post.postUserAdd = msg.sender;\n        // \n        postsList[policeIndex] = _post;\n        postsIndex++;\n    }\n    // get\n    function getPostsList() external view returns (Posts[] memory) {\n        // require(postsIndex > 0, \"No Posts Found\");\n        Posts[] memory _List = new Posts[](postsIndex);\n        for (uint i = 0; i < postsIndex; i++) {\n            _List[i] = postsList[i];\n        }\n        return _List;\n    }\n    // \n    struct PostsReply {\n        // id\n        uint postsId;\n        // \n        uint floor;\n        uint postTime;\n        // \n        string details;\n        address postUserAdd;\n    }\n    //  id => \n    mapping(uint => PostsReply[]) replyListOfPosts;\n    // \n    function createPostsReply(uint _postsIndex, string memory _details) external {    \n        PostsReply memory _reply;\n        _reply.postsId = _postsIndex;\n        _reply.floor = ++postsList[_postsIndex].replyCounts;\n        _reply.postTime = block.timestamp;\n        _reply.details = _details;\n        _reply.postUserAdd = msg.sender;\n        // \n        replyListOfPosts[_postsIndex].push(_reply);\n    }\n    // get\n    function getThisPostsReply(uint _postsIndex) external view returns (PostsReply[] memory) {\n        require(_postsIndex <= postsIndex, \"Post Not Exists\");\n        PostsReply[] memory _List = new PostsReply[](postsList[_postsIndex].replyCounts);\n        for (uint i = 0; i < postsList[_postsIndex].replyCounts; i++) {\n            _List[i] = replyListOfPosts[_postsIndex][i];\n        }\n        return _List;\n    }\n}\n",
  "sourcePath": "/Users/peggy_wang/Desktop/workSpace/AntiFraud/contracts/AntiFraud.sol",
  "compiler": {
    "name": "solc",
    "version": "0.8.0+commit.c7dfd78e.Emscripten.clang"
  },
  "schemaVersion": "3.4.6",
  "updatedAt": "2022-04-16T08:00:21.960Z",
  "networkType": "ethereum",
  "devdoc": {
    "kind": "dev",
    "methods": {},
    "version": 1
  },
  "userdoc": {
    "kind": "user",
    "methods": {},
    "version": 1
  }
}