{
  "contractName": "Main",
  "abi": [
    {
      "inputs": [],
      "stateMutability": "nonpayable",
      "type": "constructor"
    },
    {
      "inputs": [
        {
          "internalType": "address",
          "name": "_userAdd",
          "type": "address"
        }
      ],
      "name": "getBalanceOf",
      "outputs": [
        {
          "internalType": "uint256",
          "name": "",
          "type": "uint256"
        }
      ],
      "stateMutability": "view",
      "type": "function",
      "constant": true
    },
    {
      "inputs": [
        {
          "internalType": "address",
          "name": "_from",
          "type": "address"
        },
        {
          "internalType": "address",
          "name": "_to",
          "type": "address"
        },
        {
          "internalType": "uint256",
          "name": "_val",
          "type": "uint256"
        }
      ],
      "name": "transfer",
      "outputs": [
        {
          "internalType": "bool",
          "name": "",
          "type": "bool"
        }
      ],
      "stateMutability": "nonpayable",
      "type": "function"
    },
    {
      "inputs": [
        {
          "internalType": "string",
          "name": "_name",
          "type": "string"
        },
        {
          "internalType": "string",
          "name": "_avatarLink",
          "type": "string"
        }
      ],
      "name": "createPoliceUser",
      "outputs": [],
      "stateMutability": "nonpayable",
      "type": "function"
    },
    {
      "inputs": [
        {
          "internalType": "uint256",
          "name": "_policeIndex",
          "type": "uint256"
        }
      ],
      "name": "getPoliceUser",
      "outputs": [
        {
          "components": [
            {
              "internalType": "uint256",
              "name": "id",
              "type": "uint256"
            },
            {
              "internalType": "string",
              "name": "name",
              "type": "string"
            },
            {
              "internalType": "string",
              "name": "avatarLink",
              "type": "string"
            },
            {
              "internalType": "address",
              "name": "userAdd",
              "type": "address"
            }
          ],
          "internalType": "struct Main.User",
          "name": "",
          "type": "tuple"
        }
      ],
      "stateMutability": "view",
      "type": "function",
      "constant": true
    },
    {
      "inputs": [
        {
          "internalType": "string",
          "name": "_name",
          "type": "string"
        },
        {
          "internalType": "string",
          "name": "_avatarLink",
          "type": "string"
        }
      ],
      "name": "createCivilUser",
      "outputs": [],
      "stateMutability": "nonpayable",
      "type": "function"
    },
    {
      "inputs": [
        {
          "internalType": "uint256",
          "name": "_civilIndex",
          "type": "uint256"
        }
      ],
      "name": "getCivilUser",
      "outputs": [
        {
          "components": [
            {
              "internalType": "uint256",
              "name": "id",
              "type": "uint256"
            },
            {
              "internalType": "string",
              "name": "name",
              "type": "string"
            },
            {
              "internalType": "string",
              "name": "avatarLink",
              "type": "string"
            },
            {
              "internalType": "address",
              "name": "userAdd",
              "type": "address"
            }
          ],
          "internalType": "struct Main.User",
          "name": "",
          "type": "tuple"
        }
      ],
      "stateMutability": "view",
      "type": "function",
      "constant": true
    },
    {
      "inputs": [
        {
          "internalType": "string",
          "name": "_title",
          "type": "string"
        },
        {
          "internalType": "string",
          "name": "_tag",
          "type": "string"
        },
        {
          "internalType": "string",
          "name": "_description",
          "type": "string"
        },
        {
          "internalType": "string[]",
          "name": "_imageLinks",
          "type": "string[]"
        }
      ],
      "name": "postCase",
      "outputs": [],
      "stateMutability": "nonpayable",
      "type": "function"
    },
    {
      "inputs": [],
      "name": "getCaseList",
      "outputs": [
        {
          "components": [
            {
              "internalType": "uint256",
              "name": "id",
              "type": "uint256"
            },
            {
              "internalType": "string",
              "name": "title",
              "type": "string"
            },
            {
              "internalType": "string",
              "name": "tag",
              "type": "string"
            },
            {
              "internalType": "string",
              "name": "description",
              "type": "string"
            },
            {
              "internalType": "uint256",
              "name": "postTime",
              "type": "uint256"
            },
            {
              "internalType": "string[]",
              "name": "imageLinks",
              "type": "string[]"
            },
            {
              "internalType": "address",
              "name": "userAdd",
              "type": "address"
            },
            {
              "internalType": "bool",
              "name": "isSetValidity",
              "type": "bool"
            },
            {
              "internalType": "bool",
              "name": "isValid",
              "type": "bool"
            },
            {
              "internalType": "bool",
              "name": "isFraud",
              "type": "bool"
            }
          ],
          "internalType": "struct Main.Case[]",
          "name": "",
          "type": "tuple[]"
        }
      ],
      "stateMutability": "view",
      "type": "function",
      "constant": true
    },
    {
      "inputs": [
        {
          "internalType": "uint256[]",
          "name": "_caseIndex",
          "type": "uint256[]"
        },
        {
          "internalType": "bool[]",
          "name": "_isValid",
          "type": "bool[]"
        }
      ],
      "name": "setCaseValidity",
      "outputs": [],
      "stateMutability": "nonpayable",
      "type": "function"
    },
    {
      "inputs": [
        {
          "internalType": "uint256",
          "name": "_caseIndex",
          "type": "uint256"
        },
        {
          "internalType": "bool",
          "name": "_isFraud",
          "type": "bool"
        }
      ],
      "name": "setIsFraudCase",
      "outputs": [],
      "stateMutability": "nonpayable",
      "type": "function"
    },
    {
      "inputs": [
        {
          "internalType": "uint256",
          "name": "_caseIndex",
          "type": "uint256"
        }
      ],
      "name": "getCaseState",
      "outputs": [
        {
          "internalType": "uint256",
          "name": "",
          "type": "uint256"
        }
      ],
      "stateMutability": "view",
      "type": "function",
      "constant": true
    },
    {
      "inputs": [
        {
          "internalType": "uint256",
          "name": "_caseIndex",
          "type": "uint256"
        }
      ],
      "name": "getIsVoted",
      "outputs": [
        {
          "internalType": "bool",
          "name": "",
          "type": "bool"
        }
      ],
      "stateMutability": "view",
      "type": "function",
      "constant": true
    },
    {
      "inputs": [
        {
          "internalType": "uint256",
          "name": "_caseIndex",
          "type": "uint256"
        }
      ],
      "name": "getVoteCountOf",
      "outputs": [
        {
          "internalType": "uint256",
          "name": "",
          "type": "uint256"
        },
        {
          "internalType": "uint256",
          "name": "",
          "type": "uint256"
        },
        {
          "internalType": "uint256",
          "name": "",
          "type": "uint256"
        }
      ],
      "stateMutability": "view",
      "type": "function",
      "constant": true
    },
    {
      "inputs": [
        {
          "internalType": "uint256",
          "name": "_caseIndex",
          "type": "uint256"
        },
        {
          "internalType": "bool",
          "name": "_isFraud",
          "type": "bool"
        }
      ],
      "name": "vote",
      "outputs": [],
      "stateMutability": "nonpayable",
      "type": "function"
    },
    {
      "inputs": [
        {
          "internalType": "string",
          "name": "_title",
          "type": "string"
        },
        {
          "internalType": "string",
          "name": "_tag",
          "type": "string"
        },
        {
          "internalType": "string",
          "name": "_description",
          "type": "string"
        },
        {
          "internalType": "string[]",
          "name": "_imageLinks",
          "type": "string[]"
        }
      ],
      "name": "postTask",
      "outputs": [],
      "stateMutability": "nonpayable",
      "type": "function"
    },
    {
      "inputs": [
        {
          "internalType": "uint256",
          "name": "_caseIndex",
          "type": "uint256"
        }
      ],
      "name": "postTaskFromCase",
      "outputs": [],
      "stateMutability": "nonpayable",
      "type": "function"
    },
    {
      "inputs": [],
      "name": "getTaskList",
      "outputs": [
        {
          "components": [
            {
              "internalType": "uint256",
              "name": "id",
              "type": "uint256"
            },
            {
              "internalType": "string",
              "name": "title",
              "type": "string"
            },
            {
              "internalType": "string",
              "name": "tag",
              "type": "string"
            },
            {
              "internalType": "string",
              "name": "description",
              "type": "string"
            },
            {
              "internalType": "uint256",
              "name": "postTime",
              "type": "uint256"
            },
            {
              "internalType": "uint256",
              "name": "acceptTime",
              "type": "uint256"
            },
            {
              "internalType": "string[]",
              "name": "imageLinks",
              "type": "string[]"
            },
            {
              "internalType": "address",
              "name": "userAdd",
              "type": "address"
            },
            {
              "internalType": "address",
              "name": "acceptAdd",
              "type": "address"
            },
            {
              "internalType": "bool",
              "name": "isAccept",
              "type": "bool"
            },
            {
              "internalType": "bool",
              "name": "isFraud",
              "type": "bool"
            },
            {
              "internalType": "bool",
              "name": "isFinished",
              "type": "bool"
            }
          ],
          "internalType": "struct Main.Task[]",
          "name": "",
          "type": "tuple[]"
        }
      ],
      "stateMutability": "view",
      "type": "function",
      "constant": true
    },
    {
      "inputs": [
        {
          "internalType": "uint256",
          "name": "_taskIndex",
          "type": "uint256"
        }
      ],
      "name": "setCaseAccept",
      "outputs": [],
      "stateMutability": "nonpayable",
      "type": "function"
    },
    {
      "inputs": [
        {
          "internalType": "uint256",
          "name": "_taskIndex",
          "type": "uint256"
        },
        {
          "internalType": "bool",
          "name": "_isFraud",
          "type": "bool"
        },
        {
          "internalType": "string",
          "name": "_details",
          "type": "string"
        }
      ],
      "name": "postReply2Task",
      "outputs": [],
      "stateMutability": "nonpayable",
      "type": "function"
    },
    {
      "inputs": [
        {
          "internalType": "uint256",
          "name": "_taskIndex",
          "type": "uint256"
        }
      ],
      "name": "getTaskReply",
      "outputs": [
        {
          "internalType": "bool",
          "name": "",
          "type": "bool"
        },
        {
          "components": [
            {
              "internalType": "uint256",
              "name": "repoId",
              "type": "uint256"
            },
            {
              "internalType": "uint256",
              "name": "floor",
              "type": "uint256"
            },
            {
              "internalType": "uint256",
              "name": "level",
              "type": "uint256"
            },
            {
              "internalType": "uint256",
              "name": "postTime",
              "type": "uint256"
            },
            {
              "internalType": "string",
              "name": "details",
              "type": "string"
            },
            {
              "internalType": "address",
              "name": "userAdd",
              "type": "address"
            }
          ],
          "internalType": "struct Main.Reply",
          "name": "",
          "type": "tuple"
        }
      ],
      "stateMutability": "view",
      "type": "function",
      "constant": true
    },
    {
      "inputs": [
        {
          "internalType": "uint256",
          "name": "_taskIndex",
          "type": "uint256"
        }
      ],
      "name": "setCaseFinished",
      "outputs": [],
      "stateMutability": "nonpayable",
      "type": "function"
    },
    {
      "inputs": [
        {
          "internalType": "uint256",
          "name": "_taskIndex",
          "type": "uint256"
        }
      ],
      "name": "setCaseFailed",
      "outputs": [],
      "stateMutability": "nonpayable",
      "type": "function"
    },
    {
      "inputs": [
        {
          "internalType": "string",
          "name": "_name",
          "type": "string"
        },
        {
          "internalType": "string",
          "name": "_details",
          "type": "string"
        },
        {
          "internalType": "uint256",
          "name": "_price",
          "type": "uint256"
        },
        {
          "internalType": "uint256",
          "name": "_inventory",
          "type": "uint256"
        }
      ],
      "name": "createProduct",
      "outputs": [],
      "stateMutability": "nonpayable",
      "type": "function"
    },
    {
      "inputs": [],
      "name": "getProductList",
      "outputs": [
        {
          "components": [
            {
              "internalType": "uint256",
              "name": "id",
              "type": "uint256"
            },
            {
              "internalType": "string",
              "name": "name",
              "type": "string"
            },
            {
              "internalType": "string",
              "name": "details",
              "type": "string"
            },
            {
              "internalType": "uint256",
              "name": "price",
              "type": "uint256"
            },
            {
              "internalType": "uint256",
              "name": "inventory",
              "type": "uint256"
            }
          ],
          "internalType": "struct Main.Product[]",
          "name": "",
          "type": "tuple[]"
        }
      ],
      "stateMutability": "view",
      "type": "function",
      "constant": true
    },
    {
      "inputs": [
        {
          "internalType": "uint256",
          "name": "_productIndex",
          "type": "uint256"
        }
      ],
      "name": "purchase",
      "outputs": [],
      "stateMutability": "nonpayable",
      "type": "function"
    },
    {
      "inputs": [
        {
          "internalType": "string",
          "name": "_title",
          "type": "string"
        },
        {
          "internalType": "string",
          "name": "_description",
          "type": "string"
        },
        {
          "internalType": "string",
          "name": "_tag",
          "type": "string"
        },
        {
          "internalType": "string[]",
          "name": "_imageLink",
          "type": "string[]"
        },
        {
          "internalType": "uint256",
          "name": "_price",
          "type": "uint256"
        }
      ],
      "name": "postTransactionPost",
      "outputs": [],
      "stateMutability": "nonpayable",
      "type": "function"
    },
    {
      "inputs": [],
      "name": "getTransactionPostList",
      "outputs": [
        {
          "components": [
            {
              "internalType": "uint256",
              "name": "id",
              "type": "uint256"
            },
            {
              "internalType": "uint256",
              "name": "postTime",
              "type": "uint256"
            },
            {
              "internalType": "string",
              "name": "title",
              "type": "string"
            },
            {
              "internalType": "string",
              "name": "description",
              "type": "string"
            },
            {
              "internalType": "string",
              "name": "tag",
              "type": "string"
            },
            {
              "internalType": "string[]",
              "name": "imageLink",
              "type": "string[]"
            },
            {
              "internalType": "uint256",
              "name": "price",
              "type": "uint256"
            },
            {
              "internalType": "address",
              "name": "userAdd",
              "type": "address"
            },
            {
              "internalType": "uint256",
              "name": "replyCounts",
              "type": "uint256"
            }
          ],
          "internalType": "struct Main.TransactionPost[]",
          "name": "",
          "type": "tuple[]"
        }
      ],
      "stateMutability": "view",
      "type": "function",
      "constant": true
    },
    {
      "inputs": [
        {
          "internalType": "uint256",
          "name": "_transactionPostIndex",
          "type": "uint256"
        },
        {
          "internalType": "uint256",
          "name": "_level",
          "type": "uint256"
        },
        {
          "internalType": "string",
          "name": "_details",
          "type": "string"
        }
      ],
      "name": "postReply2TransactionPost",
      "outputs": [],
      "stateMutability": "nonpayable",
      "type": "function"
    },
    {
      "inputs": [
        {
          "internalType": "uint256",
          "name": "_transactionPostIndex",
          "type": "uint256"
        }
      ],
      "name": "getTransactionPostReplyList",
      "outputs": [
        {
          "components": [
            {
              "internalType": "uint256",
              "name": "repoId",
              "type": "uint256"
            },
            {
              "internalType": "uint256",
              "name": "floor",
              "type": "uint256"
            },
            {
              "internalType": "uint256",
              "name": "level",
              "type": "uint256"
            },
            {
              "internalType": "uint256",
              "name": "postTime",
              "type": "uint256"
            },
            {
              "internalType": "string",
              "name": "details",
              "type": "string"
            },
            {
              "internalType": "address",
              "name": "userAdd",
              "type": "address"
            }
          ],
          "internalType": "struct Main.Reply[]",
          "name": "",
          "type": "tuple[]"
        }
      ],
      "stateMutability": "view",
      "type": "function",
      "constant": true
    }
  ],
  "bytecode": "0x608060405234801561001057600080fd5b506103e860008190555033600160006101000a81548173ffffffffffffffffffffffffffffffffffffffff021916908373ffffffffffffffffffffffffffffffffffffffff160217905550600054600260003373ffffffffffffffffffffffffffffffffffffffff1673ffffffffffffffffffffffffffffffffffffffff1681526020019081526020016000208190555060006003819055506000600481905550600060058190555060006006819055506000600781905550600060088190555061555580620000e16000396000f3fe608060405234801561001057600080fd5b50600436106101cf5760003560e01c8063978b3e2711610104578063c9d27afe116100a2578063e4c28bd411610071578063e4c28bd414610539578063eedb1ba114610555578063efef39a114610585578063f3d5df06146105a1576101cf565b8063c9d27afe146104b5578063d0a66836146104d1578063d0cbd85c146104ed578063d9fad69a14610509576101cf565b8063b5563a92116100de578063b5563a921461041d578063b7e21b8814610439578063beabacc814610455578063c94d090314610485576101cf565b8063978b3e27146103b55780639b96eece146103d15780639bbfdcbe14610401576101cf565b806338940fae116101715780634affc6af1161014b5780634affc6af1461031c5780635e4e6e881461034d5780637fd4714a1461036957806390d16cba14610399576101cf565b806338940fae146102c457806348bdf955146102e25780634a7ba3b214610300576101cf565b80632f9fe552116101ad5780632f9fe5521461022857806331c89ff11461024457806334d2c0ad14610276578063381aefa214610294576101cf565b80630ab2bea3146101d4578063165e2d13146101f0578063279d0ab61461020c575b600080fd5b6101ee60048036038101906101e99190614005565b6105bf565b005b61020a6004803603810190610205919061430a565b6109d3565b005b6102266004803603810190610221919061430a565b610d60565b005b610242600480360381019061023d91906140dd565b610df7565b005b61025e6004803603810190610259919061430a565b611009565b60405161026d93929190614fe4565b60405180910390f35b61027e6110a0565b60405161028b9190614e34565b60405180910390f35b6102ae60048036038101906102a9919061430a565b6112fa565b6040516102bb9190614ebc565b60405180910390f35b6102cc6113a6565b6040516102d99190614e78565b60405180910390f35b6102ea611869565b6040516102f79190614e9a565b60405180910390f35b61031a6004803603810190610315919061430a565b611c8f565b005b6103366004803603810190610331919061430a565b611d33565b604051610344929190614ed7565b60405180910390f35b61036760048036038101906103629190614071565b611e9b565b005b610383600480360381019061037e919061430a565b611fb4565b6040516103909190614fc9565b60405180910390f35b6103b360048036038101906103ae9190614277565b612023565b005b6103cf60048036038101906103ca9190614071565b6120e7565b005b6103eb60048036038101906103e69190613f8d565b612200565b6040516103f89190614fc9565b60405180910390f35b61041b6004803603810190610416919061436f565b612212565b005b61043760048036038101906104329190614333565b61235c565b005b610453600480360381019061044e91906140dd565b612417565b005b61046f600480360381019061046a9190613fb6565b612429565b60405161047c9190614ebc565b60405180910390f35b61049f600480360381019061049a919061430a565b61243f565b6040516104ac9190614e56565b60405180910390f35b6104cf60048036038101906104ca9190614333565b6126cb565b005b6104eb60048036038101906104e691906141a0565b612806565b005b6105076004803603810190610502919061430a565b6129ad565b005b610523600480360381019061051e919061430a565b612b00565b6040516105309190614fa7565b60405180910390f35b610553600480360381019061054e91906143d6565b612cb1565b005b61056f600480360381019061056a919061430a565b612e1b565b60405161057c9190614fa7565b60405180910390f35b61059f600480360381019061059a919061430a565b612fcc565b005b6105a961312e565b6040516105b69190614e12565b60405180910390f35b6000600190505b600183516105d49190615283565b8110156109ce576000600b600085848151811061061a577f4e487b7100000000000000000000000000000000000000000000000000000000600052603260045260246000fd5b60200260200101518152602001908152602001600020600001541415610675576040517f08c379a000000000000000000000000000000000000000000000000000000000815260040161066c90614f47565b60405180910390fd5b6001600b60008584815181106106b4577f4e487b7100000000000000000000000000000000000000000000000000000000600052603260045260246000fd5b6020026020010151815260200190815260200160002060060160146101000a81548160ff02191690831515021790555081818151811061071d577f4e487b7100000000000000000000000000000000000000000000000000000000600052603260045260246000fd5b6020026020010151600b6000858481518110610762577f4e487b7100000000000000000000000000000000000000000000000000000000600052603260045260246000fd5b6020026020010151815260200190815260200160002060060160156101000a81548160ff0219169083151502179055506107c0600160009054906101000a900473ffffffffffffffffffffffffffffffffffffffff16336001613591565b508181815181106107fa577f4e487b7100000000000000000000000000000000000000000000000000000000600052603260045260246000fd5b6020026020010151156108b1576108ab600160009054906101000a900473ffffffffffffffffffffffffffffffffffffffff16600b600086858151811061086a577f4e487b7100000000000000000000000000000000000000000000000000000000600052603260045260246000fd5b6020026020010151815260200190815260200160002060060160009054906101000a900473ffffffffffffffffffffffffffffffffffffffff166005613591565b506109bb565b600b60008483815181106108ee577f4e487b7100000000000000000000000000000000000000000000000000000000600052603260045260246000fd5b6020026020010151815260200190815260200160002060008082016000905560018201600061091d919061398e565b60028201600061092d919061398e565b60038201600061093d919061398e565b600482016000905560058201600061095591906139ce565b6006820160006101000a81549073ffffffffffffffffffffffffffffffffffffffff02191690556006820160146101000a81549060ff02191690556006820160156101000a81549060ff02191690556006820160166101000a81549060ff021916905550505b80806109c6906153f3565b9150506105c6565b505050565b6000600b60008381526020019081526020016000206040518061014001604052908160008201548152602001600182018054610a0e906153c1565b80601f0160208091040260200160405190810160405280929190818152602001828054610a3a906153c1565b8015610a875780601f10610a5c57610100808354040283529160200191610a87565b820191906000526020600020905b815481529060010190602001808311610a6a57829003601f168201915b50505050508152602001600282018054610aa0906153c1565b80601f0160208091040260200160405190810160405280929190818152602001828054610acc906153c1565b8015610b195780601f10610aee57610100808354040283529160200191610b19565b820191906000526020600020905b815481529060010190602001808311610afc57829003601f168201915b50505050508152602001600382018054610b32906153c1565b80601f0160208091040260200160405190810160405280929190818152602001828054610b5e906153c1565b8015610bab5780601f10610b8057610100808354040283529160200191610bab565b820191906000526020600020905b815481529060010190602001808311610b8e57829003601f168201915b505050505081526020016004820154815260200160058201805480602002602001604051908101604052809291908181526020016000905b82821015610c8f578382906000526020600020018054610c02906153c1565b80601f0160208091040260200160405190810160405280929190818152602001828054610c2e906153c1565b8015610c7b5780601f10610c5057610100808354040283529160200191610c7b565b820191906000526020600020905b815481529060010190602001808311610c5e57829003601f168201915b505050505081526020019060010190610be3565b5050505081526020016006820160009054906101000a900473ffffffffffffffffffffffffffffffffffffffff1673ffffffffffffffffffffffffffffffffffffffff1673ffffffffffffffffffffffffffffffffffffffff1681526020016006820160149054906101000a900460ff161515151581526020016006820160159054906101000a900460ff161515151581526020016006820160169054906101000a900460ff1615151515815250509050610d5c8160200151826040015183606001518460a0015161369a565b5050565b6001600f600083815260200190815260200160002060080160166101000a81548160ff021916908315150217905550610df3600160009054906101000a900473ffffffffffffffffffffffffffffffffffffffff16600f600084815260200190815260200160002060080160009054906101000a900473ffffffffffffffffffffffffffffffffffffffff166007613591565b5050565b610dff6139ef565b600560008154610e0e906153f3565b91905081905581600001818152505084816020018190525083816040018190525082816060018190525042816080018181525050818160a00181905250338160c0019073ffffffffffffffffffffffffffffffffffffffff16908173ffffffffffffffffffffffffffffffffffffffff168152505060008160e001901515908115158152505060008161010001901515908115158152505060008161012001901515908115158152505080600b60006005548152602001908152602001600020600082015181600001556020820151816001019080519060200190610ef4929190613a5e565b506040820151816002019080519060200190610f11929190613a5e565b506060820151816003019080519060200190610f2e929190613a5e565b506080820151816004015560a0820151816005019080519060200190610f55929190613ae4565b5060c08201518160060160006101000a81548173ffffffffffffffffffffffffffffffffffffffff021916908373ffffffffffffffffffffffffffffffffffffffff16021790555060e08201518160060160146101000a81548160ff0219169083151502179055506101008201518160060160156101000a81548160ff0219169083151502179055506101208201518160060160166101000a81548160ff0219169083151502179055509050505050505050565b6000806000600554841115611053576040517f08c379a000000000000000000000000000000000000000000000000000000000815260040161104a90614f87565b60405180910390fd5b6000600c60008681526020019081526020016000205490506000600d6000878152602001908152602001600020549050818182846110919190615283565b94509450945050509193909250565b6060600060075467ffffffffffffffff8111156110e6577f4e487b7100000000000000000000000000000000000000000000000000000000600052604160045260246000fd5b60405190808252806020026020018201604052801561111f57816020015b61110c613b44565b8152602001906001900390816111045790505b50905060005b6007548110156112f257601160006001836111409190615283565b81526020019081526020016000206040518060a001604052908160008201548152602001600182018054611173906153c1565b80601f016020809104026020016040519081016040528092919081815260200182805461119f906153c1565b80156111ec5780601f106111c1576101008083540402835291602001916111ec565b820191906000526020600020905b8154815290600101906020018083116111cf57829003601f168201915b50505050508152602001600282018054611205906153c1565b80601f0160208091040260200160405190810160405280929190818152602001828054611231906153c1565b801561127e5780601f106112535761010080835404028352916020019161127e565b820191906000526020600020905b81548152906001019060200180831161126157829003601f168201915b50505050508152602001600382015481526020016004820154815250508282815181106112d4577f4e487b7100000000000000000000000000000000000000000000000000000000600052603260045260246000fd5b602002602001018190525080806112ea906153f3565b915050611125565b508091505090565b6000600554821115611341576040517f08c379a000000000000000000000000000000000000000000000000000000000815260040161133890614f87565b60405180910390fd5b600e600083815260200190815260200160002060003373ffffffffffffffffffffffffffffffffffffffff1673ffffffffffffffffffffffffffffffffffffffff16815260200190815260200160002060009054906101000a900460ff169050919050565b6060600060065467ffffffffffffffff8111156113ec577f4e487b7100000000000000000000000000000000000000000000000000000000600052604160045260246000fd5b60405190808252806020026020018201604052801561142557816020015b611412613b73565b81526020019060019003908161140a5790505b50905060005b60065481101561186157600f60006001836114469190615283565b8152602001908152602001600020604051806101800160405290816000820154815260200160018201805461147a906153c1565b80601f01602080910402602001604051908101604052809291908181526020018280546114a6906153c1565b80156114f35780601f106114c8576101008083540402835291602001916114f3565b820191906000526020600020905b8154815290600101906020018083116114d657829003601f168201915b5050505050815260200160028201805461150c906153c1565b80601f0160208091040260200160405190810160405280929190818152602001828054611538906153c1565b80156115855780601f1061155a57610100808354040283529160200191611585565b820191906000526020600020905b81548152906001019060200180831161156857829003601f168201915b5050505050815260200160038201805461159e906153c1565b80601f01602080910402602001604051908101604052809291908181526020018280546115ca906153c1565b80156116175780601f106115ec57610100808354040283529160200191611617565b820191906000526020600020905b8154815290600101906020018083116115fa57829003601f168201915b50505050508152602001600482015481526020016005820154815260200160068201805480602002602001604051908101604052809291908181526020016000905b82821015611705578382906000526020600020018054611678906153c1565b80601f01602080910402602001604051908101604052809291908181526020018280546116a4906153c1565b80156116f15780601f106116c6576101008083540402835291602001916116f1565b820191906000526020600020905b8154815290600101906020018083116116d457829003601f168201915b505050505081526020019060010190611659565b5050505081526020016007820160009054906101000a900473ffffffffffffffffffffffffffffffffffffffff1673ffffffffffffffffffffffffffffffffffffffff1673ffffffffffffffffffffffffffffffffffffffff1681526020016008820160009054906101000a900473ffffffffffffffffffffffffffffffffffffffff1673ffffffffffffffffffffffffffffffffffffffff1673ffffffffffffffffffffffffffffffffffffffff1681526020016008820160149054906101000a900460ff161515151581526020016008820160159054906101000a900460ff161515151581526020016008820160169054906101000a900460ff161515151581525050828281518110611843577f4e487b7100000000000000000000000000000000000000000000000000000000600052603260045260246000fd5b60200260200101819052508080611859906153f3565b91505061142b565b508091505090565b6060600060085467ffffffffffffffff8111156118af577f4e487b7100000000000000000000000000000000000000000000000000000000600052604160045260246000fd5b6040519080825280602002602001820160405280156118e857816020015b6118d5613c06565b8152602001906001900390816118cd5790505b50905060005b600854811015611c8757601260006001836119099190615283565b8152602001908152602001600020604051806101200160405290816000820154815260200160018201548152602001600282018054611947906153c1565b80601f0160208091040260200160405190810160405280929190818152602001828054611973906153c1565b80156119c05780601f10611995576101008083540402835291602001916119c0565b820191906000526020600020905b8154815290600101906020018083116119a357829003601f168201915b505050505081526020016003820180546119d9906153c1565b80601f0160208091040260200160405190810160405280929190818152602001828054611a05906153c1565b8015611a525780601f10611a2757610100808354040283529160200191611a52565b820191906000526020600020905b815481529060010190602001808311611a3557829003601f168201915b50505050508152602001600482018054611a6b906153c1565b80601f0160208091040260200160405190810160405280929190818152602001828054611a97906153c1565b8015611ae45780601f10611ab957610100808354040283529160200191611ae4565b820191906000526020600020905b815481529060010190602001808311611ac757829003601f168201915b5050505050815260200160058201805480602002602001604051908101604052809291908181526020016000905b82821015611bbe578382906000526020600020018054611b31906153c1565b80601f0160208091040260200160405190810160405280929190818152602001828054611b5d906153c1565b8015611baa5780601f10611b7f57610100808354040283529160200191611baa565b820191906000526020600020905b815481529060010190602001808311611b8d57829003601f168201915b505050505081526020019060010190611b12565b505050508152602001600682015481526020016007820160009054906101000a900473ffffffffffffffffffffffffffffffffffffffff1673ffffffffffffffffffffffffffffffffffffffff1673ffffffffffffffffffffffffffffffffffffffff168152602001600882015481525050828281518110611c69577f4e487b7100000000000000000000000000000000000000000000000000000000600052603260045260246000fd5b60200260200101819052508080611c7f906153f3565b9150506118ee565b508091505090565b6000600f600083815260200190815260200160002060080160146101000a81548160ff0219169083151502179055506000600f600083815260200190815260200160002060080160006101000a81548173ffffffffffffffffffffffffffffffffffffffff021916908373ffffffffffffffffffffffffffffffffffffffff1602179055506000600f60008381526020019081526020016000206005018190555050565b6000611d3d613c68565b600f600084815260200190815260200160002060080160159054906101000a900460ff1660106000858152602001908152602001600020806040518060c001604052908160008201548152602001600182015481526020016002820154815260200160038201548152602001600482018054611db8906153c1565b80601f0160208091040260200160405190810160405280929190818152602001828054611de4906153c1565b8015611e315780601f10611e0657610100808354040283529160200191611e31565b820191906000526020600020905b815481529060010190602001808311611e1457829003601f168201915b505050505081526020016005820160009054906101000a900473ffffffffffffffffffffffffffffffffffffffff1673ffffffffffffffffffffffffffffffffffffffff1673ffffffffffffffffffffffffffffffffffffffff1681525050905091509150915091565b611ea3613cb4565b600360008154611eb2906153f3565b91905081905581600001818152505082816020018190525081816040018190525033816060019073ffffffffffffffffffffffffffffffffffffffff16908173ffffffffffffffffffffffffffffffffffffffff168152505080600960006003548152602001908152602001600020600082015181600001556020820151816001019080519060200190611f47929190613a5e565b506040820151816002019080519060200190611f64929190613a5e565b5060608201518160030160006101000a81548173ffffffffffffffffffffffffffffffffffffffff021916908373ffffffffffffffffffffffffffffffffffffffff160217905550905050505050565b6000600b600083815260200190815260200160002060060160149054906101000a900460ff16611fe7576001905061201e565b600b600083815260200190815260200160002060060160159054906101000a900460ff1615612019576002905061201e565b600390505b919050565b61202b613b44565b60076000815461203a906153f3565b9190508190558160000181815250508481602001819052508381604001819052508281606001818152505081816080018181525050806011600060075481526020019081526020016000206000820151816000015560208201518160010190805190602001906120ab929190613a5e565b5060408201518160020190805190602001906120c8929190613a5e565b5060608201518160030155608082015181600401559050505050505050565b6120ef613cb4565b6004600081546120fe906153f3565b91905081905581600001818152505082816020018190525081816040018190525033816060019073ffffffffffffffffffffffffffffffffffffffff16908173ffffffffffffffffffffffffffffffffffffffff168152505080600a60006004548152602001908152602001600020600082015181600001556020820151816001019080519060200190612193929190613a5e565b5060408201518160020190805190602001906121b0929190613a5e565b5060608201518160030160006101000a81548173ffffffffffffffffffffffffffffffffffffffff021916908373ffffffffffffffffffffffffffffffffffffffff160217905550905050505050565b600061220b82613945565b9050919050565b81600f600085815260200190815260200160002060080160156101000a81548160ff021916908315150217905550612248613c68565b838160000181815250508181608001819052504281606001818152505060018160200181815250506001816040018181525050338160a0019073ffffffffffffffffffffffffffffffffffffffff16908173ffffffffffffffffffffffffffffffffffffffff1681525050806010600086815260200190815260200160002060008201518160000155602082015181600101556040820151816002015560608201518160030155608082015181600401908051906020019061230b929190613a5e565b5060a08201518160050160006101000a81548173ffffffffffffffffffffffffffffffffffffffff021916908373ffffffffffffffffffffffffffffffffffffffff16021790555090505050505050565b6000600b60008481526020019081526020016000206000015414156123b6576040517f08c379a00000000000000000000000000000000000000000000000000000000081526004016123ad90614f47565b60405180910390fd5b80600b600084815260200190815260200160002060060160166101000a81548160ff021916908315150217905550612412600160009054906101000a900473ffffffffffffffffffffffffffffffffffffffff16336002613591565b505050565b6124238484848461369a565b50505050565b6000612436848484613591565b90509392505050565b60606000601360008481526020019081526020016000208054905067ffffffffffffffff811115612499577f4e487b7100000000000000000000000000000000000000000000000000000000600052604160045260246000fd5b6040519080825280602002602001820160405280156124d257816020015b6124bf613c68565b8152602001906001900390816124b75790505b50905060005b60136000858152602001908152602001600020805490508110156126c157601360008581526020019081526020016000208181548110612541577f4e487b7100000000000000000000000000000000000000000000000000000000600052603260045260246000fd5b90600052602060002090600602016040518060c001604052908160008201548152602001600182015481526020016002820154815260200160038201548152602001600482018054612592906153c1565b80601f01602080910402602001604051908101604052809291908181526020018280546125be906153c1565b801561260b5780601f106125e05761010080835404028352916020019161260b565b820191906000526020600020905b8154815290600101906020018083116125ee57829003601f168201915b505050505081526020016005820160009054906101000a900473ffffffffffffffffffffffffffffffffffffffff1673ffffffffffffffffffffffffffffffffffffffff1673ffffffffffffffffffffffffffffffffffffffff16815250508282815181106126a3577f4e487b7100000000000000000000000000000000000000000000000000000000600052603260045260246000fd5b602002602001018190525080806126b9906153f3565b9150506124d8565b5080915050919050565b600554821115612710576040517f08c379a000000000000000000000000000000000000000000000000000000000815260040161270790614f87565b60405180910390fd5b6001600e600084815260200190815260200160002060003373ffffffffffffffffffffffffffffffffffffffff1673ffffffffffffffffffffffffffffffffffffffff16815260200190815260200160002060006101000a81548160ff02191690831515021790555080156127ab57600c60008381526020019081526020016000206000815461279f906153f3565b919050819055506127d3565b600d6000838152602001908152602001600020600081546127cb90615397565b919050819055505b612801600160009054906101000a900473ffffffffffffffffffffffffffffffffffffffff16336001613591565b505050565b61280e613c06565b60086000815461281d906153f3565b91905081905581600001818152505042816020018181525050818160c0018181525050858160400181905250848160600181905250838160800181905250828160a00181905250338160e0019073ffffffffffffffffffffffffffffffffffffffff16908173ffffffffffffffffffffffffffffffffffffffff168152505060008161010001818152505080601260006008548152602001908152602001600020600082015181600001556020820151816001015560408201518160020190805190602001906128ee929190613a5e565b50606082015181600301908051906020019061290b929190613a5e565b506080820151816004019080519060200190612928929190613a5e565b5060a0820151816005019080519060200190612945929190613ae4565b5060c0820151816006015560e08201518160070160006101000a81548173ffffffffffffffffffffffffffffffffffffffff021916908373ffffffffffffffffffffffffffffffffffffffff1602179055506101008201518160080155905050505050505050565b6001600f600083815260200190815260200160002060080160146101000a81548160ff02191690831515021790555033600f600083815260200190815260200160002060080160006101000a81548173ffffffffffffffffffffffffffffffffffffffff021916908373ffffffffffffffffffffffffffffffffffffffff16021790555042600f60008381526020019081526020016000206005018190555060028060003373ffffffffffffffffffffffffffffffffffffffff1673ffffffffffffffffffffffffffffffffffffffff168152602001908152602001600020541015612ace576040517f08c379a0000000000000000000000000000000000000000000000000000000008152600401612ac590614f67565b60405180910390fd5b612afc33600160009054906101000a900473ffffffffffffffffffffffffffffffffffffffff166002613591565b5050565b612b08613cb4565b6009600083815260200190815260200160002060405180608001604052908160008201548152602001600182018054612b40906153c1565b80601f0160208091040260200160405190810160405280929190818152602001828054612b6c906153c1565b8015612bb95780601f10612b8e57610100808354040283529160200191612bb9565b820191906000526020600020905b815481529060010190602001808311612b9c57829003601f168201915b50505050508152602001600282018054612bd2906153c1565b80601f0160208091040260200160405190810160405280929190818152602001828054612bfe906153c1565b8015612c4b5780601f10612c2057610100808354040283529160200191612c4b565b820191906000526020600020905b815481529060010190602001808311612c2e57829003601f168201915b505050505081526020016003820160009054906101000a900473ffffffffffffffffffffffffffffffffffffffff1673ffffffffffffffffffffffffffffffffffffffff1673ffffffffffffffffffffffffffffffffffffffff16815250509050919050565b612cb9613c68565b83816000018181525050818160800181905250428160600181815250506012600085815260200190815260200160002060080160008154612cf9906153f3565b91905081905581602001818152505082816040018181525050338160a0019073ffffffffffffffffffffffffffffffffffffffff16908173ffffffffffffffffffffffffffffffffffffffff168152505060136000858152602001908152602001600020819080600181540180825580915050600190039060005260206000209060060201600090919091909150600082015181600001556020820151816001015560408201518160020155606082015181600301556080820151816004019080519060200190612dcb929190613a5e565b5060a08201518160050160006101000a81548173ffffffffffffffffffffffffffffffffffffffff021916908373ffffffffffffffffffffffffffffffffffffffff160217905550505050505050565b612e23613cb4565b600a600083815260200190815260200160002060405180608001604052908160008201548152602001600182018054612e5b906153c1565b80601f0160208091040260200160405190810160405280929190818152602001828054612e87906153c1565b8015612ed45780601f10612ea957610100808354040283529160200191612ed4565b820191906000526020600020905b815481529060010190602001808311612eb757829003601f168201915b50505050508152602001600282018054612eed906153c1565b80601f0160208091040260200160405190810160405280929190818152602001828054612f19906153c1565b8015612f665780601f10612f3b57610100808354040283529160200191612f66565b820191906000526020600020905b815481529060010190602001808311612f4957829003601f168201915b505050505081526020016003820160009054906101000a900473ffffffffffffffffffffffffffffffffffffffff1673ffffffffffffffffffffffffffffffffffffffff1673ffffffffffffffffffffffffffffffffffffffff16815250509050919050565b6000601160008381526020019081526020016000206004015411613025576040517f08c379a000000000000000000000000000000000000000000000000000000000815260040161301c90614f27565b60405180910390fd5b6011600082815260200190815260200160002060030154600260003373ffffffffffffffffffffffffffffffffffffffff1673ffffffffffffffffffffffffffffffffffffffff1681526020019081526020016000205410156130bd576040517f08c379a00000000000000000000000000000000000000000000000000000000081526004016130b490614f07565b60405180910390fd5b60116000828152602001908152602001600020600401600081546130e090615397565b9190508190555061312a33600160009054906101000a900473ffffffffffffffffffffffffffffffffffffffff166011600085815260200190815260200160002060030154613591565b5050565b6060600060055467ffffffffffffffff811115613174577f4e487b7100000000000000000000000000000000000000000000000000000000600052604160045260246000fd5b6040519080825280602002602001820160405280156131ad57816020015b61319a6139ef565b8152602001906001900390816131925790505b50905060005b60055481101561358957600b60006001836131ce9190615283565b81526020019081526020016000206040518061014001604052908160008201548152602001600182018054613202906153c1565b80601f016020809104026020016040519081016040528092919081815260200182805461322e906153c1565b801561327b5780601f106132505761010080835404028352916020019161327b565b820191906000526020600020905b81548152906001019060200180831161325e57829003601f168201915b50505050508152602001600282018054613294906153c1565b80601f01602080910402602001604051908101604052809291908181526020018280546132c0906153c1565b801561330d5780601f106132e25761010080835404028352916020019161330d565b820191906000526020600020905b8154815290600101906020018083116132f057829003601f168201915b50505050508152602001600382018054613326906153c1565b80601f0160208091040260200160405190810160405280929190818152602001828054613352906153c1565b801561339f5780601f106133745761010080835404028352916020019161339f565b820191906000526020600020905b81548152906001019060200180831161338257829003601f168201915b505050505081526020016004820154815260200160058201805480602002602001604051908101604052809291908181526020016000905b828210156134835783829060005260206000200180546133f6906153c1565b80601f0160208091040260200160405190810160405280929190818152602001828054613422906153c1565b801561346f5780601f106134445761010080835404028352916020019161346f565b820191906000526020600020905b81548152906001019060200180831161345257829003601f168201915b5050505050815260200190600101906133d7565b5050505081526020016006820160009054906101000a900473ffffffffffffffffffffffffffffffffffffffff1673ffffffffffffffffffffffffffffffffffffffff1673ffffffffffffffffffffffffffffffffffffffff1681526020016006820160149054906101000a900460ff161515151581526020016006820160159054906101000a900460ff161515151581526020016006820160169054906101000a900460ff16151515158152505082828151811061356b577f4e487b7100000000000000000000000000000000000000000000000000000000600052603260045260246000fd5b60200260200101819052508080613581906153f3565b9150506131b3565b508091505090565b6000806000905082600260008773ffffffffffffffffffffffffffffffffffffffff1673ffffffffffffffffffffffffffffffffffffffff168152602001908152602001600020541061368f5782600260008773ffffffffffffffffffffffffffffffffffffffff1673ffffffffffffffffffffffffffffffffffffffff168152602001908152602001600020600082825461362d91906152d9565b9250508190555082600260008673ffffffffffffffffffffffffffffffffffffffff1673ffffffffffffffffffffffffffffffffffffffff16815260200190815260200160002060008282546136839190615283565b92505081905550600190505b809150509392505050565b6136a2613b73565b6006600081546136b1906153f3565b9190508190558160000181815250508481602001819052508381604001819052508281606001819052504281608001818152505060008160a0018181525050818160c00181905250338160e0019073ffffffffffffffffffffffffffffffffffffffff16908173ffffffffffffffffffffffffffffffffffffffff1681525050600081610100019073ffffffffffffffffffffffffffffffffffffffff16908173ffffffffffffffffffffffffffffffffffffffff168152505060008161012001901515908115158152505060008161014001901515908115158152505060008161016001901515908115158152505080600f600060065481526020019081526020016000206000820151816000015560208201518160010190805190602001906137dd929190613a5e565b5060408201518160020190805190602001906137fa929190613a5e565b506060820151816003019080519060200190613817929190613a5e565b506080820151816004015560a0820151816005015560c0820151816006019080519060200190613848929190613ae4565b5060e08201518160070160006101000a81548173ffffffffffffffffffffffffffffffffffffffff021916908373ffffffffffffffffffffffffffffffffffffffff1602179055506101008201518160080160006101000a81548173ffffffffffffffffffffffffffffffffffffffff021916908373ffffffffffffffffffffffffffffffffffffffff1602179055506101208201518160080160146101000a81548160ff0219169083151502179055506101408201518160080160156101000a81548160ff0219169083151502179055506101608201518160080160166101000a81548160ff0219169083151502179055509050505050505050565b6000600260008373ffffffffffffffffffffffffffffffffffffffff1673ffffffffffffffffffffffffffffffffffffffff168152602001908152602001600020549050919050565b50805461399a906153c1565b6000825580601f106139ac57506139cb565b601f0160209004906000526020600020908101906139ca9190613cf2565b5b50565b50805460008255906000526020600020908101906139ec9190613d0f565b50565b604051806101400160405280600081526020016060815260200160608152602001606081526020016000815260200160608152602001600073ffffffffffffffffffffffffffffffffffffffff1681526020016000151581526020016000151581526020016000151581525090565b828054613a6a906153c1565b90600052602060002090601f016020900481019282613a8c5760008555613ad3565b82601f10613aa557805160ff1916838001178555613ad3565b82800160010185558215613ad3579182015b82811115613ad2578251825591602001919060010190613ab7565b5b509050613ae09190613cf2565b5090565b828054828255906000526020600020908101928215613b33579160200282015b82811115613b32578251829080519060200190613b22929190613a5e565b5091602001919060010190613b04565b5b509050613b409190613d0f565b5090565b6040518060a0016040528060008152602001606081526020016060815260200160008152602001600081525090565b60405180610180016040528060008152602001606081526020016060815260200160608152602001600081526020016000815260200160608152602001600073ffffffffffffffffffffffffffffffffffffffff168152602001600073ffffffffffffffffffffffffffffffffffffffff1681526020016000151581526020016000151581526020016000151581525090565b60405180610120016040528060008152602001600081526020016060815260200160608152602001606081526020016060815260200160008152602001600073ffffffffffffffffffffffffffffffffffffffff168152602001600081525090565b6040518060c001604052806000815260200160008152602001600081526020016000815260200160608152602001600073ffffffffffffffffffffffffffffffffffffffff1681525090565b6040518060800160405280600081526020016060815260200160608152602001600073ffffffffffffffffffffffffffffffffffffffff1681525090565b5b80821115613d0b576000816000905550600101613cf3565b5090565b5b80821115613d2f5760008181613d26919061398e565b50600101613d10565b5090565b6000613d46613d418461504c565b61501b565b90508083825260208201905082856020860282011115613d6557600080fd5b60005b85811015613d955781613d7b8882613f39565b845260208401935060208301925050600181019050613d68565b5050509392505050565b6000613db2613dad84615078565b61501b565b9050808382526020820190508260005b85811015613df25781358501613dd88882613f4e565b845260208401935060208301925050600181019050613dc2565b5050509392505050565b6000613e0f613e0a846150a4565b61501b565b90508083825260208201905082856020860282011115613e2e57600080fd5b60005b85811015613e5e5781613e448882613f78565b845260208401935060208301925050600181019050613e31565b5050509392505050565b6000613e7b613e76846150d0565b61501b565b905082815260208101848484011115613e9357600080fd5b613e9e848285615355565b509392505050565b600081359050613eb5816154da565b92915050565b600082601f830112613ecc57600080fd5b8135613edc848260208601613d33565b91505092915050565b600082601f830112613ef657600080fd5b8135613f06848260208601613d9f565b91505092915050565b600082601f830112613f2057600080fd5b8135613f30848260208601613dfc565b91505092915050565b600081359050613f48816154f1565b92915050565b600082601f830112613f5f57600080fd5b8135613f6f848260208601613e68565b91505092915050565b600081359050613f8781615508565b92915050565b600060208284031215613f9f57600080fd5b6000613fad84828501613ea6565b91505092915050565b600080600060608486031215613fcb57600080fd5b6000613fd986828701613ea6565b9350506020613fea86828701613ea6565b9250506040613ffb86828701613f78565b9150509250925092565b6000806040838503121561401857600080fd5b600083013567ffffffffffffffff81111561403257600080fd5b61403e85828601613f0f565b925050602083013567ffffffffffffffff81111561405b57600080fd5b61406785828601613ebb565b9150509250929050565b6000806040838503121561408457600080fd5b600083013567ffffffffffffffff81111561409e57600080fd5b6140aa85828601613f4e565b925050602083013567ffffffffffffffff8111156140c757600080fd5b6140d385828601613f4e565b9150509250929050565b600080600080608085870312156140f357600080fd5b600085013567ffffffffffffffff81111561410d57600080fd5b61411987828801613f4e565b945050602085013567ffffffffffffffff81111561413657600080fd5b61414287828801613f4e565b935050604085013567ffffffffffffffff81111561415f57600080fd5b61416b87828801613f4e565b925050606085013567ffffffffffffffff81111561418857600080fd5b61419487828801613ee5565b91505092959194509250565b600080600080600060a086880312156141b857600080fd5b600086013567ffffffffffffffff8111156141d257600080fd5b6141de88828901613f4e565b955050602086013567ffffffffffffffff8111156141fb57600080fd5b61420788828901613f4e565b945050604086013567ffffffffffffffff81111561422457600080fd5b61423088828901613f4e565b935050606086013567ffffffffffffffff81111561424d57600080fd5b61425988828901613ee5565b925050608061426a88828901613f78565b9150509295509295909350565b6000806000806080858703121561428d57600080fd5b600085013567ffffffffffffffff8111156142a757600080fd5b6142b387828801613f4e565b945050602085013567ffffffffffffffff8111156142d057600080fd5b6142dc87828801613f4e565b93505060406142ed87828801613f78565b92505060606142fe87828801613f78565b91505092959194509250565b60006020828403121561431c57600080fd5b600061432a84828501613f78565b91505092915050565b6000806040838503121561434657600080fd5b600061435485828601613f78565b925050602061436585828601613f39565b9150509250929050565b60008060006060848603121561438457600080fd5b600061439286828701613f78565b93505060206143a386828701613f39565b925050604084013567ffffffffffffffff8111156143c057600080fd5b6143cc86828701613f4e565b9150509250925092565b6000806000606084860312156143eb57600080fd5b60006143f986828701613f78565b935050602061440a86828701613f78565b925050604084013567ffffffffffffffff81111561442757600080fd5b61443386828701613f4e565b9150509250925092565b600061444983836147a0565b905092915050565b600061445d8383614919565b905092915050565b60006144718383614a08565b905092915050565b60006144858383614a85565b905092915050565b60006144998383614b97565b905092915050565b60006144ad8383614cb0565b905092915050565b6144be8161530d565b82525050565b60006144cf82615160565b6144d981856151fb565b9350836020820285016144eb85615100565b8060005b858110156145275784840389528151614508858261443d565b9450614513836151ad565b925060208a019950506001810190506144ef565b50829750879550505050505092915050565b60006145448261516b565b61454e818561520c565b93508360208202850161456085615110565b8060005b8581101561459c578484038952815161457d8582614451565b9450614588836151ba565b925060208a01995050600181019050614564565b50829750879550505050505092915050565b60006145b982615176565b6145c3818561521d565b9350836020820285016145d585615120565b8060005b8581101561461157848403895281516145f28582614465565b94506145fd836151c7565b925060208a019950506001810190506145d9565b50829750879550505050505092915050565b600061462e82615181565b614638818561522e565b93508360208202850161464a85615130565b8060005b8581101561468657848403895281516146678582614479565b9450614672836151d4565b925060208a0199505060018101905061464e565b50829750879550505050505092915050565b60006146a38261518c565b6146ad818561523f565b9350836020820285016146bf85615140565b8060005b858110156146fb57848403895281516146dc858261448d565b94506146e7836151e1565b925060208a019950506001810190506146c3565b50829750879550505050505092915050565b600061471882615197565b6147228185615250565b93508360208202850161473485615150565b8060005b85811015614770578484038952815161475185826144a1565b945061475c836151ee565b925060208a01995050600181019050614738565b50829750879550505050505092915050565b61478b8161531f565b82525050565b61479a8161531f565b82525050565b60006147ab826151a2565b6147b58185615261565b93506147c5818560208601615364565b6147ce816154c9565b840191505092915050565b60006147e6601a83615272565b91507f4372656469742062616c616e6365206e6f7420656e6f756768210000000000006000830152602082019050919050565b6000614826601583615272565b91507f496e76656e746f7279206e6f7420656e6f7567682100000000000000000000006000830152602082019050919050565b6000614866601283615272565b91507f496e76616c6964206361736520696e64657800000000000000000000000000006000830152602082019050919050565b60006148a6601283615272565b91507f437265646974206e6f7420656e6f7567682100000000000000000000000000006000830152602082019050919050565b60006148e6600f83615272565b91507f43617365204e6f742045786973747300000000000000000000000000000000006000830152602082019050919050565b6000610140830160008301516149326000860182614df4565b506020830151848203602086015261494a82826147a0565b9150506040830151848203604086015261496482826147a0565b9150506060830151848203606086015261497e82826147a0565b91505060808301516149936080860182614df4565b5060a083015184820360a08601526149ab82826144c4565b91505060c08301516149c060c08601826144b5565b5060e08301516149d360e0860182614782565b506101008301516149e8610100860182614782565b506101208301516149fd610120860182614782565b508091505092915050565b600060a083016000830151614a206000860182614df4565b5060208301518482036020860152614a3882826147a0565b91505060408301518482036040860152614a5282826147a0565b9150506060830151614a676060860182614df4565b506080830151614a7a6080860182614df4565b508091505092915050565b600060c083016000830151614a9d6000860182614df4565b506020830151614ab06020860182614df4565b506040830151614ac36040860182614df4565b506060830151614ad66060860182614df4565b5060808301518482036080860152614aee82826147a0565b91505060a0830151614b0360a08601826144b5565b508091505092915050565b600060c083016000830151614b266000860182614df4565b506020830151614b396020860182614df4565b506040830151614b4c6040860182614df4565b506060830151614b5f6060860182614df4565b5060808301518482036080860152614b7782826147a0565b91505060a0830151614b8c60a08601826144b5565b508091505092915050565b600061018083016000830151614bb06000860182614df4565b5060208301518482036020860152614bc882826147a0565b91505060408301518482036040860152614be282826147a0565b91505060608301518482036060860152614bfc82826147a0565b9150506080830151614c116080860182614df4565b5060a0830151614c2460a0860182614df4565b5060c083015184820360c0860152614c3c82826144c4565b91505060e0830151614c5160e08601826144b5565b50610100830151614c666101008601826144b5565b50610120830151614c7b610120860182614782565b50610140830151614c90610140860182614782565b50610160830151614ca5610160860182614782565b508091505092915050565b600061012083016000830151614cc96000860182614df4565b506020830151614cdc6020860182614df4565b5060408301518482036040860152614cf482826147a0565b91505060608301518482036060860152614d0e82826147a0565b91505060808301518482036080860152614d2882826147a0565b91505060a083015184820360a0860152614d4282826144c4565b91505060c0830151614d5760c0860182614df4565b5060e0830151614d6a60e08601826144b5565b50610100830151614d7f610100860182614df4565b508091505092915050565b6000608083016000830151614da26000860182614df4565b5060208301518482036020860152614dba82826147a0565b91505060408301518482036040860152614dd482826147a0565b9150506060830151614de960608601826144b5565b508091505092915050565b614dfd8161534b565b82525050565b614e0c8161534b565b82525050565b60006020820190508181036000830152614e2c8184614539565b905092915050565b60006020820190508181036000830152614e4e81846145ae565b905092915050565b60006020820190508181036000830152614e708184614623565b905092915050565b60006020820190508181036000830152614e928184614698565b905092915050565b60006020820190508181036000830152614eb4818461470d565b905092915050565b6000602082019050614ed16000830184614791565b92915050565b6000604082019050614eec6000830185614791565b8181036020830152614efe8184614b0e565b90509392505050565b60006020820190508181036000830152614f20816147d9565b9050919050565b60006020820190508181036000830152614f4081614819565b9050919050565b60006020820190508181036000830152614f6081614859565b9050919050565b60006020820190508181036000830152614f8081614899565b9050919050565b60006020820190508181036000830152614fa0816148d9565b9050919050565b60006020820190508181036000830152614fc18184614d8a565b905092915050565b6000602082019050614fde6000830184614e03565b92915050565b6000606082019050614ff96000830186614e03565b6150066020830185614e03565b6150136040830184614e03565b949350505050565b6000604051905081810181811067ffffffffffffffff821117156150425761504161549a565b5b8060405250919050565b600067ffffffffffffffff8211156150675761506661549a565b5b602082029050602081019050919050565b600067ffffffffffffffff8211156150935761509261549a565b5b602082029050602081019050919050565b600067ffffffffffffffff8211156150bf576150be61549a565b5b602082029050602081019050919050565b600067ffffffffffffffff8211156150eb576150ea61549a565b5b601f19601f8301169050602081019050919050565b6000819050602082019050919050565b6000819050602082019050919050565b6000819050602082019050919050565b6000819050602082019050919050565b6000819050602082019050919050565b6000819050602082019050919050565b600081519050919050565b600081519050919050565b600081519050919050565b600081519050919050565b600081519050919050565b600081519050919050565b600081519050919050565b6000602082019050919050565b6000602082019050919050565b6000602082019050919050565b6000602082019050919050565b6000602082019050919050565b6000602082019050919050565b600082825260208201905092915050565b600082825260208201905092915050565b600082825260208201905092915050565b600082825260208201905092915050565b600082825260208201905092915050565b600082825260208201905092915050565b600082825260208201905092915050565b600082825260208201905092915050565b600061528e8261534b565b91506152998361534b565b9250827fffffffffffffffffffffffffffffffffffffffffffffffffffffffffffffffff038211156152ce576152cd61543c565b5b828201905092915050565b60006152e48261534b565b91506152ef8361534b565b9250828210156153025761530161543c565b5b828203905092915050565b60006153188261532b565b9050919050565b60008115159050919050565b600073ffffffffffffffffffffffffffffffffffffffff82169050919050565b6000819050919050565b82818337600083830152505050565b60005b83811015615382578082015181840152602081019050615367565b83811115615391576000848401525b50505050565b60006153a28261534b565b915060008214156153b6576153b561543c565b5b600182039050919050565b600060028204905060018216806153d957607f821691505b602082108114156153ed576153ec61546b565b5b50919050565b60006153fe8261534b565b91507fffffffffffffffffffffffffffffffffffffffffffffffffffffffffffffffff8214156154315761543061543c565b5b600182019050919050565b7f4e487b7100000000000000000000000000000000000000000000000000000000600052601160045260246000fd5b7f4e487b7100000000000000000000000000000000000000000000000000000000600052602260045260246000fd5b7f4e487b7100000000000000000000000000000000000000000000000000000000600052604160045260246000fd5b6000601f19601f8301169050919050565b6154e38161530d565b81146154ee57600080fd5b50565b6154fa8161531f565b811461550557600080fd5b50565b6155118161534b565b811461551c57600080fd5b5056fea26469706673582212209b527a3c7b21aeaf20acfaa6f2443ec2a54e47c8e6bebea2c8715e903a5ce29864736f6c63430008000033",
  "immutableReferences": {},
  "source": "// SPDX-License-Identifier: MIT\npragma solidity >=0.7.0 <0.9.0;\n\n// \ncontract Main {\n    // \n    uint256 totalCredit;\n    // \n    address administrator;\n    // \n    mapping(address => uint) balanceOf;\n\n    // \n    uint policeIndex;\n    uint civilIndex;\n    uint caseIndex;\n    uint taskIndex;\n    uint productIndex;\n    uint transactionPostIndex;\n\n    constructor() {\n        totalCredit = 1000;\n        administrator = msg.sender;\n        // \n        balanceOf[msg.sender] = totalCredit;\n        \n        policeIndex = 0;\n        civilIndex = 0;\n        caseIndex = 0;\n        taskIndex = 0;\n        productIndex = 0;\n        transactionPostIndex = 0;\n    }\n\n    // \n    function _getBalanceOf(address _userAdd) internal view returns (uint) {\n        return (balanceOf[_userAdd]);\n    }\n\n    function getBalanceOf(address _userAdd) external view returns (uint) {\n        return _getBalanceOf(_userAdd);\n    }\n\n    // \n    // \n    function _transfer(address _from, address _to, uint _val) internal returns (bool) {\n        bool success = false;\n        if (balanceOf[_from] >= _val) {\n            balanceOf[_from] -= _val;\n            balanceOf[_to] += _val;\n            success = true;\n        }\n        return success;\n    }\n\n    function transfer(address _from, address _to, uint _val) external returns (bool) {\n        return _transfer(_from, _to, _val);\n    }\n\n    // \n    struct User {\n        // id\n        uint id;\n        // \n        string name;\n        // \n        string avatarLink;\n        // \n        address userAdd;\n    }\n\n    // \n    mapping(uint => User) policeList;\n\n    // \n    function createPoliceUser(string memory _name, string memory _avatarLink) external {\n        User memory _police;\n        _police.id = ++policeIndex;\n        _police.name = _name;\n        _police.avatarLink = _avatarLink;\n        _police.userAdd = msg.sender;\n        policeList[policeIndex] = _police;\n    }\n\n    // \n    function getPoliceUser(uint _policeIndex) external view returns (User memory) {\n        return policeList[_policeIndex];\n    }\n\n    // \n    mapping(uint => User) civilList;\n\n    // \n    function createCivilUser(string memory _name, string memory _avatarLink) external {\n        User memory _civil;\n        _civil.id = ++civilIndex;\n        _civil.name = _name;\n        _civil.avatarLink = _avatarLink;\n        _civil.userAdd = msg.sender;\n        civilList[civilIndex] = _civil;\n    }\n\n    // \n    function getCivilUser(uint _civilIndex) external view returns (User memory) {\n        return civilList[_civilIndex]; \n    }\n\n    // \n    struct Reply {\n        // id\n        uint repoId;\n        // \n        uint floor;\n        // \n        //  = 1  = 2...\n        uint level;\n        uint postTime;\n        // \n        string details;\n        // \n        address userAdd;\n    }\n\n    // \n    struct Case {\n        uint id;\n        string title;\n        // \n        string tag;\n        string description;\n        uint postTime;\n        string[] imageLinks;\n        // \n        address userAdd;\n        // \n        bool isSetValidity;\n        // \n        bool isValid;\n        // \n        bool isFraud;\n    }\n\n    // \n    mapping(uint => Case) caseList;\n\n    //  -> \n    function postCase(string memory _title, string memory _tag, string memory _description, string[] memory _imageLinks) external {\n        Case memory _case;\n        _case.id = ++caseIndex;\n        _case.title = _title;\n        _case.tag = _tag;\n        _case.description = _description;\n        _case.postTime = block.timestamp;\n        _case.imageLinks = _imageLinks;\n        _case.userAdd = msg.sender;\n        _case.isSetValidity = false;\n        _case.isValid = false;\n        _case.isFraud = false;\n        // \n        caseList[caseIndex] = _case;\n    } \n\n    // \n    function getCaseList() external view returns (Case[] memory) {\n        Case[] memory _List = new Case[](caseIndex);\n        for (uint i = 0; i < caseIndex; i++) {\n            _List[i] = caseList[i + 1];\n        }\n        return (_List);\n    }\n\n    // \n    function setCaseValidity(uint[] memory _caseIndex, bool[] memory _isValid) external {\n        for (uint i = 1; i < _caseIndex.length + 1; i++) {\n            require(caseList[_caseIndex[i]].id != 0, \"Invalid case index\");\n            caseList[_caseIndex[i]].isSetValidity = true;\n            caseList[_caseIndex[i]].isValid = _isValid[i];\n            // +1\n            _transfer(administrator, msg.sender, 1);\n            if (_isValid[i]) {\n                //  +5\n                _transfer(administrator, caseList[_caseIndex[i]].userAdd, 5);\n            } else {\n                //  \n                delete caseList[_caseIndex[i]];\n            }\n        }\n    }\n\n    // \n    function setIsFraudCase(uint _caseIndex, bool _isFraud) external {\n        require(caseList[_caseIndex].id != 0, \"Invalid case index\");\n        caseList[_caseIndex].isFraud = _isFraud;\n        // +2\n        _transfer(administrator, msg.sender, 2);\n    } \n\n    // \n    function getCaseState(uint _caseIndex) external view returns (uint) {\n        if (!caseList[_caseIndex].isSetValidity) {\n            // \n            return 1;\n        } else {\n            if (caseList[_caseIndex].isValid) {\n                //\n                return 2;\n            } else {\n                // \n                return 3;\n            }\n        }\n    }  \n\n    // \n    //  \n    mapping(uint => uint) voteYesCount;\n    \n    // \n    mapping(uint => uint) voteNoCount;\n\n    //  \n    mapping(uint => mapping(address => bool)) isVotedThisAddress;\n\n    // \n    function getIsVoted(uint _caseIndex) external view returns (bool) {\n        require(_caseIndex <= caseIndex, \"Case Not Exists\");\n        return isVotedThisAddress[_caseIndex][msg.sender];\n    }\n\n    // \n    //    \n    function getVoteCountOf(uint _caseIndex) external view returns (uint, uint, uint) {\n        require(_caseIndex <= caseIndex, \"Case Not Exists\");\n        uint _yes = voteYesCount[_caseIndex];\n        uint _no = voteNoCount[_caseIndex];\n        return (_yes, _no, _yes + _no);\n    }\n    \n    // \n    function vote(uint _caseIndex, bool _isFraud) external {\n        require(_caseIndex <= caseIndex, \"Case Not Exists\");\n        isVotedThisAddress[_caseIndex][msg.sender] = true;\n        if (_isFraud) {\n            ++voteYesCount[_caseIndex];\n        } else {\n            --voteNoCount[_caseIndex];\n        }\n        // +1\n        _transfer(administrator, msg.sender, 1);\n    }\n\n    // \n    //  => \n    struct Task {\n        uint id;\n        string title;\n        string tag;\n        string description;\n        uint postTime;\n        // \n        uint acceptTime;\n        string[] imageLinks;\n        // \n        address userAdd;\n        // \n        address acceptAdd;\n        // \n        bool isAccept;\n        // \n        bool isFraud;\n        // \n        bool isFinished;\n    }\n\n    // \n    mapping(uint => Task) taskList;\n\n    // \n    function _postTask(string memory _title, string memory _tag, string memory _description, string[] memory _imageLinks) internal {\n        Task memory _task;\n        _task.id = ++taskIndex;\n        _task.title = _title;\n        _task.tag = _tag;\n        _task.description = _description;\n        _task.postTime = block.timestamp;\n        _task.acceptTime = 0;\n        _task.imageLinks = _imageLinks;\n        _task.userAdd = msg.sender;\n        _task.acceptAdd = address(0);\n        _task.isAccept = false;\n        _task.isFraud = false;\n        _task.isFinished = false;\n        taskList[taskIndex] = _task;\n    }\n\n    function postTask(string memory _title, string memory _tag, string memory _description, string[] memory _imageLinks) external {\n        _postTask(_title, _tag, _description, _imageLinks);\n    }\n\n    // \n    function postTaskFromCase(uint _caseIndex) external {\n        Case memory _case = caseList[_caseIndex];\n        _postTask(_case.title, _case.tag, _case.description, _case.imageLinks);\n    }\n\n    // \n    function getTaskList() external view returns (Task[] memory) {\n        Task[] memory _List = new Task[](taskIndex);\n        for (uint i = 0; i < taskIndex; i++) {\n            _List[i] = taskList[i + 1];\n        }\n        return (_List);\n    }\n\n    // \n    function setCaseAccept(uint _taskIndex) external {\n        taskList[_taskIndex].isAccept = true;\n        taskList[_taskIndex].acceptAdd = msg.sender;\n        taskList[_taskIndex].acceptTime = block.timestamp;\n        // \n        require(balanceOf[msg.sender] >= 2, \"Credit not enough!\");\n        _transfer(msg.sender, administrator, 2);\n    }\n\n    // \n    mapping(uint => Reply) taskReply;\n\n    // \n    function postReply2Task(uint _taskIndex, bool _isFraud, string memory _details) external {\n        taskList[_taskIndex].isFraud = _isFraud;\n        Reply memory _reply;\n        _reply.repoId = _taskIndex;\n        _reply.details = _details;\n        _reply.postTime = block.timestamp;\n        _reply.floor = 1;\n        _reply.level = 1;\n        _reply.userAdd = msg.sender;\n        taskReply[_taskIndex] = _reply;\n    }\n\n    // \n    function getTaskReply(uint _taskIndex) external view returns (bool, Reply memory) {\n        return (taskList[_taskIndex].isFraud, taskReply[_taskIndex]);\n    }\n\n    // \n    function setCaseFinished(uint _taskIndex) external {\n        taskList[_taskIndex].isFinished = true;\n        _transfer(administrator, taskList[_taskIndex].acceptAdd, 5+2);\n    }\n\n    //  \n    function setCaseFailed(uint _taskIndex) external {\n        taskList[_taskIndex].isAccept = false;\n        taskList[_taskIndex].acceptAdd = address(0);\n        taskList[_taskIndex].acceptTime = 0;\n    }\n\n    // \n    // \n    struct Product {\n        uint id;\n        string name;\n        string details;\n        uint price;\n        // \n        uint inventory;\n    }\n\n    // \n    mapping(uint => Product) productList;\n\n    // \n    function createProduct(string memory _name, string memory _details, uint _price, uint _inventory) external {\n        Product memory _product;\n        _product.id = ++productIndex;\n        _product.name = _name;\n        _product.details = _details;\n        _product.price = _price;\n        _product.inventory = _inventory;\n        productList[productIndex] = _product;\n    }\n\n    // \n    function getProductList() external view returns (Product[] memory) {\n        Product[] memory _List = new Product[](productIndex);\n        for (uint i = 0; i < productIndex; i++) {\n            _List[i] = productList[i+1];\n        }\n        return (_List);\n    }\n\n    // \n    function purchase(uint _productIndex) external {\n        require(productList[_productIndex].inventory > 0, \"Inventory not enough!\");\n        require(balanceOf[msg.sender] >= productList[_productIndex].price, \"Credit balance not enough!\");\n        --productList[_productIndex].inventory;\n        _transfer(msg.sender, administrator, productList[_productIndex].price);\n    }\n\n    // \n    // \n    struct TransactionPost {\n        uint id;\n        uint postTime;\n        string title;\n        string description;\n        //   or \n        string tag;\n        string[] imageLink;\n        // \n        uint price;\n        address userAdd;\n        // \n        uint replyCounts;\n    }\n\n    // \n    mapping(uint => TransactionPost) transactionPostList;\n\n    // \n    function postTransactionPost(string memory _title, string memory _description, string memory _tag, string[] memory _imageLink, uint _price) external {\n        TransactionPost memory _post;\n        _post.id = ++transactionPostIndex;\n        _post.postTime = block.timestamp;\n        _post.price = _price;\n        _post.title = _title;\n        _post.description = _description;\n        _post.tag = _tag;\n        _post.imageLink = _imageLink;\n        _post.userAdd = msg.sender;\n        _post.replyCounts = 0;\n        // \n        transactionPostList[transactionPostIndex] = _post;\n    }\n\n    // \n    function getTransactionPostList() external view returns (TransactionPost[] memory) {\n        TransactionPost[] memory _List = new TransactionPost[](transactionPostIndex);\n        for (uint i = 0; i < transactionPostIndex; i++) {\n            _List[i] = transactionPostList[i + 1];\n        }\n        return _List;\n    }\n\n    // \n    mapping(uint => Reply[]) transactionPostReplyList;\n\n    // \n    function postReply2TransactionPost(uint _transactionPostIndex, uint _level, string memory _details) external {\n        Reply memory _reply;\n        _reply.repoId = _transactionPostIndex;\n        _reply.details = _details;\n        _reply.postTime = block.timestamp;\n        _reply.floor = ++transactionPostList[_transactionPostIndex].replyCounts;\n        _reply.level = _level;\n        _reply.userAdd = msg.sender;\n        transactionPostReplyList[_transactionPostIndex].push(_reply);\n    }\n\n    // \n    function getTransactionPostReplyList(uint _transactionPostIndex) external view returns (Reply[] memory) {\n        Reply[] memory _List = new Reply[](transactionPostReplyList[_transactionPostIndex].length);\n        for (uint i = 0; i < transactionPostReplyList[_transactionPostIndex].length; i++) {\n            _List[i] = transactionPostReplyList[_transactionPostIndex][i];\n        }\n        return _List;\n    }\n}",
  "sourcePath": "/Users/peggy_wang/Desktop/workSpace/AntiFraud/contracts/Main.sol",
  "compiler": {
    "name": "solc",
    "version": "0.8.0+commit.c7dfd78e.Emscripten.clang"
  },
  "schemaVersion": "3.4.6",
  "updatedAt": "2022-04-25T07:02:24.812Z",
  "networkType": "ethereum",
  "devdoc": {
    "kind": "dev",
    "methods": {},
    "version": 1
  },
  "userdoc": {
    "kind": "user",
    "methods": {},
    "version": 1
  }
}