{
  "contractName": "Main",
  "abi": [
    {
      "inputs": [],
      "stateMutability": "nonpayable",
      "type": "constructor"
    },
    {
      "inputs": [],
      "name": "getAdministratorAdd",
      "outputs": [
        {
          "internalType": "address",
          "name": "",
          "type": "address"
        }
      ],
      "stateMutability": "view",
      "type": "function",
      "constant": true
    },
    {
      "inputs": [
        {
          "internalType": "address",
          "name": "_userAdd",
          "type": "address"
        }
      ],
      "name": "getBalanceOf",
      "outputs": [
        {
          "internalType": "uint256",
          "name": "",
          "type": "uint256"
        }
      ],
      "stateMutability": "view",
      "type": "function",
      "constant": true
    },
    {
      "inputs": [
        {
          "internalType": "address",
          "name": "_from",
          "type": "address"
        },
        {
          "internalType": "address",
          "name": "_to",
          "type": "address"
        },
        {
          "internalType": "uint256",
          "name": "_val",
          "type": "uint256"
        }
      ],
      "name": "transfer",
      "outputs": [
        {
          "internalType": "bool",
          "name": "",
          "type": "bool"
        }
      ],
      "stateMutability": "nonpayable",
      "type": "function"
    },
    {
      "inputs": [
        {
          "internalType": "string",
          "name": "_name",
          "type": "string"
        },
        {
          "internalType": "string",
          "name": "_avatarLink",
          "type": "string"
        }
      ],
      "name": "createPoliceUser",
      "outputs": [],
      "stateMutability": "nonpayable",
      "type": "function"
    },
    {
      "inputs": [
        {
          "internalType": "address",
          "name": "_userAdd",
          "type": "address"
        }
      ],
      "name": "getPoliceUser",
      "outputs": [
        {
          "components": [
            {
              "internalType": "uint256",
              "name": "id",
              "type": "uint256"
            },
            {
              "internalType": "string",
              "name": "name",
              "type": "string"
            },
            {
              "internalType": "string",
              "name": "avatarLink",
              "type": "string"
            },
            {
              "internalType": "address",
              "name": "userAdd",
              "type": "address"
            }
          ],
          "internalType": "struct Main.User",
          "name": "",
          "type": "tuple"
        }
      ],
      "stateMutability": "view",
      "type": "function",
      "constant": true
    },
    {
      "inputs": [
        {
          "internalType": "string",
          "name": "_name",
          "type": "string"
        },
        {
          "internalType": "string",
          "name": "_avatarLink",
          "type": "string"
        }
      ],
      "name": "createCivilUser",
      "outputs": [],
      "stateMutability": "nonpayable",
      "type": "function"
    },
    {
      "inputs": [
        {
          "internalType": "address",
          "name": "_userAdd",
          "type": "address"
        }
      ],
      "name": "getCivilUser",
      "outputs": [
        {
          "components": [
            {
              "internalType": "uint256",
              "name": "id",
              "type": "uint256"
            },
            {
              "internalType": "string",
              "name": "name",
              "type": "string"
            },
            {
              "internalType": "string",
              "name": "avatarLink",
              "type": "string"
            },
            {
              "internalType": "address",
              "name": "userAdd",
              "type": "address"
            }
          ],
          "internalType": "struct Main.User",
          "name": "",
          "type": "tuple"
        }
      ],
      "stateMutability": "view",
      "type": "function",
      "constant": true
    },
    {
      "inputs": [
        {
          "internalType": "string",
          "name": "_title",
          "type": "string"
        },
        {
          "internalType": "string",
          "name": "_tag",
          "type": "string"
        },
        {
          "internalType": "string",
          "name": "_description",
          "type": "string"
        },
        {
          "internalType": "string[]",
          "name": "_imageLinks",
          "type": "string[]"
        }
      ],
      "name": "postCase",
      "outputs": [],
      "stateMutability": "nonpayable",
      "type": "function"
    },
    {
      "inputs": [],
      "name": "getCaseList",
      "outputs": [
        {
          "components": [
            {
              "internalType": "uint256",
              "name": "id",
              "type": "uint256"
            },
            {
              "internalType": "string",
              "name": "title",
              "type": "string"
            },
            {
              "internalType": "string",
              "name": "tag",
              "type": "string"
            },
            {
              "internalType": "string",
              "name": "description",
              "type": "string"
            },
            {
              "internalType": "uint256",
              "name": "postTime",
              "type": "uint256"
            },
            {
              "internalType": "string[]",
              "name": "imageLinks",
              "type": "string[]"
            },
            {
              "internalType": "address",
              "name": "userAdd",
              "type": "address"
            },
            {
              "internalType": "address",
              "name": "validitySetUserAdd",
              "type": "address"
            },
            {
              "internalType": "bool",
              "name": "isSetValidity",
              "type": "bool"
            },
            {
              "internalType": "bool",
              "name": "isValid",
              "type": "bool"
            },
            {
              "internalType": "bool",
              "name": "isFraud",
              "type": "bool"
            }
          ],
          "internalType": "struct Main.Case[]",
          "name": "",
          "type": "tuple[]"
        }
      ],
      "stateMutability": "view",
      "type": "function",
      "constant": true
    },
    {
      "inputs": [
        {
          "internalType": "uint256[]",
          "name": "_caseIndex",
          "type": "uint256[]"
        },
        {
          "internalType": "bool[]",
          "name": "_isValid",
          "type": "bool[]"
        }
      ],
      "name": "setCaseValidity",
      "outputs": [],
      "stateMutability": "nonpayable",
      "type": "function"
    },
    {
      "inputs": [],
      "name": "getMyHistoryCaseValiditySet",
      "outputs": [
        {
          "components": [
            {
              "internalType": "uint256",
              "name": "id",
              "type": "uint256"
            },
            {
              "internalType": "string",
              "name": "title",
              "type": "string"
            },
            {
              "internalType": "string",
              "name": "tag",
              "type": "string"
            },
            {
              "internalType": "string",
              "name": "description",
              "type": "string"
            },
            {
              "internalType": "uint256",
              "name": "postTime",
              "type": "uint256"
            },
            {
              "internalType": "string[]",
              "name": "imageLinks",
              "type": "string[]"
            },
            {
              "internalType": "address",
              "name": "userAdd",
              "type": "address"
            },
            {
              "internalType": "address",
              "name": "validitySetUserAdd",
              "type": "address"
            },
            {
              "internalType": "bool",
              "name": "isSetValidity",
              "type": "bool"
            },
            {
              "internalType": "bool",
              "name": "isValid",
              "type": "bool"
            },
            {
              "internalType": "bool",
              "name": "isFraud",
              "type": "bool"
            }
          ],
          "internalType": "struct Main.Case[]",
          "name": "",
          "type": "tuple[]"
        }
      ],
      "stateMutability": "view",
      "type": "function",
      "constant": true
    },
    {
      "inputs": [
        {
          "internalType": "uint256",
          "name": "_caseIndex",
          "type": "uint256"
        },
        {
          "internalType": "bool",
          "name": "_isFraud",
          "type": "bool"
        }
      ],
      "name": "setIsFraudCase",
      "outputs": [],
      "stateMutability": "nonpayable",
      "type": "function"
    },
    {
      "inputs": [
        {
          "internalType": "uint256",
          "name": "_caseIndex",
          "type": "uint256"
        }
      ],
      "name": "getCaseState",
      "outputs": [
        {
          "internalType": "uint256",
          "name": "",
          "type": "uint256"
        }
      ],
      "stateMutability": "view",
      "type": "function",
      "constant": true
    },
    {
      "inputs": [
        {
          "internalType": "uint256",
          "name": "_caseIndex",
          "type": "uint256"
        }
      ],
      "name": "getIsVoted",
      "outputs": [
        {
          "internalType": "bool",
          "name": "",
          "type": "bool"
        }
      ],
      "stateMutability": "view",
      "type": "function",
      "constant": true
    },
    {
      "inputs": [
        {
          "internalType": "uint256",
          "name": "_caseIndex",
          "type": "uint256"
        }
      ],
      "name": "getVoteCountOf",
      "outputs": [
        {
          "internalType": "uint256",
          "name": "",
          "type": "uint256"
        },
        {
          "internalType": "uint256",
          "name": "",
          "type": "uint256"
        },
        {
          "internalType": "uint256",
          "name": "",
          "type": "uint256"
        }
      ],
      "stateMutability": "view",
      "type": "function",
      "constant": true
    },
    {
      "inputs": [
        {
          "internalType": "uint256",
          "name": "_caseIndex",
          "type": "uint256"
        },
        {
          "internalType": "bool",
          "name": "_isFraud",
          "type": "bool"
        }
      ],
      "name": "vote",
      "outputs": [],
      "stateMutability": "nonpayable",
      "type": "function"
    },
    {
      "inputs": [
        {
          "internalType": "string",
          "name": "_title",
          "type": "string"
        },
        {
          "internalType": "string",
          "name": "_tag",
          "type": "string"
        },
        {
          "internalType": "string",
          "name": "_description",
          "type": "string"
        },
        {
          "internalType": "string[]",
          "name": "_imageLinks",
          "type": "string[]"
        }
      ],
      "name": "postTask",
      "outputs": [],
      "stateMutability": "nonpayable",
      "type": "function"
    },
    {
      "inputs": [
        {
          "internalType": "uint256",
          "name": "_caseIndex",
          "type": "uint256"
        }
      ],
      "name": "postTaskFromCase",
      "outputs": [],
      "stateMutability": "nonpayable",
      "type": "function"
    },
    {
      "inputs": [],
      "name": "getTaskList",
      "outputs": [
        {
          "components": [
            {
              "internalType": "uint256",
              "name": "id",
              "type": "uint256"
            },
            {
              "internalType": "string",
              "name": "title",
              "type": "string"
            },
            {
              "internalType": "string",
              "name": "tag",
              "type": "string"
            },
            {
              "internalType": "string",
              "name": "description",
              "type": "string"
            },
            {
              "internalType": "uint256",
              "name": "postTime",
              "type": "uint256"
            },
            {
              "internalType": "uint256",
              "name": "acceptTime",
              "type": "uint256"
            },
            {
              "internalType": "string[]",
              "name": "imageLinks",
              "type": "string[]"
            },
            {
              "internalType": "address",
              "name": "userAdd",
              "type": "address"
            },
            {
              "internalType": "address",
              "name": "acceptAdd",
              "type": "address"
            },
            {
              "internalType": "bool",
              "name": "isAccept",
              "type": "bool"
            },
            {
              "internalType": "bool",
              "name": "isFraud",
              "type": "bool"
            },
            {
              "internalType": "bool",
              "name": "isFinished",
              "type": "bool"
            }
          ],
          "internalType": "struct Main.Task[]",
          "name": "",
          "type": "tuple[]"
        }
      ],
      "stateMutability": "view",
      "type": "function",
      "constant": true
    },
    {
      "inputs": [
        {
          "internalType": "uint256",
          "name": "_taskIndex",
          "type": "uint256"
        }
      ],
      "name": "setCaseAccept",
      "outputs": [],
      "stateMutability": "nonpayable",
      "type": "function"
    },
    {
      "inputs": [
        {
          "internalType": "uint256",
          "name": "_taskIndex",
          "type": "uint256"
        },
        {
          "internalType": "bool",
          "name": "_isFraud",
          "type": "bool"
        },
        {
          "internalType": "string",
          "name": "_details",
          "type": "string"
        }
      ],
      "name": "postReply2Task",
      "outputs": [],
      "stateMutability": "nonpayable",
      "type": "function"
    },
    {
      "inputs": [
        {
          "internalType": "uint256",
          "name": "_taskIndex",
          "type": "uint256"
        }
      ],
      "name": "getTaskReply",
      "outputs": [
        {
          "internalType": "bool",
          "name": "",
          "type": "bool"
        },
        {
          "components": [
            {
              "internalType": "uint256",
              "name": "repoId",
              "type": "uint256"
            },
            {
              "internalType": "uint256",
              "name": "floor",
              "type": "uint256"
            },
            {
              "internalType": "uint256",
              "name": "level",
              "type": "uint256"
            },
            {
              "internalType": "uint256",
              "name": "postTime",
              "type": "uint256"
            },
            {
              "internalType": "string",
              "name": "details",
              "type": "string"
            },
            {
              "internalType": "address",
              "name": "userAdd",
              "type": "address"
            }
          ],
          "internalType": "struct Main.Reply",
          "name": "",
          "type": "tuple"
        }
      ],
      "stateMutability": "view",
      "type": "function",
      "constant": true
    },
    {
      "inputs": [
        {
          "internalType": "uint256",
          "name": "_taskIndex",
          "type": "uint256"
        }
      ],
      "name": "setCaseFinished",
      "outputs": [],
      "stateMutability": "nonpayable",
      "type": "function"
    },
    {
      "inputs": [
        {
          "internalType": "uint256",
          "name": "_taskIndex",
          "type": "uint256"
        }
      ],
      "name": "setCaseFailed",
      "outputs": [],
      "stateMutability": "nonpayable",
      "type": "function"
    },
    {
      "inputs": [
        {
          "internalType": "string",
          "name": "_title",
          "type": "string"
        },
        {
          "internalType": "string",
          "name": "_description",
          "type": "string"
        },
        {
          "internalType": "string",
          "name": "_tag",
          "type": "string"
        },
        {
          "internalType": "string[]",
          "name": "_imageLink",
          "type": "string[]"
        },
        {
          "internalType": "uint256",
          "name": "_price",
          "type": "uint256"
        }
      ],
      "name": "postTransactionPost",
      "outputs": [],
      "stateMutability": "nonpayable",
      "type": "function"
    },
    {
      "inputs": [],
      "name": "getTransactionPostList",
      "outputs": [
        {
          "components": [
            {
              "internalType": "uint256",
              "name": "id",
              "type": "uint256"
            },
            {
              "internalType": "uint256",
              "name": "postTime",
              "type": "uint256"
            },
            {
              "internalType": "string",
              "name": "title",
              "type": "string"
            },
            {
              "internalType": "string",
              "name": "description",
              "type": "string"
            },
            {
              "internalType": "string",
              "name": "tag",
              "type": "string"
            },
            {
              "internalType": "string[]",
              "name": "imageLink",
              "type": "string[]"
            },
            {
              "internalType": "uint256",
              "name": "price",
              "type": "uint256"
            },
            {
              "internalType": "address",
              "name": "userAdd",
              "type": "address"
            },
            {
              "internalType": "uint256",
              "name": "replyCounts",
              "type": "uint256"
            }
          ],
          "internalType": "struct Main.TransactionPost[]",
          "name": "",
          "type": "tuple[]"
        }
      ],
      "stateMutability": "view",
      "type": "function",
      "constant": true
    },
    {
      "inputs": [
        {
          "internalType": "uint256",
          "name": "_transactionPostIndex",
          "type": "uint256"
        },
        {
          "internalType": "uint256",
          "name": "_level",
          "type": "uint256"
        },
        {
          "internalType": "string",
          "name": "_details",
          "type": "string"
        }
      ],
      "name": "postReply2TransactionPost",
      "outputs": [],
      "stateMutability": "nonpayable",
      "type": "function"
    },
    {
      "inputs": [
        {
          "internalType": "uint256",
          "name": "_transactionPostIndex",
          "type": "uint256"
        }
      ],
      "name": "getTransactionPostReplyList",
      "outputs": [
        {
          "components": [
            {
              "internalType": "uint256",
              "name": "repoId",
              "type": "uint256"
            },
            {
              "internalType": "uint256",
              "name": "floor",
              "type": "uint256"
            },
            {
              "internalType": "uint256",
              "name": "level",
              "type": "uint256"
            },
            {
              "internalType": "uint256",
              "name": "postTime",
              "type": "uint256"
            },
            {
              "internalType": "string",
              "name": "details",
              "type": "string"
            },
            {
              "internalType": "address",
              "name": "userAdd",
              "type": "address"
            }
          ],
          "internalType": "struct Main.Reply[]",
          "name": "",
          "type": "tuple[]"
        }
      ],
      "stateMutability": "view",
      "type": "function",
      "constant": true
    }
  ],
  "bytecode": "0x608060405234801561001057600080fd5b506103e860008190555033600160006101000a81548173ffffffffffffffffffffffffffffffffffffffff021916908373ffffffffffffffffffffffffffffffffffffffff160217905550600054600260003373ffffffffffffffffffffffffffffffffffffffff1673ffffffffffffffffffffffffffffffffffffffff16815260200190815260200160002081905550600060038190555060006004819055506000600581905550600060068190555060006007819055506159ce80620000d96000396000f3fe608060405234801561001057600080fd5b50600436106101c45760003560e01c80639b96eece116100f9578063d0a6683611610097578063e6ba4be911610071578063e6ba4be914610510578063f287c3cc14610540578063f3d5df061461055e578063f8777cbb1461057c576101c4565b8063d0a66836146104bc578063d0cbd85c146104d8578063e4c28bd4146104f4576101c4565b8063b7e21b88116100d3578063b7e21b8814610424578063beabacc814610440578063c94d090314610470578063c9d27afe146104a0576101c4565b80639b96eece146103bc5780639bbfdcbe146103ec578063b5563a9214610408576101c4565b806338940fae116101665780634affc6af116101405780634affc6af146103235780635e4e6e88146103545780637fd4714a14610370578063978b3e27146103a0576101c4565b806338940fae146102cb57806348bdf955146102e95780634a7ba3b214610307576101c4565b8063279d0ab6116101a2578063279d0ab6146102315780632f9fe5521461024d57806331c89ff114610269578063381aefa21461029b576101c4565b80630421cc33146101c95780630ab2bea3146101f9578063165e2d1314610215575b600080fd5b6101e360048036038101906101de919061467b565b61059a565b6040516101f09190615459565b60405180910390f35b610213600480360381019061020e91906146f3565b610777565b005b61022f600480360381019061022a9190614965565b610ed4565b005b61024b60048036038101906102469190614965565b6112b7565b005b610267600480360381019061026291906147cb565b61134e565b005b610283600480360381019061027e9190614965565b6115e2565b60405161029293929190615496565b60405180910390f35b6102b560048036038101906102b09190614965565b611679565b6040516102c291906153ae565b60405180910390f35b6102d3611725565b6040516102e0919061536a565b60405180910390f35b6102f1611be8565b6040516102fe919061538c565b60405180910390f35b610321600480360381019061031c9190614965565b61200e565b005b61033d60048036038101906103389190614965565b6120b2565b60405161034b9291906153c9565b60405180910390f35b61036e6004803603810190610369919061475f565b61221a565b005b61038a60048036038101906103859190614965565b61235d565b604051610397919061547b565b60405180910390f35b6103ba60048036038101906103b5919061475f565b6123cc565b005b6103d660048036038101906103d1919061467b565b61250f565b6040516103e3919061547b565b60405180910390f35b610406600480360381019061040191906149ca565b612521565b005b610422600480360381019061041d919061498e565b61266b565b005b61043e600480360381019061043991906147cb565b612726565b005b61045a600480360381019061045591906146a4565b612738565b60405161046791906153ae565b60405180910390f35b61048a60048036038101906104859190614965565b61274e565b6040516104979190615348565b60405180910390f35b6104ba60048036038101906104b5919061498e565b6129da565b005b6104d660048036038101906104d1919061488e565b612b15565b005b6104f260048036038101906104ed9190614965565b612cbc565b005b61050e60048036038101906105099190614a31565b612e0f565b005b61052a6004803603810190610525919061467b565b612f79565b6040516105379190615459565b60405180910390f35b610548613156565b6040516105559190615326565b60405180910390f35b6105666136b9565b6040516105739190615326565b60405180910390f35b610584613b72565b604051610591919061530b565b60405180910390f35b6105a2613f99565b600860008373ffffffffffffffffffffffffffffffffffffffff1673ffffffffffffffffffffffffffffffffffffffff168152602001908152602001600020604051806080016040529081600082015481526020016001820180546106069061583a565b80601f01602080910402602001604051908101604052809291908181526020018280546106329061583a565b801561067f5780601f106106545761010080835404028352916020019161067f565b820191906000526020600020905b81548152906001019060200180831161066257829003601f168201915b505050505081526020016002820180546106989061583a565b80601f01602080910402602001604051908101604052809291908181526020018280546106c49061583a565b80156107115780601f106106e657610100808354040283529160200191610711565b820191906000526020600020905b8154815290600101906020018083116106f457829003601f168201915b505050505081526020016003820160009054906101000a900473ffffffffffffffffffffffffffffffffffffffff1673ffffffffffffffffffffffffffffffffffffffff1673ffffffffffffffffffffffffffffffffffffffff16815250509050919050565b60005b8251811015610ecf576000600a60008584815181106107c2577f4e487b7100000000000000000000000000000000000000000000000000000000600052603260045260246000fd5b6020026020010151815260200190815260200160002060000154141561081d576040517f08c379a0000000000000000000000000000000000000000000000000000000008152600401610814906153f9565b60405180910390fd5b600b60003373ffffffffffffffffffffffffffffffffffffffff1673ffffffffffffffffffffffffffffffffffffffff168152602001908152602001600020600a6000858481518110610899577f4e487b7100000000000000000000000000000000000000000000000000000000600052603260045260246000fd5b6020026020010151815260200190815260200160002090806001815401808255809150506001900390600052602060002090600802016000909190919091506000820154816000015560018201816001019080546108f69061583a565b610901929190613fd7565b5060028201816002019080546109169061583a565b610921929190613fd7565b5060038201816003019080546109369061583a565b610941929190613fd7565b50600482015481600401556005820181600501908054610962929190614064565b506006820160009054906101000a900473ffffffffffffffffffffffffffffffffffffffff168160060160006101000a81548173ffffffffffffffffffffffffffffffffffffffff021916908373ffffffffffffffffffffffffffffffffffffffff1602179055506007820160009054906101000a900473ffffffffffffffffffffffffffffffffffffffff168160070160006101000a81548173ffffffffffffffffffffffffffffffffffffffff021916908373ffffffffffffffffffffffffffffffffffffffff1602179055506007820160149054906101000a900460ff168160070160146101000a81548160ff0219169083151502179055506007820160159054906101000a900460ff168160070160156101000a81548160ff0219169083151502179055506007820160169054906101000a900460ff168160070160166101000a81548160ff021916908315150217905550505033600a6000858481518110610af8577f4e487b7100000000000000000000000000000000000000000000000000000000600052603260045260246000fd5b6020026020010151815260200190815260200160002060070160006101000a81548173ffffffffffffffffffffffffffffffffffffffff021916908373ffffffffffffffffffffffffffffffffffffffff1602179055506001600a6000858481518110610b8e577f4e487b7100000000000000000000000000000000000000000000000000000000600052603260045260246000fd5b6020026020010151815260200190815260200160002060070160146101000a81548160ff021916908315150217905550818181518110610bf7577f4e487b7100000000000000000000000000000000000000000000000000000000600052603260045260246000fd5b6020026020010151600a6000858481518110610c3c577f4e487b7100000000000000000000000000000000000000000000000000000000600052603260045260246000fd5b6020026020010151815260200190815260200160002060070160156101000a81548160ff021916908315150217905550610c9a600160009054906101000a900473ffffffffffffffffffffffffffffffffffffffff16336001613b9c565b50818181518110610cd4577f4e487b7100000000000000000000000000000000000000000000000000000000600052603260045260246000fd5b602002602001015115610d8b57610d85600160009054906101000a900473ffffffffffffffffffffffffffffffffffffffff16600a6000868581518110610d44577f4e487b7100000000000000000000000000000000000000000000000000000000600052603260045260246000fd5b6020026020010151815260200190815260200160002060060160009054906101000a900473ffffffffffffffffffffffffffffffffffffffff166005613b9c565b50610ebc565b600a6000848381518110610dc8577f4e487b7100000000000000000000000000000000000000000000000000000000600052603260045260246000fd5b60200260200101518152602001908152602001600020600080820160009055600182016000610df791906140cc565b600282016000610e0791906140cc565b600382016000610e1791906140cc565b6004820160009055600582016000610e2f919061410c565b6006820160006101000a81549073ffffffffffffffffffffffffffffffffffffffff02191690556007820160006101000a81549073ffffffffffffffffffffffffffffffffffffffff02191690556007820160146101000a81549060ff02191690556007820160156101000a81549060ff02191690556007820160166101000a81549060ff021916905550505b8080610ec79061586c565b91505061077a565b505050565b6000600a60008381526020019081526020016000206040518061016001604052908160008201548152602001600182018054610f0f9061583a565b80601f0160208091040260200160405190810160405280929190818152602001828054610f3b9061583a565b8015610f885780601f10610f5d57610100808354040283529160200191610f88565b820191906000526020600020905b815481529060010190602001808311610f6b57829003601f168201915b50505050508152602001600282018054610fa19061583a565b80601f0160208091040260200160405190810160405280929190818152602001828054610fcd9061583a565b801561101a5780601f10610fef5761010080835404028352916020019161101a565b820191906000526020600020905b815481529060010190602001808311610ffd57829003601f168201915b505050505081526020016003820180546110339061583a565b80601f016020809104026020016040519081016040528092919081815260200182805461105f9061583a565b80156110ac5780601f10611081576101008083540402835291602001916110ac565b820191906000526020600020905b81548152906001019060200180831161108f57829003601f168201915b505050505081526020016004820154815260200160058201805480602002602001604051908101604052809291908181526020016000905b828210156111905783829060005260206000200180546111039061583a565b80601f016020809104026020016040519081016040528092919081815260200182805461112f9061583a565b801561117c5780601f106111515761010080835404028352916020019161117c565b820191906000526020600020905b81548152906001019060200180831161115f57829003601f168201915b5050505050815260200190600101906110e4565b5050505081526020016006820160009054906101000a900473ffffffffffffffffffffffffffffffffffffffff1673ffffffffffffffffffffffffffffffffffffffff1673ffffffffffffffffffffffffffffffffffffffff1681526020016007820160009054906101000a900473ffffffffffffffffffffffffffffffffffffffff1673ffffffffffffffffffffffffffffffffffffffff1673ffffffffffffffffffffffffffffffffffffffff1681526020016007820160149054906101000a900460ff161515151581526020016007820160159054906101000a900460ff161515151581526020016007820160169054906101000a900460ff16151515158152505090506112b38160200151826040015183606001518460a00151613ca5565b5050565b6001600f600083815260200190815260200160002060080160166101000a81548160ff02191690831515021790555061134a600160009054906101000a900473ffffffffffffffffffffffffffffffffffffffff16600f600084815260200190815260200160002060080160009054906101000a900473ffffffffffffffffffffffffffffffffffffffff166007613b9c565b5050565b61135661412d565b6005600081546113659061586c565b91905081905581600001818152505084816020018190525083816040018190525082816060018190525042816080018181525050818160a00181905250338160c0019073ffffffffffffffffffffffffffffffffffffffff16908173ffffffffffffffffffffffffffffffffffffffff168152505060008160e0019073ffffffffffffffffffffffffffffffffffffffff16908173ffffffffffffffffffffffffffffffffffffffff168152505060008161010001901515908115158152505060008161012001901515908115158152505060008161014001901515908115158152505080600a600060055481526020019081526020016000206000820151816000015560208201518160010190805190602001906114859291906141b9565b5060408201518160020190805190602001906114a29291906141b9565b5060608201518160030190805190602001906114bf9291906141b9565b506080820151816004015560a08201518160050190805190602001906114e692919061423f565b5060c08201518160060160006101000a81548173ffffffffffffffffffffffffffffffffffffffff021916908373ffffffffffffffffffffffffffffffffffffffff16021790555060e08201518160070160006101000a81548173ffffffffffffffffffffffffffffffffffffffff021916908373ffffffffffffffffffffffffffffffffffffffff1602179055506101008201518160070160146101000a81548160ff0219169083151502179055506101208201518160070160156101000a81548160ff0219169083151502179055506101408201518160070160166101000a81548160ff0219169083151502179055509050505050505050565b600080600060055484111561162c576040517f08c379a000000000000000000000000000000000000000000000000000000000815260040161162390615439565b60405180910390fd5b6000600c60008681526020019081526020016000205490506000600d60008781526020019081526020016000205490508181828461166a91906156fc565b94509450945050509193909250565b60006005548211156116c0576040517f08c379a00000000000000000000000000000000000000000000000000000000081526004016116b790615439565b60405180910390fd5b600e600083815260200190815260200160002060003373ffffffffffffffffffffffffffffffffffffffff1673ffffffffffffffffffffffffffffffffffffffff16815260200190815260200160002060009054906101000a900460ff169050919050565b6060600060065467ffffffffffffffff81111561176b577f4e487b7100000000000000000000000000000000000000000000000000000000600052604160045260246000fd5b6040519080825280602002602001820160405280156117a457816020015b61179161429f565b8152602001906001900390816117895790505b50905060005b600654811015611be057600f60006001836117c591906156fc565b815260200190815260200160002060405180610180016040529081600082015481526020016001820180546117f99061583a565b80601f01602080910402602001604051908101604052809291908181526020018280546118259061583a565b80156118725780601f1061184757610100808354040283529160200191611872565b820191906000526020600020905b81548152906001019060200180831161185557829003601f168201915b5050505050815260200160028201805461188b9061583a565b80601f01602080910402602001604051908101604052809291908181526020018280546118b79061583a565b80156119045780601f106118d957610100808354040283529160200191611904565b820191906000526020600020905b8154815290600101906020018083116118e757829003601f168201915b5050505050815260200160038201805461191d9061583a565b80601f01602080910402602001604051908101604052809291908181526020018280546119499061583a565b80156119965780601f1061196b57610100808354040283529160200191611996565b820191906000526020600020905b81548152906001019060200180831161197957829003601f168201915b50505050508152602001600482015481526020016005820154815260200160068201805480602002602001604051908101604052809291908181526020016000905b82821015611a845783829060005260206000200180546119f79061583a565b80601f0160208091040260200160405190810160405280929190818152602001828054611a239061583a565b8015611a705780601f10611a4557610100808354040283529160200191611a70565b820191906000526020600020905b815481529060010190602001808311611a5357829003601f168201915b5050505050815260200190600101906119d8565b5050505081526020016007820160009054906101000a900473ffffffffffffffffffffffffffffffffffffffff1673ffffffffffffffffffffffffffffffffffffffff1673ffffffffffffffffffffffffffffffffffffffff1681526020016008820160009054906101000a900473ffffffffffffffffffffffffffffffffffffffff1673ffffffffffffffffffffffffffffffffffffffff1673ffffffffffffffffffffffffffffffffffffffff1681526020016008820160149054906101000a900460ff161515151581526020016008820160159054906101000a900460ff161515151581526020016008820160169054906101000a900460ff161515151581525050828281518110611bc2577f4e487b7100000000000000000000000000000000000000000000000000000000600052603260045260246000fd5b60200260200101819052508080611bd89061586c565b9150506117aa565b508091505090565b6060600060075467ffffffffffffffff811115611c2e577f4e487b7100000000000000000000000000000000000000000000000000000000600052604160045260246000fd5b604051908082528060200260200182016040528015611c6757816020015b611c54614332565b815260200190600190039081611c4c5790505b50905060005b6007548110156120065760116000600183611c8891906156fc565b8152602001908152602001600020604051806101200160405290816000820154815260200160018201548152602001600282018054611cc69061583a565b80601f0160208091040260200160405190810160405280929190818152602001828054611cf29061583a565b8015611d3f5780601f10611d1457610100808354040283529160200191611d3f565b820191906000526020600020905b815481529060010190602001808311611d2257829003601f168201915b50505050508152602001600382018054611d589061583a565b80601f0160208091040260200160405190810160405280929190818152602001828054611d849061583a565b8015611dd15780601f10611da657610100808354040283529160200191611dd1565b820191906000526020600020905b815481529060010190602001808311611db457829003601f168201915b50505050508152602001600482018054611dea9061583a565b80601f0160208091040260200160405190810160405280929190818152602001828054611e169061583a565b8015611e635780601f10611e3857610100808354040283529160200191611e63565b820191906000526020600020905b815481529060010190602001808311611e4657829003601f168201915b5050505050815260200160058201805480602002602001604051908101604052809291908181526020016000905b82821015611f3d578382906000526020600020018054611eb09061583a565b80601f0160208091040260200160405190810160405280929190818152602001828054611edc9061583a565b8015611f295780601f10611efe57610100808354040283529160200191611f29565b820191906000526020600020905b815481529060010190602001808311611f0c57829003601f168201915b505050505081526020019060010190611e91565b505050508152602001600682015481526020016007820160009054906101000a900473ffffffffffffffffffffffffffffffffffffffff1673ffffffffffffffffffffffffffffffffffffffff1673ffffffffffffffffffffffffffffffffffffffff168152602001600882015481525050828281518110611fe8577f4e487b7100000000000000000000000000000000000000000000000000000000600052603260045260246000fd5b60200260200101819052508080611ffe9061586c565b915050611c6d565b508091505090565b6000600f600083815260200190815260200160002060080160146101000a81548160ff0219169083151502179055506000600f600083815260200190815260200160002060080160006101000a81548173ffffffffffffffffffffffffffffffffffffffff021916908373ffffffffffffffffffffffffffffffffffffffff1602179055506000600f60008381526020019081526020016000206005018190555050565b60006120bc614394565b600f600084815260200190815260200160002060080160159054906101000a900460ff1660106000858152602001908152602001600020806040518060c0016040529081600082015481526020016001820154815260200160028201548152602001600382015481526020016004820180546121379061583a565b80601f01602080910402602001604051908101604052809291908181526020018280546121639061583a565b80156121b05780601f10612185576101008083540402835291602001916121b0565b820191906000526020600020905b81548152906001019060200180831161219357829003601f168201915b505050505081526020016005820160009054906101000a900473ffffffffffffffffffffffffffffffffffffffff1673ffffffffffffffffffffffffffffffffffffffff1673ffffffffffffffffffffffffffffffffffffffff1681525050905091509150915091565b612222613f99565b6003600081546122319061586c565b91905081905581600001818152505082816020018190525081816040018190525033816060019073ffffffffffffffffffffffffffffffffffffffff16908173ffffffffffffffffffffffffffffffffffffffff168152505080600860003373ffffffffffffffffffffffffffffffffffffffff1673ffffffffffffffffffffffffffffffffffffffff1681526020019081526020016000206000820151816000015560208201518160010190805190602001906122f09291906141b9565b50604082015181600201908051906020019061230d9291906141b9565b5060608201518160030160006101000a81548173ffffffffffffffffffffffffffffffffffffffff021916908373ffffffffffffffffffffffffffffffffffffffff160217905550905050505050565b6000600a600083815260200190815260200160002060070160149054906101000a900460ff1661239057600190506123c7565b600a600083815260200190815260200160002060070160159054906101000a900460ff16156123c257600290506123c7565b600390505b919050565b6123d4613f99565b6004600081546123e39061586c565b91905081905581600001818152505082816020018190525081816040018190525033816060019073ffffffffffffffffffffffffffffffffffffffff16908173ffffffffffffffffffffffffffffffffffffffff168152505080600960003373ffffffffffffffffffffffffffffffffffffffff1673ffffffffffffffffffffffffffffffffffffffff1681526020019081526020016000206000820151816000015560208201518160010190805190602001906124a29291906141b9565b5060408201518160020190805190602001906124bf9291906141b9565b5060608201518160030160006101000a81548173ffffffffffffffffffffffffffffffffffffffff021916908373ffffffffffffffffffffffffffffffffffffffff160217905550905050505050565b600061251a82613f50565b9050919050565b81600f600085815260200190815260200160002060080160156101000a81548160ff021916908315150217905550612557614394565b838160000181815250508181608001819052504281606001818152505060018160200181815250506001816040018181525050338160a0019073ffffffffffffffffffffffffffffffffffffffff16908173ffffffffffffffffffffffffffffffffffffffff1681525050806010600086815260200190815260200160002060008201518160000155602082015181600101556040820151816002015560608201518160030155608082015181600401908051906020019061261a9291906141b9565b5060a08201518160050160006101000a81548173ffffffffffffffffffffffffffffffffffffffff021916908373ffffffffffffffffffffffffffffffffffffffff16021790555090505050505050565b6000600a60008481526020019081526020016000206000015414156126c5576040517f08c379a00000000000000000000000000000000000000000000000000000000081526004016126bc906153f9565b60405180910390fd5b80600a600084815260200190815260200160002060070160166101000a81548160ff021916908315150217905550612721600160009054906101000a900473ffffffffffffffffffffffffffffffffffffffff16336002613b9c565b505050565b61273284848484613ca5565b50505050565b6000612745848484613b9c565b90509392505050565b60606000601260008481526020019081526020016000208054905067ffffffffffffffff8111156127a8577f4e487b7100000000000000000000000000000000000000000000000000000000600052604160045260246000fd5b6040519080825280602002602001820160405280156127e157816020015b6127ce614394565b8152602001906001900390816127c65790505b50905060005b60126000858152602001908152602001600020805490508110156129d057601260008581526020019081526020016000208181548110612850577f4e487b7100000000000000000000000000000000000000000000000000000000600052603260045260246000fd5b90600052602060002090600602016040518060c0016040529081600082015481526020016001820154815260200160028201548152602001600382015481526020016004820180546128a19061583a565b80601f01602080910402602001604051908101604052809291908181526020018280546128cd9061583a565b801561291a5780601f106128ef5761010080835404028352916020019161291a565b820191906000526020600020905b8154815290600101906020018083116128fd57829003601f168201915b505050505081526020016005820160009054906101000a900473ffffffffffffffffffffffffffffffffffffffff1673ffffffffffffffffffffffffffffffffffffffff1673ffffffffffffffffffffffffffffffffffffffff16815250508282815181106129b2577f4e487b7100000000000000000000000000000000000000000000000000000000600052603260045260246000fd5b602002602001018190525080806129c89061586c565b9150506127e7565b5080915050919050565b600554821115612a1f576040517f08c379a0000000000000000000000000000000000000000000000000000000008152600401612a1690615439565b60405180910390fd5b6001600e600084815260200190815260200160002060003373ffffffffffffffffffffffffffffffffffffffff1673ffffffffffffffffffffffffffffffffffffffff16815260200190815260200160002060006101000a81548160ff0219169083151502179055508015612aba57600c600083815260200190815260200160002060008154612aae9061586c565b91905081905550612ae2565b600d600083815260200190815260200160002060008154612ada90615810565b919050819055505b612b10600160009054906101000a900473ffffffffffffffffffffffffffffffffffffffff16336001613b9c565b505050565b612b1d614332565b600760008154612b2c9061586c565b91905081905581600001818152505042816020018181525050818160c0018181525050858160400181905250848160600181905250838160800181905250828160a00181905250338160e0019073ffffffffffffffffffffffffffffffffffffffff16908173ffffffffffffffffffffffffffffffffffffffff16815250506000816101000181815250508060116000600754815260200190815260200160002060008201518160000155602082015181600101556040820151816002019080519060200190612bfd9291906141b9565b506060820151816003019080519060200190612c1a9291906141b9565b506080820151816004019080519060200190612c379291906141b9565b5060a0820151816005019080519060200190612c5492919061423f565b5060c0820151816006015560e08201518160070160006101000a81548173ffffffffffffffffffffffffffffffffffffffff021916908373ffffffffffffffffffffffffffffffffffffffff1602179055506101008201518160080155905050505050505050565b6001600f600083815260200190815260200160002060080160146101000a81548160ff02191690831515021790555033600f600083815260200190815260200160002060080160006101000a81548173ffffffffffffffffffffffffffffffffffffffff021916908373ffffffffffffffffffffffffffffffffffffffff16021790555042600f60008381526020019081526020016000206005018190555060028060003373ffffffffffffffffffffffffffffffffffffffff1673ffffffffffffffffffffffffffffffffffffffff168152602001908152602001600020541015612ddd576040517f08c379a0000000000000000000000000000000000000000000000000000000008152600401612dd490615419565b60405180910390fd5b612e0b33600160009054906101000a900473ffffffffffffffffffffffffffffffffffffffff166002613b9c565b5050565b612e17614394565b83816000018181525050818160800181905250428160600181815250506011600085815260200190815260200160002060080160008154612e579061586c565b91905081905581602001818152505082816040018181525050338160a0019073ffffffffffffffffffffffffffffffffffffffff16908173ffffffffffffffffffffffffffffffffffffffff168152505060126000858152602001908152602001600020819080600181540180825580915050600190039060005260206000209060060201600090919091909150600082015181600001556020820151816001015560408201518160020155606082015181600301556080820151816004019080519060200190612f299291906141b9565b5060a08201518160050160006101000a81548173ffffffffffffffffffffffffffffffffffffffff021916908373ffffffffffffffffffffffffffffffffffffffff160217905550505050505050565b612f81613f99565b600960008373ffffffffffffffffffffffffffffffffffffffff1673ffffffffffffffffffffffffffffffffffffffff16815260200190815260200160002060405180608001604052908160008201548152602001600182018054612fe59061583a565b80601f01602080910402602001604051908101604052809291908181526020018280546130119061583a565b801561305e5780601f106130335761010080835404028352916020019161305e565b820191906000526020600020905b81548152906001019060200180831161304157829003601f168201915b505050505081526020016002820180546130779061583a565b80601f01602080910402602001604051908101604052809291908181526020018280546130a39061583a565b80156130f05780601f106130c5576101008083540402835291602001916130f0565b820191906000526020600020905b8154815290600101906020018083116130d357829003601f168201915b505050505081526020016003820160009054906101000a900473ffffffffffffffffffffffffffffffffffffffff1673ffffffffffffffffffffffffffffffffffffffff1673ffffffffffffffffffffffffffffffffffffffff16815250509050919050565b60606000600b60003373ffffffffffffffffffffffffffffffffffffffff1673ffffffffffffffffffffffffffffffffffffffff16815260200190815260200160002080549050905060008167ffffffffffffffff8111156131e1577f4e487b7100000000000000000000000000000000000000000000000000000000600052604160045260246000fd5b60405190808252806020026020018201604052801561321a57816020015b61320761412d565b8152602001906001900390816131ff5790505b50905060005b828110156136b057600b60003373ffffffffffffffffffffffffffffffffffffffff1673ffffffffffffffffffffffffffffffffffffffff168152602001908152602001600020818154811061329f577f4e487b7100000000000000000000000000000000000000000000000000000000600052603260045260246000fd5b906000526020600020906008020160405180610160016040529081600082015481526020016001820180546132d39061583a565b80601f01602080910402602001604051908101604052809291908181526020018280546132ff9061583a565b801561334c5780601f106133215761010080835404028352916020019161334c565b820191906000526020600020905b81548152906001019060200180831161332f57829003601f168201915b505050505081526020016002820180546133659061583a565b80601f01602080910402602001604051908101604052809291908181526020018280546133919061583a565b80156133de5780601f106133b3576101008083540402835291602001916133de565b820191906000526020600020905b8154815290600101906020018083116133c157829003601f168201915b505050505081526020016003820180546133f79061583a565b80601f01602080910402602001604051908101604052809291908181526020018280546134239061583a565b80156134705780601f1061344557610100808354040283529160200191613470565b820191906000526020600020905b81548152906001019060200180831161345357829003601f168201915b505050505081526020016004820154815260200160058201805480602002602001604051908101604052809291908181526020016000905b828210156135545783829060005260206000200180546134c79061583a565b80601f01602080910402602001604051908101604052809291908181526020018280546134f39061583a565b80156135405780601f1061351557610100808354040283529160200191613540565b820191906000526020600020905b81548152906001019060200180831161352357829003601f168201915b5050505050815260200190600101906134a8565b5050505081526020016006820160009054906101000a900473ffffffffffffffffffffffffffffffffffffffff1673ffffffffffffffffffffffffffffffffffffffff1673ffffffffffffffffffffffffffffffffffffffff1681526020016007820160009054906101000a900473ffffffffffffffffffffffffffffffffffffffff1673ffffffffffffffffffffffffffffffffffffffff1673ffffffffffffffffffffffffffffffffffffffff1681526020016007820160149054906101000a900460ff161515151581526020016007820160159054906101000a900460ff161515151581526020016007820160169054906101000a900460ff161515151581525050828281518110613692577f4e487b7100000000000000000000000000000000000000000000000000000000600052603260045260246000fd5b602002602001018190525080806136a89061586c565b915050613220565b50809250505090565b6060600060055467ffffffffffffffff8111156136ff577f4e487b7100000000000000000000000000000000000000000000000000000000600052604160045260246000fd5b60405190808252806020026020018201604052801561373857816020015b61372561412d565b81526020019060019003908161371d5790505b50905060005b600554811015613b6a57600a600060018361375991906156fc565b8152602001908152602001600020604051806101600160405290816000820154815260200160018201805461378d9061583a565b80601f01602080910402602001604051908101604052809291908181526020018280546137b99061583a565b80156138065780601f106137db57610100808354040283529160200191613806565b820191906000526020600020905b8154815290600101906020018083116137e957829003601f168201915b5050505050815260200160028201805461381f9061583a565b80601f016020809104026020016040519081016040528092919081815260200182805461384b9061583a565b80156138985780601f1061386d57610100808354040283529160200191613898565b820191906000526020600020905b81548152906001019060200180831161387b57829003601f168201915b505050505081526020016003820180546138b19061583a565b80601f01602080910402602001604051908101604052809291908181526020018280546138dd9061583a565b801561392a5780601f106138ff5761010080835404028352916020019161392a565b820191906000526020600020905b81548152906001019060200180831161390d57829003601f168201915b505050505081526020016004820154815260200160058201805480602002602001604051908101604052809291908181526020016000905b82821015613a0e5783829060005260206000200180546139819061583a565b80601f01602080910402602001604051908101604052809291908181526020018280546139ad9061583a565b80156139fa5780601f106139cf576101008083540402835291602001916139fa565b820191906000526020600020905b8154815290600101906020018083116139dd57829003601f168201915b505050505081526020019060010190613962565b5050505081526020016006820160009054906101000a900473ffffffffffffffffffffffffffffffffffffffff1673ffffffffffffffffffffffffffffffffffffffff1673ffffffffffffffffffffffffffffffffffffffff1681526020016007820160009054906101000a900473ffffffffffffffffffffffffffffffffffffffff1673ffffffffffffffffffffffffffffffffffffffff1673ffffffffffffffffffffffffffffffffffffffff1681526020016007820160149054906101000a900460ff161515151581526020016007820160159054906101000a900460ff161515151581526020016007820160169054906101000a900460ff161515151581525050828281518110613b4c577f4e487b7100000000000000000000000000000000000000000000000000000000600052603260045260246000fd5b60200260200101819052508080613b629061586c565b91505061373e565b508091505090565b6000600160009054906101000a900473ffffffffffffffffffffffffffffffffffffffff16905090565b6000806000905082600260008773ffffffffffffffffffffffffffffffffffffffff1673ffffffffffffffffffffffffffffffffffffffff1681526020019081526020016000205410613c9a5782600260008773ffffffffffffffffffffffffffffffffffffffff1673ffffffffffffffffffffffffffffffffffffffff1681526020019081526020016000206000828254613c389190615752565b9250508190555082600260008673ffffffffffffffffffffffffffffffffffffffff1673ffffffffffffffffffffffffffffffffffffffff1681526020019081526020016000206000828254613c8e91906156fc565b92505081905550600190505b809150509392505050565b613cad61429f565b600660008154613cbc9061586c565b9190508190558160000181815250508481602001819052508381604001819052508281606001819052504281608001818152505060008160a0018181525050818160c00181905250338160e0019073ffffffffffffffffffffffffffffffffffffffff16908173ffffffffffffffffffffffffffffffffffffffff1681525050600081610100019073ffffffffffffffffffffffffffffffffffffffff16908173ffffffffffffffffffffffffffffffffffffffff168152505060008161012001901515908115158152505060008161014001901515908115158152505060008161016001901515908115158152505080600f60006006548152602001908152602001600020600082015181600001556020820151816001019080519060200190613de89291906141b9565b506040820151816002019080519060200190613e059291906141b9565b506060820151816003019080519060200190613e229291906141b9565b506080820151816004015560a0820151816005015560c0820151816006019080519060200190613e5392919061423f565b5060e08201518160070160006101000a81548173ffffffffffffffffffffffffffffffffffffffff021916908373ffffffffffffffffffffffffffffffffffffffff1602179055506101008201518160080160006101000a81548173ffffffffffffffffffffffffffffffffffffffff021916908373ffffffffffffffffffffffffffffffffffffffff1602179055506101208201518160080160146101000a81548160ff0219169083151502179055506101408201518160080160156101000a81548160ff0219169083151502179055506101608201518160080160166101000a81548160ff0219169083151502179055509050505050505050565b6000600260008373ffffffffffffffffffffffffffffffffffffffff1673ffffffffffffffffffffffffffffffffffffffff168152602001908152602001600020549050919050565b6040518060800160405280600081526020016060815260200160608152602001600073ffffffffffffffffffffffffffffffffffffffff1681525090565b828054613fe39061583a565b90600052602060002090601f0160209004810192826140055760008555614053565b82601f106140165780548555614053565b8280016001018555821561405357600052602060002091601f016020900482015b82811115614052578254825591600101919060010190614037565b5b50905061406091906143e0565b5090565b8280548282559060005260206000209081019282156140bb5760005260206000209182015b828111156140ba57828290805461409f9061583a565b6140aa929190613fd7565b5091600101919060010190614089565b5b5090506140c891906143fd565b5090565b5080546140d89061583a565b6000825580601f106140ea5750614109565b601f01602090049060005260206000209081019061410891906143e0565b5b50565b508054600082559060005260206000209081019061412a91906143fd565b50565b604051806101600160405280600081526020016060815260200160608152602001606081526020016000815260200160608152602001600073ffffffffffffffffffffffffffffffffffffffff168152602001600073ffffffffffffffffffffffffffffffffffffffff1681526020016000151581526020016000151581526020016000151581525090565b8280546141c59061583a565b90600052602060002090601f0160209004810192826141e7576000855561422e565b82601f1061420057805160ff191683800117855561422e565b8280016001018555821561422e579182015b8281111561422d578251825591602001919060010190614212565b5b50905061423b91906143e0565b5090565b82805482825590600052602060002090810192821561428e579160200282015b8281111561428d57825182908051906020019061427d9291906141b9565b509160200191906001019061425f565b5b50905061429b91906143fd565b5090565b60405180610180016040528060008152602001606081526020016060815260200160608152602001600081526020016000815260200160608152602001600073ffffffffffffffffffffffffffffffffffffffff168152602001600073ffffffffffffffffffffffffffffffffffffffff1681526020016000151581526020016000151581526020016000151581525090565b60405180610120016040528060008152602001600081526020016060815260200160608152602001606081526020016060815260200160008152602001600073ffffffffffffffffffffffffffffffffffffffff168152602001600081525090565b6040518060c001604052806000815260200160008152602001600081526020016000815260200160608152602001600073ffffffffffffffffffffffffffffffffffffffff1681525090565b5b808211156143f95760008160009055506001016143e1565b5090565b5b8082111561441d576000818161441491906140cc565b506001016143fe565b5090565b600061443461442f846154fe565b6154cd565b9050808382526020820190508285602086028201111561445357600080fd5b60005b8581101561448357816144698882614627565b845260208401935060208301925050600181019050614456565b5050509392505050565b60006144a061449b8461552a565b6154cd565b9050808382526020820190508260005b858110156144e057813585016144c6888261463c565b8452602084019350602083019250506001810190506144b0565b5050509392505050565b60006144fd6144f884615556565b6154cd565b9050808382526020820190508285602086028201111561451c57600080fd5b60005b8581101561454c57816145328882614666565b84526020840193506020830192505060018101905061451f565b5050509392505050565b600061456961456484615582565b6154cd565b90508281526020810184848401111561458157600080fd5b61458c8482856157ce565b509392505050565b6000813590506145a381615953565b92915050565b600082601f8301126145ba57600080fd5b81356145ca848260208601614421565b91505092915050565b600082601f8301126145e457600080fd5b81356145f484826020860161448d565b91505092915050565b600082601f83011261460e57600080fd5b813561461e8482602086016144ea565b91505092915050565b6000813590506146368161596a565b92915050565b600082601f83011261464d57600080fd5b813561465d848260208601614556565b91505092915050565b60008135905061467581615981565b92915050565b60006020828403121561468d57600080fd5b600061469b84828501614594565b91505092915050565b6000806000606084860312156146b957600080fd5b60006146c786828701614594565b93505060206146d886828701614594565b92505060406146e986828701614666565b9150509250925092565b6000806040838503121561470657600080fd5b600083013567ffffffffffffffff81111561472057600080fd5b61472c858286016145fd565b925050602083013567ffffffffffffffff81111561474957600080fd5b614755858286016145a9565b9150509250929050565b6000806040838503121561477257600080fd5b600083013567ffffffffffffffff81111561478c57600080fd5b6147988582860161463c565b925050602083013567ffffffffffffffff8111156147b557600080fd5b6147c18582860161463c565b9150509250929050565b600080600080608085870312156147e157600080fd5b600085013567ffffffffffffffff8111156147fb57600080fd5b6148078782880161463c565b945050602085013567ffffffffffffffff81111561482457600080fd5b6148308782880161463c565b935050604085013567ffffffffffffffff81111561484d57600080fd5b6148598782880161463c565b925050606085013567ffffffffffffffff81111561487657600080fd5b614882878288016145d3565b91505092959194509250565b600080600080600060a086880312156148a657600080fd5b600086013567ffffffffffffffff8111156148c057600080fd5b6148cc8882890161463c565b955050602086013567ffffffffffffffff8111156148e957600080fd5b6148f58882890161463c565b945050604086013567ffffffffffffffff81111561491257600080fd5b61491e8882890161463c565b935050606086013567ffffffffffffffff81111561493b57600080fd5b614947888289016145d3565b925050608061495888828901614666565b9150509295509295909350565b60006020828403121561497757600080fd5b600061498584828501614666565b91505092915050565b600080604083850312156149a157600080fd5b60006149af85828601614666565b92505060206149c085828601614627565b9150509250929050565b6000806000606084860312156149df57600080fd5b60006149ed86828701614666565b93505060206149fe86828701614627565b925050604084013567ffffffffffffffff811115614a1b57600080fd5b614a278682870161463c565b9150509250925092565b600080600060608486031215614a4657600080fd5b6000614a5486828701614666565b9350506020614a6586828701614666565b925050604084013567ffffffffffffffff811115614a8257600080fd5b614a8e8682870161463c565b9150509250925092565b6000614aa48383614d81565b905092915050565b6000614ab88383614e7a565b905092915050565b6000614acc8383614f7e565b905092915050565b6000614ae08383615090565b905092915050565b6000614af483836151a9565b905092915050565b614b0581615786565b82525050565b614b1481615786565b82525050565b6000614b2582615602565b614b2f8185615685565b935083602082028501614b41856155b2565b8060005b85811015614b7d5784840389528151614b5e8582614a98565b9450614b6983615644565b925060208a01995050600181019050614b45565b50829750879550505050505092915050565b6000614b9a8261560d565b614ba48185615696565b935083602082028501614bb6856155c2565b8060005b85811015614bf25784840389528151614bd38582614aac565b9450614bde83615651565b925060208a01995050600181019050614bba565b50829750879550505050505092915050565b6000614c0f82615618565b614c1981856156a7565b935083602082028501614c2b856155d2565b8060005b85811015614c675784840389528151614c488582614ac0565b9450614c538361565e565b925060208a01995050600181019050614c2f565b50829750879550505050505092915050565b6000614c8482615623565b614c8e81856156b8565b935083602082028501614ca0856155e2565b8060005b85811015614cdc5784840389528151614cbd8582614ad4565b9450614cc88361566b565b925060208a01995050600181019050614ca4565b50829750879550505050505092915050565b6000614cf98261562e565b614d0381856156c9565b935083602082028501614d15856155f2565b8060005b85811015614d515784840389528151614d328582614ae8565b9450614d3d83615678565b925060208a01995050600181019050614d19565b50829750879550505050505092915050565b614d6c81615798565b82525050565b614d7b81615798565b82525050565b6000614d8c82615639565b614d9681856156da565b9350614da68185602086016157dd565b614daf81615942565b840191505092915050565b6000614dc76012836156eb565b91507f496e76616c6964206361736520696e64657800000000000000000000000000006000830152602082019050919050565b6000614e076012836156eb565b91507f437265646974206e6f7420656e6f7567682100000000000000000000000000006000830152602082019050919050565b6000614e47600f836156eb565b91507f43617365204e6f742045786973747300000000000000000000000000000000006000830152602082019050919050565b600061016083016000830151614e9360008601826152ed565b5060208301518482036020860152614eab8282614d81565b91505060408301518482036040860152614ec58282614d81565b91505060608301518482036060860152614edf8282614d81565b9150506080830151614ef460808601826152ed565b5060a083015184820360a0860152614f0c8282614b1a565b91505060c0830151614f2160c0860182614afc565b5060e0830151614f3460e0860182614afc565b50610100830151614f49610100860182614d63565b50610120830151614f5e610120860182614d63565b50610140830151614f73610140860182614d63565b508091505092915050565b600060c083016000830151614f9660008601826152ed565b506020830151614fa960208601826152ed565b506040830151614fbc60408601826152ed565b506060830151614fcf60608601826152ed565b5060808301518482036080860152614fe78282614d81565b91505060a0830151614ffc60a0860182614afc565b508091505092915050565b600060c08301600083015161501f60008601826152ed565b50602083015161503260208601826152ed565b50604083015161504560408601826152ed565b50606083015161505860608601826152ed565b50608083015184820360808601526150708282614d81565b91505060a083015161508560a0860182614afc565b508091505092915050565b6000610180830160008301516150a960008601826152ed565b50602083015184820360208601526150c18282614d81565b915050604083015184820360408601526150db8282614d81565b915050606083015184820360608601526150f58282614d81565b915050608083015161510a60808601826152ed565b5060a083015161511d60a08601826152ed565b5060c083015184820360c08601526151358282614b1a565b91505060e083015161514a60e0860182614afc565b5061010083015161515f610100860182614afc565b50610120830151615174610120860182614d63565b50610140830151615189610140860182614d63565b5061016083015161519e610160860182614d63565b508091505092915050565b6000610120830160008301516151c260008601826152ed565b5060208301516151d560208601826152ed565b50604083015184820360408601526151ed8282614d81565b915050606083015184820360608601526152078282614d81565b915050608083015184820360808601526152218282614d81565b91505060a083015184820360a086015261523b8282614b1a565b91505060c083015161525060c08601826152ed565b5060e083015161526360e0860182614afc565b506101008301516152786101008601826152ed565b508091505092915050565b600060808301600083015161529b60008601826152ed565b50602083015184820360208601526152b38282614d81565b915050604083015184820360408601526152cd8282614d81565b91505060608301516152e26060860182614afc565b508091505092915050565b6152f6816157c4565b82525050565b615305816157c4565b82525050565b60006020820190506153206000830184614b0b565b92915050565b600060208201905081810360008301526153408184614b8f565b905092915050565b600060208201905081810360008301526153628184614c04565b905092915050565b600060208201905081810360008301526153848184614c79565b905092915050565b600060208201905081810360008301526153a68184614cee565b905092915050565b60006020820190506153c36000830184614d72565b92915050565b60006040820190506153de6000830185614d72565b81810360208301526153f08184615007565b90509392505050565b6000602082019050818103600083015261541281614dba565b9050919050565b6000602082019050818103600083015261543281614dfa565b9050919050565b6000602082019050818103600083015261545281614e3a565b9050919050565b600060208201905081810360008301526154738184615283565b905092915050565b600060208201905061549060008301846152fc565b92915050565b60006060820190506154ab60008301866152fc565b6154b860208301856152fc565b6154c560408301846152fc565b949350505050565b6000604051905081810181811067ffffffffffffffff821117156154f4576154f3615913565b5b8060405250919050565b600067ffffffffffffffff82111561551957615518615913565b5b602082029050602081019050919050565b600067ffffffffffffffff82111561554557615544615913565b5b602082029050602081019050919050565b600067ffffffffffffffff82111561557157615570615913565b5b602082029050602081019050919050565b600067ffffffffffffffff82111561559d5761559c615913565b5b601f19601f8301169050602081019050919050565b6000819050602082019050919050565b6000819050602082019050919050565b6000819050602082019050919050565b6000819050602082019050919050565b6000819050602082019050919050565b600081519050919050565b600081519050919050565b600081519050919050565b600081519050919050565b600081519050919050565b600081519050919050565b6000602082019050919050565b6000602082019050919050565b6000602082019050919050565b6000602082019050919050565b6000602082019050919050565b600082825260208201905092915050565b600082825260208201905092915050565b600082825260208201905092915050565b600082825260208201905092915050565b600082825260208201905092915050565b600082825260208201905092915050565b600082825260208201905092915050565b6000615707826157c4565b9150615712836157c4565b9250827fffffffffffffffffffffffffffffffffffffffffffffffffffffffffffffffff03821115615747576157466158b5565b5b828201905092915050565b600061575d826157c4565b9150615768836157c4565b92508282101561577b5761577a6158b5565b5b828203905092915050565b6000615791826157a4565b9050919050565b60008115159050919050565b600073ffffffffffffffffffffffffffffffffffffffff82169050919050565b6000819050919050565b82818337600083830152505050565b60005b838110156157fb5780820151818401526020810190506157e0565b8381111561580a576000848401525b50505050565b600061581b826157c4565b9150600082141561582f5761582e6158b5565b5b600182039050919050565b6000600282049050600182168061585257607f821691505b60208210811415615866576158656158e4565b5b50919050565b6000615877826157c4565b91507fffffffffffffffffffffffffffffffffffffffffffffffffffffffffffffffff8214156158aa576158a96158b5565b5b600182019050919050565b7f4e487b7100000000000000000000000000000000000000000000000000000000600052601160045260246000fd5b7f4e487b7100000000000000000000000000000000000000000000000000000000600052602260045260246000fd5b7f4e487b7100000000000000000000000000000000000000000000000000000000600052604160045260246000fd5b6000601f19601f8301169050919050565b61595c81615786565b811461596757600080fd5b50565b61597381615798565b811461597e57600080fd5b50565b61598a816157c4565b811461599557600080fd5b5056fea26469706673582212206eb02a922f5644481dbcf46b422894ec2a7c810be8adc4dbb90195ce3675db9d64736f6c63430008000033",
  "immutableReferences": {},
  "source": "// SPDX-License-Identifier: MIT\npragma solidity >=0.7.0 <0.9.0;\n\n// \ncontract Main {\n    // \n    uint256 totalCredit;\n    // \n    address administrator;\n    // \n    mapping(address => uint) balanceOf;\n\n    // \n    uint policeIndex;\n    uint civilIndex;\n    uint caseIndex;\n    uint taskIndex;\n    uint transactionPostIndex;\n\n    constructor() {\n        totalCredit = 1000;\n        administrator = msg.sender;\n        // \n        balanceOf[msg.sender] = totalCredit;\n        \n        policeIndex = 0;\n        civilIndex = 0;\n        caseIndex = 0;\n        taskIndex = 0;\n        transactionPostIndex = 0;\n    }\n\n    // \n    function getAdministratorAdd() external view returns (address) {\n        return administrator;\n    }\n\n    // \n    function _getBalanceOf(address _userAdd) internal view returns (uint) {\n        return (balanceOf[_userAdd]);\n    }\n\n    function getBalanceOf(address _userAdd) external view returns (uint) {\n        return _getBalanceOf(_userAdd);\n    }\n\n    // \n    // \n    function _transfer(address _from, address _to, uint _val) internal returns (bool) {\n        bool success = false;\n        if (balanceOf[_from] >= _val) {\n            balanceOf[_from] -= _val;\n            balanceOf[_to] += _val;\n            success = true;\n        }\n        return success;\n    }\n\n    function transfer(address _from, address _to, uint _val) external returns (bool) {\n        return _transfer(_from, _to, _val);\n    }\n\n    // \n    struct User {\n        // id\n        uint id;\n        // \n        string name;\n        // \n        string avatarLink;\n        // \n        address userAdd;\n    }\n\n    // \n    mapping(address => User) policeList;\n\n    // \n    function createPoliceUser(string memory _name, string memory _avatarLink) external {\n        User memory _police;\n        _police.id = ++policeIndex;\n        _police.name = _name;\n        _police.avatarLink = _avatarLink;\n        _police.userAdd = msg.sender;\n        policeList[msg.sender] = _police;\n    }\n\n    // \n    function getPoliceUser(address _userAdd) external view returns (User memory) {\n        return policeList[_userAdd];\n    }\n\n    // \n    mapping(address => User) civilList;\n\n    // \n    function createCivilUser(string memory _name, string memory _avatarLink) external {\n        User memory _civil;\n        _civil.id = ++civilIndex;\n        _civil.name = _name;\n        _civil.avatarLink = _avatarLink;\n        _civil.userAdd = msg.sender;\n        civilList[msg.sender] = _civil;\n    }\n\n    // \n    function getCivilUser(address _userAdd) external view returns (User memory) {\n        return civilList[_userAdd]; \n    }\n\n    // \n    struct Reply {\n        // id\n        uint repoId;\n        // \n        uint floor;\n        // \n        //  = 1  = 2...\n        uint level;\n        uint postTime;\n        // \n        string details;\n        // \n        address userAdd;\n    }\n\n    // \n    struct Case {\n        uint id;\n        string title;\n        // \n        string tag;\n        string description;\n        uint postTime;\n        string[] imageLinks;\n        // \n        address userAdd;\n        // \n        address validitySetUserAdd;\n        // \n        bool isSetValidity;\n        // \n        bool isValid;\n        // \n        bool isFraud;\n    }\n\n    // \n    mapping(uint => Case) caseList;\n    //  \n    mapping(address => Case[]) personalList;\n\n    //  -> \n    function postCase(string memory _title, string memory _tag, string memory _description, string[] memory _imageLinks) external {\n        Case memory _case;\n        _case.id = ++caseIndex;\n        _case.title = _title;\n        _case.tag = _tag;\n        _case.description = _description;\n        _case.postTime = block.timestamp;\n        _case.imageLinks = _imageLinks;\n        _case.userAdd = msg.sender;\n        _case.validitySetUserAdd = address(0);\n        _case.isSetValidity = false;\n        _case.isValid = false;\n        _case.isFraud = false;\n        // \n        caseList[caseIndex] = _case;\n    } \n\n    // \n    function getCaseList() external view returns (Case[] memory) {\n        Case[] memory _List = new Case[](caseIndex);\n        for (uint i = 0; i < caseIndex; i++) {\n            _List[i] = caseList[i + 1];\n        }\n        return (_List);\n    }\n\n    // \n    function setCaseValidity(uint[] memory _caseIndex, bool[] memory _isValid) external {\n        for (uint i = 0; i < _caseIndex.length; i++) {\n            require(caseList[_caseIndex[i]].id != 0, \"Invalid case index\");\n            personalList[msg.sender].push(caseList[_caseIndex[i]]);\n            caseList[_caseIndex[i]].validitySetUserAdd = msg.sender;\n            caseList[_caseIndex[i]].isSetValidity = true;\n            caseList[_caseIndex[i]].isValid = _isValid[i];\n            // +1\n            _transfer(administrator, msg.sender, 1);\n            if (_isValid[i]) {\n                //  +5\n                _transfer(administrator, caseList[_caseIndex[i]].userAdd, 5);\n            } else {\n                //  \n                delete caseList[_caseIndex[i]];\n            }\n        }\n    }\n\n    // \n    function getMyHistoryCaseValiditySet() external view returns (Case[] memory) {\n        uint siz = personalList[msg.sender].length;\n        Case[] memory _List = new Case[](siz);\n        for (uint i = 0; i < siz; i++) {\n            _List[i] = personalList[msg.sender][i];\n        }\n        return _List;\n    }\n\n    // \n    function setIsFraudCase(uint _caseIndex, bool _isFraud) external {\n        require(caseList[_caseIndex].id != 0, \"Invalid case index\");\n        caseList[_caseIndex].isFraud = _isFraud;\n        // +2\n        _transfer(administrator, msg.sender, 2);\n    } \n\n    // \n    function getCaseState(uint _caseIndex) external view returns (uint) {\n        if (!caseList[_caseIndex].isSetValidity) {\n            // \n            return 1;\n        } else {\n            if (caseList[_caseIndex].isValid) {\n                //\n                return 2;\n            } else {\n                // \n                return 3;\n            }\n        }\n    }  \n\n    // \n    //  \n    mapping(uint => uint) voteYesCount;\n    \n    // \n    mapping(uint => uint) voteNoCount;\n\n    //  \n    mapping(uint => mapping(address => bool)) isVotedThisAddress;\n\n    // \n    function getIsVoted(uint _caseIndex) external view returns (bool) {\n        require(_caseIndex <= caseIndex, \"Case Not Exists\");\n        return isVotedThisAddress[_caseIndex][msg.sender];\n    }\n\n    // \n    //    \n    function getVoteCountOf(uint _caseIndex) external view returns (uint, uint, uint) {\n        require(_caseIndex <= caseIndex, \"Case Not Exists\");\n        uint _yes = voteYesCount[_caseIndex];\n        uint _no = voteNoCount[_caseIndex];\n        return (_yes, _no, _yes + _no);\n    }\n    \n    // \n    function vote(uint _caseIndex, bool _isFraud) external {\n        require(_caseIndex <= caseIndex, \"Case Not Exists\");\n        isVotedThisAddress[_caseIndex][msg.sender] = true;\n        if (_isFraud) {\n            ++voteYesCount[_caseIndex];\n        } else {\n            --voteNoCount[_caseIndex];\n        }\n        // +1\n        _transfer(administrator, msg.sender, 1);\n    }\n\n    // \n    //  => \n    struct Task {\n        uint id;\n        string title;\n        string tag;\n        string description;\n        uint postTime;\n        // \n        uint acceptTime;\n        string[] imageLinks;\n        // \n        address userAdd;\n        // \n        address acceptAdd;\n        // \n        bool isAccept;\n        // \n        bool isFraud;\n        // \n        bool isFinished;\n    }\n\n    // \n    mapping(uint => Task) taskList;\n\n    // \n    function _postTask(string memory _title, string memory _tag, string memory _description, string[] memory _imageLinks) internal {\n        Task memory _task;\n        _task.id = ++taskIndex;\n        _task.title = _title;\n        _task.tag = _tag;\n        _task.description = _description;\n        _task.postTime = block.timestamp;\n        _task.acceptTime = 0;\n        _task.imageLinks = _imageLinks;\n        _task.userAdd = msg.sender;\n        _task.acceptAdd = address(0);\n        _task.isAccept = false;\n        _task.isFraud = false;\n        _task.isFinished = false;\n        taskList[taskIndex] = _task;\n    }\n\n    function postTask(string memory _title, string memory _tag, string memory _description, string[] memory _imageLinks) external {\n        _postTask(_title, _tag, _description, _imageLinks);\n    }\n\n    // \n    function postTaskFromCase(uint _caseIndex) external {\n        Case memory _case = caseList[_caseIndex];\n        _postTask(_case.title, _case.tag, _case.description, _case.imageLinks);\n    }\n\n    // \n    function getTaskList() external view returns (Task[] memory) {\n        Task[] memory _List = new Task[](taskIndex);\n        for (uint i = 0; i < taskIndex; i++) {\n            _List[i] = taskList[i + 1];\n        }\n        return (_List);\n    }\n\n    // \n    function setCaseAccept(uint _taskIndex) external {\n        taskList[_taskIndex].isAccept = true;\n        taskList[_taskIndex].acceptAdd = msg.sender;\n        taskList[_taskIndex].acceptTime = block.timestamp;\n        // \n        require(balanceOf[msg.sender] >= 2, \"Credit not enough!\");\n        _transfer(msg.sender, administrator, 2);\n    }\n\n    // \n    mapping(uint => Reply) taskReply;\n\n    // \n    function postReply2Task(uint _taskIndex, bool _isFraud, string memory _details) external {\n        taskList[_taskIndex].isFraud = _isFraud;\n        Reply memory _reply;\n        _reply.repoId = _taskIndex;\n        _reply.details = _details;\n        _reply.postTime = block.timestamp;\n        _reply.floor = 1;\n        _reply.level = 1;\n        _reply.userAdd = msg.sender;\n        taskReply[_taskIndex] = _reply;\n    }\n\n    // \n    function getTaskReply(uint _taskIndex) external view returns (bool, Reply memory) {\n        return (taskList[_taskIndex].isFraud, taskReply[_taskIndex]);\n    }\n\n    // \n    function setCaseFinished(uint _taskIndex) external {\n        taskList[_taskIndex].isFinished = true;\n        _transfer(administrator, taskList[_taskIndex].acceptAdd, 5+2);\n    }\n\n    //  \n    function setCaseFailed(uint _taskIndex) external {\n        taskList[_taskIndex].isAccept = false;\n        taskList[_taskIndex].acceptAdd = address(0);\n        taskList[_taskIndex].acceptTime = 0;\n    }\n\n    // \n    // \n    struct TransactionPost {\n        uint id;\n        uint postTime;\n        string title;\n        string description;\n        //   or \n        string tag;\n        string[] imageLink;\n        // \n        uint price;\n        address userAdd;\n        // \n        uint replyCounts;\n    }\n\n    // \n    mapping(uint => TransactionPost) transactionPostList;\n\n    // \n    function postTransactionPost(string memory _title, string memory _description, string memory _tag, string[] memory _imageLink, uint _price) external {\n        TransactionPost memory _post;\n        _post.id = ++transactionPostIndex;\n        _post.postTime = block.timestamp;\n        _post.price = _price;\n        _post.title = _title;\n        _post.description = _description;\n        _post.tag = _tag;\n        _post.imageLink = _imageLink;\n        _post.userAdd = msg.sender;\n        _post.replyCounts = 0;\n        // \n        transactionPostList[transactionPostIndex] = _post;\n    }\n\n    // \n    function getTransactionPostList() external view returns (TransactionPost[] memory) {\n        TransactionPost[] memory _List = new TransactionPost[](transactionPostIndex);\n        for (uint i = 0; i < transactionPostIndex; i++) {\n            _List[i] = transactionPostList[i + 1];\n        }\n        return _List;\n    }\n\n    // \n    mapping(uint => Reply[]) transactionPostReplyList;\n\n    // \n    function postReply2TransactionPost(uint _transactionPostIndex, uint _level, string memory _details) external {\n        Reply memory _reply;\n        _reply.repoId = _transactionPostIndex;\n        _reply.details = _details;\n        _reply.postTime = block.timestamp;\n        _reply.floor = ++transactionPostList[_transactionPostIndex].replyCounts;\n        _reply.level = _level;\n        _reply.userAdd = msg.sender;\n        transactionPostReplyList[_transactionPostIndex].push(_reply);\n    }\n\n    // \n    function getTransactionPostReplyList(uint _transactionPostIndex) external view returns (Reply[] memory) {\n        Reply[] memory _List = new Reply[](transactionPostReplyList[_transactionPostIndex].length);\n        for (uint i = 0; i < transactionPostReplyList[_transactionPostIndex].length; i++) {\n            _List[i] = transactionPostReplyList[_transactionPostIndex][i];\n        }\n        return _List;\n    }\n}",
  "sourcePath": "/Users/peggy_wang/Desktop/workSpace/AntiFraud/contracts/Main.sol",
  "compiler": {
    "name": "solc",
    "version": "0.8.0+commit.c7dfd78e.Emscripten.clang"
  },
  "schemaVersion": "3.4.6",
  "updatedAt": "2022-05-10T16:57:43.020Z",
  "networkType": "ethereum",
  "devdoc": {
    "kind": "dev",
    "methods": {},
    "version": 1
  },
  "userdoc": {
    "kind": "user",
    "methods": {},
    "version": 1
  }
}