{
  "contractName": "Main",
  "abi": [
    {
      "inputs": [],
      "stateMutability": "nonpayable",
      "type": "constructor"
    },
    {
      "inputs": [
        {
          "internalType": "address",
          "name": "_userAdd",
          "type": "address"
        }
      ],
      "name": "getBalanceOf",
      "outputs": [
        {
          "internalType": "uint256",
          "name": "",
          "type": "uint256"
        }
      ],
      "stateMutability": "view",
      "type": "function",
      "constant": true
    },
    {
      "inputs": [
        {
          "internalType": "address",
          "name": "_from",
          "type": "address"
        },
        {
          "internalType": "address",
          "name": "_to",
          "type": "address"
        },
        {
          "internalType": "uint256",
          "name": "_val",
          "type": "uint256"
        }
      ],
      "name": "transfer",
      "outputs": [
        {
          "internalType": "bool",
          "name": "",
          "type": "bool"
        }
      ],
      "stateMutability": "nonpayable",
      "type": "function"
    },
    {
      "inputs": [
        {
          "internalType": "string",
          "name": "_name",
          "type": "string"
        },
        {
          "internalType": "string",
          "name": "_avatarLink",
          "type": "string"
        }
      ],
      "name": "createPoliceUser",
      "outputs": [],
      "stateMutability": "nonpayable",
      "type": "function"
    },
    {
      "inputs": [
        {
          "internalType": "address",
          "name": "_userAdd",
          "type": "address"
        }
      ],
      "name": "getPoliceUser",
      "outputs": [
        {
          "components": [
            {
              "internalType": "uint256",
              "name": "id",
              "type": "uint256"
            },
            {
              "internalType": "string",
              "name": "name",
              "type": "string"
            },
            {
              "internalType": "string",
              "name": "avatarLink",
              "type": "string"
            },
            {
              "internalType": "address",
              "name": "userAdd",
              "type": "address"
            }
          ],
          "internalType": "struct Main.User",
          "name": "",
          "type": "tuple"
        }
      ],
      "stateMutability": "view",
      "type": "function",
      "constant": true
    },
    {
      "inputs": [
        {
          "internalType": "string",
          "name": "_name",
          "type": "string"
        },
        {
          "internalType": "string",
          "name": "_avatarLink",
          "type": "string"
        }
      ],
      "name": "createCivilUser",
      "outputs": [],
      "stateMutability": "nonpayable",
      "type": "function"
    },
    {
      "inputs": [
        {
          "internalType": "address",
          "name": "_userAdd",
          "type": "address"
        }
      ],
      "name": "getCivilUser",
      "outputs": [
        {
          "components": [
            {
              "internalType": "uint256",
              "name": "id",
              "type": "uint256"
            },
            {
              "internalType": "string",
              "name": "name",
              "type": "string"
            },
            {
              "internalType": "string",
              "name": "avatarLink",
              "type": "string"
            },
            {
              "internalType": "address",
              "name": "userAdd",
              "type": "address"
            }
          ],
          "internalType": "struct Main.User",
          "name": "",
          "type": "tuple"
        }
      ],
      "stateMutability": "view",
      "type": "function",
      "constant": true
    },
    {
      "inputs": [
        {
          "internalType": "string",
          "name": "_title",
          "type": "string"
        },
        {
          "internalType": "string",
          "name": "_tag",
          "type": "string"
        },
        {
          "internalType": "string",
          "name": "_description",
          "type": "string"
        },
        {
          "internalType": "string[]",
          "name": "_imageLinks",
          "type": "string[]"
        }
      ],
      "name": "postCase",
      "outputs": [],
      "stateMutability": "nonpayable",
      "type": "function"
    },
    {
      "inputs": [],
      "name": "getCaseList",
      "outputs": [
        {
          "components": [
            {
              "internalType": "uint256",
              "name": "id",
              "type": "uint256"
            },
            {
              "internalType": "string",
              "name": "title",
              "type": "string"
            },
            {
              "internalType": "string",
              "name": "tag",
              "type": "string"
            },
            {
              "internalType": "string",
              "name": "description",
              "type": "string"
            },
            {
              "internalType": "uint256",
              "name": "postTime",
              "type": "uint256"
            },
            {
              "internalType": "string[]",
              "name": "imageLinks",
              "type": "string[]"
            },
            {
              "internalType": "address",
              "name": "userAdd",
              "type": "address"
            },
            {
              "internalType": "address",
              "name": "validitySetUserAdd",
              "type": "address"
            },
            {
              "internalType": "bool",
              "name": "isSetValidity",
              "type": "bool"
            },
            {
              "internalType": "bool",
              "name": "isValid",
              "type": "bool"
            },
            {
              "internalType": "bool",
              "name": "isFraud",
              "type": "bool"
            }
          ],
          "internalType": "struct Main.Case[]",
          "name": "",
          "type": "tuple[]"
        }
      ],
      "stateMutability": "view",
      "type": "function",
      "constant": true
    },
    {
      "inputs": [
        {
          "internalType": "uint256[]",
          "name": "_caseIndex",
          "type": "uint256[]"
        },
        {
          "internalType": "bool[]",
          "name": "_isValid",
          "type": "bool[]"
        }
      ],
      "name": "setCaseValidity",
      "outputs": [],
      "stateMutability": "nonpayable",
      "type": "function"
    },
    {
      "inputs": [],
      "name": "getMyHistoryCaseValiditySet",
      "outputs": [
        {
          "components": [
            {
              "internalType": "uint256",
              "name": "id",
              "type": "uint256"
            },
            {
              "internalType": "string",
              "name": "title",
              "type": "string"
            },
            {
              "internalType": "string",
              "name": "tag",
              "type": "string"
            },
            {
              "internalType": "string",
              "name": "description",
              "type": "string"
            },
            {
              "internalType": "uint256",
              "name": "postTime",
              "type": "uint256"
            },
            {
              "internalType": "string[]",
              "name": "imageLinks",
              "type": "string[]"
            },
            {
              "internalType": "address",
              "name": "userAdd",
              "type": "address"
            },
            {
              "internalType": "address",
              "name": "validitySetUserAdd",
              "type": "address"
            },
            {
              "internalType": "bool",
              "name": "isSetValidity",
              "type": "bool"
            },
            {
              "internalType": "bool",
              "name": "isValid",
              "type": "bool"
            },
            {
              "internalType": "bool",
              "name": "isFraud",
              "type": "bool"
            }
          ],
          "internalType": "struct Main.Case[]",
          "name": "",
          "type": "tuple[]"
        }
      ],
      "stateMutability": "view",
      "type": "function",
      "constant": true
    },
    {
      "inputs": [
        {
          "internalType": "uint256",
          "name": "_caseIndex",
          "type": "uint256"
        },
        {
          "internalType": "bool",
          "name": "_isFraud",
          "type": "bool"
        }
      ],
      "name": "setIsFraudCase",
      "outputs": [],
      "stateMutability": "nonpayable",
      "type": "function"
    },
    {
      "inputs": [
        {
          "internalType": "uint256",
          "name": "_caseIndex",
          "type": "uint256"
        }
      ],
      "name": "getCaseState",
      "outputs": [
        {
          "internalType": "uint256",
          "name": "",
          "type": "uint256"
        }
      ],
      "stateMutability": "view",
      "type": "function",
      "constant": true
    },
    {
      "inputs": [
        {
          "internalType": "uint256",
          "name": "_caseIndex",
          "type": "uint256"
        }
      ],
      "name": "getIsVoted",
      "outputs": [
        {
          "internalType": "bool",
          "name": "",
          "type": "bool"
        }
      ],
      "stateMutability": "view",
      "type": "function",
      "constant": true
    },
    {
      "inputs": [
        {
          "internalType": "uint256",
          "name": "_caseIndex",
          "type": "uint256"
        }
      ],
      "name": "getVoteCountOf",
      "outputs": [
        {
          "internalType": "uint256",
          "name": "",
          "type": "uint256"
        },
        {
          "internalType": "uint256",
          "name": "",
          "type": "uint256"
        },
        {
          "internalType": "uint256",
          "name": "",
          "type": "uint256"
        }
      ],
      "stateMutability": "view",
      "type": "function",
      "constant": true
    },
    {
      "inputs": [
        {
          "internalType": "uint256",
          "name": "_caseIndex",
          "type": "uint256"
        },
        {
          "internalType": "bool",
          "name": "_isFraud",
          "type": "bool"
        }
      ],
      "name": "vote",
      "outputs": [],
      "stateMutability": "nonpayable",
      "type": "function"
    },
    {
      "inputs": [
        {
          "internalType": "string",
          "name": "_title",
          "type": "string"
        },
        {
          "internalType": "string",
          "name": "_tag",
          "type": "string"
        },
        {
          "internalType": "string",
          "name": "_description",
          "type": "string"
        },
        {
          "internalType": "string[]",
          "name": "_imageLinks",
          "type": "string[]"
        }
      ],
      "name": "postTask",
      "outputs": [],
      "stateMutability": "nonpayable",
      "type": "function"
    },
    {
      "inputs": [
        {
          "internalType": "uint256",
          "name": "_caseIndex",
          "type": "uint256"
        }
      ],
      "name": "postTaskFromCase",
      "outputs": [],
      "stateMutability": "nonpayable",
      "type": "function"
    },
    {
      "inputs": [],
      "name": "getTaskList",
      "outputs": [
        {
          "components": [
            {
              "internalType": "uint256",
              "name": "id",
              "type": "uint256"
            },
            {
              "internalType": "string",
              "name": "title",
              "type": "string"
            },
            {
              "internalType": "string",
              "name": "tag",
              "type": "string"
            },
            {
              "internalType": "string",
              "name": "description",
              "type": "string"
            },
            {
              "internalType": "uint256",
              "name": "postTime",
              "type": "uint256"
            },
            {
              "internalType": "uint256",
              "name": "acceptTime",
              "type": "uint256"
            },
            {
              "internalType": "string[]",
              "name": "imageLinks",
              "type": "string[]"
            },
            {
              "internalType": "address",
              "name": "userAdd",
              "type": "address"
            },
            {
              "internalType": "address",
              "name": "acceptAdd",
              "type": "address"
            },
            {
              "internalType": "bool",
              "name": "isAccept",
              "type": "bool"
            },
            {
              "internalType": "bool",
              "name": "isFraud",
              "type": "bool"
            },
            {
              "internalType": "bool",
              "name": "isFinished",
              "type": "bool"
            }
          ],
          "internalType": "struct Main.Task[]",
          "name": "",
          "type": "tuple[]"
        }
      ],
      "stateMutability": "view",
      "type": "function",
      "constant": true
    },
    {
      "inputs": [
        {
          "internalType": "uint256",
          "name": "_taskIndex",
          "type": "uint256"
        }
      ],
      "name": "setCaseAccept",
      "outputs": [],
      "stateMutability": "nonpayable",
      "type": "function"
    },
    {
      "inputs": [
        {
          "internalType": "uint256",
          "name": "_taskIndex",
          "type": "uint256"
        },
        {
          "internalType": "bool",
          "name": "_isFraud",
          "type": "bool"
        },
        {
          "internalType": "string",
          "name": "_details",
          "type": "string"
        }
      ],
      "name": "postReply2Task",
      "outputs": [],
      "stateMutability": "nonpayable",
      "type": "function"
    },
    {
      "inputs": [
        {
          "internalType": "uint256",
          "name": "_taskIndex",
          "type": "uint256"
        }
      ],
      "name": "getTaskReply",
      "outputs": [
        {
          "internalType": "bool",
          "name": "",
          "type": "bool"
        },
        {
          "components": [
            {
              "internalType": "uint256",
              "name": "repoId",
              "type": "uint256"
            },
            {
              "internalType": "uint256",
              "name": "floor",
              "type": "uint256"
            },
            {
              "internalType": "uint256",
              "name": "level",
              "type": "uint256"
            },
            {
              "internalType": "uint256",
              "name": "postTime",
              "type": "uint256"
            },
            {
              "internalType": "string",
              "name": "details",
              "type": "string"
            },
            {
              "internalType": "address",
              "name": "userAdd",
              "type": "address"
            }
          ],
          "internalType": "struct Main.Reply",
          "name": "",
          "type": "tuple"
        }
      ],
      "stateMutability": "view",
      "type": "function",
      "constant": true
    },
    {
      "inputs": [
        {
          "internalType": "uint256",
          "name": "_taskIndex",
          "type": "uint256"
        }
      ],
      "name": "setCaseFinished",
      "outputs": [],
      "stateMutability": "nonpayable",
      "type": "function"
    },
    {
      "inputs": [
        {
          "internalType": "uint256",
          "name": "_taskIndex",
          "type": "uint256"
        }
      ],
      "name": "setCaseFailed",
      "outputs": [],
      "stateMutability": "nonpayable",
      "type": "function"
    },
    {
      "inputs": [
        {
          "internalType": "string",
          "name": "_title",
          "type": "string"
        },
        {
          "internalType": "string",
          "name": "_description",
          "type": "string"
        },
        {
          "internalType": "string",
          "name": "_tag",
          "type": "string"
        },
        {
          "internalType": "string[]",
          "name": "_imageLink",
          "type": "string[]"
        },
        {
          "internalType": "uint256",
          "name": "_price",
          "type": "uint256"
        }
      ],
      "name": "postTransactionPost",
      "outputs": [],
      "stateMutability": "nonpayable",
      "type": "function"
    },
    {
      "inputs": [],
      "name": "getTransactionPostList",
      "outputs": [
        {
          "components": [
            {
              "internalType": "uint256",
              "name": "id",
              "type": "uint256"
            },
            {
              "internalType": "uint256",
              "name": "postTime",
              "type": "uint256"
            },
            {
              "internalType": "string",
              "name": "title",
              "type": "string"
            },
            {
              "internalType": "string",
              "name": "description",
              "type": "string"
            },
            {
              "internalType": "string",
              "name": "tag",
              "type": "string"
            },
            {
              "internalType": "string[]",
              "name": "imageLink",
              "type": "string[]"
            },
            {
              "internalType": "uint256",
              "name": "price",
              "type": "uint256"
            },
            {
              "internalType": "address",
              "name": "userAdd",
              "type": "address"
            },
            {
              "internalType": "uint256",
              "name": "replyCounts",
              "type": "uint256"
            }
          ],
          "internalType": "struct Main.TransactionPost[]",
          "name": "",
          "type": "tuple[]"
        }
      ],
      "stateMutability": "view",
      "type": "function",
      "constant": true
    },
    {
      "inputs": [
        {
          "internalType": "uint256",
          "name": "_transactionPostIndex",
          "type": "uint256"
        },
        {
          "internalType": "uint256",
          "name": "_level",
          "type": "uint256"
        },
        {
          "internalType": "string",
          "name": "_details",
          "type": "string"
        }
      ],
      "name": "postReply2TransactionPost",
      "outputs": [],
      "stateMutability": "nonpayable",
      "type": "function"
    },
    {
      "inputs": [
        {
          "internalType": "uint256",
          "name": "_transactionPostIndex",
          "type": "uint256"
        }
      ],
      "name": "getTransactionPostReplyList",
      "outputs": [
        {
          "components": [
            {
              "internalType": "uint256",
              "name": "repoId",
              "type": "uint256"
            },
            {
              "internalType": "uint256",
              "name": "floor",
              "type": "uint256"
            },
            {
              "internalType": "uint256",
              "name": "level",
              "type": "uint256"
            },
            {
              "internalType": "uint256",
              "name": "postTime",
              "type": "uint256"
            },
            {
              "internalType": "string",
              "name": "details",
              "type": "string"
            },
            {
              "internalType": "address",
              "name": "userAdd",
              "type": "address"
            }
          ],
          "internalType": "struct Main.Reply[]",
          "name": "",
          "type": "tuple[]"
        }
      ],
      "stateMutability": "view",
      "type": "function",
      "constant": true
    }
  ],
  "bytecode": "0x608060405234801561001057600080fd5b506103e860008190555033600160006101000a81548173ffffffffffffffffffffffffffffffffffffffff021916908373ffffffffffffffffffffffffffffffffffffffff160217905550600054600260003373ffffffffffffffffffffffffffffffffffffffff1673ffffffffffffffffffffffffffffffffffffffff168152602001908152602001600020819055506000600381905550600060048190555060006005819055506000600681905550600060078190555061594180620000d96000396000f3fe608060405234801561001057600080fd5b50600436106101a95760003560e01c8063978b3e27116100f9578063c9d27afe11610097578063e4c28bd411610071578063e4c28bd4146104d9578063e6ba4be9146104f5578063f287c3cc14610525578063f3d5df0614610543576101a9565b8063c9d27afe14610485578063d0a66836146104a1578063d0cbd85c146104bd576101a9565b8063b5563a92116100d3578063b5563a92146103ed578063b7e21b8814610409578063beabacc814610425578063c94d090314610455576101a9565b8063978b3e27146103855780639b96eece146103a15780639bbfdcbe146103d1576101a9565b8063381aefa2116101665780634a7ba3b2116101405780634a7ba3b2146102ec5780634affc6af146103085780635e4e6e88146103395780637fd4714a14610355576101a9565b8063381aefa21461028057806338940fae146102b057806348bdf955146102ce576101a9565b80630421cc33146101ae5780630ab2bea3146101de578063165e2d13146101fa578063279d0ab6146102165780632f9fe5521461023257806331c89ff11461024e575b600080fd5b6101c860048036038101906101c39190614618565b610561565b6040516101d591906153cc565b60405180910390f35b6101f860048036038101906101f39190614690565b61073e565b005b610214600480360381019061020f9190614902565b610e9b565b005b610230600480360381019061022b9190614902565b61127e565b005b61024c60048036038101906102479190614768565b611315565b005b61026860048036038101906102639190614902565b6115a9565b60405161027793929190615409565b60405180910390f35b61029a60048036038101906102959190614902565b611640565b6040516102a79190615321565b60405180910390f35b6102b86116ec565b6040516102c591906152dd565b60405180910390f35b6102d6611baf565b6040516102e391906152ff565b60405180910390f35b61030660048036038101906103019190614902565b611fd5565b005b610322600480360381019061031d9190614902565b612079565b60405161033092919061533c565b60405180910390f35b610353600480360381019061034e91906146fc565b6121e1565b005b61036f600480360381019061036a9190614902565b612324565b60405161037c91906153ee565b60405180910390f35b61039f600480360381019061039a91906146fc565b612393565b005b6103bb60048036038101906103b69190614618565b6124d6565b6040516103c891906153ee565b60405180910390f35b6103eb60048036038101906103e69190614967565b6124e8565b005b6104076004803603810190610402919061492b565b612632565b005b610423600480360381019061041e9190614768565b6126ed565b005b61043f600480360381019061043a9190614641565b6126ff565b60405161044c9190615321565b60405180910390f35b61046f600480360381019061046a9190614902565b612715565b60405161047c91906152bb565b60405180910390f35b61049f600480360381019061049a919061492b565b6129a1565b005b6104bb60048036038101906104b6919061482b565b612adc565b005b6104d760048036038101906104d29190614902565b612c83565b005b6104f360048036038101906104ee91906149ce565b612dd6565b005b61050f600480360381019061050a9190614618565b612f40565b60405161051c91906153cc565b60405180910390f35b61052d61311d565b60405161053a9190615299565b60405180910390f35b61054b613680565b6040516105589190615299565b60405180910390f35b610569613f36565b600860008373ffffffffffffffffffffffffffffffffffffffff1673ffffffffffffffffffffffffffffffffffffffff168152602001908152602001600020604051806080016040529081600082015481526020016001820180546105cd906157ad565b80601f01602080910402602001604051908101604052809291908181526020018280546105f9906157ad565b80156106465780601f1061061b57610100808354040283529160200191610646565b820191906000526020600020905b81548152906001019060200180831161062957829003601f168201915b5050505050815260200160028201805461065f906157ad565b80601f016020809104026020016040519081016040528092919081815260200182805461068b906157ad565b80156106d85780601f106106ad576101008083540402835291602001916106d8565b820191906000526020600020905b8154815290600101906020018083116106bb57829003601f168201915b505050505081526020016003820160009054906101000a900473ffffffffffffffffffffffffffffffffffffffff1673ffffffffffffffffffffffffffffffffffffffff1673ffffffffffffffffffffffffffffffffffffffff16815250509050919050565b60005b8251811015610e96576000600a6000858481518110610789577f4e487b7100000000000000000000000000000000000000000000000000000000600052603260045260246000fd5b602002602001015181526020019081526020016000206000015414156107e4576040517f08c379a00000000000000000000000000000000000000000000000000000000081526004016107db9061536c565b60405180910390fd5b600b60003373ffffffffffffffffffffffffffffffffffffffff1673ffffffffffffffffffffffffffffffffffffffff168152602001908152602001600020600a6000858481518110610860577f4e487b7100000000000000000000000000000000000000000000000000000000600052603260045260246000fd5b6020026020010151815260200190815260200160002090806001815401808255809150506001900390600052602060002090600802016000909190919091506000820154816000015560018201816001019080546108bd906157ad565b6108c8929190613f74565b5060028201816002019080546108dd906157ad565b6108e8929190613f74565b5060038201816003019080546108fd906157ad565b610908929190613f74565b50600482015481600401556005820181600501908054610929929190614001565b506006820160009054906101000a900473ffffffffffffffffffffffffffffffffffffffff168160060160006101000a81548173ffffffffffffffffffffffffffffffffffffffff021916908373ffffffffffffffffffffffffffffffffffffffff1602179055506007820160009054906101000a900473ffffffffffffffffffffffffffffffffffffffff168160070160006101000a81548173ffffffffffffffffffffffffffffffffffffffff021916908373ffffffffffffffffffffffffffffffffffffffff1602179055506007820160149054906101000a900460ff168160070160146101000a81548160ff0219169083151502179055506007820160159054906101000a900460ff168160070160156101000a81548160ff0219169083151502179055506007820160169054906101000a900460ff168160070160166101000a81548160ff021916908315150217905550505033600a6000858481518110610abf577f4e487b7100000000000000000000000000000000000000000000000000000000600052603260045260246000fd5b6020026020010151815260200190815260200160002060070160006101000a81548173ffffffffffffffffffffffffffffffffffffffff021916908373ffffffffffffffffffffffffffffffffffffffff1602179055506001600a6000858481518110610b55577f4e487b7100000000000000000000000000000000000000000000000000000000600052603260045260246000fd5b6020026020010151815260200190815260200160002060070160146101000a81548160ff021916908315150217905550818181518110610bbe577f4e487b7100000000000000000000000000000000000000000000000000000000600052603260045260246000fd5b6020026020010151600a6000858481518110610c03577f4e487b7100000000000000000000000000000000000000000000000000000000600052603260045260246000fd5b6020026020010151815260200190815260200160002060070160156101000a81548160ff021916908315150217905550610c61600160009054906101000a900473ffffffffffffffffffffffffffffffffffffffff16336001613b39565b50818181518110610c9b577f4e487b7100000000000000000000000000000000000000000000000000000000600052603260045260246000fd5b602002602001015115610d5257610d4c600160009054906101000a900473ffffffffffffffffffffffffffffffffffffffff16600a6000868581518110610d0b577f4e487b7100000000000000000000000000000000000000000000000000000000600052603260045260246000fd5b6020026020010151815260200190815260200160002060060160009054906101000a900473ffffffffffffffffffffffffffffffffffffffff166005613b39565b50610e83565b600a6000848381518110610d8f577f4e487b7100000000000000000000000000000000000000000000000000000000600052603260045260246000fd5b60200260200101518152602001908152602001600020600080820160009055600182016000610dbe9190614069565b600282016000610dce9190614069565b600382016000610dde9190614069565b6004820160009055600582016000610df691906140a9565b6006820160006101000a81549073ffffffffffffffffffffffffffffffffffffffff02191690556007820160006101000a81549073ffffffffffffffffffffffffffffffffffffffff02191690556007820160146101000a81549060ff02191690556007820160156101000a81549060ff02191690556007820160166101000a81549060ff021916905550505b8080610e8e906157df565b915050610741565b505050565b6000600a60008381526020019081526020016000206040518061016001604052908160008201548152602001600182018054610ed6906157ad565b80601f0160208091040260200160405190810160405280929190818152602001828054610f02906157ad565b8015610f4f5780601f10610f2457610100808354040283529160200191610f4f565b820191906000526020600020905b815481529060010190602001808311610f3257829003601f168201915b50505050508152602001600282018054610f68906157ad565b80601f0160208091040260200160405190810160405280929190818152602001828054610f94906157ad565b8015610fe15780601f10610fb657610100808354040283529160200191610fe1565b820191906000526020600020905b815481529060010190602001808311610fc457829003601f168201915b50505050508152602001600382018054610ffa906157ad565b80601f0160208091040260200160405190810160405280929190818152602001828054611026906157ad565b80156110735780601f1061104857610100808354040283529160200191611073565b820191906000526020600020905b81548152906001019060200180831161105657829003601f168201915b505050505081526020016004820154815260200160058201805480602002602001604051908101604052809291908181526020016000905b828210156111575783829060005260206000200180546110ca906157ad565b80601f01602080910402602001604051908101604052809291908181526020018280546110f6906157ad565b80156111435780601f1061111857610100808354040283529160200191611143565b820191906000526020600020905b81548152906001019060200180831161112657829003601f168201915b5050505050815260200190600101906110ab565b5050505081526020016006820160009054906101000a900473ffffffffffffffffffffffffffffffffffffffff1673ffffffffffffffffffffffffffffffffffffffff1673ffffffffffffffffffffffffffffffffffffffff1681526020016007820160009054906101000a900473ffffffffffffffffffffffffffffffffffffffff1673ffffffffffffffffffffffffffffffffffffffff1673ffffffffffffffffffffffffffffffffffffffff1681526020016007820160149054906101000a900460ff161515151581526020016007820160159054906101000a900460ff161515151581526020016007820160169054906101000a900460ff161515151581525050905061127a8160200151826040015183606001518460a00151613c42565b5050565b6001600f600083815260200190815260200160002060080160166101000a81548160ff021916908315150217905550611311600160009054906101000a900473ffffffffffffffffffffffffffffffffffffffff16600f600084815260200190815260200160002060080160009054906101000a900473ffffffffffffffffffffffffffffffffffffffff166007613b39565b5050565b61131d6140ca565b60056000815461132c906157df565b91905081905581600001818152505084816020018190525083816040018190525082816060018190525042816080018181525050818160a00181905250338160c0019073ffffffffffffffffffffffffffffffffffffffff16908173ffffffffffffffffffffffffffffffffffffffff168152505060008160e0019073ffffffffffffffffffffffffffffffffffffffff16908173ffffffffffffffffffffffffffffffffffffffff168152505060008161010001901515908115158152505060008161012001901515908115158152505060008161014001901515908115158152505080600a6000600554815260200190815260200160002060008201518160000155602082015181600101908051906020019061144c929190614156565b506040820151816002019080519060200190611469929190614156565b506060820151816003019080519060200190611486929190614156565b506080820151816004015560a08201518160050190805190602001906114ad9291906141dc565b5060c08201518160060160006101000a81548173ffffffffffffffffffffffffffffffffffffffff021916908373ffffffffffffffffffffffffffffffffffffffff16021790555060e08201518160070160006101000a81548173ffffffffffffffffffffffffffffffffffffffff021916908373ffffffffffffffffffffffffffffffffffffffff1602179055506101008201518160070160146101000a81548160ff0219169083151502179055506101208201518160070160156101000a81548160ff0219169083151502179055506101408201518160070160166101000a81548160ff0219169083151502179055509050505050505050565b60008060006005548411156115f3576040517f08c379a00000000000000000000000000000000000000000000000000000000081526004016115ea906153ac565b60405180910390fd5b6000600c60008681526020019081526020016000205490506000600d600087815260200190815260200160002054905081818284611631919061566f565b94509450945050509193909250565b6000600554821115611687576040517f08c379a000000000000000000000000000000000000000000000000000000000815260040161167e906153ac565b60405180910390fd5b600e600083815260200190815260200160002060003373ffffffffffffffffffffffffffffffffffffffff1673ffffffffffffffffffffffffffffffffffffffff16815260200190815260200160002060009054906101000a900460ff169050919050565b6060600060065467ffffffffffffffff811115611732577f4e487b7100000000000000000000000000000000000000000000000000000000600052604160045260246000fd5b60405190808252806020026020018201604052801561176b57816020015b61175861423c565b8152602001906001900390816117505790505b50905060005b600654811015611ba757600f600060018361178c919061566f565b815260200190815260200160002060405180610180016040529081600082015481526020016001820180546117c0906157ad565b80601f01602080910402602001604051908101604052809291908181526020018280546117ec906157ad565b80156118395780601f1061180e57610100808354040283529160200191611839565b820191906000526020600020905b81548152906001019060200180831161181c57829003601f168201915b50505050508152602001600282018054611852906157ad565b80601f016020809104026020016040519081016040528092919081815260200182805461187e906157ad565b80156118cb5780601f106118a0576101008083540402835291602001916118cb565b820191906000526020600020905b8154815290600101906020018083116118ae57829003601f168201915b505050505081526020016003820180546118e4906157ad565b80601f0160208091040260200160405190810160405280929190818152602001828054611910906157ad565b801561195d5780601f106119325761010080835404028352916020019161195d565b820191906000526020600020905b81548152906001019060200180831161194057829003601f168201915b50505050508152602001600482015481526020016005820154815260200160068201805480602002602001604051908101604052809291908181526020016000905b82821015611a4b5783829060005260206000200180546119be906157ad565b80601f01602080910402602001604051908101604052809291908181526020018280546119ea906157ad565b8015611a375780601f10611a0c57610100808354040283529160200191611a37565b820191906000526020600020905b815481529060010190602001808311611a1a57829003601f168201915b50505050508152602001906001019061199f565b5050505081526020016007820160009054906101000a900473ffffffffffffffffffffffffffffffffffffffff1673ffffffffffffffffffffffffffffffffffffffff1673ffffffffffffffffffffffffffffffffffffffff1681526020016008820160009054906101000a900473ffffffffffffffffffffffffffffffffffffffff1673ffffffffffffffffffffffffffffffffffffffff1673ffffffffffffffffffffffffffffffffffffffff1681526020016008820160149054906101000a900460ff161515151581526020016008820160159054906101000a900460ff161515151581526020016008820160169054906101000a900460ff161515151581525050828281518110611b89577f4e487b7100000000000000000000000000000000000000000000000000000000600052603260045260246000fd5b60200260200101819052508080611b9f906157df565b915050611771565b508091505090565b6060600060075467ffffffffffffffff811115611bf5577f4e487b7100000000000000000000000000000000000000000000000000000000600052604160045260246000fd5b604051908082528060200260200182016040528015611c2e57816020015b611c1b6142cf565b815260200190600190039081611c135790505b50905060005b600754811015611fcd5760116000600183611c4f919061566f565b8152602001908152602001600020604051806101200160405290816000820154815260200160018201548152602001600282018054611c8d906157ad565b80601f0160208091040260200160405190810160405280929190818152602001828054611cb9906157ad565b8015611d065780601f10611cdb57610100808354040283529160200191611d06565b820191906000526020600020905b815481529060010190602001808311611ce957829003601f168201915b50505050508152602001600382018054611d1f906157ad565b80601f0160208091040260200160405190810160405280929190818152602001828054611d4b906157ad565b8015611d985780601f10611d6d57610100808354040283529160200191611d98565b820191906000526020600020905b815481529060010190602001808311611d7b57829003601f168201915b50505050508152602001600482018054611db1906157ad565b80601f0160208091040260200160405190810160405280929190818152602001828054611ddd906157ad565b8015611e2a5780601f10611dff57610100808354040283529160200191611e2a565b820191906000526020600020905b815481529060010190602001808311611e0d57829003601f168201915b5050505050815260200160058201805480602002602001604051908101604052809291908181526020016000905b82821015611f04578382906000526020600020018054611e77906157ad565b80601f0160208091040260200160405190810160405280929190818152602001828054611ea3906157ad565b8015611ef05780601f10611ec557610100808354040283529160200191611ef0565b820191906000526020600020905b815481529060010190602001808311611ed357829003601f168201915b505050505081526020019060010190611e58565b505050508152602001600682015481526020016007820160009054906101000a900473ffffffffffffffffffffffffffffffffffffffff1673ffffffffffffffffffffffffffffffffffffffff1673ffffffffffffffffffffffffffffffffffffffff168152602001600882015481525050828281518110611faf577f4e487b7100000000000000000000000000000000000000000000000000000000600052603260045260246000fd5b60200260200101819052508080611fc5906157df565b915050611c34565b508091505090565b6000600f600083815260200190815260200160002060080160146101000a81548160ff0219169083151502179055506000600f600083815260200190815260200160002060080160006101000a81548173ffffffffffffffffffffffffffffffffffffffff021916908373ffffffffffffffffffffffffffffffffffffffff1602179055506000600f60008381526020019081526020016000206005018190555050565b6000612083614331565b600f600084815260200190815260200160002060080160159054906101000a900460ff1660106000858152602001908152602001600020806040518060c0016040529081600082015481526020016001820154815260200160028201548152602001600382015481526020016004820180546120fe906157ad565b80601f016020809104026020016040519081016040528092919081815260200182805461212a906157ad565b80156121775780601f1061214c57610100808354040283529160200191612177565b820191906000526020600020905b81548152906001019060200180831161215a57829003601f168201915b505050505081526020016005820160009054906101000a900473ffffffffffffffffffffffffffffffffffffffff1673ffffffffffffffffffffffffffffffffffffffff1673ffffffffffffffffffffffffffffffffffffffff1681525050905091509150915091565b6121e9613f36565b6003600081546121f8906157df565b91905081905581600001818152505082816020018190525081816040018190525033816060019073ffffffffffffffffffffffffffffffffffffffff16908173ffffffffffffffffffffffffffffffffffffffff168152505080600860003373ffffffffffffffffffffffffffffffffffffffff1673ffffffffffffffffffffffffffffffffffffffff1681526020019081526020016000206000820151816000015560208201518160010190805190602001906122b7929190614156565b5060408201518160020190805190602001906122d4929190614156565b5060608201518160030160006101000a81548173ffffffffffffffffffffffffffffffffffffffff021916908373ffffffffffffffffffffffffffffffffffffffff160217905550905050505050565b6000600a600083815260200190815260200160002060070160149054906101000a900460ff16612357576001905061238e565b600a600083815260200190815260200160002060070160159054906101000a900460ff1615612389576002905061238e565b600390505b919050565b61239b613f36565b6004600081546123aa906157df565b91905081905581600001818152505082816020018190525081816040018190525033816060019073ffffffffffffffffffffffffffffffffffffffff16908173ffffffffffffffffffffffffffffffffffffffff168152505080600960003373ffffffffffffffffffffffffffffffffffffffff1673ffffffffffffffffffffffffffffffffffffffff168152602001908152602001600020600082015181600001556020820151816001019080519060200190612469929190614156565b506040820151816002019080519060200190612486929190614156565b5060608201518160030160006101000a81548173ffffffffffffffffffffffffffffffffffffffff021916908373ffffffffffffffffffffffffffffffffffffffff160217905550905050505050565b60006124e182613eed565b9050919050565b81600f600085815260200190815260200160002060080160156101000a81548160ff02191690831515021790555061251e614331565b838160000181815250508181608001819052504281606001818152505060018160200181815250506001816040018181525050338160a0019073ffffffffffffffffffffffffffffffffffffffff16908173ffffffffffffffffffffffffffffffffffffffff168152505080601060008681526020019081526020016000206000820151816000015560208201518160010155604082015181600201556060820151816003015560808201518160040190805190602001906125e1929190614156565b5060a08201518160050160006101000a81548173ffffffffffffffffffffffffffffffffffffffff021916908373ffffffffffffffffffffffffffffffffffffffff16021790555090505050505050565b6000600a600084815260200190815260200160002060000154141561268c576040517f08c379a00000000000000000000000000000000000000000000000000000000081526004016126839061536c565b60405180910390fd5b80600a600084815260200190815260200160002060070160166101000a81548160ff0219169083151502179055506126e8600160009054906101000a900473ffffffffffffffffffffffffffffffffffffffff16336002613b39565b505050565b6126f984848484613c42565b50505050565b600061270c848484613b39565b90509392505050565b60606000601260008481526020019081526020016000208054905067ffffffffffffffff81111561276f577f4e487b7100000000000000000000000000000000000000000000000000000000600052604160045260246000fd5b6040519080825280602002602001820160405280156127a857816020015b612795614331565b81526020019060019003908161278d5790505b50905060005b601260008581526020019081526020016000208054905081101561299757601260008581526020019081526020016000208181548110612817577f4e487b7100000000000000000000000000000000000000000000000000000000600052603260045260246000fd5b90600052602060002090600602016040518060c001604052908160008201548152602001600182015481526020016002820154815260200160038201548152602001600482018054612868906157ad565b80601f0160208091040260200160405190810160405280929190818152602001828054612894906157ad565b80156128e15780601f106128b6576101008083540402835291602001916128e1565b820191906000526020600020905b8154815290600101906020018083116128c457829003601f168201915b505050505081526020016005820160009054906101000a900473ffffffffffffffffffffffffffffffffffffffff1673ffffffffffffffffffffffffffffffffffffffff1673ffffffffffffffffffffffffffffffffffffffff1681525050828281518110612979577f4e487b7100000000000000000000000000000000000000000000000000000000600052603260045260246000fd5b6020026020010181905250808061298f906157df565b9150506127ae565b5080915050919050565b6005548211156129e6576040517f08c379a00000000000000000000000000000000000000000000000000000000081526004016129dd906153ac565b60405180910390fd5b6001600e600084815260200190815260200160002060003373ffffffffffffffffffffffffffffffffffffffff1673ffffffffffffffffffffffffffffffffffffffff16815260200190815260200160002060006101000a81548160ff0219169083151502179055508015612a8157600c600083815260200190815260200160002060008154612a75906157df565b91905081905550612aa9565b600d600083815260200190815260200160002060008154612aa190615783565b919050819055505b612ad7600160009054906101000a900473ffffffffffffffffffffffffffffffffffffffff16336001613b39565b505050565b612ae46142cf565b600760008154612af3906157df565b91905081905581600001818152505042816020018181525050818160c0018181525050858160400181905250848160600181905250838160800181905250828160a00181905250338160e0019073ffffffffffffffffffffffffffffffffffffffff16908173ffffffffffffffffffffffffffffffffffffffff16815250506000816101000181815250508060116000600754815260200190815260200160002060008201518160000155602082015181600101556040820151816002019080519060200190612bc4929190614156565b506060820151816003019080519060200190612be1929190614156565b506080820151816004019080519060200190612bfe929190614156565b5060a0820151816005019080519060200190612c1b9291906141dc565b5060c0820151816006015560e08201518160070160006101000a81548173ffffffffffffffffffffffffffffffffffffffff021916908373ffffffffffffffffffffffffffffffffffffffff1602179055506101008201518160080155905050505050505050565b6001600f600083815260200190815260200160002060080160146101000a81548160ff02191690831515021790555033600f600083815260200190815260200160002060080160006101000a81548173ffffffffffffffffffffffffffffffffffffffff021916908373ffffffffffffffffffffffffffffffffffffffff16021790555042600f60008381526020019081526020016000206005018190555060028060003373ffffffffffffffffffffffffffffffffffffffff1673ffffffffffffffffffffffffffffffffffffffff168152602001908152602001600020541015612da4576040517f08c379a0000000000000000000000000000000000000000000000000000000008152600401612d9b9061538c565b60405180910390fd5b612dd233600160009054906101000a900473ffffffffffffffffffffffffffffffffffffffff166002613b39565b5050565b612dde614331565b83816000018181525050818160800181905250428160600181815250506011600085815260200190815260200160002060080160008154612e1e906157df565b91905081905581602001818152505082816040018181525050338160a0019073ffffffffffffffffffffffffffffffffffffffff16908173ffffffffffffffffffffffffffffffffffffffff168152505060126000858152602001908152602001600020819080600181540180825580915050600190039060005260206000209060060201600090919091909150600082015181600001556020820151816001015560408201518160020155606082015181600301556080820151816004019080519060200190612ef0929190614156565b5060a08201518160050160006101000a81548173ffffffffffffffffffffffffffffffffffffffff021916908373ffffffffffffffffffffffffffffffffffffffff160217905550505050505050565b612f48613f36565b600960008373ffffffffffffffffffffffffffffffffffffffff1673ffffffffffffffffffffffffffffffffffffffff16815260200190815260200160002060405180608001604052908160008201548152602001600182018054612fac906157ad565b80601f0160208091040260200160405190810160405280929190818152602001828054612fd8906157ad565b80156130255780601f10612ffa57610100808354040283529160200191613025565b820191906000526020600020905b81548152906001019060200180831161300857829003601f168201915b5050505050815260200160028201805461303e906157ad565b80601f016020809104026020016040519081016040528092919081815260200182805461306a906157ad565b80156130b75780601f1061308c576101008083540402835291602001916130b7565b820191906000526020600020905b81548152906001019060200180831161309a57829003601f168201915b505050505081526020016003820160009054906101000a900473ffffffffffffffffffffffffffffffffffffffff1673ffffffffffffffffffffffffffffffffffffffff1673ffffffffffffffffffffffffffffffffffffffff16815250509050919050565b60606000600b60003373ffffffffffffffffffffffffffffffffffffffff1673ffffffffffffffffffffffffffffffffffffffff16815260200190815260200160002080549050905060008167ffffffffffffffff8111156131a8577f4e487b7100000000000000000000000000000000000000000000000000000000600052604160045260246000fd5b6040519080825280602002602001820160405280156131e157816020015b6131ce6140ca565b8152602001906001900390816131c65790505b50905060005b8281101561367757600b60003373ffffffffffffffffffffffffffffffffffffffff1673ffffffffffffffffffffffffffffffffffffffff1681526020019081526020016000208181548110613266577f4e487b7100000000000000000000000000000000000000000000000000000000600052603260045260246000fd5b9060005260206000209060080201604051806101600160405290816000820154815260200160018201805461329a906157ad565b80601f01602080910402602001604051908101604052809291908181526020018280546132c6906157ad565b80156133135780601f106132e857610100808354040283529160200191613313565b820191906000526020600020905b8154815290600101906020018083116132f657829003601f168201915b5050505050815260200160028201805461332c906157ad565b80601f0160208091040260200160405190810160405280929190818152602001828054613358906157ad565b80156133a55780601f1061337a576101008083540402835291602001916133a5565b820191906000526020600020905b81548152906001019060200180831161338857829003601f168201915b505050505081526020016003820180546133be906157ad565b80601f01602080910402602001604051908101604052809291908181526020018280546133ea906157ad565b80156134375780601f1061340c57610100808354040283529160200191613437565b820191906000526020600020905b81548152906001019060200180831161341a57829003601f168201915b505050505081526020016004820154815260200160058201805480602002602001604051908101604052809291908181526020016000905b8282101561351b57838290600052602060002001805461348e906157ad565b80601f01602080910402602001604051908101604052809291908181526020018280546134ba906157ad565b80156135075780601f106134dc57610100808354040283529160200191613507565b820191906000526020600020905b8154815290600101906020018083116134ea57829003601f168201915b50505050508152602001906001019061346f565b5050505081526020016006820160009054906101000a900473ffffffffffffffffffffffffffffffffffffffff1673ffffffffffffffffffffffffffffffffffffffff1673ffffffffffffffffffffffffffffffffffffffff1681526020016007820160009054906101000a900473ffffffffffffffffffffffffffffffffffffffff1673ffffffffffffffffffffffffffffffffffffffff1673ffffffffffffffffffffffffffffffffffffffff1681526020016007820160149054906101000a900460ff161515151581526020016007820160159054906101000a900460ff161515151581526020016007820160169054906101000a900460ff161515151581525050828281518110613659577f4e487b7100000000000000000000000000000000000000000000000000000000600052603260045260246000fd5b6020026020010181905250808061366f906157df565b9150506131e7565b50809250505090565b6060600060055467ffffffffffffffff8111156136c6577f4e487b7100000000000000000000000000000000000000000000000000000000600052604160045260246000fd5b6040519080825280602002602001820160405280156136ff57816020015b6136ec6140ca565b8152602001906001900390816136e45790505b50905060005b600554811015613b3157600a6000600183613720919061566f565b81526020019081526020016000206040518061016001604052908160008201548152602001600182018054613754906157ad565b80601f0160208091040260200160405190810160405280929190818152602001828054613780906157ad565b80156137cd5780601f106137a2576101008083540402835291602001916137cd565b820191906000526020600020905b8154815290600101906020018083116137b057829003601f168201915b505050505081526020016002820180546137e6906157ad565b80601f0160208091040260200160405190810160405280929190818152602001828054613812906157ad565b801561385f5780601f106138345761010080835404028352916020019161385f565b820191906000526020600020905b81548152906001019060200180831161384257829003601f168201915b50505050508152602001600382018054613878906157ad565b80601f01602080910402602001604051908101604052809291908181526020018280546138a4906157ad565b80156138f15780601f106138c6576101008083540402835291602001916138f1565b820191906000526020600020905b8154815290600101906020018083116138d457829003601f168201915b505050505081526020016004820154815260200160058201805480602002602001604051908101604052809291908181526020016000905b828210156139d5578382906000526020600020018054613948906157ad565b80601f0160208091040260200160405190810160405280929190818152602001828054613974906157ad565b80156139c15780601f10613996576101008083540402835291602001916139c1565b820191906000526020600020905b8154815290600101906020018083116139a457829003601f168201915b505050505081526020019060010190613929565b5050505081526020016006820160009054906101000a900473ffffffffffffffffffffffffffffffffffffffff1673ffffffffffffffffffffffffffffffffffffffff1673ffffffffffffffffffffffffffffffffffffffff1681526020016007820160009054906101000a900473ffffffffffffffffffffffffffffffffffffffff1673ffffffffffffffffffffffffffffffffffffffff1673ffffffffffffffffffffffffffffffffffffffff1681526020016007820160149054906101000a900460ff161515151581526020016007820160159054906101000a900460ff161515151581526020016007820160169054906101000a900460ff161515151581525050828281518110613b13577f4e487b7100000000000000000000000000000000000000000000000000000000600052603260045260246000fd5b60200260200101819052508080613b29906157df565b915050613705565b508091505090565b6000806000905082600260008773ffffffffffffffffffffffffffffffffffffffff1673ffffffffffffffffffffffffffffffffffffffff1681526020019081526020016000205410613c375782600260008773ffffffffffffffffffffffffffffffffffffffff1673ffffffffffffffffffffffffffffffffffffffff1681526020019081526020016000206000828254613bd591906156c5565b9250508190555082600260008673ffffffffffffffffffffffffffffffffffffffff1673ffffffffffffffffffffffffffffffffffffffff1681526020019081526020016000206000828254613c2b919061566f565b92505081905550600190505b809150509392505050565b613c4a61423c565b600660008154613c59906157df565b9190508190558160000181815250508481602001819052508381604001819052508281606001819052504281608001818152505060008160a0018181525050818160c00181905250338160e0019073ffffffffffffffffffffffffffffffffffffffff16908173ffffffffffffffffffffffffffffffffffffffff1681525050600081610100019073ffffffffffffffffffffffffffffffffffffffff16908173ffffffffffffffffffffffffffffffffffffffff168152505060008161012001901515908115158152505060008161014001901515908115158152505060008161016001901515908115158152505080600f60006006548152602001908152602001600020600082015181600001556020820151816001019080519060200190613d85929190614156565b506040820151816002019080519060200190613da2929190614156565b506060820151816003019080519060200190613dbf929190614156565b506080820151816004015560a0820151816005015560c0820151816006019080519060200190613df09291906141dc565b5060e08201518160070160006101000a81548173ffffffffffffffffffffffffffffffffffffffff021916908373ffffffffffffffffffffffffffffffffffffffff1602179055506101008201518160080160006101000a81548173ffffffffffffffffffffffffffffffffffffffff021916908373ffffffffffffffffffffffffffffffffffffffff1602179055506101208201518160080160146101000a81548160ff0219169083151502179055506101408201518160080160156101000a81548160ff0219169083151502179055506101608201518160080160166101000a81548160ff0219169083151502179055509050505050505050565b6000600260008373ffffffffffffffffffffffffffffffffffffffff1673ffffffffffffffffffffffffffffffffffffffff168152602001908152602001600020549050919050565b6040518060800160405280600081526020016060815260200160608152602001600073ffffffffffffffffffffffffffffffffffffffff1681525090565b828054613f80906157ad565b90600052602060002090601f016020900481019282613fa25760008555613ff0565b82601f10613fb35780548555613ff0565b82800160010185558215613ff057600052602060002091601f016020900482015b82811115613fef578254825591600101919060010190613fd4565b5b509050613ffd919061437d565b5090565b8280548282559060005260206000209081019282156140585760005260206000209182015b8281111561405757828290805461403c906157ad565b614047929190613f74565b5091600101919060010190614026565b5b509050614065919061439a565b5090565b508054614075906157ad565b6000825580601f1061408757506140a6565b601f0160209004906000526020600020908101906140a5919061437d565b5b50565b50805460008255906000526020600020908101906140c7919061439a565b50565b604051806101600160405280600081526020016060815260200160608152602001606081526020016000815260200160608152602001600073ffffffffffffffffffffffffffffffffffffffff168152602001600073ffffffffffffffffffffffffffffffffffffffff1681526020016000151581526020016000151581526020016000151581525090565b828054614162906157ad565b90600052602060002090601f01602090048101928261418457600085556141cb565b82601f1061419d57805160ff19168380011785556141cb565b828001600101855582156141cb579182015b828111156141ca5782518255916020019190600101906141af565b5b5090506141d8919061437d565b5090565b82805482825590600052602060002090810192821561422b579160200282015b8281111561422a57825182908051906020019061421a929190614156565b50916020019190600101906141fc565b5b509050614238919061439a565b5090565b60405180610180016040528060008152602001606081526020016060815260200160608152602001600081526020016000815260200160608152602001600073ffffffffffffffffffffffffffffffffffffffff168152602001600073ffffffffffffffffffffffffffffffffffffffff1681526020016000151581526020016000151581526020016000151581525090565b60405180610120016040528060008152602001600081526020016060815260200160608152602001606081526020016060815260200160008152602001600073ffffffffffffffffffffffffffffffffffffffff168152602001600081525090565b6040518060c001604052806000815260200160008152602001600081526020016000815260200160608152602001600073ffffffffffffffffffffffffffffffffffffffff1681525090565b5b8082111561439657600081600090555060010161437e565b5090565b5b808211156143ba57600081816143b19190614069565b5060010161439b565b5090565b60006143d16143cc84615471565b615440565b905080838252602082019050828560208602820111156143f057600080fd5b60005b85811015614420578161440688826145c4565b8452602084019350602083019250506001810190506143f3565b5050509392505050565b600061443d6144388461549d565b615440565b9050808382526020820190508260005b8581101561447d578135850161446388826145d9565b84526020840193506020830192505060018101905061444d565b5050509392505050565b600061449a614495846154c9565b615440565b905080838252602082019050828560208602820111156144b957600080fd5b60005b858110156144e957816144cf8882614603565b8452602084019350602083019250506001810190506144bc565b5050509392505050565b6000614506614501846154f5565b615440565b90508281526020810184848401111561451e57600080fd5b614529848285615741565b509392505050565b600081359050614540816158c6565b92915050565b600082601f83011261455757600080fd5b81356145678482602086016143be565b91505092915050565b600082601f83011261458157600080fd5b813561459184826020860161442a565b91505092915050565b600082601f8301126145ab57600080fd5b81356145bb848260208601614487565b91505092915050565b6000813590506145d3816158dd565b92915050565b600082601f8301126145ea57600080fd5b81356145fa8482602086016144f3565b91505092915050565b600081359050614612816158f4565b92915050565b60006020828403121561462a57600080fd5b600061463884828501614531565b91505092915050565b60008060006060848603121561465657600080fd5b600061466486828701614531565b935050602061467586828701614531565b925050604061468686828701614603565b9150509250925092565b600080604083850312156146a357600080fd5b600083013567ffffffffffffffff8111156146bd57600080fd5b6146c98582860161459a565b925050602083013567ffffffffffffffff8111156146e657600080fd5b6146f285828601614546565b9150509250929050565b6000806040838503121561470f57600080fd5b600083013567ffffffffffffffff81111561472957600080fd5b614735858286016145d9565b925050602083013567ffffffffffffffff81111561475257600080fd5b61475e858286016145d9565b9150509250929050565b6000806000806080858703121561477e57600080fd5b600085013567ffffffffffffffff81111561479857600080fd5b6147a4878288016145d9565b945050602085013567ffffffffffffffff8111156147c157600080fd5b6147cd878288016145d9565b935050604085013567ffffffffffffffff8111156147ea57600080fd5b6147f6878288016145d9565b925050606085013567ffffffffffffffff81111561481357600080fd5b61481f87828801614570565b91505092959194509250565b600080600080600060a0868803121561484357600080fd5b600086013567ffffffffffffffff81111561485d57600080fd5b614869888289016145d9565b955050602086013567ffffffffffffffff81111561488657600080fd5b614892888289016145d9565b945050604086013567ffffffffffffffff8111156148af57600080fd5b6148bb888289016145d9565b935050606086013567ffffffffffffffff8111156148d857600080fd5b6148e488828901614570565b92505060806148f588828901614603565b9150509295509295909350565b60006020828403121561491457600080fd5b600061492284828501614603565b91505092915050565b6000806040838503121561493e57600080fd5b600061494c85828601614603565b925050602061495d858286016145c4565b9150509250929050565b60008060006060848603121561497c57600080fd5b600061498a86828701614603565b935050602061499b868287016145c4565b925050604084013567ffffffffffffffff8111156149b857600080fd5b6149c4868287016145d9565b9150509250925092565b6000806000606084860312156149e357600080fd5b60006149f186828701614603565b9350506020614a0286828701614603565b925050604084013567ffffffffffffffff811115614a1f57600080fd5b614a2b868287016145d9565b9150509250925092565b6000614a418383614d0f565b905092915050565b6000614a558383614e08565b905092915050565b6000614a698383614f0c565b905092915050565b6000614a7d838361501e565b905092915050565b6000614a918383615137565b905092915050565b614aa2816156f9565b82525050565b6000614ab382615575565b614abd81856155f8565b935083602082028501614acf85615525565b8060005b85811015614b0b5784840389528151614aec8582614a35565b9450614af7836155b7565b925060208a01995050600181019050614ad3565b50829750879550505050505092915050565b6000614b2882615580565b614b328185615609565b935083602082028501614b4485615535565b8060005b85811015614b805784840389528151614b618582614a49565b9450614b6c836155c4565b925060208a01995050600181019050614b48565b50829750879550505050505092915050565b6000614b9d8261558b565b614ba7818561561a565b935083602082028501614bb985615545565b8060005b85811015614bf55784840389528151614bd68582614a5d565b9450614be1836155d1565b925060208a01995050600181019050614bbd565b50829750879550505050505092915050565b6000614c1282615596565b614c1c818561562b565b935083602082028501614c2e85615555565b8060005b85811015614c6a5784840389528151614c4b8582614a71565b9450614c56836155de565b925060208a01995050600181019050614c32565b50829750879550505050505092915050565b6000614c87826155a1565b614c91818561563c565b935083602082028501614ca385615565565b8060005b85811015614cdf5784840389528151614cc08582614a85565b9450614ccb836155eb565b925060208a01995050600181019050614ca7565b50829750879550505050505092915050565b614cfa8161570b565b82525050565b614d098161570b565b82525050565b6000614d1a826155ac565b614d24818561564d565b9350614d34818560208601615750565b614d3d816158b5565b840191505092915050565b6000614d5560128361565e565b91507f496e76616c6964206361736520696e64657800000000000000000000000000006000830152602082019050919050565b6000614d9560128361565e565b91507f437265646974206e6f7420656e6f7567682100000000000000000000000000006000830152602082019050919050565b6000614dd5600f8361565e565b91507f43617365204e6f742045786973747300000000000000000000000000000000006000830152602082019050919050565b600061016083016000830151614e21600086018261527b565b5060208301518482036020860152614e398282614d0f565b91505060408301518482036040860152614e538282614d0f565b91505060608301518482036060860152614e6d8282614d0f565b9150506080830151614e82608086018261527b565b5060a083015184820360a0860152614e9a8282614aa8565b91505060c0830151614eaf60c0860182614a99565b5060e0830151614ec260e0860182614a99565b50610100830151614ed7610100860182614cf1565b50610120830151614eec610120860182614cf1565b50610140830151614f01610140860182614cf1565b508091505092915050565b600060c083016000830151614f24600086018261527b565b506020830151614f37602086018261527b565b506040830151614f4a604086018261527b565b506060830151614f5d606086018261527b565b5060808301518482036080860152614f758282614d0f565b91505060a0830151614f8a60a0860182614a99565b508091505092915050565b600060c083016000830151614fad600086018261527b565b506020830151614fc0602086018261527b565b506040830151614fd3604086018261527b565b506060830151614fe6606086018261527b565b5060808301518482036080860152614ffe8282614d0f565b91505060a083015161501360a0860182614a99565b508091505092915050565b600061018083016000830151615037600086018261527b565b506020830151848203602086015261504f8282614d0f565b915050604083015184820360408601526150698282614d0f565b915050606083015184820360608601526150838282614d0f565b9150506080830151615098608086018261527b565b5060a08301516150ab60a086018261527b565b5060c083015184820360c08601526150c38282614aa8565b91505060e08301516150d860e0860182614a99565b506101008301516150ed610100860182614a99565b50610120830151615102610120860182614cf1565b50610140830151615117610140860182614cf1565b5061016083015161512c610160860182614cf1565b508091505092915050565b600061012083016000830151615150600086018261527b565b506020830151615163602086018261527b565b506040830151848203604086015261517b8282614d0f565b915050606083015184820360608601526151958282614d0f565b915050608083015184820360808601526151af8282614d0f565b91505060a083015184820360a08601526151c98282614aa8565b91505060c08301516151de60c086018261527b565b5060e08301516151f160e0860182614a99565b5061010083015161520661010086018261527b565b508091505092915050565b6000608083016000830151615229600086018261527b565b50602083015184820360208601526152418282614d0f565b9150506040830151848203604086015261525b8282614d0f565b91505060608301516152706060860182614a99565b508091505092915050565b61528481615737565b82525050565b61529381615737565b82525050565b600060208201905081810360008301526152b38184614b1d565b905092915050565b600060208201905081810360008301526152d58184614b92565b905092915050565b600060208201905081810360008301526152f78184614c07565b905092915050565b600060208201905081810360008301526153198184614c7c565b905092915050565b60006020820190506153366000830184614d00565b92915050565b60006040820190506153516000830185614d00565b81810360208301526153638184614f95565b90509392505050565b6000602082019050818103600083015261538581614d48565b9050919050565b600060208201905081810360008301526153a581614d88565b9050919050565b600060208201905081810360008301526153c581614dc8565b9050919050565b600060208201905081810360008301526153e68184615211565b905092915050565b6000602082019050615403600083018461528a565b92915050565b600060608201905061541e600083018661528a565b61542b602083018561528a565b615438604083018461528a565b949350505050565b6000604051905081810181811067ffffffffffffffff8211171561546757615466615886565b5b8060405250919050565b600067ffffffffffffffff82111561548c5761548b615886565b5b602082029050602081019050919050565b600067ffffffffffffffff8211156154b8576154b7615886565b5b602082029050602081019050919050565b600067ffffffffffffffff8211156154e4576154e3615886565b5b602082029050602081019050919050565b600067ffffffffffffffff8211156155105761550f615886565b5b601f19601f8301169050602081019050919050565b6000819050602082019050919050565b6000819050602082019050919050565b6000819050602082019050919050565b6000819050602082019050919050565b6000819050602082019050919050565b600081519050919050565b600081519050919050565b600081519050919050565b600081519050919050565b600081519050919050565b600081519050919050565b6000602082019050919050565b6000602082019050919050565b6000602082019050919050565b6000602082019050919050565b6000602082019050919050565b600082825260208201905092915050565b600082825260208201905092915050565b600082825260208201905092915050565b600082825260208201905092915050565b600082825260208201905092915050565b600082825260208201905092915050565b600082825260208201905092915050565b600061567a82615737565b915061568583615737565b9250827fffffffffffffffffffffffffffffffffffffffffffffffffffffffffffffffff038211156156ba576156b9615828565b5b828201905092915050565b60006156d082615737565b91506156db83615737565b9250828210156156ee576156ed615828565b5b828203905092915050565b600061570482615717565b9050919050565b60008115159050919050565b600073ffffffffffffffffffffffffffffffffffffffff82169050919050565b6000819050919050565b82818337600083830152505050565b60005b8381101561576e578082015181840152602081019050615753565b8381111561577d576000848401525b50505050565b600061578e82615737565b915060008214156157a2576157a1615828565b5b600182039050919050565b600060028204905060018216806157c557607f821691505b602082108114156157d9576157d8615857565b5b50919050565b60006157ea82615737565b91507fffffffffffffffffffffffffffffffffffffffffffffffffffffffffffffffff82141561581d5761581c615828565b5b600182019050919050565b7f4e487b7100000000000000000000000000000000000000000000000000000000600052601160045260246000fd5b7f4e487b7100000000000000000000000000000000000000000000000000000000600052602260045260246000fd5b7f4e487b7100000000000000000000000000000000000000000000000000000000600052604160045260246000fd5b6000601f19601f8301169050919050565b6158cf816156f9565b81146158da57600080fd5b50565b6158e68161570b565b81146158f157600080fd5b50565b6158fd81615737565b811461590857600080fd5b5056fea26469706673582212202713d2cfd9e938b2da6a4e9d8dbc046ab7b8af50a486527d72c06217306f798764736f6c63430008000033",
  "immutableReferences": {},
  "source": "// SPDX-License-Identifier: MIT\npragma solidity >=0.7.0 <0.9.0;\n\n// \ncontract Main {\n    // \n    uint256 totalCredit;\n    // \n    address administrator;\n    // \n    mapping(address => uint) balanceOf;\n\n    // \n    uint policeIndex;\n    uint civilIndex;\n    uint caseIndex;\n    uint taskIndex;\n    uint transactionPostIndex;\n\n    constructor() {\n        totalCredit = 1000;\n        administrator = msg.sender;\n        // \n        balanceOf[msg.sender] = totalCredit;\n        \n        policeIndex = 0;\n        civilIndex = 0;\n        caseIndex = 0;\n        taskIndex = 0;\n        transactionPostIndex = 0;\n    }\n\n    // \n    function _getBalanceOf(address _userAdd) internal view returns (uint) {\n        return (balanceOf[_userAdd]);\n    }\n\n    function getBalanceOf(address _userAdd) external view returns (uint) {\n        return _getBalanceOf(_userAdd);\n    }\n\n    // \n    // \n    function _transfer(address _from, address _to, uint _val) internal returns (bool) {\n        bool success = false;\n        if (balanceOf[_from] >= _val) {\n            balanceOf[_from] -= _val;\n            balanceOf[_to] += _val;\n            success = true;\n        }\n        return success;\n    }\n\n    function transfer(address _from, address _to, uint _val) external returns (bool) {\n        return _transfer(_from, _to, _val);\n    }\n\n    // \n    struct User {\n        // id\n        uint id;\n        // \n        string name;\n        // \n        string avatarLink;\n        // \n        address userAdd;\n    }\n\n    // \n    mapping(address => User) policeList;\n\n    // \n    function createPoliceUser(string memory _name, string memory _avatarLink) external {\n        User memory _police;\n        _police.id = ++policeIndex;\n        _police.name = _name;\n        _police.avatarLink = _avatarLink;\n        _police.userAdd = msg.sender;\n        policeList[msg.sender] = _police;\n    }\n\n    // \n    function getPoliceUser(address _userAdd) external view returns (User memory) {\n        return policeList[_userAdd];\n    }\n\n    // \n    mapping(address => User) civilList;\n\n    // \n    function createCivilUser(string memory _name, string memory _avatarLink) external {\n        User memory _civil;\n        _civil.id = ++civilIndex;\n        _civil.name = _name;\n        _civil.avatarLink = _avatarLink;\n        _civil.userAdd = msg.sender;\n        civilList[msg.sender] = _civil;\n    }\n\n    // \n    function getCivilUser(address _userAdd) external view returns (User memory) {\n        return civilList[_userAdd]; \n    }\n\n    // \n    struct Reply {\n        // id\n        uint repoId;\n        // \n        uint floor;\n        // \n        //  = 1  = 2...\n        uint level;\n        uint postTime;\n        // \n        string details;\n        // \n        address userAdd;\n    }\n\n    // \n    struct Case {\n        uint id;\n        string title;\n        // \n        string tag;\n        string description;\n        uint postTime;\n        string[] imageLinks;\n        // \n        address userAdd;\n        // \n        address validitySetUserAdd;\n        // \n        bool isSetValidity;\n        // \n        bool isValid;\n        // \n        bool isFraud;\n    }\n\n    // \n    mapping(uint => Case) caseList;\n    //  \n    mapping(address => Case[]) personalList;\n\n    //  -> \n    function postCase(string memory _title, string memory _tag, string memory _description, string[] memory _imageLinks) external {\n        Case memory _case;\n        _case.id = ++caseIndex;\n        _case.title = _title;\n        _case.tag = _tag;\n        _case.description = _description;\n        _case.postTime = block.timestamp;\n        _case.imageLinks = _imageLinks;\n        _case.userAdd = msg.sender;\n        _case.validitySetUserAdd = address(0);\n        _case.isSetValidity = false;\n        _case.isValid = false;\n        _case.isFraud = false;\n        // \n        caseList[caseIndex] = _case;\n    } \n\n    // \n    function getCaseList() external view returns (Case[] memory) {\n        Case[] memory _List = new Case[](caseIndex);\n        for (uint i = 0; i < caseIndex; i++) {\n            _List[i] = caseList[i + 1];\n        }\n        return (_List);\n    }\n\n    // \n    function setCaseValidity(uint[] memory _caseIndex, bool[] memory _isValid) external {\n        for (uint i = 0; i < _caseIndex.length; i++) {\n            require(caseList[_caseIndex[i]].id != 0, \"Invalid case index\");\n            personalList[msg.sender].push(caseList[_caseIndex[i]]);\n            caseList[_caseIndex[i]].validitySetUserAdd = msg.sender;\n            caseList[_caseIndex[i]].isSetValidity = true;\n            caseList[_caseIndex[i]].isValid = _isValid[i];\n            // +1\n            _transfer(administrator, msg.sender, 1);\n            if (_isValid[i]) {\n                //  +5\n                _transfer(administrator, caseList[_caseIndex[i]].userAdd, 5);\n            } else {\n                //  \n                delete caseList[_caseIndex[i]];\n            }\n        }\n    }\n\n    // \n    function getMyHistoryCaseValiditySet() external view returns (Case[] memory) {\n        uint siz = personalList[msg.sender].length;\n        Case[] memory _List = new Case[](siz);\n        for (uint i = 0; i < siz; i++) {\n            _List[i] = personalList[msg.sender][i];\n        }\n        return _List;\n    }\n\n    // \n    function setIsFraudCase(uint _caseIndex, bool _isFraud) external {\n        require(caseList[_caseIndex].id != 0, \"Invalid case index\");\n        caseList[_caseIndex].isFraud = _isFraud;\n        // +2\n        _transfer(administrator, msg.sender, 2);\n    } \n\n    // \n    function getCaseState(uint _caseIndex) external view returns (uint) {\n        if (!caseList[_caseIndex].isSetValidity) {\n            // \n            return 1;\n        } else {\n            if (caseList[_caseIndex].isValid) {\n                //\n                return 2;\n            } else {\n                // \n                return 3;\n            }\n        }\n    }  \n\n    // \n    //  \n    mapping(uint => uint) voteYesCount;\n    \n    // \n    mapping(uint => uint) voteNoCount;\n\n    //  \n    mapping(uint => mapping(address => bool)) isVotedThisAddress;\n\n    // \n    function getIsVoted(uint _caseIndex) external view returns (bool) {\n        require(_caseIndex <= caseIndex, \"Case Not Exists\");\n        return isVotedThisAddress[_caseIndex][msg.sender];\n    }\n\n    // \n    //    \n    function getVoteCountOf(uint _caseIndex) external view returns (uint, uint, uint) {\n        require(_caseIndex <= caseIndex, \"Case Not Exists\");\n        uint _yes = voteYesCount[_caseIndex];\n        uint _no = voteNoCount[_caseIndex];\n        return (_yes, _no, _yes + _no);\n    }\n    \n    // \n    function vote(uint _caseIndex, bool _isFraud) external {\n        require(_caseIndex <= caseIndex, \"Case Not Exists\");\n        isVotedThisAddress[_caseIndex][msg.sender] = true;\n        if (_isFraud) {\n            ++voteYesCount[_caseIndex];\n        } else {\n            --voteNoCount[_caseIndex];\n        }\n        // +1\n        _transfer(administrator, msg.sender, 1);\n    }\n\n    // \n    //  => \n    struct Task {\n        uint id;\n        string title;\n        string tag;\n        string description;\n        uint postTime;\n        // \n        uint acceptTime;\n        string[] imageLinks;\n        // \n        address userAdd;\n        // \n        address acceptAdd;\n        // \n        bool isAccept;\n        // \n        bool isFraud;\n        // \n        bool isFinished;\n    }\n\n    // \n    mapping(uint => Task) taskList;\n\n    // \n    function _postTask(string memory _title, string memory _tag, string memory _description, string[] memory _imageLinks) internal {\n        Task memory _task;\n        _task.id = ++taskIndex;\n        _task.title = _title;\n        _task.tag = _tag;\n        _task.description = _description;\n        _task.postTime = block.timestamp;\n        _task.acceptTime = 0;\n        _task.imageLinks = _imageLinks;\n        _task.userAdd = msg.sender;\n        _task.acceptAdd = address(0);\n        _task.isAccept = false;\n        _task.isFraud = false;\n        _task.isFinished = false;\n        taskList[taskIndex] = _task;\n    }\n\n    function postTask(string memory _title, string memory _tag, string memory _description, string[] memory _imageLinks) external {\n        _postTask(_title, _tag, _description, _imageLinks);\n    }\n\n    // \n    function postTaskFromCase(uint _caseIndex) external {\n        Case memory _case = caseList[_caseIndex];\n        _postTask(_case.title, _case.tag, _case.description, _case.imageLinks);\n    }\n\n    // \n    function getTaskList() external view returns (Task[] memory) {\n        Task[] memory _List = new Task[](taskIndex);\n        for (uint i = 0; i < taskIndex; i++) {\n            _List[i] = taskList[i + 1];\n        }\n        return (_List);\n    }\n\n    // \n    function setCaseAccept(uint _taskIndex) external {\n        taskList[_taskIndex].isAccept = true;\n        taskList[_taskIndex].acceptAdd = msg.sender;\n        taskList[_taskIndex].acceptTime = block.timestamp;\n        // \n        require(balanceOf[msg.sender] >= 2, \"Credit not enough!\");\n        _transfer(msg.sender, administrator, 2);\n    }\n\n    // \n    mapping(uint => Reply) taskReply;\n\n    // \n    function postReply2Task(uint _taskIndex, bool _isFraud, string memory _details) external {\n        taskList[_taskIndex].isFraud = _isFraud;\n        Reply memory _reply;\n        _reply.repoId = _taskIndex;\n        _reply.details = _details;\n        _reply.postTime = block.timestamp;\n        _reply.floor = 1;\n        _reply.level = 1;\n        _reply.userAdd = msg.sender;\n        taskReply[_taskIndex] = _reply;\n    }\n\n    // \n    function getTaskReply(uint _taskIndex) external view returns (bool, Reply memory) {\n        return (taskList[_taskIndex].isFraud, taskReply[_taskIndex]);\n    }\n\n    // \n    function setCaseFinished(uint _taskIndex) external {\n        taskList[_taskIndex].isFinished = true;\n        _transfer(administrator, taskList[_taskIndex].acceptAdd, 5+2);\n    }\n\n    //  \n    function setCaseFailed(uint _taskIndex) external {\n        taskList[_taskIndex].isAccept = false;\n        taskList[_taskIndex].acceptAdd = address(0);\n        taskList[_taskIndex].acceptTime = 0;\n    }\n\n    // \n    // \n    struct TransactionPost {\n        uint id;\n        uint postTime;\n        string title;\n        string description;\n        //   or \n        string tag;\n        string[] imageLink;\n        // \n        uint price;\n        address userAdd;\n        // \n        uint replyCounts;\n    }\n\n    // \n    mapping(uint => TransactionPost) transactionPostList;\n\n    // \n    function postTransactionPost(string memory _title, string memory _description, string memory _tag, string[] memory _imageLink, uint _price) external {\n        TransactionPost memory _post;\n        _post.id = ++transactionPostIndex;\n        _post.postTime = block.timestamp;\n        _post.price = _price;\n        _post.title = _title;\n        _post.description = _description;\n        _post.tag = _tag;\n        _post.imageLink = _imageLink;\n        _post.userAdd = msg.sender;\n        _post.replyCounts = 0;\n        // \n        transactionPostList[transactionPostIndex] = _post;\n    }\n\n    // \n    function getTransactionPostList() external view returns (TransactionPost[] memory) {\n        TransactionPost[] memory _List = new TransactionPost[](transactionPostIndex);\n        for (uint i = 0; i < transactionPostIndex; i++) {\n            _List[i] = transactionPostList[i + 1];\n        }\n        return _List;\n    }\n\n    // \n    mapping(uint => Reply[]) transactionPostReplyList;\n\n    // \n    function postReply2TransactionPost(uint _transactionPostIndex, uint _level, string memory _details) external {\n        Reply memory _reply;\n        _reply.repoId = _transactionPostIndex;\n        _reply.details = _details;\n        _reply.postTime = block.timestamp;\n        _reply.floor = ++transactionPostList[_transactionPostIndex].replyCounts;\n        _reply.level = _level;\n        _reply.userAdd = msg.sender;\n        transactionPostReplyList[_transactionPostIndex].push(_reply);\n    }\n\n    // \n    function getTransactionPostReplyList(uint _transactionPostIndex) external view returns (Reply[] memory) {\n        Reply[] memory _List = new Reply[](transactionPostReplyList[_transactionPostIndex].length);\n        for (uint i = 0; i < transactionPostReplyList[_transactionPostIndex].length; i++) {\n            _List[i] = transactionPostReplyList[_transactionPostIndex][i];\n        }\n        return _List;\n    }\n}",
  "sourcePath": "/Users/peggy_wang/Desktop/workSpace/AntiFraud/contracts/Main.sol",
  "compiler": {
    "name": "solc",
    "version": "0.8.0+commit.c7dfd78e.Emscripten.clang"
  },
  "schemaVersion": "3.4.6",
  "updatedAt": "2022-05-05T11:56:30.383Z",
  "networkType": "ethereum",
  "devdoc": {
    "kind": "dev",
    "methods": {},
    "version": 1
  },
  "userdoc": {
    "kind": "user",
    "methods": {},
    "version": 1
  }
}