{
  "contractName": "Store",
  "abi": [
    {
      "inputs": [
        {
          "internalType": "string",
          "name": "_name",
          "type": "string"
        },
        {
          "internalType": "string",
          "name": "_details",
          "type": "string"
        },
        {
          "internalType": "uint256",
          "name": "_price",
          "type": "uint256"
        },
        {
          "internalType": "uint256",
          "name": "_inventory",
          "type": "uint256"
        }
      ],
      "name": "createProduct",
      "outputs": [],
      "stateMutability": "nonpayable",
      "type": "function"
    },
    {
      "inputs": [],
      "name": "getProductList",
      "outputs": [
        {
          "components": [
            {
              "internalType": "uint256",
              "name": "id",
              "type": "uint256"
            },
            {
              "internalType": "string",
              "name": "name",
              "type": "string"
            },
            {
              "internalType": "string",
              "name": "details",
              "type": "string"
            },
            {
              "internalType": "uint256",
              "name": "price",
              "type": "uint256"
            },
            {
              "internalType": "uint256",
              "name": "inventory",
              "type": "uint256"
            }
          ],
          "internalType": "struct Store.Product[]",
          "name": "",
          "type": "tuple[]"
        }
      ],
      "stateMutability": "view",
      "type": "function"
    },
    {
      "inputs": [
        {
          "internalType": "contract Main",
          "name": "_mainContract",
          "type": "address"
        },
        {
          "internalType": "uint256",
          "name": "_productIndex",
          "type": "uint256"
        }
      ],
      "name": "purchase",
      "outputs": [],
      "stateMutability": "nonpayable",
      "type": "function"
    }
  ],
  "bytecode": "0x60806040526000805534801561001457600080fd5b50610f5d806100246000396000f3fe608060405234801561001057600080fd5b50600436106100415760003560e01c806334d2c0ad146100465780638de932221461006457806390d16cba14610080575b600080fd5b61004e61009c565b60405161005b9190610b6d565b60405180910390f35b61007e60048036038101906100799190610837565b6102f5565b005b61009a60048036038101906100959190610873565b610580565b005b60606000805467ffffffffffffffff8111156100e1577f4e487b7100000000000000000000000000000000000000000000000000000000600052604160045260246000fd5b60405190808252806020026020018201604052801561011a57816020015b610107610642565b8152602001906001900390816100ff5790505b50905060005b6000548110156102ed576001600060018361013b9190610c96565b81526020019081526020016000206040518060a00160405290816000820154815260200160018201805461016e90610db2565b80601f016020809104026020016040519081016040528092919081815260200182805461019a90610db2565b80156101e75780601f106101bc576101008083540402835291602001916101e7565b820191906000526020600020905b8154815290600101906020018083116101ca57829003601f168201915b5050505050815260200160028201805461020090610db2565b80601f016020809104026020016040519081016040528092919081815260200182805461022c90610db2565b80156102795780601f1061024e57610100808354040283529160200191610279565b820191906000526020600020905b81548152906001019060200180831161025c57829003601f168201915b50505050508152602001600382015481526020016004820154815250508282815181106102cf577f4e487b7100000000000000000000000000000000000000000000000000000000600052603260045260246000fd5b602002602001018190525080806102e590610de4565b915050610120565b508091505090565b600060016000838152602001908152602001600020600401541161034e576040517f08c379a000000000000000000000000000000000000000000000000000000000815260040161034590610baf565b60405180910390fd5b60016000828152602001908152602001600020600301548273ffffffffffffffffffffffffffffffffffffffff16639b96eece336040518263ffffffff1660e01b815260040161039e9190610b1b565b60206040518083038186803b1580156103b657600080fd5b505afa1580156103ca573d6000803e3d6000fd5b505050506040513d601f19601f820116820180604052508101906103ee9190610906565b101561042f576040517f08c379a000000000000000000000000000000000000000000000000000000000815260040161042690610b8f565b60405180910390fd5b600160008281526020019081526020016000206004016000815461045290610d88565b919050819055508173ffffffffffffffffffffffffffffffffffffffff1663beabacc8338473ffffffffffffffffffffffffffffffffffffffff1663f8777cbb6040518163ffffffff1660e01b815260040160206040518083038186803b1580156104bc57600080fd5b505afa1580156104d0573d6000803e3d6000fd5b505050506040513d601f19601f820116820180604052508101906104f491906107e5565b60016000868152602001908152602001600020600301546040518463ffffffff1660e01b815260040161052993929190610b36565b602060405180830381600087803b15801561054357600080fd5b505af1158015610557573d6000803e3d6000fd5b505050506040513d601f19601f8201168201806040525081019061057b919061080e565b505050565b610588610642565b600080815461059690610de4565b9190508190558160000181815250508481602001819052508381604001819052508281606001818152505081816080018181525050806001600080548152602001908152602001600020600082015181600001556020820151816001019080519060200190610606929190610671565b506040820151816002019080519060200190610623929190610671565b5060608201518160030155608082015181600401559050505050505050565b6040518060a0016040528060008152602001606081526020016060815260200160008152602001600081525090565b82805461067d90610db2565b90600052602060002090601f01602090048101928261069f57600085556106e6565b82601f106106b857805160ff19168380011785556106e6565b828001600101855582156106e6579182015b828111156106e55782518255916020019190600101906106ca565b5b5090506106f391906106f7565b5090565b5b808211156107105760008160009055506001016106f8565b5090565b600061072761072284610c00565b610bcf565b90508281526020810184848401111561073f57600080fd5b61074a848285610d46565b509392505050565b60008151905061076181610ecb565b92915050565b60008151905061077681610ee2565b92915050565b60008135905061078b81610ef9565b92915050565b600082601f8301126107a257600080fd5b81356107b2848260208601610714565b91505092915050565b6000813590506107ca81610f10565b92915050565b6000815190506107df81610f10565b92915050565b6000602082840312156107f757600080fd5b600061080584828501610752565b91505092915050565b60006020828403121561082057600080fd5b600061082e84828501610767565b91505092915050565b6000806040838503121561084a57600080fd5b60006108588582860161077c565b9250506020610869858286016107bb565b9150509250929050565b6000806000806080858703121561088957600080fd5b600085013567ffffffffffffffff8111156108a357600080fd5b6108af87828801610791565b945050602085013567ffffffffffffffff8111156108cc57600080fd5b6108d887828801610791565b93505060406108e9878288016107bb565b92505060606108fa878288016107bb565b91505092959194509250565b60006020828403121561091857600080fd5b6000610926848285016107d0565b91505092915050565b600061093b8383610a80565b905092915050565b61094c81610cec565b82525050565b600061095d82610c40565b6109678185610c63565b93508360208202850161097985610c30565b8060005b858110156109b55784840389528151610996858261092f565b94506109a183610c56565b925060208a0199505060018101905061097d565b50829750879550505050505092915050565b60006109d282610c4b565b6109dc8185610c74565b93506109ec818560208601610d55565b6109f581610eba565b840191505092915050565b6000610a0d601a83610c85565b91507f4372656469742062616c616e6365206e6f7420656e6f756768210000000000006000830152602082019050919050565b6000610a4d601583610c85565b91507f496e76656e746f7279206e6f7420656e6f7567682100000000000000000000006000830152602082019050919050565b600060a083016000830151610a986000860182610afd565b5060208301518482036020860152610ab082826109c7565b91505060408301518482036040860152610aca82826109c7565b9150506060830151610adf6060860182610afd565b506080830151610af26080860182610afd565b508091505092915050565b610b0681610d3c565b82525050565b610b1581610d3c565b82525050565b6000602082019050610b306000830184610943565b92915050565b6000606082019050610b4b6000830186610943565b610b586020830185610943565b610b656040830184610b0c565b949350505050565b60006020820190508181036000830152610b878184610952565b905092915050565b60006020820190508181036000830152610ba881610a00565b9050919050565b60006020820190508181036000830152610bc881610a40565b9050919050565b6000604051905081810181811067ffffffffffffffff82111715610bf657610bf5610e8b565b5b8060405250919050565b600067ffffffffffffffff821115610c1b57610c1a610e8b565b5b601f19601f8301169050602081019050919050565b6000819050602082019050919050565b600081519050919050565b600081519050919050565b6000602082019050919050565b600082825260208201905092915050565b600082825260208201905092915050565b600082825260208201905092915050565b6000610ca182610d3c565b9150610cac83610d3c565b9250827fffffffffffffffffffffffffffffffffffffffffffffffffffffffffffffffff03821115610ce157610ce0610e2d565b5b828201905092915050565b6000610cf782610d1c565b9050919050565b60008115159050919050565b6000610d1582610cec565b9050919050565b600073ffffffffffffffffffffffffffffffffffffffff82169050919050565b6000819050919050565b82818337600083830152505050565b60005b83811015610d73578082015181840152602081019050610d58565b83811115610d82576000848401525b50505050565b6000610d9382610d3c565b91506000821415610da757610da6610e2d565b5b600182039050919050565b60006002820490506001821680610dca57607f821691505b60208210811415610dde57610ddd610e5c565b5b50919050565b6000610def82610d3c565b91507fffffffffffffffffffffffffffffffffffffffffffffffffffffffffffffffff821415610e2257610e21610e2d565b5b600182019050919050565b7f4e487b7100000000000000000000000000000000000000000000000000000000600052601160045260246000fd5b7f4e487b7100000000000000000000000000000000000000000000000000000000600052602260045260246000fd5b7f4e487b7100000000000000000000000000000000000000000000000000000000600052604160045260246000fd5b6000601f19601f8301169050919050565b610ed481610cec565b8114610edf57600080fd5b50565b610eeb81610cfe565b8114610ef657600080fd5b50565b610f0281610d0a565b8114610f0d57600080fd5b50565b610f1981610d3c565b8114610f2457600080fd5b5056fea26469706673582212203314a612b86cd0d78ba941f0f4bc213f2c9779f939e62f81fff9624f54f22cff64736f6c63430008000033",
  "immutableReferences": {},
  "source": "// SPDX-License-Identifier: MIT\npragma solidity >=0.7.0 <0.9.0;\n\nimport \"./Main.sol\";\n\ncontract Store {\n    uint productIndex = 0;\n\n    // \n    // \n    struct Product {\n        uint id;\n        string name;\n        string details;\n        uint price;\n        // \n        uint inventory;\n    }\n\n    // \n    mapping(uint => Product) productList;\n\n    // \n    function createProduct(string memory _name, string memory _details, uint _price, uint _inventory) external {\n        Product memory _product;\n        _product.id = ++productIndex;\n        _product.name = _name;\n        _product.details = _details;\n        _product.price = _price;\n        _product.inventory = _inventory;\n        productList[productIndex] = _product;\n    }\n\n    // \n    function getProductList() external view returns (Product[] memory) {\n        Product[] memory _List = new Product[](productIndex);\n        for (uint i = 0; i < productIndex; i++) {\n            _List[i] = productList[i+1];\n        }\n        return (_List);\n    }\n\n    // \n    function purchase(Main _mainContract, uint _productIndex) external {\n        require(productList[_productIndex].inventory > 0, \"Inventory not enough!\");\n        require(_mainContract.getBalanceOf(msg.sender) >= productList[_productIndex].price, \"Credit balance not enough!\");\n        --productList[_productIndex].inventory;\n        _mainContract.transfer(msg.sender, _mainContract.getAdministratorAdd(), productList[_productIndex].price);\n    }\n}",
  "sourcePath": "/Users/peggy_wang/Desktop/workSpace/AntiFraud/contracts/Store.sol",
  "compiler": {
    "name": "solc",
    "version": "0.8.0+commit.c7dfd78e.Emscripten.clang"
  },
  "schemaVersion": "3.4.6",
  "updatedAt": "2022-05-10T16:57:16.559Z",
  "devdoc": {
    "kind": "dev",
    "methods": {},
    "version": 1
  },
  "userdoc": {
    "kind": "user",
    "methods": {},
    "version": 1
  }
}