{
  "contractName": "Store",
  "abi": [
    {
      "inputs": [
        {
          "internalType": "string",
          "name": "_name",
          "type": "string"
        },
        {
          "internalType": "string",
          "name": "_details",
          "type": "string"
        },
        {
          "internalType": "uint256",
          "name": "_price",
          "type": "uint256"
        },
        {
          "internalType": "uint256",
          "name": "_inventory",
          "type": "uint256"
        }
      ],
      "name": "createProduct",
      "outputs": [],
      "stateMutability": "nonpayable",
      "type": "function"
    },
    {
      "inputs": [],
      "name": "getProductList",
      "outputs": [
        {
          "components": [
            {
              "internalType": "uint256",
              "name": "id",
              "type": "uint256"
            },
            {
              "internalType": "string",
              "name": "name",
              "type": "string"
            },
            {
              "internalType": "string",
              "name": "details",
              "type": "string"
            },
            {
              "internalType": "uint256",
              "name": "price",
              "type": "uint256"
            },
            {
              "internalType": "uint256",
              "name": "inventory",
              "type": "uint256"
            }
          ],
          "internalType": "struct Store.Product[]",
          "name": "",
          "type": "tuple[]"
        }
      ],
      "stateMutability": "view",
      "type": "function"
    }
  ],
  "bytecode": "0x608060405234801561001057600080fd5b506109a0806100206000396000f3fe608060405234801561001057600080fd5b50600436106100365760003560e01c806334d2c0ad1461003b57806390d16cba14610059575b600080fd5b610043610075565b60405161005091906106c0565b60405180910390f35b610073600480360381019061006e91906104df565b6102ce565b005b60606000805467ffffffffffffffff8111156100ba577f4e487b7100000000000000000000000000000000000000000000000000000000600052604160045260246000fd5b6040519080825280602002602001820160405280156100f357816020015b6100e0610390565b8152602001906001900390816100d85790505b50905060005b6000548110156102c657600160006001836101149190610798565b81526020019081526020016000206040518060a0016040529081600082015481526020016001820180546101479061083a565b80601f01602080910402602001604051908101604052809291908181526020018280546101739061083a565b80156101c05780601f10610195576101008083540402835291602001916101c0565b820191906000526020600020905b8154815290600101906020018083116101a357829003601f168201915b505050505081526020016002820180546101d99061083a565b80601f01602080910402602001604051908101604052809291908181526020018280546102059061083a565b80156102525780601f1061022757610100808354040283529160200191610252565b820191906000526020600020905b81548152906001019060200180831161023557829003601f168201915b50505050508152602001600382015481526020016004820154815250508282815181106102a8577f4e487b7100000000000000000000000000000000000000000000000000000000600052603260045260246000fd5b602002602001018190525080806102be9061086c565b9150506100f9565b508091505090565b6102d6610390565b60008081546102e49061086c565b91905081905581600001818152505084816020018190525083816040018190525082816060018181525050818160800181815250508060016000805481526020019081526020016000206000820151816000015560208201518160010190805190602001906103549291906103bf565b5060408201518160020190805190602001906103719291906103bf565b5060608201518160030155608082015181600401559050505050505050565b6040518060a0016040528060008152602001606081526020016060815260200160008152602001600081525090565b8280546103cb9061083a565b90600052602060002090601f0160209004810192826103ed5760008555610434565b82601f1061040657805160ff1916838001178555610434565b82800160010185558215610434579182015b82811115610433578251825591602001919060010190610418565b5b5090506104419190610445565b5090565b5b8082111561045e576000816000905550600101610446565b5090565b600061047561047084610713565b6106e2565b90508281526020810184848401111561048d57600080fd5b6104988482856107f8565b509392505050565b600082601f8301126104b157600080fd5b81356104c1848260208601610462565b91505092915050565b6000813590506104d981610953565b92915050565b600080600080608085870312156104f557600080fd5b600085013567ffffffffffffffff81111561050f57600080fd5b61051b878288016104a0565b945050602085013567ffffffffffffffff81111561053857600080fd5b610544878288016104a0565b9350506040610555878288016104ca565b9250506060610566878288016104ca565b91505092959194509250565b600061057e8383610634565b905092915050565b600061059182610753565b61059b8185610776565b9350836020820285016105ad85610743565b8060005b858110156105e957848403895281516105ca8582610572565b94506105d583610769565b925060208a019950506001810190506105b1565b50829750879550505050505092915050565b60006106068261075e565b6106108185610787565b9350610620818560208601610807565b61062981610942565b840191505092915050565b600060a08301600083015161064c60008601826106b1565b506020830151848203602086015261066482826105fb565b9150506040830151848203604086015261067e82826105fb565b915050606083015161069360608601826106b1565b5060808301516106a660808601826106b1565b508091505092915050565b6106ba816107ee565b82525050565b600060208201905081810360008301526106da8184610586565b905092915050565b6000604051905081810181811067ffffffffffffffff8211171561070957610708610913565b5b8060405250919050565b600067ffffffffffffffff82111561072e5761072d610913565b5b601f19601f8301169050602081019050919050565b6000819050602082019050919050565b600081519050919050565b600081519050919050565b6000602082019050919050565b600082825260208201905092915050565b600082825260208201905092915050565b60006107a3826107ee565b91506107ae836107ee565b9250827fffffffffffffffffffffffffffffffffffffffffffffffffffffffffffffffff038211156107e3576107e26108b5565b5b828201905092915050565b6000819050919050565b82818337600083830152505050565b60005b8381101561082557808201518184015260208101905061080a565b83811115610834576000848401525b50505050565b6000600282049050600182168061085257607f821691505b60208210811415610866576108656108e4565b5b50919050565b6000610877826107ee565b91507fffffffffffffffffffffffffffffffffffffffffffffffffffffffffffffffff8214156108aa576108a96108b5565b5b600182019050919050565b7f4e487b7100000000000000000000000000000000000000000000000000000000600052601160045260246000fd5b7f4e487b7100000000000000000000000000000000000000000000000000000000600052602260045260246000fd5b7f4e487b7100000000000000000000000000000000000000000000000000000000600052604160045260246000fd5b6000601f19601f8301169050919050565b61095c816107ee565b811461096757600080fd5b5056fea264697066735822122021e63538bcea27d75500ccd5fe5eb012e8fa8c454fab2a6c4fbbb97b3178205064736f6c63430008000033",
  "immutableReferences": {},
  "source": "// SPDX-License-Identifier: MIT\npragma solidity >=0.7.0 <0.9.0;\n\ncontract Store {\n    uint productIndex;\n    // \n    // \n    struct Product {\n        uint id;\n        string name;\n        string details;\n        uint price;\n        // \n        uint inventory;\n    }\n\n    // \n    mapping(uint => Product) productList;\n\n    // \n    function createProduct(string memory _name, string memory _details, uint _price, uint _inventory) external {\n        Product memory _product;\n        _product.id = ++productIndex;\n        _product.name = _name;\n        _product.details = _details;\n        _product.price = _price;\n        _product.inventory = _inventory;\n        productList[productIndex] = _product;\n    }\n\n    // \n    function getProductList() external view returns (Product[] memory) {\n        Product[] memory _List = new Product[](productIndex);\n        for (uint i = 0; i < productIndex; i++) {\n            _List[i] = productList[i+1];\n        }\n        return (_List);\n    }\n\n    // \n    // function purchase(uint _productIndex) external {\n    //     require(productList[_productIndex].inventory > 0, \"Inventory not enough!\");\n    //     require(balanceOf[msg.sender] >= productList[_productIndex].price, \"Credit balance not enough!\");\n    //     --productList[_productIndex].inventory;\n    //     _transfer(msg.sender, administrator, productList[_productIndex].price);\n    // }\n}",
  "sourcePath": "/Users/peggy_wang/Desktop/workSpace/AntiFraud/contracts/Store.sol",
  "compiler": {
    "name": "solc",
    "version": "0.8.0+commit.c7dfd78e.Emscripten.clang"
  },
  "schemaVersion": "3.4.6",
  "updatedAt": "2022-05-05T11:56:24.203Z",
  "devdoc": {
    "kind": "dev",
    "methods": {},
    "version": 1
  },
  "userdoc": {
    "kind": "user",
    "methods": {},
    "version": 1
  }
}