{
  "contractName": "AntiFraud",
  "abi": [
    {
      "inputs": [],
      "stateMutability": "nonpayable",
      "type": "constructor"
    },
    {
      "inputs": [
        {
          "internalType": "address",
          "name": "_userAdd",
          "type": "address"
        }
      ],
      "name": "getBalanceOf",
      "outputs": [
        {
          "internalType": "uint256",
          "name": "",
          "type": "uint256"
        }
      ],
      "stateMutability": "view",
      "type": "function",
      "constant": true
    },
    {
      "inputs": [
        {
          "internalType": "address",
          "name": "_from",
          "type": "address"
        },
        {
          "internalType": "address",
          "name": "_to",
          "type": "address"
        },
        {
          "internalType": "uint256",
          "name": "_val",
          "type": "uint256"
        }
      ],
      "name": "transfer",
      "outputs": [
        {
          "internalType": "bool",
          "name": "",
          "type": "bool"
        }
      ],
      "stateMutability": "nonpayable",
      "type": "function"
    },
    {
      "inputs": [
        {
          "internalType": "address",
          "name": "_policeUserAddress",
          "type": "address"
        }
      ],
      "name": "getPoliceUser",
      "outputs": [
        {
          "internalType": "uint256",
          "name": "",
          "type": "uint256"
        },
        {
          "internalType": "string",
          "name": "",
          "type": "string"
        },
        {
          "internalType": "string",
          "name": "",
          "type": "string"
        }
      ],
      "stateMutability": "view",
      "type": "function",
      "constant": true
    },
    {
      "inputs": [
        {
          "internalType": "string",
          "name": "_name",
          "type": "string"
        },
        {
          "internalType": "string",
          "name": "_avatarLink",
          "type": "string"
        }
      ],
      "name": "createPoliceUser",
      "outputs": [],
      "stateMutability": "nonpayable",
      "type": "function"
    },
    {
      "inputs": [
        {
          "internalType": "address",
          "name": "_civilUserAddress",
          "type": "address"
        }
      ],
      "name": "getCivilUser",
      "outputs": [
        {
          "internalType": "uint256",
          "name": "",
          "type": "uint256"
        },
        {
          "internalType": "string",
          "name": "",
          "type": "string"
        },
        {
          "internalType": "string",
          "name": "",
          "type": "string"
        }
      ],
      "stateMutability": "view",
      "type": "function",
      "constant": true
    },
    {
      "inputs": [
        {
          "internalType": "string",
          "name": "_name",
          "type": "string"
        },
        {
          "internalType": "string",
          "name": "_avatarLink",
          "type": "string"
        }
      ],
      "name": "createCivilUser",
      "outputs": [],
      "stateMutability": "nonpayable",
      "type": "function"
    },
    {
      "inputs": [
        {
          "internalType": "string[]",
          "name": "_screenshotLink",
          "type": "string[]"
        }
      ],
      "name": "postScreenshot",
      "outputs": [],
      "stateMutability": "nonpayable",
      "type": "function"
    },
    {
      "inputs": [],
      "name": "getScreenshotList",
      "outputs": [
        {
          "components": [
            {
              "internalType": "uint256",
              "name": "id",
              "type": "uint256"
            },
            {
              "internalType": "address",
              "name": "auditPoliceUser",
              "type": "address"
            },
            {
              "internalType": "string[]",
              "name": "screenshotLink",
              "type": "string[]"
            },
            {
              "internalType": "bool",
              "name": "isValid",
              "type": "bool"
            },
            {
              "internalType": "uint256",
              "name": "postTime",
              "type": "uint256"
            }
          ],
          "internalType": "struct AntiFraud.FraudScreenshot[]",
          "name": "",
          "type": "tuple[]"
        }
      ],
      "stateMutability": "view",
      "type": "function",
      "constant": true
    },
    {
      "inputs": [],
      "name": "getHistoryPost",
      "outputs": [
        {
          "components": [
            {
              "internalType": "uint256",
              "name": "id",
              "type": "uint256"
            },
            {
              "internalType": "address",
              "name": "auditPoliceUser",
              "type": "address"
            },
            {
              "internalType": "string[]",
              "name": "screenshotLink",
              "type": "string[]"
            },
            {
              "internalType": "bool",
              "name": "isValid",
              "type": "bool"
            },
            {
              "internalType": "uint256",
              "name": "postTime",
              "type": "uint256"
            }
          ],
          "internalType": "struct AntiFraud.FraudScreenshot[]",
          "name": "",
          "type": "tuple[]"
        }
      ],
      "stateMutability": "view",
      "type": "function",
      "constant": true
    },
    {
      "inputs": [],
      "name": "getHistoryAudit",
      "outputs": [
        {
          "components": [
            {
              "internalType": "uint256",
              "name": "id",
              "type": "uint256"
            },
            {
              "internalType": "address",
              "name": "auditPoliceUser",
              "type": "address"
            },
            {
              "internalType": "string[]",
              "name": "screenshotLink",
              "type": "string[]"
            },
            {
              "internalType": "bool",
              "name": "isValid",
              "type": "bool"
            },
            {
              "internalType": "uint256",
              "name": "postTime",
              "type": "uint256"
            }
          ],
          "internalType": "struct AntiFraud.FraudScreenshot[]",
          "name": "",
          "type": "tuple[]"
        }
      ],
      "stateMutability": "view",
      "type": "function",
      "constant": true
    },
    {
      "inputs": [
        {
          "internalType": "uint256[]",
          "name": "_screenshotIndex",
          "type": "uint256[]"
        },
        {
          "internalType": "bool[]",
          "name": "_isVaild",
          "type": "bool[]"
        }
      ],
      "name": "auditScreenshot",
      "outputs": [],
      "stateMutability": "nonpayable",
      "type": "function"
    },
    {
      "inputs": [
        {
          "internalType": "string",
          "name": "_title",
          "type": "string"
        },
        {
          "internalType": "string",
          "name": "_tag",
          "type": "string"
        },
        {
          "internalType": "string",
          "name": "_description",
          "type": "string"
        },
        {
          "internalType": "string[]",
          "name": "_caseImageLink",
          "type": "string[]"
        }
      ],
      "name": "postCase",
      "outputs": [],
      "stateMutability": "nonpayable",
      "type": "function"
    },
    {
      "inputs": [],
      "name": "getCase",
      "outputs": [
        {
          "components": [
            {
              "internalType": "uint256",
              "name": "id",
              "type": "uint256"
            },
            {
              "internalType": "string",
              "name": "title",
              "type": "string"
            },
            {
              "internalType": "string",
              "name": "tag",
              "type": "string"
            },
            {
              "internalType": "string",
              "name": "description",
              "type": "string"
            },
            {
              "internalType": "uint256",
              "name": "postTime",
              "type": "uint256"
            },
            {
              "internalType": "string[]",
              "name": "caseImageLink",
              "type": "string[]"
            },
            {
              "internalType": "uint256",
              "name": "state",
              "type": "uint256"
            }
          ],
          "internalType": "struct AntiFraud.FraudCase[]",
          "name": "",
          "type": "tuple[]"
        }
      ],
      "stateMutability": "view",
      "type": "function",
      "constant": true
    },
    {
      "inputs": [
        {
          "internalType": "uint256",
          "name": "_caseIndex",
          "type": "uint256"
        }
      ],
      "name": "getIsVoted",
      "outputs": [
        {
          "internalType": "bool",
          "name": "",
          "type": "bool"
        }
      ],
      "stateMutability": "view",
      "type": "function",
      "constant": true
    },
    {
      "inputs": [
        {
          "internalType": "uint256",
          "name": "_caseIndex",
          "type": "uint256"
        }
      ],
      "name": "getVoteCountOf",
      "outputs": [
        {
          "internalType": "int256",
          "name": "",
          "type": "int256"
        },
        {
          "internalType": "uint256",
          "name": "",
          "type": "uint256"
        }
      ],
      "stateMutability": "view",
      "type": "function",
      "constant": true
    },
    {
      "inputs": [
        {
          "internalType": "uint256",
          "name": "_caseIndex",
          "type": "uint256"
        },
        {
          "internalType": "bool",
          "name": "isValid",
          "type": "bool"
        }
      ],
      "name": "vote",
      "outputs": [],
      "stateMutability": "nonpayable",
      "type": "function"
    },
    {
      "inputs": [
        {
          "internalType": "uint256[]",
          "name": "_caseIndex",
          "type": "uint256[]"
        },
        {
          "internalType": "bool[]",
          "name": "isValid",
          "type": "bool[]"
        }
      ],
      "name": "auditCase",
      "outputs": [],
      "stateMutability": "nonpayable",
      "type": "function"
    },
    {
      "inputs": [],
      "name": "getHistoryCaseAudit",
      "outputs": [
        {
          "components": [
            {
              "internalType": "uint256",
              "name": "id",
              "type": "uint256"
            },
            {
              "internalType": "string",
              "name": "title",
              "type": "string"
            },
            {
              "internalType": "string",
              "name": "tag",
              "type": "string"
            },
            {
              "internalType": "string",
              "name": "description",
              "type": "string"
            },
            {
              "internalType": "uint256",
              "name": "postTime",
              "type": "uint256"
            },
            {
              "internalType": "string[]",
              "name": "caseImageLink",
              "type": "string[]"
            },
            {
              "internalType": "uint256",
              "name": "state",
              "type": "uint256"
            }
          ],
          "internalType": "struct AntiFraud.FraudCase[]",
          "name": "",
          "type": "tuple[]"
        }
      ],
      "stateMutability": "view",
      "type": "function",
      "constant": true
    },
    {
      "inputs": [
        {
          "internalType": "string",
          "name": "_title",
          "type": "string"
        },
        {
          "internalType": "string",
          "name": "_description",
          "type": "string"
        },
        {
          "internalType": "string[]",
          "name": "_taskImageLink",
          "type": "string[]"
        },
        {
          "internalType": "bool",
          "name": "_isAnswerInRush",
          "type": "bool"
        }
      ],
      "name": "postTask",
      "outputs": [],
      "stateMutability": "nonpayable",
      "type": "function"
    },
    {
      "inputs": [],
      "name": "getTask",
      "outputs": [
        {
          "components": [
            {
              "internalType": "uint256",
              "name": "id",
              "type": "uint256"
            },
            {
              "internalType": "string",
              "name": "title",
              "type": "string"
            },
            {
              "internalType": "string",
              "name": "description",
              "type": "string"
            },
            {
              "internalType": "uint256",
              "name": "postTime",
              "type": "uint256"
            },
            {
              "internalType": "uint256",
              "name": "answerCount",
              "type": "uint256"
            },
            {
              "internalType": "bool",
              "name": "isSolved",
              "type": "bool"
            },
            {
              "internalType": "string[]",
              "name": "taskImageLink",
              "type": "string[]"
            },
            {
              "internalType": "bool",
              "name": "isAnswerInRush",
              "type": "bool"
            },
            {
              "internalType": "bool",
              "name": "isAccept",
              "type": "bool"
            }
          ],
          "internalType": "struct AntiFraud.Task[]",
          "name": "",
          "type": "tuple[]"
        }
      ],
      "stateMutability": "view",
      "type": "function",
      "constant": true
    },
    {
      "inputs": [
        {
          "internalType": "uint256",
          "name": "_taskIndex",
          "type": "uint256"
        }
      ],
      "name": "acceptTask",
      "outputs": [],
      "stateMutability": "nonpayable",
      "type": "function"
    },
    {
      "inputs": [
        {
          "internalType": "uint256",
          "name": "_taskIndex",
          "type": "uint256"
        },
        {
          "internalType": "string",
          "name": "_detail",
          "type": "string"
        }
      ],
      "name": "postTaskAnswer",
      "outputs": [],
      "stateMutability": "nonpayable",
      "type": "function"
    },
    {
      "inputs": [
        {
          "internalType": "uint256",
          "name": "_taskIndex",
          "type": "uint256"
        }
      ],
      "name": "getThisTaskAnswer",
      "outputs": [
        {
          "components": [
            {
              "internalType": "uint256",
              "name": "id",
              "type": "uint256"
            },
            {
              "internalType": "string",
              "name": "detail",
              "type": "string"
            },
            {
              "internalType": "uint256",
              "name": "postTime",
              "type": "uint256"
            },
            {
              "internalType": "address",
              "name": "answerAddress",
              "type": "address"
            }
          ],
          "internalType": "struct AntiFraud.TaskAnswer[]",
          "name": "",
          "type": "tuple[]"
        }
      ],
      "stateMutability": "view",
      "type": "function",
      "constant": true
    },
    {
      "inputs": [
        {
          "internalType": "uint256",
          "name": "_taskIndex",
          "type": "uint256"
        }
      ],
      "name": "taskFailed",
      "outputs": [],
      "stateMutability": "nonpayable",
      "type": "function"
    },
    {
      "inputs": [
        {
          "internalType": "uint256",
          "name": "_taskIndex",
          "type": "uint256"
        },
        {
          "internalType": "uint256",
          "name": "_answerIndex",
          "type": "uint256"
        },
        {
          "internalType": "bool",
          "name": "_isAdopt",
          "type": "bool"
        }
      ],
      "name": "taskCompelte",
      "outputs": [],
      "stateMutability": "nonpayable",
      "type": "function"
    },
    {
      "inputs": [
        {
          "internalType": "string",
          "name": "_title",
          "type": "string"
        },
        {
          "internalType": "string",
          "name": "_description",
          "type": "string"
        },
        {
          "internalType": "string",
          "name": "_tag",
          "type": "string"
        },
        {
          "internalType": "string[]",
          "name": "_imageLink",
          "type": "string[]"
        },
        {
          "internalType": "uint256",
          "name": "_reward",
          "type": "uint256"
        }
      ],
      "name": "createPosts",
      "outputs": [],
      "stateMutability": "nonpayable",
      "type": "function"
    },
    {
      "inputs": [],
      "name": "getPostsList",
      "outputs": [
        {
          "components": [
            {
              "internalType": "uint256",
              "name": "id",
              "type": "uint256"
            },
            {
              "internalType": "uint256",
              "name": "postTime",
              "type": "uint256"
            },
            {
              "internalType": "uint256",
              "name": "reward",
              "type": "uint256"
            },
            {
              "internalType": "uint256",
              "name": "replyCounts",
              "type": "uint256"
            },
            {
              "internalType": "string",
              "name": "title",
              "type": "string"
            },
            {
              "internalType": "string",
              "name": "description",
              "type": "string"
            },
            {
              "internalType": "string",
              "name": "tag",
              "type": "string"
            },
            {
              "internalType": "string[]",
              "name": "imageLink",
              "type": "string[]"
            },
            {
              "internalType": "address",
              "name": "postUserAdd",
              "type": "address"
            }
          ],
          "internalType": "struct AntiFraud.Posts[]",
          "name": "",
          "type": "tuple[]"
        }
      ],
      "stateMutability": "view",
      "type": "function",
      "constant": true
    },
    {
      "inputs": [
        {
          "internalType": "uint256",
          "name": "_postsIndex",
          "type": "uint256"
        },
        {
          "internalType": "string",
          "name": "_details",
          "type": "string"
        }
      ],
      "name": "createPostsReply",
      "outputs": [],
      "stateMutability": "nonpayable",
      "type": "function"
    },
    {
      "inputs": [
        {
          "internalType": "uint256",
          "name": "_postsIndex",
          "type": "uint256"
        }
      ],
      "name": "getThisPostsReply",
      "outputs": [
        {
          "components": [
            {
              "internalType": "uint256",
              "name": "postsId",
              "type": "uint256"
            },
            {
              "internalType": "uint256",
              "name": "floor",
              "type": "uint256"
            },
            {
              "internalType": "uint256",
              "name": "level",
              "type": "uint256"
            },
            {
              "internalType": "uint256",
              "name": "postTime",
              "type": "uint256"
            },
            {
              "internalType": "string",
              "name": "details",
              "type": "string"
            },
            {
              "internalType": "address",
              "name": "postUserAdd",
              "type": "address"
            }
          ],
          "internalType": "struct AntiFraud.PostsReply[]",
          "name": "",
          "type": "tuple[]"
        }
      ],
      "stateMutability": "view",
      "type": "function",
      "constant": true
    }
  ],
  "bytecode": "0x608060405234801561001057600080fd5b50606460008190555033600160006101000a81548173ffffffffffffffffffffffffffffffffffffffff021916908373ffffffffffffffffffffffffffffffffffffffff160217905550600054600260003373ffffffffffffffffffffffffffffffffffffffff1673ffffffffffffffffffffffffffffffffffffffff16815260200190815260200160002081905550600060038190555060006004819055506000600581905550600060068190555060006007819055506000600881905550615f8480620000e06000396000f3fe608060405234801561001057600080fd5b50600436106101cf5760003560e01c80636e1d80d711610104578063beabacc8116100a2578063e6ba4be911610071578063e6ba4be91461052b578063ec32dbcc1461055d578063f4b75ffb1461057b578063fa2970ea14610597576101cf565b8063beabacc8146104a7578063c9d27afe146104d7578063d2e3ada5146104f3578063e5ed32061461050f576101cf565b80639b96eece116100de5780639b96eece1461041f578063a31662d21461044f578063b69607d31461046d578063bd25460114610489576101cf565b80636e1d80d7146103b75780637cbab9a5146103e7578063978b3e2714610403576101cf565b80633d9536ef11610171578063480daedd1161014b578063480daedd146103315780635429972f1461034f5780635da131f71461037f5780635e4e6e881461039b576101cf565b80633d9536ef146102d9578063407de8e4146102f7578063452a4cdc14610313576101cf565b80632f9fe552116101ad5780632f9fe5521461023e578063313b30431461025a57806331c89ff114610278578063381aefa2146102a9576101cf565b80630421cc33146101d457806307c35c99146102065780631bf6912d14610222575b600080fd5b6101ee60048036038101906101e9919061487d565b6105b3565b6040516101fd93929190615911565b60405180910390f35b610220600480360381019061021b9190614936565b610799565b005b61023c60048036038101906102379190614c53565b610c19565b005b61025860048036038101906102539190614ab9565b610ce8565b005b610262610f50565b60405161026f919061578c565b60405180910390f35b610292600480360381019061028d9190614c53565b61136a565b6040516102a092919061580d565b60405180910390f35b6102c360048036038101906102be9190614c53565b6113e3565b6040516102d091906157f2565b60405180910390f35b6102e161144a565b6040516102ee9190615726565b60405180910390f35b610311600480360381019061030c9190614b7c565b611793565b005b61031b611940565b6040516103289190615748565b60405180910390f35b610339611b3a565b6040516103469190615726565b60405180910390f35b61036960048036038101906103649190614c53565b611ef3565b604051610376919061576a565b60405180910390f35b61039960048036038101906103949190614c53565b6121c4565b005b6103b560048036038101906103b091906149a2565b612215565b005b6103d160048036038101906103cc9190614c53565b6122ac565b6040516103de91906157ae565b60405180910390f35b61040160048036038101906103fc9190614a0e565b612569565b005b61041d600480360381019061041891906149a2565b612883565b005b6104396004803603810190610434919061487d565b61291a565b60405161044691906158f6565b60405180910390f35b61045761292c565b60405161046491906157d0565b60405180910390f35b61048760048036038101906104829190614cb8565b612ca5565b005b610491612e0f565b60405161049e9190615748565b60405180910390f35b6104c160048036038101906104bc91906148a6565b613009565b6040516104ce91906157f2565b60405180910390f35b6104f160048036038101906104ec9190614c7c565b61301f565b005b61050d60048036038101906105089190614d0c565b613236565b005b61052960048036038101906105249190614936565b613400565b005b6105456004803603810190610540919061487d565b6137d0565b60405161055493929190615911565b60405180910390f35b6105656139b6565b6040516105729190615748565b60405180910390f35b61059560048036038101906105909190614cb8565b613c20565b005b6105b160048036038101906105ac91906148f5565b613d61565b005b60006060806000600960008673ffffffffffffffffffffffffffffffffffffffff1673ffffffffffffffffffffffffffffffffffffffff1681526020019081526020016000206040518060600160405290816000820154815260200160018201805461061e90615d5e565b80601f016020809104026020016040519081016040528092919081815260200182805461064a90615d5e565b80156106975780601f1061066c57610100808354040283529160200191610697565b820191906000526020600020905b81548152906001019060200180831161067a57829003601f168201915b505050505081526020016002820180546106b090615d5e565b80601f01602080910402602001604051908101604052809291908181526020018280546106dc90615d5e565b80156107295780601f106106fe57610100808354040283529160200191610729565b820191906000526020600020905b81548152906001019060200180831161070c57829003601f168201915b505050505081525050905060008160000151141561077c576040517f08c379a000000000000000000000000000000000000000000000000000000000815260040161077390615896565b60405180910390fd5b806000015181602001518260400151935093509350509193909250565b60005b8251811015610c14576005548382815181106107e1577f4e487b7100000000000000000000000000000000000000000000000000000000600052603260045260246000fd5b6020026020010151111561082a576040517f08c379a000000000000000000000000000000000000000000000000000000000815260040161082190615836565b60405180910390fd5b818181518110610863577f4e487b7100000000000000000000000000000000000000000000000000000000600052603260045260246000fd5b6020026020010151600e60008584815181106108a8577f4e487b7100000000000000000000000000000000000000000000000000000000600052603260045260246000fd5b6020026020010151815260200190815260200160002060030160006101000a81548160ff02191690831515021790555033600e6000858481518110610916577f4e487b7100000000000000000000000000000000000000000000000000000000600052603260045260246000fd5b6020026020010151815260200190815260200160002060010160006101000a81548173ffffffffffffffffffffffffffffffffffffffff021916908373ffffffffffffffffffffffffffffffffffffffff160217905550600d60003373ffffffffffffffffffffffffffffffffffffffff1673ffffffffffffffffffffffffffffffffffffffff168152602001908152602001600020600e60008584815181106109e9577f4e487b7100000000000000000000000000000000000000000000000000000000600052603260045260246000fd5b602002602001015181526020019081526020016000209080600181540180825580915050600190039060005260206000209060050201600090919091909150600082015481600001556001820160009054906101000a900473ffffffffffffffffffffffffffffffffffffffff168160010160006101000a81548173ffffffffffffffffffffffffffffffffffffffff021916908373ffffffffffffffffffffffffffffffffffffffff1602179055506002820181600201908054610aaf929190614205565b506003820160009054906101000a900460ff168160030160006101000a81548160ff021916908315150217905550600482015481600401555050610b17600160009054906101000a900473ffffffffffffffffffffffffffffffffffffffff16336002613ff6565b50818181518110610b51577f4e487b7100000000000000000000000000000000000000000000000000000000600052603260045260246000fd5b602002602001015115610c0157610bff600160009054906101000a900473ffffffffffffffffffffffffffffffffffffffff16600b6000868581518110610bc1577f4e487b7100000000000000000000000000000000000000000000000000000000600052603260045260246000fd5b6020026020010151815260200190815260200160002060009054906101000a900473ffffffffffffffffffffffffffffffffffffffff166005613ff6565b505b8080610c0c90615dd9565b91505061079c565b505050565b60016018600083815260200190815260200160002060070160016101000a81548160ff02191690831515021790555060016018600083815260200190815260200160002060040181905550336019600083815260200190815260200160002060006101000a81548173ffffffffffffffffffffffffffffffffffffffff021916908373ffffffffffffffffffffffffffffffffffffffff160217905550610ce433600160009054906101000a900473ffffffffffffffffffffffffffffffffffffffff166002613ff6565b5050565b610cf061426d565b60065481600001818152505042816080018181525050848160200181905250838160400181905250828160600181905250818160a0018190525060018160c001818152505033600f6000600654815260200190815260200160002060006101000a81548173ffffffffffffffffffffffffffffffffffffffff021916908373ffffffffffffffffffffffffffffffffffffffff160217905550601060003373ffffffffffffffffffffffffffffffffffffffff1673ffffffffffffffffffffffffffffffffffffffff168152602001908152602001600020819080600181540180825580915050600190039060005260206000209060070201600090919091909150600082015181600001556020820151816001019080519060200190610e189291906142aa565b506040820151816002019080519060200190610e359291906142aa565b506060820151816003019080519060200190610e529291906142aa565b506080820151816004015560a0820151816005019080519060200190610e79929190614330565b5060c08201518160060155505080601260006006548152602001908152602001600020600082015181600001556020820151816001019080519060200190610ec29291906142aa565b506040820151816002019080519060200190610edf9291906142aa565b506060820151816003019080519060200190610efc9291906142aa565b506080820151816004015560a0820151816005019080519060200190610f23929190614330565b5060c0820151816006015590505060066000815480929190610f4490615dd9565b91905055505050505050565b6060600060085467ffffffffffffffff811115610f96577f4e487b7100000000000000000000000000000000000000000000000000000000600052604160045260246000fd5b604051908082528060200260200182016040528015610fcf57816020015b610fbc614390565b815260200190600190039081610fb45790505b50905060005b60085481101561136257601b6000828152602001908152602001600020604051806101200160405290816000820154815260200160018201548152602001600282015481526020016003820154815260200160048201805461103690615d5e565b80601f016020809104026020016040519081016040528092919081815260200182805461106290615d5e565b80156110af5780601f10611084576101008083540402835291602001916110af565b820191906000526020600020905b81548152906001019060200180831161109257829003601f168201915b505050505081526020016005820180546110c890615d5e565b80601f01602080910402602001604051908101604052809291908181526020018280546110f490615d5e565b80156111415780601f1061111657610100808354040283529160200191611141565b820191906000526020600020905b81548152906001019060200180831161112457829003601f168201915b5050505050815260200160068201805461115a90615d5e565b80601f016020809104026020016040519081016040528092919081815260200182805461118690615d5e565b80156111d35780601f106111a8576101008083540402835291602001916111d3565b820191906000526020600020905b8154815290600101906020018083116111b657829003601f168201915b5050505050815260200160078201805480602002602001604051908101604052809291908181526020016000905b828210156112ad57838290600052602060002001805461122090615d5e565b80601f016020809104026020016040519081016040528092919081815260200182805461124c90615d5e565b80156112995780601f1061126e57610100808354040283529160200191611299565b820191906000526020600020905b81548152906001019060200180831161127c57829003601f168201915b505050505081526020019060010190611201565b5050505081526020016008820160009054906101000a900473ffffffffffffffffffffffffffffffffffffffff1673ffffffffffffffffffffffffffffffffffffffff1673ffffffffffffffffffffffffffffffffffffffff1681525050828281518110611344577f4e487b7100000000000000000000000000000000000000000000000000000000600052603260045260246000fd5b6020026020010181905250808061135a90615dd9565b915050610fd5565b508091505090565b6000806006548311156113b2576040517f08c379a00000000000000000000000000000000000000000000000000000000081526004016113a9906158b6565b60405180910390fd5b6013600084815260200190815260200160002054601460008581526020019081526020016000205491509150915091565b60006015600083815260200190815260200160002060003373ffffffffffffffffffffffffffffffffffffffff1673ffffffffffffffffffffffffffffffffffffffff16815260200190815260200160002060009054906101000a900460ff169050919050565b6060601160003373ffffffffffffffffffffffffffffffffffffffff1673ffffffffffffffffffffffffffffffffffffffff168152602001908152602001600020805480602002602001604051908101604052809291908181526020016000905b8282101561178a57838290600052602060002090600702016040518060e0016040529081600082015481526020016001820180546114e890615d5e565b80601f016020809104026020016040519081016040528092919081815260200182805461151490615d5e565b80156115615780601f1061153657610100808354040283529160200191611561565b820191906000526020600020905b81548152906001019060200180831161154457829003601f168201915b5050505050815260200160028201805461157a90615d5e565b80601f01602080910402602001604051908101604052809291908181526020018280546115a690615d5e565b80156115f35780601f106115c8576101008083540402835291602001916115f3565b820191906000526020600020905b8154815290600101906020018083116115d657829003601f168201915b5050505050815260200160038201805461160c90615d5e565b80601f016020809104026020016040519081016040528092919081815260200182805461163890615d5e565b80156116855780601f1061165a57610100808354040283529160200191611685565b820191906000526020600020905b81548152906001019060200180831161166857829003601f168201915b505050505081526020016004820154815260200160058201805480602002602001604051908101604052809291908181526020016000905b828210156117695783829060005260206000200180546116dc90615d5e565b80601f016020809104026020016040519081016040528092919081815260200182805461170890615d5e565b80156117555780601f1061172a57610100808354040283529160200191611755565b820191906000526020600020905b81548152906001019060200180831161173857829003601f168201915b5050505050815260200190600101906116bd565b505050508152602001600682015481525050815260200190600101906114ab565b50505050905090565b61179b614390565b60085481600001818152505042816020018181525050818160400181815250506000816060018181525050858160800181905250848160a00181905250838160c00181905250828160e001819052503381610100019073ffffffffffffffffffffffffffffffffffffffff16908173ffffffffffffffffffffffffffffffffffffffff168152505080601b6000600354815260200190815260200160002060008201518160000155602082015181600101556040820151816002015560608201518160030155608082015181600401908051906020019061187d9291906142aa565b5060a082015181600501908051906020019061189a9291906142aa565b5060c08201518160060190805190602001906118b79291906142aa565b5060e08201518160070190805190602001906118d4929190614330565b506101008201518160080160006101000a81548173ffffffffffffffffffffffffffffffffffffffff021916908373ffffffffffffffffffffffffffffffffffffffff1602179055509050506008600081548092919061193390615dd9565b9190505550505050505050565b6060600d60003373ffffffffffffffffffffffffffffffffffffffff1673ffffffffffffffffffffffffffffffffffffffff168152602001908152602001600020805480602002602001604051908101604052809291908181526020016000905b82821015611b3157838290600052602060002090600502016040518060a0016040529081600082015481526020016001820160009054906101000a900473ffffffffffffffffffffffffffffffffffffffff1673ffffffffffffffffffffffffffffffffffffffff1673ffffffffffffffffffffffffffffffffffffffff16815260200160028201805480602002602001604051908101604052809291908181526020016000905b82821015611af5578382906000526020600020018054611a6890615d5e565b80601f0160208091040260200160405190810160405280929190818152602001828054611a9490615d5e565b8015611ae15780601f10611ab657610100808354040283529160200191611ae1565b820191906000526020600020905b815481529060010190602001808311611ac457829003601f168201915b505050505081526020019060010190611a49565b5050505081526020016003820160009054906101000a900460ff16151515158152602001600482015481525050815260200190600101906119a1565b50505050905090565b6060600060065467ffffffffffffffff811115611b80577f4e487b7100000000000000000000000000000000000000000000000000000000600052604160045260246000fd5b604051908082528060200260200182016040528015611bb957816020015b611ba661426d565b815260200190600190039081611b9e5790505b50905060005b600654811015611eeb57601260008281526020019081526020016000206040518060e001604052908160008201548152602001600182018054611c0190615d5e565b80601f0160208091040260200160405190810160405280929190818152602001828054611c2d90615d5e565b8015611c7a5780601f10611c4f57610100808354040283529160200191611c7a565b820191906000526020600020905b815481529060010190602001808311611c5d57829003601f168201915b50505050508152602001600282018054611c9390615d5e565b80601f0160208091040260200160405190810160405280929190818152602001828054611cbf90615d5e565b8015611d0c5780601f10611ce157610100808354040283529160200191611d0c565b820191906000526020600020905b815481529060010190602001808311611cef57829003601f168201915b50505050508152602001600382018054611d2590615d5e565b80601f0160208091040260200160405190810160405280929190818152602001828054611d5190615d5e565b8015611d9e5780601f10611d7357610100808354040283529160200191611d9e565b820191906000526020600020905b815481529060010190602001808311611d8157829003601f168201915b505050505081526020016004820154815260200160058201805480602002602001604051908101604052809291908181526020016000905b82821015611e82578382906000526020600020018054611df590615d5e565b80601f0160208091040260200160405190810160405280929190818152602001828054611e2190615d5e565b8015611e6e5780601f10611e4357610100808354040283529160200191611e6e565b820191906000526020600020905b815481529060010190602001808311611e5157829003601f168201915b505050505081526020019060010190611dd6565b505050508152602001600682015481525050828281518110611ecd577f4e487b7100000000000000000000000000000000000000000000000000000000600052603260045260246000fd5b60200260200101819052508080611ee390615dd9565b915050611bbf565b508091505090565b6060600854821115611f3a576040517f08c379a0000000000000000000000000000000000000000000000000000000008152600401611f3190615876565b60405180910390fd5b6000601b60008481526020019081526020016000206003015467ffffffffffffffff811115611f92577f4e487b7100000000000000000000000000000000000000000000000000000000600052604160045260246000fd5b604051908082528060200260200182016040528015611fcb57816020015b611fb86143f2565b815260200190600190039081611fb05790505b50905060005b601b6000858152602001908152602001600020600301548110156121ba57601c6000858152602001908152602001600020818154811061203a577f4e487b7100000000000000000000000000000000000000000000000000000000600052603260045260246000fd5b90600052602060002090600602016040518060c00160405290816000820154815260200160018201548152602001600282015481526020016003820154815260200160048201805461208b90615d5e565b80601f01602080910402602001604051908101604052809291908181526020018280546120b790615d5e565b80156121045780601f106120d957610100808354040283529160200191612104565b820191906000526020600020905b8154815290600101906020018083116120e757829003601f168201915b505050505081526020016005820160009054906101000a900473ffffffffffffffffffffffffffffffffffffffff1673ffffffffffffffffffffffffffffffffffffffff1673ffffffffffffffffffffffffffffffffffffffff168152505082828151811061219c577f4e487b7100000000000000000000000000000000000000000000000000000000600052603260045260246000fd5b602002602001018190525080806121b290615dd9565b915050611fd1565b5080915050919050565b600754811115612209576040517f08c379a0000000000000000000000000000000000000000000000000000000008152600401612200906158d6565b60405180910390fd5b612212816140ff565b50565b6000600960003373ffffffffffffffffffffffffffffffffffffffff1673ffffffffffffffffffffffffffffffffffffffff168152602001908152602001600020905060036000815461226790615dd9565b91905081905581600001819055508281600101908051906020019061228d9291906142aa565b50818160020190805190602001906122a69291906142aa565b50505050565b60606007548211156122f3576040517f08c379a00000000000000000000000000000000000000000000000000000000081526004016122ea906158d6565b60405180910390fd5b6000601860008481526020019081526020016000206004015467ffffffffffffffff81111561234b577f4e487b7100000000000000000000000000000000000000000000000000000000600052604160045260246000fd5b60405190808252806020026020018201604052801561238457816020015b61237161443e565b8152602001906001900390816123695790505b50905060005b601860008581526020019081526020016000206004015481101561255f57601a600085815260200190815260200160002081815481106123f3577f4e487b7100000000000000000000000000000000000000000000000000000000600052603260045260246000fd5b90600052602060002090600402016040518060800160405290816000820154815260200160018201805461242690615d5e565b80601f016020809104026020016040519081016040528092919081815260200182805461245290615d5e565b801561249f5780601f106124745761010080835404028352916020019161249f565b820191906000526020600020905b81548152906001019060200180831161248257829003601f168201915b50505050508152602001600282015481526020016003820160009054906101000a900473ffffffffffffffffffffffffffffffffffffffff1673ffffffffffffffffffffffffffffffffffffffff1673ffffffffffffffffffffffffffffffffffffffff1681525050828281518110612541577f4e487b7100000000000000000000000000000000000000000000000000000000600052603260045260246000fd5b6020026020010181905250808061255790615dd9565b91505061238a565b5080915050919050565b61257161447c565b600754816000018181525050428160600181815250508481602001819052508381604001819052506000816080018181525050828160c0018190525060008160a0019015159081151581525050818160e00190151590811515815250506000816101000190151590811515815250503360166000600754815260200190815260200160002060006101000a81548173ffffffffffffffffffffffffffffffffffffffff021916908373ffffffffffffffffffffffffffffffffffffffff160217905550601760003373ffffffffffffffffffffffffffffffffffffffff1673ffffffffffffffffffffffffffffffffffffffff1681526020019081526020016000208190806001815401808255809150506001900390600052602060002090600802016000909190919091506000820151816000015560208201518160010190805190602001906126c39291906142aa565b5060408201518160020190805190602001906126e09291906142aa565b50606082015181600301556080820151816004015560a08201518160050160006101000a81548160ff02191690831515021790555060c0820151816006019080519060200190612731929190614330565b5060e08201518160070160006101000a81548160ff0219169083151502179055506101008201518160070160016101000a81548160ff0219169083151502179055505050806018600060075481526020019081526020016000206000820151816000015560208201518160010190805190602001906127b19291906142aa565b5060408201518160020190805190602001906127ce9291906142aa565b50606082015181600301556080820151816004015560a08201518160050160006101000a81548160ff02191690831515021790555060c082015181600601908051906020019061281f929190614330565b5060e08201518160070160006101000a81548160ff0219169083151502179055506101008201518160070160016101000a81548160ff0219169083151502179055509050506007600081548092919061287790615dd9565b91905055505050505050565b6000600a60003373ffffffffffffffffffffffffffffffffffffffff1673ffffffffffffffffffffffffffffffffffffffff16815260200190815260200160002090506004600081546128d590615dd9565b9190508190558160000181905550828160010190805190602001906128fb9291906142aa565b50818160020190805190602001906129149291906142aa565b50505050565b600061292582614131565b9050919050565b6060600060075467ffffffffffffffff811115612972577f4e487b7100000000000000000000000000000000000000000000000000000000600052604160045260246000fd5b6040519080825280602002602001820160405280156129ab57816020015b61299861447c565b8152602001906001900390816129905790505b50905060005b600754811015612c9d576018600082815260200190815260200160002060405180610120016040529081600082015481526020016001820180546129f490615d5e565b80601f0160208091040260200160405190810160405280929190818152602001828054612a2090615d5e565b8015612a6d5780601f10612a4257610100808354040283529160200191612a6d565b820191906000526020600020905b815481529060010190602001808311612a5057829003601f168201915b50505050508152602001600282018054612a8690615d5e565b80601f0160208091040260200160405190810160405280929190818152602001828054612ab290615d5e565b8015612aff5780601f10612ad457610100808354040283529160200191612aff565b820191906000526020600020905b815481529060010190602001808311612ae257829003601f168201915b5050505050815260200160038201548152602001600482015481526020016005820160009054906101000a900460ff1615151515815260200160068201805480602002602001604051908101604052809291908181526020016000905b82821015612c08578382906000526020600020018054612b7b90615d5e565b80601f0160208091040260200160405190810160405280929190818152602001828054612ba790615d5e565b8015612bf45780601f10612bc957610100808354040283529160200191612bf4565b820191906000526020600020905b815481529060010190602001808311612bd757829003601f168201915b505050505081526020019060010190612b5c565b5050505081526020016007820160009054906101000a900460ff161515151581526020016007820160019054906101000a900460ff161515151581525050828281518110612c7f577f4e487b7100000000000000000000000000000000000000000000000000000000600052603260045260246000fd5b60200260200101819052508080612c9590615dd9565b9150506129b1565b508091505090565b612cad6143f2565b82816000018181525050601b600084815260200190815260200160002060030160008154612cda90615dd9565b919050819055816020018181525050600181604001818152505042816060018181525050818160800181905250338160a0019073ffffffffffffffffffffffffffffffffffffffff16908173ffffffffffffffffffffffffffffffffffffffff1681525050601c6000848152602001908152602001600020819080600181540180825580915050600190039060005260206000209060060201600090919091909150600082015181600001556020820151816001015560408201518160020155606082015181600301556080820151816004019080519060200190612dc09291906142aa565b5060a08201518160050160006101000a81548173ffffffffffffffffffffffffffffffffffffffff021916908373ffffffffffffffffffffffffffffffffffffffff1602179055505050505050565b6060600c60003373ffffffffffffffffffffffffffffffffffffffff1673ffffffffffffffffffffffffffffffffffffffff168152602001908152602001600020805480602002602001604051908101604052809291908181526020016000905b8282101561300057838290600052602060002090600502016040518060a0016040529081600082015481526020016001820160009054906101000a900473ffffffffffffffffffffffffffffffffffffffff1673ffffffffffffffffffffffffffffffffffffffff1673ffffffffffffffffffffffffffffffffffffffff16815260200160028201805480602002602001604051908101604052809291908181526020016000905b82821015612fc4578382906000526020600020018054612f3790615d5e565b80601f0160208091040260200160405190810160405280929190818152602001828054612f6390615d5e565b8015612fb05780601f10612f8557610100808354040283529160200191612fb0565b820191906000526020600020905b815481529060010190602001808311612f9357829003601f168201915b505050505081526020019060010190612f18565b5050505081526020016003820160009054906101000a900460ff1615151515815260200160048201548152505081526020019060010190612e70565b50505050905090565b6000613016848484613ff6565b90509392505050565b600015156015600084815260200190815260200160002060003373ffffffffffffffffffffffffffffffffffffffff1673ffffffffffffffffffffffffffffffffffffffff16815260200190815260200160002060009054906101000a900460ff161515146130c3576040517f08c379a00000000000000000000000000000000000000000000000000000000081526004016130ba90615856565b60405180910390fd5b600654821115613108576040517f08c379a00000000000000000000000000000000000000000000000000000000081526004016130ff906158b6565b60405180910390fd5b60016015600084815260200190815260200160002060003373ffffffffffffffffffffffffffffffffffffffff1673ffffffffffffffffffffffffffffffffffffffff16815260200190815260200160002060006101000a81548160ff02191690831515021790555060146000838152602001908152602001600020600081548092919061319590615dd9565b919050555080156131ce576013600083815260200190815260200160002060008154809291906131c490615d90565b91905055506131f8565b6013600083815260200190815260200160002060008154809291906131f290615d15565b91905055505b61320360148361417a565b613231600160009054906101000a900473ffffffffffffffffffffffffffffffffffffffff16336001613ff6565b505050565b60075483111561327b576040517f08c379a0000000000000000000000000000000000000000000000000000000008152600401613272906158d6565b60405180910390fd5b80156133f15760016018600085815260200190815260200160002060050160006101000a81548160ff0219169083151502179055506018600084815260200190815260200160002060070160009054906101000a900460ff16156133405761333a600160009054906101000a900473ffffffffffffffffffffffffffffffffffffffff166019600086815260200190815260200160002060009054906101000a900473ffffffffffffffffffffffffffffffffffffffff16600c613ff6565b506133ec565b6133ea600160009054906101000a900473ffffffffffffffffffffffffffffffffffffffff16601a600086815260200190815260200160002084815481106133b1577f4e487b7100000000000000000000000000000000000000000000000000000000600052603260045260246000fd5b906000526020600020906004020160030160009054906101000a900473ffffffffffffffffffffffffffffffffffffffff16600a613ff6565b505b6133fb565b6133fa836140ff565b5b505050565b60005b82518110156137cb57600654838281518110613448577f4e487b7100000000000000000000000000000000000000000000000000000000600052603260045260246000fd5b60200260200101511115613491576040517f08c379a0000000000000000000000000000000000000000000000000000000008152600401613488906158b6565b60405180910390fd5b8181815181106134ca577f4e487b7100000000000000000000000000000000000000000000000000000000600052603260045260246000fd5b6020026020010151156135da57600460126000858481518110613516577f4e487b7100000000000000000000000000000000000000000000000000000000600052603260045260246000fd5b60200260200101518152602001908152602001600020600601819055506135d4600160009054906101000a900473ffffffffffffffffffffffffffffffffffffffff16600f6000868581518110613596577f4e487b7100000000000000000000000000000000000000000000000000000000600052603260045260246000fd5b6020026020010151815260200190815260200160002060009054906101000a900473ffffffffffffffffffffffffffffffffffffffff16600a613ff6565b50613637565b600060126000858481518110613619577f4e487b7100000000000000000000000000000000000000000000000000000000600052603260045260246000fd5b60200260200101518152602001908152602001600020600601819055505b601160003373ffffffffffffffffffffffffffffffffffffffff1673ffffffffffffffffffffffffffffffffffffffff168152602001908152602001600020601260008584815181106136b3577f4e487b7100000000000000000000000000000000000000000000000000000000600052603260045260246000fd5b60200260200101518152602001908152602001600020908060018154018082558091505060019003906000526020600020906007020160009091909190915060008201548160000155600182018160010190805461371090615d5e565b61371b9291906144ce565b50600282018160020190805461373090615d5e565b61373b9291906144ce565b50600382018160030190805461375090615d5e565b61375b9291906144ce565b5060048201548160040155600582018160050190805461377c929190614205565b506006820154816006015550506137b7600160009054906101000a900473ffffffffffffffffffffffffffffffffffffffff16336002613ff6565b5080806137c390615dd9565b915050613403565b505050565b60006060806000600a60008673ffffffffffffffffffffffffffffffffffffffff1673ffffffffffffffffffffffffffffffffffffffff1681526020019081526020016000206040518060600160405290816000820154815260200160018201805461383b90615d5e565b80601f016020809104026020016040519081016040528092919081815260200182805461386790615d5e565b80156138b45780601f10613889576101008083540402835291602001916138b4565b820191906000526020600020905b81548152906001019060200180831161389757829003601f168201915b505050505081526020016002820180546138cd90615d5e565b80601f01602080910402602001604051908101604052809291908181526020018280546138f990615d5e565b80156139465780601f1061391b57610100808354040283529160200191613946565b820191906000526020600020905b81548152906001019060200180831161392957829003601f168201915b5050505050815250509050600081600001511415613999576040517f08c379a000000000000000000000000000000000000000000000000000000000815260040161399090615896565b60405180910390fd5b806000015181602001518260400151935093509350509193909250565b6060600060055467ffffffffffffffff8111156139fc577f4e487b7100000000000000000000000000000000000000000000000000000000600052604160045260246000fd5b604051908082528060200260200182016040528015613a3557816020015b613a2261455b565b815260200190600190039081613a1a5790505b50905060005b600554811015613c1857600e60008281526020019081526020016000206040518060a0016040529081600082015481526020016001820160009054906101000a900473ffffffffffffffffffffffffffffffffffffffff1673ffffffffffffffffffffffffffffffffffffffff1673ffffffffffffffffffffffffffffffffffffffff16815260200160028201805480602002602001604051908101604052809291908181526020016000905b82821015613b94578382906000526020600020018054613b0790615d5e565b80601f0160208091040260200160405190810160405280929190818152602001828054613b3390615d5e565b8015613b805780601f10613b5557610100808354040283529160200191613b80565b820191906000526020600020905b815481529060010190602001808311613b6357829003601f168201915b505050505081526020019060010190613ae8565b5050505081526020016003820160009054906101000a900460ff16151515158152602001600482015481525050828281518110613bfa577f4e487b7100000000000000000000000000000000000000000000000000000000600052603260045260246000fd5b60200260200101819052508080613c1090615dd9565b915050613a3b565b508091505090565b613c2861443e565b6018600084815260200190815260200160002060040160008154613c4b90615dd9565b9190508190558160000181815250508181602001819052504281604001818152505033816060019073ffffffffffffffffffffffffffffffffffffffff16908173ffffffffffffffffffffffffffffffffffffffff1681525050601a6000848152602001908152602001600020819080600181540180825580915050600190039060005260206000209060040201600090919091909150600082015181600001556020820151816001019080519060200190613d089291906142aa565b506040820151816002015560608201518160030160006101000a81548173ffffffffffffffffffffffffffffffffffffffff021916908373ffffffffffffffffffffffffffffffffffffffff1602179055505050505050565b33600b6000600554815260200190815260200160002060006101000a81548173ffffffffffffffffffffffffffffffffffffffff021916908373ffffffffffffffffffffffffffffffffffffffff160217905550613dbd61455b565b6005548160000181815250506000816020019073ffffffffffffffffffffffffffffffffffffffff16908173ffffffffffffffffffffffffffffffffffffffff1681525050428160800181815250508181604001819052506000816060019015159081151581525050600c60003373ffffffffffffffffffffffffffffffffffffffff1673ffffffffffffffffffffffffffffffffffffffff1681526020019081526020016000208190806001815401808255809150506001900390600052602060002090600502016000909190919091506000820151816000015560208201518160010160006101000a81548173ffffffffffffffffffffffffffffffffffffffff021916908373ffffffffffffffffffffffffffffffffffffffff1602179055506040820151816002019080519060200190613efc929190614330565b5060608201518160030160006101000a81548160ff02191690831515021790555060808201518160040155505080600e600060055481526020019081526020016000206000820151816000015560208201518160010160006101000a81548173ffffffffffffffffffffffffffffffffffffffff021916908373ffffffffffffffffffffffffffffffffffffffff1602179055506040820151816002019080519060200190613fac929190614330565b5060608201518160030160006101000a81548160ff0219169083151502179055506080820151816004015590505060056000815480929190613fed90615dd9565b91905055505050565b6000806000905082600260008773ffffffffffffffffffffffffffffffffffffffff1673ffffffffffffffffffffffffffffffffffffffff16815260200190815260200160002054106140f45782600260008773ffffffffffffffffffffffffffffffffffffffff1673ffffffffffffffffffffffffffffffffffffffff16815260200190815260200160002060008282546140929190615c4d565b9250508190555082600260008673ffffffffffffffffffffffffffffffffffffffff1673ffffffffffffffffffffffffffffffffffffffff16815260200190815260200160002060008282546140e89190615bf7565b92505081905550600190505b809150509392505050565b60006018600083815260200190815260200160002060070160016101000a81548160ff02191690831515021790555050565b6000600260008373ffffffffffffffffffffffffffffffffffffffff1673ffffffffffffffffffffffffffffffffffffffff168152602001908152602001600020549050919050565b6000601360008381526020019081526020016000205490506000838213156141a557600490506141e4565b836141af90615e22565b8212156141bf57600090506141e3565b6000821380156141cf5750838213155b156141dd57600290506141e2565b600390505b5b5b80601260008581526020019081526020016000206006018190555050505050565b82805482825590600052602060002090810192821561425c5760005260206000209182015b8281111561425b57828290805461424090615d5e565b61424b9291906144ce565b509160010191906001019061422a565b5b50905061426991906145a2565b5090565b6040518060e00160405280600081526020016060815260200160608152602001606081526020016000815260200160608152602001600081525090565b8280546142b690615d5e565b90600052602060002090601f0160209004810192826142d8576000855561431f565b82601f106142f157805160ff191683800117855561431f565b8280016001018555821561431f579182015b8281111561431e578251825591602001919060010190614303565b5b50905061432c91906145c6565b5090565b82805482825590600052602060002090810192821561437f579160200282015b8281111561437e57825182908051906020019061436e9291906142aa565b5091602001919060010190614350565b5b50905061438c91906145a2565b5090565b6040518061012001604052806000815260200160008152602001600081526020016000815260200160608152602001606081526020016060815260200160608152602001600073ffffffffffffffffffffffffffffffffffffffff1681525090565b6040518060c001604052806000815260200160008152602001600081526020016000815260200160608152602001600073ffffffffffffffffffffffffffffffffffffffff1681525090565b6040518060800160405280600081526020016060815260200160008152602001600073ffffffffffffffffffffffffffffffffffffffff1681525090565b6040518061012001604052806000815260200160608152602001606081526020016000815260200160008152602001600015158152602001606081526020016000151581526020016000151581525090565b8280546144da90615d5e565b90600052602060002090601f0160209004810192826144fc576000855561454a565b82601f1061450d578054855561454a565b8280016001018555821561454a57600052602060002091601f016020900482015b8281111561454957825482559160010191906001019061452e565b5b50905061455791906145c6565b5090565b6040518060a0016040528060008152602001600073ffffffffffffffffffffffffffffffffffffffff16815260200160608152602001600015158152602001600081525090565b5b808211156145c257600081816145b991906145e3565b506001016145a3565b5090565b5b808211156145df5760008160009055506001016145c7565b5090565b5080546145ef90615d5e565b6000825580601f106146015750614620565b601f01602090049060005260206000209081019061461f91906145c6565b5b50565b600061463661463184615987565b615956565b9050808382526020820190508285602086028201111561465557600080fd5b60005b85811015614685578161466b8882614829565b845260208401935060208301925050600181019050614658565b5050509392505050565b60006146a261469d846159b3565b615956565b9050808382526020820190508260005b858110156146e257813585016146c8888261483e565b8452602084019350602083019250506001810190506146b2565b5050509392505050565b60006146ff6146fa846159df565b615956565b9050808382526020820190508285602086028201111561471e57600080fd5b60005b8581101561474e57816147348882614868565b845260208401935060208301925050600181019050614721565b5050509392505050565b600061476b61476684615a0b565b615956565b90508281526020810184848401111561478357600080fd5b61478e848285615cd3565b509392505050565b6000813590506147a581615f09565b92915050565b600082601f8301126147bc57600080fd5b81356147cc848260208601614623565b91505092915050565b600082601f8301126147e657600080fd5b81356147f684826020860161468f565b91505092915050565b600082601f83011261481057600080fd5b81356148208482602086016146ec565b91505092915050565b60008135905061483881615f20565b92915050565b600082601f83011261484f57600080fd5b813561485f848260208601614758565b91505092915050565b60008135905061487781615f37565b92915050565b60006020828403121561488f57600080fd5b600061489d84828501614796565b91505092915050565b6000806000606084860312156148bb57600080fd5b60006148c986828701614796565b93505060206148da86828701614796565b92505060406148eb86828701614868565b9150509250925092565b60006020828403121561490757600080fd5b600082013567ffffffffffffffff81111561492157600080fd5b61492d848285016147d5565b91505092915050565b6000806040838503121561494957600080fd5b600083013567ffffffffffffffff81111561496357600080fd5b61496f858286016147ff565b925050602083013567ffffffffffffffff81111561498c57600080fd5b614998858286016147ab565b9150509250929050565b600080604083850312156149b557600080fd5b600083013567ffffffffffffffff8111156149cf57600080fd5b6149db8582860161483e565b925050602083013567ffffffffffffffff8111156149f857600080fd5b614a048582860161483e565b9150509250929050565b60008060008060808587031215614a2457600080fd5b600085013567ffffffffffffffff811115614a3e57600080fd5b614a4a8782880161483e565b945050602085013567ffffffffffffffff811115614a6757600080fd5b614a738782880161483e565b935050604085013567ffffffffffffffff811115614a9057600080fd5b614a9c878288016147d5565b9250506060614aad87828801614829565b91505092959194509250565b60008060008060808587031215614acf57600080fd5b600085013567ffffffffffffffff811115614ae957600080fd5b614af58782880161483e565b945050602085013567ffffffffffffffff811115614b1257600080fd5b614b1e8782880161483e565b935050604085013567ffffffffffffffff811115614b3b57600080fd5b614b478782880161483e565b925050606085013567ffffffffffffffff811115614b6457600080fd5b614b70878288016147d5565b91505092959194509250565b600080600080600060a08688031215614b9457600080fd5b600086013567ffffffffffffffff811115614bae57600080fd5b614bba8882890161483e565b955050602086013567ffffffffffffffff811115614bd757600080fd5b614be38882890161483e565b945050604086013567ffffffffffffffff811115614c0057600080fd5b614c0c8882890161483e565b935050606086013567ffffffffffffffff811115614c2957600080fd5b614c35888289016147d5565b9250506080614c4688828901614868565b9150509295509295909350565b600060208284031215614c6557600080fd5b6000614c7384828501614868565b91505092915050565b60008060408385031215614c8f57600080fd5b6000614c9d85828601614868565b9250506020614cae85828601614829565b9150509250929050565b60008060408385031215614ccb57600080fd5b6000614cd985828601614868565b925050602083013567ffffffffffffffff811115614cf657600080fd5b614d028582860161483e565b9150509250929050565b600080600060608486031215614d2157600080fd5b6000614d2f86828701614868565b9350506020614d4086828701614868565b9250506040614d5186828701614829565b9150509250925092565b6000614d678383615156565b905092915050565b6000614d7b8383615348565b905092915050565b6000614d8f83836153f9565b905092915050565b6000614da3838361546f565b905092915050565b6000614db783836154f8565b905092915050565b6000614dcb83836155d2565b905092915050565b6000614ddf8383615635565b905092915050565b614df081615c81565b82525050565b6000614e0182615aab565b614e0b8185615b5e565b935083602082028501614e1d85615a3b565b8060005b85811015614e595784840389528151614e3a8582614d5b565b9450614e4583615b03565b925060208a01995050600181019050614e21565b50829750879550505050505092915050565b6000614e7682615ab6565b614e808185615b6f565b935083602082028501614e9285615a4b565b8060005b85811015614ece5784840389528151614eaf8582614d6f565b9450614eba83615b10565b925060208a01995050600181019050614e96565b50829750879550505050505092915050565b6000614eeb82615ac1565b614ef58185615b80565b935083602082028501614f0785615a5b565b8060005b85811015614f435784840389528151614f248582614d83565b9450614f2f83615b1d565b925060208a01995050600181019050614f0b565b50829750879550505050505092915050565b6000614f6082615acc565b614f6a8185615b91565b935083602082028501614f7c85615a6b565b8060005b85811015614fb85784840389528151614f998582614d97565b9450614fa483615b2a565b925060208a01995050600181019050614f80565b50829750879550505050505092915050565b6000614fd582615ad7565b614fdf8185615ba2565b935083602082028501614ff185615a7b565b8060005b8581101561502d578484038952815161500e8582614dab565b945061501983615b37565b925060208a01995050600181019050614ff5565b50829750879550505050505092915050565b600061504a82615ae2565b6150548185615bb3565b93508360208202850161506685615a8b565b8060005b858110156150a257848403895281516150838582614dbf565b945061508e83615b44565b925060208a0199505060018101905061506a565b50829750879550505050505092915050565b60006150bf82615aed565b6150c98185615bc4565b9350836020820285016150db85615a9b565b8060005b8581101561511757848403895281516150f88582614dd3565b945061510383615b51565b925060208a019950506001810190506150df565b50829750879550505050505092915050565b61513281615c93565b82525050565b61514181615c93565b82525050565b61515081615c9f565b82525050565b600061516182615af8565b61516b8185615bd5565b935061517b818560208601615ce2565b61518481615ef8565b840191505092915050565b600061519a82615af8565b6151a48185615be6565b93506151b4818560208601615ce2565b6151bd81615ef8565b840191505092915050565b60006151d5601583615be6565b91507f53637265656e73686f74204e6f742045786973747300000000000000000000006000830152602082019050919050565b6000615215600983615be6565b91507f48617320766f74656400000000000000000000000000000000000000000000006000830152602082019050919050565b6000615255600f83615be6565b91507f506f7374204e6f742045786973747300000000000000000000000000000000006000830152602082019050919050565b6000615295600e83615be6565b91507f55736572204e6f7420466f756e640000000000000000000000000000000000006000830152602082019050919050565b60006152d5600f83615be6565b91507f43617365204e6f742045786973747300000000000000000000000000000000006000830152602082019050919050565b6000615315600f83615be6565b91507f5461736b204e6f742045786973747300000000000000000000000000000000006000830152602082019050919050565b600060e0830160008301516153606000860182615708565b50602083015184820360208601526153788282615156565b915050604083015184820360408601526153928282615156565b915050606083015184820360608601526153ac8282615156565b91505060808301516153c16080860182615708565b5060a083015184820360a08601526153d98282614df6565b91505060c08301516153ee60c0860182615708565b508091505092915050565b600060a0830160008301516154116000860182615708565b5060208301516154246020860182614de7565b506040830151848203604086015261543c8282614df6565b91505060608301516154516060860182615129565b5060808301516154646080860182615708565b508091505092915050565b600060c0830160008301516154876000860182615708565b50602083015161549a6020860182615708565b5060408301516154ad6040860182615708565b5060608301516154c06060860182615708565b50608083015184820360808601526154d88282615156565b91505060a08301516154ed60a0860182614de7565b508091505092915050565b6000610120830160008301516155116000860182615708565b5060208301516155246020860182615708565b5060408301516155376040860182615708565b50606083015161554a6060860182615708565b50608083015184820360808601526155628282615156565b91505060a083015184820360a086015261557c8282615156565b91505060c083015184820360c08601526155968282615156565b91505060e083015184820360e08601526155b08282614df6565b9150506101008301516155c7610100860182614de7565b508091505092915050565b60006080830160008301516155ea6000860182615708565b50602083015184820360208601526156028282615156565b91505060408301516156176040860182615708565b50606083015161562a6060860182614de7565b508091505092915050565b60006101208301600083015161564e6000860182615708565b50602083015184820360208601526156668282615156565b915050604083015184820360408601526156808282615156565b91505060608301516156956060860182615708565b5060808301516156a86080860182615708565b5060a08301516156bb60a0860182615129565b5060c083015184820360c08601526156d38282614df6565b91505060e08301516156e860e0860182615129565b506101008301516156fd610100860182615129565b508091505092915050565b61571181615cc9565b82525050565b61572081615cc9565b82525050565b600060208201905081810360008301526157408184614e6b565b905092915050565b600060208201905081810360008301526157628184614ee0565b905092915050565b600060208201905081810360008301526157848184614f55565b905092915050565b600060208201905081810360008301526157a68184614fca565b905092915050565b600060208201905081810360008301526157c8818461503f565b905092915050565b600060208201905081810360008301526157ea81846150b4565b905092915050565b60006020820190506158076000830184615138565b92915050565b60006040820190506158226000830185615147565b61582f6020830184615717565b9392505050565b6000602082019050818103600083015261584f816151c8565b9050919050565b6000602082019050818103600083015261586f81615208565b9050919050565b6000602082019050818103600083015261588f81615248565b9050919050565b600060208201905081810360008301526158af81615288565b9050919050565b600060208201905081810360008301526158cf816152c8565b9050919050565b600060208201905081810360008301526158ef81615308565b9050919050565b600060208201905061590b6000830184615717565b92915050565b60006060820190506159266000830186615717565b8181036020830152615938818561518f565b9050818103604083015261594c818461518f565b9050949350505050565b6000604051905081810181811067ffffffffffffffff8211171561597d5761597c615ec9565b5b8060405250919050565b600067ffffffffffffffff8211156159a2576159a1615ec9565b5b602082029050602081019050919050565b600067ffffffffffffffff8211156159ce576159cd615ec9565b5b602082029050602081019050919050565b600067ffffffffffffffff8211156159fa576159f9615ec9565b5b602082029050602081019050919050565b600067ffffffffffffffff821115615a2657615a25615ec9565b5b601f19601f8301169050602081019050919050565b6000819050602082019050919050565b6000819050602082019050919050565b6000819050602082019050919050565b6000819050602082019050919050565b6000819050602082019050919050565b6000819050602082019050919050565b6000819050602082019050919050565b600081519050919050565b600081519050919050565b600081519050919050565b600081519050919050565b600081519050919050565b600081519050919050565b600081519050919050565b600081519050919050565b6000602082019050919050565b6000602082019050919050565b6000602082019050919050565b6000602082019050919050565b6000602082019050919050565b6000602082019050919050565b6000602082019050919050565b600082825260208201905092915050565b600082825260208201905092915050565b600082825260208201905092915050565b600082825260208201905092915050565b600082825260208201905092915050565b600082825260208201905092915050565b600082825260208201905092915050565b600082825260208201905092915050565b600082825260208201905092915050565b6000615c0282615cc9565b9150615c0d83615cc9565b9250827fffffffffffffffffffffffffffffffffffffffffffffffffffffffffffffffff03821115615c4257615c41615e6b565b5b828201905092915050565b6000615c5882615cc9565b9150615c6383615cc9565b925082821015615c7657615c75615e6b565b5b828203905092915050565b6000615c8c82615ca9565b9050919050565b60008115159050919050565b6000819050919050565b600073ffffffffffffffffffffffffffffffffffffffff82169050919050565b6000819050919050565b82818337600083830152505050565b60005b83811015615d00578082015181840152602081019050615ce5565b83811115615d0f576000848401525b50505050565b6000615d2082615c9f565b91507f8000000000000000000000000000000000000000000000000000000000000000821415615d5357615d52615e6b565b5b600182039050919050565b60006002820490506001821680615d7657607f821691505b60208210811415615d8a57615d89615e9a565b5b50919050565b6000615d9b82615c9f565b91507f7fffffffffffffffffffffffffffffffffffffffffffffffffffffffffffffff821415615dce57615dcd615e6b565b5b600182019050919050565b6000615de482615cc9565b91507fffffffffffffffffffffffffffffffffffffffffffffffffffffffffffffffff821415615e1757615e16615e6b565b5b600182019050919050565b6000615e2d82615c9f565b91507f8000000000000000000000000000000000000000000000000000000000000000821415615e6057615e5f615e6b565b5b816000039050919050565b7f4e487b7100000000000000000000000000000000000000000000000000000000600052601160045260246000fd5b7f4e487b7100000000000000000000000000000000000000000000000000000000600052602260045260246000fd5b7f4e487b7100000000000000000000000000000000000000000000000000000000600052604160045260246000fd5b6000601f19601f8301169050919050565b615f1281615c81565b8114615f1d57600080fd5b50565b615f2981615c93565b8114615f3457600080fd5b50565b615f4081615cc9565b8114615f4b57600080fd5b5056fea2646970667358221220c8bc722eb79280c2a45303c7675fd8e35d2485aa6716885d0a7742e6875ba32464736f6c63430008000033",
  "immutableReferences": {},
  "source": "//  \n// \n\n// SPDX-License-Identifier: MIT\npragma solidity >=0.4.21 <0.9.0;\n\nimport \"./TokenERC20.sol\";\n// interface \ncontract AntiFraud {\n    // \n    //  -> \n    // \n    uint256 totalCredit;\n    // \n    address administrator;\n    // \n    mapping(address => uint) balanceOf;\n    //  -> id\n    uint policeIndex;\n    //  -> id\n    uint civilIndex;\n    //  -> id\n    uint screenshotIndex;\n    //  -> id\n    uint caseIndex;\n    //  -> id\n    uint taskIndex;\n    //  -> id\n    uint postsIndex;\n\n    constructor() {\n        totalCredit = 100;\n        // Soliditymsg.sender\n        administrator = msg.sender;\n        // \n        balanceOf[msg.sender] = totalCredit;\n        // 0\n        policeIndex = 0;\n        civilIndex = 0;\n        screenshotIndex = 0;\n        caseIndex = 0;\n        taskIndex = 0;\n        postsIndex = 0;\n    }\n    // get\n    function _getBalanceOf(address _userAdd) internal view returns (uint) {\n        return (balanceOf[_userAdd]);\n    }\n    function getBalanceOf(address _userAdd) external view returns (uint) {\n        return _getBalanceOf(_userAdd);\n    }\n    // \n    function _transfer(address _from, address _to, uint _val) internal returns (bool) {\n        bool success = false;\n        if (balanceOf[_from] >= _val) {\n            balanceOf[_from] -= _val;\n            balanceOf[_to] += _val;\n            success = true;\n        }\n        return success;\n    }\n    function transfer(address _from, address _to, uint _val) external returns (bool) {\n        return _transfer(_from, _to, _val);\n    }\n    // // get\n    // function getBalanceOf(address _contractAdd, address _userAdd) external view returns (uint) {\n    //     return ERC20Basic(_contractAdd).balanceOf(_userAdd);\n    // }\n    // // \n    // function creditApprove(address _contractAdd, address _approver, uint _val) external {\n    //     ERC20Basic(_contractAdd).approve(_approver, _val);\n    // }\n    // // \n    // function creditTransfer(address _contractAdd, address _reciver, uint _val) external returns (bool) {\n    //     return ERC20Basic(_contractAdd).transfer(_reciver, _val);\n    // }\n    // // call\n    // function callTransfer(address _contractAdd) external {\n    //     (bool success) = _contractAdd.call(\n    //         abi.encodeWithSignature(\n    //             \"transfer(address,uint256)\", 0xF58E5Fdda92689241C6114b9746AEE529fB7671C, 1 \n    //         )\n    //     );\n    //     require(success, \"failed\");\n    // }\n    // \n    struct Police {\n        // id\n        uint id;\n        // \n        string name;\n        // \n        string avatarLink;\n    }\n    // \n    // mapping(uint => address) policeIdToAddress;\n    // \n    mapping(address => Police) policeList;\n    // get\n    function getPoliceUser(address _policeUserAddress) external view returns (uint, string memory, string memory) {\n        Police memory police = policeList[_policeUserAddress];\n        require(police.id != 0, \"User Not Found\");\n        return (police.id, police.name, police.avatarLink);\n    }\n    // \n    function createPoliceUser(string memory _name, string memory _avatarLink) external {\n        // \n        Police storage police = policeList[msg.sender];\n        // id\n        police.id = ++policeIndex;\n        // \n        police.name = _name;\n        // \n        police.avatarLink = _avatarLink;\n    }\n    // \n    struct Civil {\n        // id\n        uint id;\n        // \n        string name;\n        // \n        string avatarLink;\n    }\n    // \n    mapping(address => Civil) civilList;\n    // get\n    function getCivilUser(address _civilUserAddress) external view returns (uint, string memory, string memory) {\n        Civil memory civil = civilList[_civilUserAddress];\n        require(civil.id != 0, \"User Not Found\");\n        return (civil.id, civil.name, civil.avatarLink); \n    }\n    // \n    function createCivilUser(string memory _name, string memory _avatarLink) external {\n        // \n        Civil storage civil = civilList[msg.sender];\n        // id\n        civil.id = ++civilIndex;\n        // \n        civil.name = _name;\n        // \n        civil.avatarLink = _avatarLink;\n    }\n    // \n    //  \n    struct FraudScreenshot {\n        // id\n        uint id;\n        // \n        address auditPoliceUser;\n        // ipfs\n        string[] screenshotLink;\n        // \n        bool isValid;\n        // \n        uint postTime;\n    }\n    // (id)\n    mapping(uint => address) screenshotIdToPostCivilUser;\n    // \n    mapping(address => FraudScreenshot[]) screenshotList;\n    // \n    mapping(address => FraudScreenshot[]) historyScreenshotAudit;\n    // \n    mapping(uint => FraudScreenshot) allSList;\n    // \n    function postScreenshot(string[] memory _screenshotLink) external {\n        // \n        screenshotIdToPostCivilUser[screenshotIndex] = msg.sender;\n        \n        FraudScreenshot memory fraudScreenshot;\n        // id\n        fraudScreenshot.id = screenshotIndex;           \n        // \n        fraudScreenshot.auditPoliceUser = address(0);\n        //  \n        fraudScreenshot.postTime = block.timestamp;\n        //    \n        fraudScreenshot.screenshotLink = _screenshotLink; \n        //   \n        fraudScreenshot.isValid = false;\n        // \n        screenshotList[msg.sender].push(fraudScreenshot);\n        // \n        allSList[screenshotIndex] = fraudScreenshot;\n        // \n        screenshotIndex++;\n    }\n    // get\n    function getScreenshotList() external view returns (FraudScreenshot[] memory) {\n        // require(screenshotIndex > 0, \"No Screenshot Found\");\n        // \n        FraudScreenshot[] memory _List = new FraudScreenshot[](screenshotIndex);\n        // //  \n        // FraudScreenshot memory screenshot;\n        // address _address;\n        // // TODO i < address \n        // // address = 1\n        // for (uint i = 0; i < 1; i++) {\n        //     _address = screenshotIdToPostCivilUser[i];\n        //     for (uint j = 0; j < screenshotList[_address].length; j++) {\n        //         screenshot = screenshotList[_address][j];\n        //         _List[j] = screenshot;\n        //     }\n        // }\n        for (uint i = 0; i < screenshotIndex; i++) {\n            _List[i] = allSList[i];\n        }\n        return (_List);\n    }\n    // get\n    function getHistoryPost() external view returns (FraudScreenshot[] memory) {\n        // require(screenshotIndex > 0, \"No Screenshot Found\");\n        return screenshotList[msg.sender];\n    }\n    // get\n    function getHistoryAudit() external view returns (FraudScreenshot[] memory) {\n        // require(screenshotIndex > 0, \"No Screenshot Found\");\n        return historyScreenshotAudit[msg.sender];\n    }\n    // \n    function auditScreenshot(uint[] memory _screenshotIndex, bool[] memory _isVaild) external {\n        for (uint i = 0; i < _screenshotIndex.length; i++) {\n            require(_screenshotIndex[i] <= screenshotIndex, \"Screenshot Not Exists\");\n            // \n            allSList[_screenshotIndex[i]].isValid = _isVaild[i];\n            // \n            allSList[_screenshotIndex[i]].auditPoliceUser = msg.sender;\n            // TODO \n\n            // \n            historyScreenshotAudit[msg.sender].push(allSList[_screenshotIndex[i]]);\n            // +2\n            _transfer(administrator, msg.sender, 2);\n            //  +5\n            if (_isVaild[i]) {  \n                _transfer(administrator, screenshotIdToPostCivilUser[_screenshotIndex[i]], 5);\n            }\n        }\n    }\n    // \n    //  \n    struct FraudCase {\n        // id\n        uint id;\n        // \n        string title;\n        // \n        string tag;\n        // \n        string description;\n        // \n        uint postTime;\n        // ipfs\n        string[] caseImageLink;\n        // \n        // 0/\n        // 1\n        // 2\n        // 3\n        // 4 /\n        uint state;\n    }\n    // (id)\n    mapping(uint => address) caseIdToPostUser;\n    // \n    mapping(address => FraudCase[]) caseList;\n    // \n    mapping(address => FraudCase[]) historyCaseAudit;\n    // \n    mapping(uint => FraudCase) allCaseList;\n    //  -> \n    function postCase(string memory _title, string memory _tag, string memory _description, string[] memory _caseImageLink) external {\n        // \n        FraudCase memory fraudCase;\n        // id\n        fraudCase.id = caseIndex;\n        // \n        fraudCase.postTime = block.timestamp;\n        fraudCase.title = _title;\n        fraudCase.tag = _tag;\n        fraudCase.description = _description;\n        // \n        fraudCase.caseImageLink = _caseImageLink;\n        // \n        fraudCase.state = 1;\n        // \n        caseIdToPostUser[caseIndex] = msg.sender;\n        // \n        caseList[msg.sender].push(fraudCase);\n        // \n        allCaseList[caseIndex] = fraudCase;\n        // \n        caseIndex++;\n    } \n    // get\n    function getCase() external view returns (FraudCase[] memory) {\n        // require(caseIndex > 0, \"No Case Found\");\n        FraudCase[] memory _List = new FraudCase[](caseIndex);\n        for (uint i = 0; i < caseIndex; i++) {\n            _List[i] = allCaseList[i];\n        }\n        return (_List);\n    }\n    // \n    //   => \n    mapping(uint => int) voteCountOfCase;\n    // \n    mapping(uint => uint) totalVotedOfCase;\n    //  \n    mapping(uint => mapping(address => bool)) isVotedThisAddress;\n    // \n    function getIsVoted(uint _caseIndex) external view returns (bool) {\n        return isVotedThisAddress[_caseIndex][msg.sender];\n    }\n    // get\n    function getVoteCountOf(uint _caseIndex) external view returns (int, uint) {\n        require(_caseIndex <= caseIndex, \"Case Not Exists\");\n        return (voteCountOfCase[_caseIndex], totalVotedOfCase[_caseIndex]);\n    }\n    // \n    function vote(uint _caseIndex, bool isValid) external {\n        require(isVotedThisAddress[_caseIndex][msg.sender] == false, \"Has voted\");\n        require(_caseIndex <= caseIndex, \"Case Not Exists\");\n        isVotedThisAddress[_caseIndex][msg.sender] = true;\n        totalVotedOfCase[_caseIndex]++;\n        if (isValid) {\n            voteCountOfCase[_caseIndex]++;\n        } else {\n            voteCountOfCase[_caseIndex]--;\n        }\n        _countCheck(20, _caseIndex);\n        // +1\n        _transfer(administrator, msg.sender, 1);\n    }\n    // \n    function _countCheck(int _checkValue, uint _caseIndex) internal {\n        int count = voteCountOfCase[_caseIndex];\n        // \n        uint _state;\n        if (count > _checkValue) {\n            // \n           _state = 4;\n        } else if (count < -_checkValue) {\n            // \n            _state = 0;\n        } else if (count > 0 && count <= _checkValue) {\n            // 0\n            _state = 2;\n        } else {\n            // 0-\n            _state = 3;\n        }\n        allCaseList[_caseIndex].state = _state;\n    }\n    // \n    function auditCase(uint[] memory _caseIndex, bool[] memory isValid) external {\n        for (uint i = 0; i < _caseIndex.length; i++) {\n            require(_caseIndex[i] <= caseIndex, \"Case Not Exists\");\n            // require(allCaseList[_caseIndex].state == 2 || allCaseList[_caseIndex].state == 3);\n            if (isValid[i]) {\n                allCaseList[_caseIndex[i]].state = 4;\n                // +10\n                _transfer(administrator, caseIdToPostUser[_caseIndex[i]], 10);\n            } else {\n                allCaseList[_caseIndex[i]].state = 0;\n            }\n            // \n            historyCaseAudit[msg.sender].push(allCaseList[_caseIndex[i]]);\n            // +2\n            _transfer(administrator, msg.sender, 2);\n        }\n    }\n    // get\n    function getHistoryCaseAudit() external view returns (FraudCase[] memory) {\n        // require(caseIndex > 0, \"No Case Found\");\n        return historyCaseAudit[msg.sender];\n    }\n    // \n    //  \n    struct Task {\n        // id\n        uint id;\n        // \n        string title;\n        // \n        string description;\n        // \n        uint postTime;\n        //  1\n        uint answerCount;\n        // \n        bool isSolved;\n        // ipfs\n        string[] taskImageLink;\n        // true false\n        bool isAnswerInRush;\n        // \n        bool isAccept;\n    }\n    // (id)\n    mapping(uint => address) taskIdToPostPoliceUser; \n    // \n    mapping(address => Task[]) taskList;\n    // \n    mapping(uint => Task) allTaskList;\n    //  -> \n    // 1.  \n    // 2.  \n    function postTask(string memory _title, string memory _description, string[] memory _taskImageLink, bool _isAnswerInRush) external {\n        // \n        Task memory task;\n        // \n        task.id = taskIndex;\n        // \n        task.postTime = block.timestamp;\n        task.title = _title;\n        task.description = _description;\n        task.answerCount = 0;\n        // \n        task.taskImageLink = _taskImageLink;\n        // \n        task.isSolved = false;\n        // \n        task.isAnswerInRush = _isAnswerInRush;\n        // \n        task.isAccept = false;\n        // \n        taskIdToPostPoliceUser[taskIndex] = msg.sender;\n        // \n        taskList[msg.sender].push(task);\n        // \n        allTaskList[taskIndex] = task;\n        // \n        taskIndex++;\n    }\n    // get\n    function getTask() external view returns (Task[] memory) {\n        // require(taskIndex > 0, \"No Task Found\");\n        Task[] memory _List = new Task[](taskIndex);\n        for (uint i = 0; i < taskIndex; i++) {\n            _List[i] = allTaskList[i];\n        }\n        return (_List);\n    } \n    // id\n    mapping(uint => address) taskIdToAnswerRusher;\n    // \n    function acceptTask(uint _taskIndex) external {\n        allTaskList[_taskIndex].isAccept = true;\n        allTaskList[_taskIndex].answerCount = 1;\n        // \n        taskIdToAnswerRusher[_taskIndex] = msg.sender;\n        // -2\n        _transfer(msg.sender, administrator, 2);\n    }\n    // \n    struct TaskAnswer {\n        // id\n        uint id;\n        // \n        string detail;\n        // \n        uint postTime;\n        // \n        address answerAddress;\n    }\n    // (id)\n    mapping (uint => TaskAnswer[]) answerList;\n    // \n    function postTaskAnswer(uint _taskIndex, string memory _detail) external {\n        // \n        TaskAnswer memory answer;\n        // id\n        answer.id = ++allTaskList[_taskIndex].answerCount;\n        // \n        answer.detail = _detail;\n        // \n        answer.postTime = block.timestamp;\n        // \n        answer.answerAddress = msg.sender;\n        // \n        answerList[_taskIndex].push(answer);\n    }\n    // get\n    function getThisTaskAnswer(uint _taskIndex) external view returns (TaskAnswer[] memory) {\n        require(_taskIndex <= taskIndex, \"Task Not Exists\");\n        TaskAnswer[] memory _List = new TaskAnswer[](allTaskList[_taskIndex].answerCount);\n        for (uint i = 0; i < allTaskList[_taskIndex].answerCount; i++) {\n            _List[i] = answerList[_taskIndex][i];\n        }\n        return _List;\n    }\n    // \n    // \n    function _taskFailed(uint _taskIndex) internal {\n        // \n        allTaskList[_taskIndex].isAccept = false;\n    }\n    // \n    function taskFailed(uint _taskIndex) external {\n        require(_taskIndex <= taskIndex, \"Task Not Exists\");\n        _taskFailed(_taskIndex);\n    }\n    //  \n    function taskCompelte(uint _taskIndex, uint _answerIndex, bool _isAdopt) external {\n        require(_taskIndex <= taskIndex, \"Task Not Exists\");\n        if (_isAdopt) {\n            allTaskList[_taskIndex].isSolved = true;\n            if (allTaskList[_taskIndex].isAnswerInRush) {\n                // +2+10\n                _transfer(administrator, taskIdToAnswerRusher[_taskIndex], 12);\n            } else {\n                // \n                _transfer(administrator, answerList[_taskIndex][_answerIndex].answerAddress, 10);\n            }\n        } else {\n            _taskFailed(_taskIndex);\n        }\n    }\n    // \n    // \n    struct Posts {\n        uint id;\n        uint postTime;\n        // \n        uint reward;\n        // \n        uint replyCounts;\n        string title;\n        string description;\n        // \n        string tag;\n        string[] imageLink;\n        address postUserAdd;\n    }\n    // \n    mapping(uint => Posts) postsList;\n    // \n    function createPosts(string memory _title, string memory _description, string memory _tag, string[] memory _imageLink, uint _reward) external {\n        Posts memory _post;\n        _post.id = postsIndex;\n        _post.postTime = block.timestamp;\n        _post.reward = _reward;\n        _post.replyCounts = 0;\n        _post.title = _title;\n        _post.description = _description;\n        _post.tag = _tag;\n        _post.imageLink = _imageLink;\n        _post.postUserAdd = msg.sender;\n        // \n        postsList[policeIndex] = _post;\n        postsIndex++;\n    }\n    // get\n    function getPostsList() external view returns (Posts[] memory) {\n        // require(postsIndex > 0, \"No Posts Found\");\n        Posts[] memory _List = new Posts[](postsIndex);\n        for (uint i = 0; i < postsIndex; i++) {\n            _List[i] = postsList[i];\n        }\n        return _List;\n    }\n    // \n    struct PostsReply {\n        // id\n        uint postsId;\n        // \n        uint floor;\n        // \n        //  = 1  = 2\n        uint level;\n        uint postTime;\n        // \n        string details;\n        address postUserAdd;\n    }\n    //  id => \n    mapping(uint => PostsReply[]) replyListOfPosts;\n    // \n    function createPostsReply(uint _postsIndex, string memory _details) external {    \n        PostsReply memory _reply;\n        _reply.postsId = _postsIndex;\n        _reply.floor = ++postsList[_postsIndex].replyCounts;\n        _reply.level = 1;\n        _reply.postTime = block.timestamp;\n        _reply.details = _details;\n        _reply.postUserAdd = msg.sender;\n        // \n        replyListOfPosts[_postsIndex].push(_reply);\n    }\n    // // \n    // function createSecondReply(uint _postsIndex, uint floor, string memory _details) external {\n    //     PostsReply memory _reply;\n    //     _reply.postsId = _postsIndex;\n    //     _reply.floor = floor;\n    //     _reply.level = 2;\n    //     _reply.postTime = block.timestamp;\n    //     _reply.details = _details;\n    //     _reply.postUserAdd = msg.sender;\n    //     // \n    //     replyListOfPosts[_postsIndex].push(_reply);\n    // }\n    // get\n    function getThisPostsReply(uint _postsIndex) external view returns (PostsReply[] memory) {\n        require(_postsIndex <= postsIndex, \"Post Not Exists\");\n        PostsReply[] memory _List = new PostsReply[](postsList[_postsIndex].replyCounts);\n        for (uint i = 0; i < postsList[_postsIndex].replyCounts; i++) {\n            _List[i] = replyListOfPosts[_postsIndex][i];\n        }\n        return _List;\n    }\n}",
  "sourcePath": "/Users/peggy_wang/Desktop/workSpace/AntiFraud/contracts/AntiFraud.sol",
  "compiler": {
    "name": "solc",
    "version": "0.8.0+commit.c7dfd78e.Emscripten.clang"
  },
  "schemaVersion": "3.4.6",
  "updatedAt": "2022-04-20T14:09:15.567Z",
  "networkType": "ethereum",
  "devdoc": {
    "kind": "dev",
    "methods": {},
    "version": 1
  },
  "userdoc": {
    "kind": "user",
    "methods": {},
    "version": 1
  }
}